{
	"1_Common.sol": {
		"SolidityByExample": {
			"abi": [
				{
					"inputs": [],
					"name": "MY_ADDRESS",
					"outputs": [
						{
							"internalType": "address",
							"name": "",
							"type": "address"
						}
					],
					"stateMutability": "view",
					"type": "function"
				},
				{
					"inputs": [],
					"name": "addr",
					"outputs": [
						{
							"internalType": "address",
							"name": "",
							"type": "address"
						}
					],
					"stateMutability": "view",
					"type": "function"
				},
				{
					"inputs": [],
					"name": "b",
					"outputs": [
						{
							"internalType": "bool",
							"name": "",
							"type": "bool"
						}
					],
					"stateMutability": "view",
					"type": "function"
				},
				{
					"inputs": [],
					"name": "b32",
					"outputs": [
						{
							"internalType": "bytes32",
							"name": "",
							"type": "bytes32"
						}
					],
					"stateMutability": "view",
					"type": "function"
				},
				{
					"inputs": [],
					"name": "globalVars",
					"outputs": [
						{
							"internalType": "address",
							"name": "",
							"type": "address"
						},
						{
							"internalType": "uint256",
							"name": "",
							"type": "uint256"
						},
						{
							"internalType": "uint256",
							"name": "",
							"type": "uint256"
						}
					],
					"stateMutability": "view",
					"type": "function"
				},
				{
					"inputs": [],
					"name": "i",
					"outputs": [
						{
							"internalType": "int256",
							"name": "",
							"type": "int256"
						}
					],
					"stateMutability": "view",
					"type": "function"
				},
				{
					"inputs": [
						{
							"internalType": "uint256",
							"name": "_x",
							"type": "uint256"
						}
					],
					"name": "ifElse",
					"outputs": [
						{
							"internalType": "uint256",
							"name": "",
							"type": "uint256"
						}
					],
					"stateMutability": "pure",
					"type": "function"
				},
				{
					"inputs": [],
					"name": "loops",
					"outputs": [],
					"stateMutability": "pure",
					"type": "function"
				},
				{
					"inputs": [],
					"name": "maxInt",
					"outputs": [
						{
							"internalType": "int256",
							"name": "",
							"type": "int256"
						}
					],
					"stateMutability": "view",
					"type": "function"
				},
				{
					"inputs": [],
					"name": "minInt",
					"outputs": [
						{
							"internalType": "int256",
							"name": "",
							"type": "int256"
						}
					],
					"stateMutability": "view",
					"type": "function"
				},
				{
					"inputs": [
						{
							"internalType": "uint256",
							"name": "_i",
							"type": "uint256"
						}
					],
					"name": "testRequire",
					"outputs": [],
					"stateMutability": "pure",
					"type": "function"
				},
				{
					"inputs": [
						{
							"internalType": "uint256",
							"name": "_i",
							"type": "uint256"
						}
					],
					"name": "testRevert",
					"outputs": [],
					"stateMutability": "pure",
					"type": "function"
				},
				{
					"inputs": [],
					"name": "u",
					"outputs": [
						{
							"internalType": "uint256",
							"name": "",
							"type": "uint256"
						}
					],
					"stateMutability": "view",
					"type": "function"
				},
				{
					"inputs": [],
					"name": "underflow",
					"outputs": [
						{
							"internalType": "uint256",
							"name": "",
							"type": "uint256"
						}
					],
					"stateMutability": "pure",
					"type": "function"
				}
			],
			"devdoc": {
				"kind": "dev",
				"methods": {},
				"version": 1
			},
			"evm": {
				"assembly": "    /* \"1_Common.sol\":57:2228  contract SolidityByExample {... */\n  mstore(0x40, 0x80)\n    /* \"1_Common.sol\":249:253  true */\n  0x01\n    /* \"1_Common.sol\":233:253  bool public b = true */\n  0x00\n  dup1\n  0x0100\n  exp\n  dup2\n  sload\n  dup2\n  0xff\n  mul\n  not\n  and\n  swap1\n  dup4\n  iszero\n  iszero\n  mul\n  or\n  swap1\n  sstore\n  pop\n    /* \"1_Common.sol\":275:278  123 */\n  0x7b\n    /* \"1_Common.sol\":259:278  uint public u = 123 */\n  0x01\n  sstore\n    /* \"1_Common.sol\":299:303  -123 */\n  0xffffffffffffffffffffffffffffffffffffffffffffffffffffffffffffff85\n    /* \"1_Common.sol\":284:303  int public i = -123 */\n  0x02\n  sstore\n    /* \"1_Common.sol\":329:342  type(int).min */\n  0x8000000000000000000000000000000000000000000000000000000000000000\n    /* \"1_Common.sol\":309:342  int public minInt = type(int).min */\n  0x03\n  sstore\n    /* \"1_Common.sol\":368:381  type(int).min */\n  0x8000000000000000000000000000000000000000000000000000000000000000\n    /* \"1_Common.sol\":348:381  int public maxInt = type(int).min */\n  0x04\n  sstore\n    /* \"1_Common.sol\":409:451  0xCA35b7d915458EF540aDe6068dFe2F44E8fa733c */\n  0xca35b7d915458ef540ade6068dfe2f44e8fa733c\n    /* \"1_Common.sol\":387:451  address public addr = 0xCA35b7d915458EF540aDe6068dFe2F44E8fa733c */\n  0x05\n  exp(0x0100, 0x00)\n  dup2\n  sload\n  dup2\n  0xffffffffffffffffffffffffffffffffffffffff\n  mul\n  not\n  and\n  swap1\n  dup4\n  0xffffffffffffffffffffffffffffffffffffffff\n  and\n  mul\n  or\n  swap1\n  sstore\n  pop\n    /* \"1_Common.sol\":478:544  0x111122223333444455556666777788889999AAAABBBBCCCCDDDDEEEEFFFFCCCC */\n  0x111122223333444455556666777788889999aaaabbbbccccddddeeeeffffcccc\n    /* \"1_Common.sol\":457:544  bytes32 public b32 = 0x111122223333444455556666777788889999AAAABBBBCCCCDDDDEEEEFFFFCCCC */\n  0x00\n  shl\n  0x06\n  sstore\n    /* \"1_Common.sol\":57:2228  contract SolidityByExample {... */\n  callvalue\n  dup1\n  iszero\n  tag_1\n  jumpi\n  0x00\n  dup1\n  revert\ntag_1:\n  pop\n  dataSize(sub_0)\n  dup1\n  dataOffset(sub_0)\n  0x00\n  codecopy\n  0x00\n  return\nstop\n\nsub_0: assembly {\n        /* \"1_Common.sol\":57:2228  contract SolidityByExample {... */\n      mstore(0x40, 0x80)\n      callvalue\n      dup1\n      iszero\n      tag_1\n      jumpi\n      0x00\n      dup1\n      revert\n    tag_1:\n      pop\n      jumpi(tag_2, lt(calldatasize, 0x04))\n      shr(0xe0, calldataload(0x00))\n      dup1\n      0x938b9ceb\n      gt\n      tag_17\n      jumpi\n      dup1\n      0xc6a898c5\n      gt\n      tag_18\n      jumpi\n      dup1\n      0xc6a898c5\n      eq\n      tag_13\n      jumpi\n      dup1\n      0xdc75bec7\n      eq\n      tag_14\n      jumpi\n      dup1\n      0xe5aa3d58\n      eq\n      tag_15\n      jumpi\n      dup1\n      0xf8aab238\n      eq\n      tag_16\n      jumpi\n      jump(tag_2)\n    tag_18:\n      dup1\n      0x938b9ceb\n      eq\n      tag_10\n      jumpi\n      dup1\n      0x950b9954\n      eq\n      tag_11\n      jumpi\n      dup1\n      0xb8bd717f\n      eq\n      tag_12\n      jumpi\n      jump(tag_2)\n    tag_17:\n      dup1\n      0x767800de\n      gt\n      tag_19\n      jumpi\n      dup1\n      0x767800de\n      eq\n      tag_6\n      jumpi\n      dup1\n      0x7a4c2571\n      eq\n      tag_7\n      jumpi\n      dup1\n      0x7e4e14cc\n      eq\n      tag_8\n      jumpi\n      dup1\n      0x7e6230f3\n      eq\n      tag_9\n      jumpi\n      jump(tag_2)\n    tag_19:\n      dup1\n      0x20987767\n      eq\n      tag_3\n      jumpi\n      dup1\n      0x3a756cec\n      eq\n      tag_4\n      jumpi\n      dup1\n      0x4df7e3d0\n      eq\n      tag_5\n      jumpi\n    tag_2:\n      0x00\n      dup1\n      revert\n        /* \"1_Common.sol\":1970:2085  function testRevert(uint _i) public pure {... */\n    tag_3:\n      tag_20\n      0x04\n      dup1\n      calldatasize\n      sub\n      dup2\n      add\n      swap1\n      tag_21\n      swap2\n      swap1\n      tag_22\n      jump\t// in\n    tag_21:\n      tag_23\n      jump\t// in\n    tag_20:\n      stop\n        /* \"1_Common.sol\":550:629  address public constant MY_ADDRESS = 0xCA35b7d915458EF540aDe6068dFe2F44E8fa733c */\n    tag_4:\n      tag_24\n      tag_25\n      jump\t// in\n    tag_24:\n      mload(0x40)\n      tag_26\n      swap2\n      swap1\n      tag_27\n      jump\t// in\n    tag_26:\n      mload(0x40)\n      dup1\n      swap2\n      sub\n      swap1\n      return\n        /* \"1_Common.sol\":233:253  bool public b = true */\n    tag_5:\n      tag_28\n      tag_29\n      jump\t// in\n    tag_28:\n      mload(0x40)\n      tag_30\n      swap2\n      swap1\n      tag_31\n      jump\t// in\n    tag_30:\n      mload(0x40)\n      dup1\n      swap2\n      sub\n      swap1\n      return\n        /* \"1_Common.sol\":387:451  address public addr = 0xCA35b7d915458EF540aDe6068dFe2F44E8fa733c */\n    tag_6:\n      tag_32\n      tag_33\n      jump\t// in\n    tag_32:\n      mload(0x40)\n      tag_34\n      swap2\n      swap1\n      tag_27\n      jump\t// in\n    tag_34:\n      mload(0x40)\n      dup1\n      swap2\n      sub\n      swap1\n      return\n        /* \"1_Common.sol\":348:381  int public maxInt = type(int).min */\n    tag_7:\n      tag_35\n      tag_36\n      jump\t// in\n    tag_35:\n      mload(0x40)\n      tag_37\n      swap2\n      swap1\n      tag_38\n      jump\t// in\n    tag_37:\n      mload(0x40)\n      dup1\n      swap2\n      sub\n      swap1\n      return\n        /* \"1_Common.sol\":309:342  int public minInt = type(int).min */\n    tag_8:\n      tag_39\n      tag_40\n      jump\t// in\n    tag_39:\n      mload(0x40)\n      tag_41\n      swap2\n      swap1\n      tag_38\n      jump\t// in\n    tag_41:\n      mload(0x40)\n      dup1\n      swap2\n      sub\n      swap1\n      return\n        /* \"1_Common.sol\":787:1104  function globalVars() external view returns (address, uint, uint) {... */\n    tag_9:\n      tag_42\n      tag_43\n      jump\t// in\n    tag_42:\n      mload(0x40)\n      tag_44\n      swap4\n      swap3\n      swap2\n      swap1\n      tag_45\n      jump\t// in\n    tag_44:\n      mload(0x40)\n      dup1\n      swap2\n      sub\n      swap1\n      return\n        /* \"1_Common.sol\":1414:1704  function loops() external pure {... */\n    tag_10:\n      tag_46\n      tag_47\n      jump\t// in\n    tag_46:\n      stop\n        /* \"1_Common.sol\":1128:1395  function ifElse(uint _x) external pure returns (uint) {... */\n    tag_11:\n      tag_48\n      0x04\n      dup1\n      calldatasize\n      sub\n      dup2\n      add\n      swap1\n      tag_49\n      swap2\n      swap1\n      tag_22\n      jump\t// in\n    tag_49:\n      tag_50\n      jump\t// in\n    tag_48:\n      mload(0x40)\n      tag_51\n      swap2\n      swap1\n      tag_52\n      jump\t// in\n    tag_51:\n      mload(0x40)\n      dup1\n      swap2\n      sub\n      swap1\n      return\n        /* \"1_Common.sol\":1836:1965  function testRequire(uint _i) public pure {... */\n    tag_12:\n      tag_53\n      0x04\n      dup1\n      calldatasize\n      sub\n      dup2\n      add\n      swap1\n      tag_54\n      swap2\n      swap1\n      tag_22\n      jump\t// in\n    tag_54:\n      tag_55\n      jump\t// in\n    tag_53:\n      stop\n        /* \"1_Common.sol\":259:278  uint public u = 123 */\n    tag_13:\n      tag_56\n      tag_57\n      jump\t// in\n    tag_56:\n      mload(0x40)\n      tag_58\n      swap2\n      swap1\n      tag_52\n      jump\t// in\n    tag_58:\n      mload(0x40)\n      dup1\n      swap2\n      sub\n      swap1\n      return\n        /* \"1_Common.sol\":2107:2226  function underflow() public pure returns (uint){... */\n    tag_14:\n      tag_59\n      tag_60\n      jump\t// in\n    tag_59:\n      mload(0x40)\n      tag_61\n      swap2\n      swap1\n      tag_52\n      jump\t// in\n    tag_61:\n      mload(0x40)\n      dup1\n      swap2\n      sub\n      swap1\n      return\n        /* \"1_Common.sol\":284:303  int public i = -123 */\n    tag_15:\n      tag_62\n      tag_63\n      jump\t// in\n    tag_62:\n      mload(0x40)\n      tag_64\n      swap2\n      swap1\n      tag_38\n      jump\t// in\n    tag_64:\n      mload(0x40)\n      dup1\n      swap2\n      sub\n      swap1\n      return\n        /* \"1_Common.sol\":457:544  bytes32 public b32 = 0x111122223333444455556666777788889999AAAABBBBCCCCDDDDEEEEFFFFCCCC */\n    tag_16:\n      tag_65\n      tag_66\n      jump\t// in\n    tag_65:\n      mload(0x40)\n      tag_67\n      swap2\n      swap1\n      tag_68\n      jump\t// in\n    tag_67:\n      mload(0x40)\n      dup1\n      swap2\n      sub\n      swap1\n      return\n        /* \"1_Common.sol\":1970:2085  function testRevert(uint _i) public pure {... */\n    tag_23:\n      pop\n      jump\t// out\n        /* \"1_Common.sol\":550:629  address public constant MY_ADDRESS = 0xCA35b7d915458EF540aDe6068dFe2F44E8fa733c */\n    tag_25:\n        /* \"1_Common.sol\":587:629  0xCA35b7d915458EF540aDe6068dFe2F44E8fa733c */\n      0xca35b7d915458ef540ade6068dfe2f44e8fa733c\n        /* \"1_Common.sol\":550:629  address public constant MY_ADDRESS = 0xCA35b7d915458EF540aDe6068dFe2F44E8fa733c */\n      dup2\n      jump\t// out\n        /* \"1_Common.sol\":233:253  bool public b = true */\n    tag_29:\n      0x00\n      dup1\n      sload\n      swap1\n      0x0100\n      exp\n      swap1\n      div\n      0xff\n      and\n      dup2\n      jump\t// out\n        /* \"1_Common.sol\":387:451  address public addr = 0xCA35b7d915458EF540aDe6068dFe2F44E8fa733c */\n    tag_33:\n      0x05\n      0x00\n      swap1\n      sload\n      swap1\n      0x0100\n      exp\n      swap1\n      div\n      0xffffffffffffffffffffffffffffffffffffffff\n      and\n      dup2\n      jump\t// out\n        /* \"1_Common.sol\":348:381  int public maxInt = type(int).min */\n    tag_36:\n      sload(0x04)\n      dup2\n      jump\t// out\n        /* \"1_Common.sol\":309:342  int public minInt = type(int).min */\n    tag_40:\n      sload(0x03)\n      dup2\n      jump\t// out\n        /* \"1_Common.sol\":787:1104  function globalVars() external view returns (address, uint, uint) {... */\n    tag_43:\n        /* \"1_Common.sol\":832:839  address */\n      0x00\n        /* \"1_Common.sol\":841:845  uint */\n      dup1\n        /* \"1_Common.sol\":847:851  uint */\n      0x00\n        /* \"1_Common.sol\":863:877  address sender */\n      dup1\n        /* \"1_Common.sol\":880:890  msg.sender */\n      caller\n        /* \"1_Common.sol\":863:890  address sender = msg.sender */\n      swap1\n      pop\n        /* \"1_Common.sol\":910:924  uint timestamp */\n      0x00\n        /* \"1_Common.sol\":927:942  block.timestamp */\n      timestamp\n        /* \"1_Common.sol\":910:942  uint timestamp = block.timestamp */\n      swap1\n      pop\n        /* \"1_Common.sol\":999:1012  uint blockNum */\n      0x00\n        /* \"1_Common.sol\":1015:1027  block.number */\n      number\n        /* \"1_Common.sol\":999:1027  uint blockNum = block.number */\n      swap1\n      pop\n        /* \"1_Common.sol\":1069:1075  sender */\n      dup3\n        /* \"1_Common.sol\":1077:1086  timestamp */\n      dup3\n        /* \"1_Common.sol\":1088:1096  blockNum */\n      dup3\n        /* \"1_Common.sol\":1061:1097  return (sender, timestamp, blockNum) */\n      swap6\n      pop\n      swap6\n      pop\n      swap6\n      pop\n      pop\n      pop\n      pop\n        /* \"1_Common.sol\":787:1104  function globalVars() external view returns (address, uint, uint) {... */\n      swap1\n      swap2\n      swap3\n      jump\t// out\n        /* \"1_Common.sol\":1414:1704  function loops() external pure {... */\n    tag_47:\n        /* \"1_Common.sol\":1460:1466  uint i */\n      0x00\n        /* \"1_Common.sol\":1455:1625  for (uint i = 0; i < 10; i++) {... */\n    tag_72:\n        /* \"1_Common.sol\":1476:1478  10 */\n      0x0a\n        /* \"1_Common.sol\":1472:1473  i */\n      dup2\n        /* \"1_Common.sol\":1472:1478  i < 10 */\n      lt\n        /* \"1_Common.sol\":1455:1625  for (uint i = 0; i < 10; i++) {... */\n      iszero\n      tag_73\n      jumpi\n        /* \"1_Common.sol\":1508:1509  3 */\n      0x03\n        /* \"1_Common.sol\":1503:1504  i */\n      dup2\n        /* \"1_Common.sol\":1503:1509  i == 3 */\n      sub\n        /* \"1_Common.sol\":1499:1552  if (i == 3) {... */\n      iszero\n        /* \"1_Common.sol\":1529:1537  continue */\n      tag_74\n        /* \"1_Common.sol\":1499:1552  if (i == 3) {... */\n      jumpi\n        /* \"1_Common.sol\":1574:1575  5 */\n      0x05\n        /* \"1_Common.sol\":1569:1570  i */\n      dup2\n        /* \"1_Common.sol\":1569:1575  i == 5 */\n      sub\n        /* \"1_Common.sol\":1565:1615  if (i == 5) {... */\n      iszero\n        /* \"1_Common.sol\":1595:1600  break */\n      tag_73\n        /* \"1_Common.sol\":1565:1615  if (i == 5) {... */\n      jumpi\n        /* \"1_Common.sol\":1455:1625  for (uint i = 0; i < 10; i++) {... */\n    tag_74:\n        /* \"1_Common.sol\":1480:1483  i++ */\n      dup1\n      dup1\n      tag_77\n      swap1\n      tag_78\n      jump\t// in\n    tag_77:\n      swap2\n      pop\n      pop\n        /* \"1_Common.sol\":1455:1625  for (uint i = 0; i < 10; i++) {... */\n      jump(tag_72)\n    tag_73:\n      pop\n        /* \"1_Common.sol\":1635:1641  uint j */\n      0x00\n        /* \"1_Common.sol\":1655:1698  while (j < 10) {... */\n    tag_79:\n        /* \"1_Common.sol\":1666:1668  10 */\n      0x0a\n        /* \"1_Common.sol\":1662:1663  j */\n      dup2\n        /* \"1_Common.sol\":1662:1668  j < 10 */\n      lt\n        /* \"1_Common.sol\":1655:1698  while (j < 10) {... */\n      iszero\n      tag_80\n      jumpi\n        /* \"1_Common.sol\":1684:1687  j++ */\n      dup1\n      dup1\n      tag_81\n      swap1\n      tag_78\n      jump\t// in\n    tag_81:\n      swap2\n      pop\n      pop\n        /* \"1_Common.sol\":1655:1698  while (j < 10) {... */\n      jump(tag_79)\n    tag_80:\n        /* \"1_Common.sol\":1445:1704  {... */\n      pop\n        /* \"1_Common.sol\":1414:1704  function loops() external pure {... */\n      jump\t// out\n        /* \"1_Common.sol\":1128:1395  function ifElse(uint _x) external pure returns (uint) {... */\n    tag_50:\n        /* \"1_Common.sol\":1176:1180  uint */\n      0x00\n        /* \"1_Common.sol\":1201:1203  10 */\n      0x0a\n        /* \"1_Common.sol\":1196:1198  _x */\n      dup3\n        /* \"1_Common.sol\":1196:1203  _x < 10 */\n      lt\n        /* \"1_Common.sol\":1192:1328  if (_x < 10){... */\n      iszero\n      tag_83\n      jumpi\n        /* \"1_Common.sol\":1225:1226  1 */\n      0x01\n        /* \"1_Common.sol\":1218:1226  return 1 */\n      swap1\n      pop\n      jump(tag_82)\n        /* \"1_Common.sol\":1192:1328  if (_x < 10){... */\n    tag_83:\n        /* \"1_Common.sol\":1252:1254  20 */\n      0x14\n        /* \"1_Common.sol\":1247:1249  _x */\n      dup3\n        /* \"1_Common.sol\":1247:1254  _x < 20 */\n      lt\n        /* \"1_Common.sol\":1243:1328  if (_x < 20) {... */\n      iszero\n      tag_85\n      jumpi\n        /* \"1_Common.sol\":1277:1278  2 */\n      0x02\n        /* \"1_Common.sol\":1270:1278  return 2 */\n      swap1\n      pop\n      jump(tag_82)\n        /* \"1_Common.sol\":1243:1328  if (_x < 20) {... */\n    tag_85:\n        /* \"1_Common.sol\":1316:1317  3 */\n      0x03\n        /* \"1_Common.sol\":1309:1317  return 3 */\n      swap1\n      pop\n        /* \"1_Common.sol\":1128:1395  function ifElse(uint _x) external pure returns (uint) {... */\n    tag_82:\n      swap2\n      swap1\n      pop\n      jump\t// out\n        /* \"1_Common.sol\":1836:1965  function testRequire(uint _i) public pure {... */\n    tag_55:\n        /* \"1_Common.sol\":1945:1947  10 */\n      0x0a\n        /* \"1_Common.sol\":1939:1941  _i */\n      dup2\n        /* \"1_Common.sol\":1939:1947  _i <= 10 */\n      gt\n      iszero\n        /* \"1_Common.sol\":1931:1958  require(_i <= 10, \"i > 10\") */\n      tag_90\n      jumpi\n      mload(0x40)\n      0x08c379a000000000000000000000000000000000000000000000000000000000\n      dup2\n      mstore\n      0x04\n      add\n      tag_91\n      swap1\n      tag_92\n      jump\t// in\n    tag_91:\n      mload(0x40)\n      dup1\n      swap2\n      sub\n      swap1\n      revert\n    tag_90:\n        /* \"1_Common.sol\":1836:1965  function testRequire(uint _i) public pure {... */\n      pop\n      jump\t// out\n        /* \"1_Common.sol\":259:278  uint public u = 123 */\n    tag_57:\n      sload(0x01)\n      dup2\n      jump\t// out\n        /* \"1_Common.sol\":2107:2226  function underflow() public pure returns (uint){... */\n    tag_60:\n        /* \"1_Common.sol\":2149:2153  uint */\n      0x00\n        /* \"1_Common.sol\":2164:2170  uint x */\n      dup1\n        /* \"1_Common.sol\":2173:2174  0 */\n      0x00\n        /* \"1_Common.sol\":2164:2174  uint x = 0 */\n      swap1\n      pop\n        /* \"1_Common.sol\":2196:2199  x-- */\n      dup1\n      dup1\n      0x01\n      swap1\n      sub\n      swap2\n      pop\n      pop\n        /* \"1_Common.sol\":2218:2219  x */\n      dup1\n        /* \"1_Common.sol\":2211:2219  return x */\n      swap2\n      pop\n      pop\n        /* \"1_Common.sol\":2107:2226  function underflow() public pure returns (uint){... */\n      swap1\n      jump\t// out\n        /* \"1_Common.sol\":284:303  int public i = -123 */\n    tag_63:\n      sload(0x02)\n      dup2\n      jump\t// out\n        /* \"1_Common.sol\":457:544  bytes32 public b32 = 0x111122223333444455556666777788889999AAAABBBBCCCCDDDDEEEEFFFFCCCC */\n    tag_66:\n      sload(0x06)\n      dup2\n      jump\t// out\n        /* \"#utility.yul\":88:205   */\n    tag_95:\n        /* \"#utility.yul\":197:198   */\n      0x00\n        /* \"#utility.yul\":194:195   */\n      dup1\n        /* \"#utility.yul\":187:199   */\n      revert\n        /* \"#utility.yul\":334:411   */\n    tag_97:\n        /* \"#utility.yul\":371:378   */\n      0x00\n        /* \"#utility.yul\":400:405   */\n      dup2\n        /* \"#utility.yul\":389:405   */\n      swap1\n      pop\n        /* \"#utility.yul\":334:411   */\n      swap2\n      swap1\n      pop\n      jump\t// out\n        /* \"#utility.yul\":417:539   */\n    tag_98:\n        /* \"#utility.yul\":490:514   */\n      tag_120\n        /* \"#utility.yul\":508:513   */\n      dup2\n        /* \"#utility.yul\":490:514   */\n      tag_97\n      jump\t// in\n    tag_120:\n        /* \"#utility.yul\":483:488   */\n      dup2\n        /* \"#utility.yul\":480:515   */\n      eq\n        /* \"#utility.yul\":470:533   */\n      tag_121\n      jumpi\n        /* \"#utility.yul\":529:530   */\n      0x00\n        /* \"#utility.yul\":526:527   */\n      dup1\n        /* \"#utility.yul\":519:531   */\n      revert\n        /* \"#utility.yul\":470:533   */\n    tag_121:\n        /* \"#utility.yul\":417:539   */\n      pop\n      jump\t// out\n        /* \"#utility.yul\":545:684   */\n    tag_99:\n        /* \"#utility.yul\":591:596   */\n      0x00\n        /* \"#utility.yul\":629:635   */\n      dup2\n        /* \"#utility.yul\":616:636   */\n      calldataload\n        /* \"#utility.yul\":607:636   */\n      swap1\n      pop\n        /* \"#utility.yul\":645:678   */\n      tag_123\n        /* \"#utility.yul\":672:677   */\n      dup2\n        /* \"#utility.yul\":645:678   */\n      tag_98\n      jump\t// in\n    tag_123:\n        /* \"#utility.yul\":545:684   */\n      swap3\n      swap2\n      pop\n      pop\n      jump\t// out\n        /* \"#utility.yul\":690:1019   */\n    tag_22:\n        /* \"#utility.yul\":749:755   */\n      0x00\n        /* \"#utility.yul\":798:800   */\n      0x20\n        /* \"#utility.yul\":786:795   */\n      dup3\n        /* \"#utility.yul\":777:784   */\n      dup5\n        /* \"#utility.yul\":773:796   */\n      sub\n        /* \"#utility.yul\":769:801   */\n      slt\n        /* \"#utility.yul\":766:885   */\n      iszero\n      tag_125\n      jumpi\n        /* \"#utility.yul\":804:883   */\n      tag_126\n      tag_95\n      jump\t// in\n    tag_126:\n        /* \"#utility.yul\":766:885   */\n    tag_125:\n        /* \"#utility.yul\":924:925   */\n      0x00\n        /* \"#utility.yul\":949:1002   */\n      tag_127\n        /* \"#utility.yul\":994:1001   */\n      dup5\n        /* \"#utility.yul\":985:991   */\n      dup3\n        /* \"#utility.yul\":974:983   */\n      dup6\n        /* \"#utility.yul\":970:992   */\n      add\n        /* \"#utility.yul\":949:1002   */\n      tag_99\n      jump\t// in\n    tag_127:\n        /* \"#utility.yul\":939:1002   */\n      swap2\n      pop\n        /* \"#utility.yul\":895:1012   */\n      pop\n        /* \"#utility.yul\":690:1019   */\n      swap3\n      swap2\n      pop\n      pop\n      jump\t// out\n        /* \"#utility.yul\":1025:1151   */\n    tag_100:\n        /* \"#utility.yul\":1062:1069   */\n      0x00\n        /* \"#utility.yul\":1102:1144   */\n      0xffffffffffffffffffffffffffffffffffffffff\n        /* \"#utility.yul\":1095:1100   */\n      dup3\n        /* \"#utility.yul\":1091:1145   */\n      and\n        /* \"#utility.yul\":1080:1145   */\n      swap1\n      pop\n        /* \"#utility.yul\":1025:1151   */\n      swap2\n      swap1\n      pop\n      jump\t// out\n        /* \"#utility.yul\":1157:1253   */\n    tag_101:\n        /* \"#utility.yul\":1194:1201   */\n      0x00\n        /* \"#utility.yul\":1223:1247   */\n      tag_130\n        /* \"#utility.yul\":1241:1246   */\n      dup3\n        /* \"#utility.yul\":1223:1247   */\n      tag_100\n      jump\t// in\n    tag_130:\n        /* \"#utility.yul\":1212:1247   */\n      swap1\n      pop\n        /* \"#utility.yul\":1157:1253   */\n      swap2\n      swap1\n      pop\n      jump\t// out\n        /* \"#utility.yul\":1259:1377   */\n    tag_102:\n        /* \"#utility.yul\":1346:1370   */\n      tag_132\n        /* \"#utility.yul\":1364:1369   */\n      dup2\n        /* \"#utility.yul\":1346:1370   */\n      tag_101\n      jump\t// in\n    tag_132:\n        /* \"#utility.yul\":1341:1344   */\n      dup3\n        /* \"#utility.yul\":1334:1371   */\n      mstore\n        /* \"#utility.yul\":1259:1377   */\n      pop\n      pop\n      jump\t// out\n        /* \"#utility.yul\":1383:1605   */\n    tag_27:\n        /* \"#utility.yul\":1476:1480   */\n      0x00\n        /* \"#utility.yul\":1514:1516   */\n      0x20\n        /* \"#utility.yul\":1503:1512   */\n      dup3\n        /* \"#utility.yul\":1499:1517   */\n      add\n        /* \"#utility.yul\":1491:1517   */\n      swap1\n      pop\n        /* \"#utility.yul\":1527:1598   */\n      tag_134\n        /* \"#utility.yul\":1595:1596   */\n      0x00\n        /* \"#utility.yul\":1584:1593   */\n      dup4\n        /* \"#utility.yul\":1580:1597   */\n      add\n        /* \"#utility.yul\":1571:1577   */\n      dup5\n        /* \"#utility.yul\":1527:1598   */\n      tag_102\n      jump\t// in\n    tag_134:\n        /* \"#utility.yul\":1383:1605   */\n      swap3\n      swap2\n      pop\n      pop\n      jump\t// out\n        /* \"#utility.yul\":1611:1701   */\n    tag_103:\n        /* \"#utility.yul\":1645:1652   */\n      0x00\n        /* \"#utility.yul\":1688:1693   */\n      dup2\n        /* \"#utility.yul\":1681:1694   */\n      iszero\n        /* \"#utility.yul\":1674:1695   */\n      iszero\n        /* \"#utility.yul\":1663:1695   */\n      swap1\n      pop\n        /* \"#utility.yul\":1611:1701   */\n      swap2\n      swap1\n      pop\n      jump\t// out\n        /* \"#utility.yul\":1707:1816   */\n    tag_104:\n        /* \"#utility.yul\":1788:1809   */\n      tag_137\n        /* \"#utility.yul\":1803:1808   */\n      dup2\n        /* \"#utility.yul\":1788:1809   */\n      tag_103\n      jump\t// in\n    tag_137:\n        /* \"#utility.yul\":1783:1786   */\n      dup3\n        /* \"#utility.yul\":1776:1810   */\n      mstore\n        /* \"#utility.yul\":1707:1816   */\n      pop\n      pop\n      jump\t// out\n        /* \"#utility.yul\":1822:2032   */\n    tag_31:\n        /* \"#utility.yul\":1909:1913   */\n      0x00\n        /* \"#utility.yul\":1947:1949   */\n      0x20\n        /* \"#utility.yul\":1936:1945   */\n      dup3\n        /* \"#utility.yul\":1932:1950   */\n      add\n        /* \"#utility.yul\":1924:1950   */\n      swap1\n      pop\n        /* \"#utility.yul\":1960:2025   */\n      tag_139\n        /* \"#utility.yul\":2022:2023   */\n      0x00\n        /* \"#utility.yul\":2011:2020   */\n      dup4\n        /* \"#utility.yul\":2007:2024   */\n      add\n        /* \"#utility.yul\":1998:2004   */\n      dup5\n        /* \"#utility.yul\":1960:2025   */\n      tag_104\n      jump\t// in\n    tag_139:\n        /* \"#utility.yul\":1822:2032   */\n      swap3\n      swap2\n      pop\n      pop\n      jump\t// out\n        /* \"#utility.yul\":2038:2114   */\n    tag_105:\n        /* \"#utility.yul\":2074:2081   */\n      0x00\n        /* \"#utility.yul\":2103:2108   */\n      dup2\n        /* \"#utility.yul\":2092:2108   */\n      swap1\n      pop\n        /* \"#utility.yul\":2038:2114   */\n      swap2\n      swap1\n      pop\n      jump\t// out\n        /* \"#utility.yul\":2120:2235   */\n    tag_106:\n        /* \"#utility.yul\":2205:2228   */\n      tag_142\n        /* \"#utility.yul\":2222:2227   */\n      dup2\n        /* \"#utility.yul\":2205:2228   */\n      tag_105\n      jump\t// in\n    tag_142:\n        /* \"#utility.yul\":2200:2203   */\n      dup3\n        /* \"#utility.yul\":2193:2229   */\n      mstore\n        /* \"#utility.yul\":2120:2235   */\n      pop\n      pop\n      jump\t// out\n        /* \"#utility.yul\":2241:2459   */\n    tag_38:\n        /* \"#utility.yul\":2332:2336   */\n      0x00\n        /* \"#utility.yul\":2370:2372   */\n      0x20\n        /* \"#utility.yul\":2359:2368   */\n      dup3\n        /* \"#utility.yul\":2355:2373   */\n      add\n        /* \"#utility.yul\":2347:2373   */\n      swap1\n      pop\n        /* \"#utility.yul\":2383:2452   */\n      tag_144\n        /* \"#utility.yul\":2449:2450   */\n      0x00\n        /* \"#utility.yul\":2438:2447   */\n      dup4\n        /* \"#utility.yul\":2434:2451   */\n      add\n        /* \"#utility.yul\":2425:2431   */\n      dup5\n        /* \"#utility.yul\":2383:2452   */\n      tag_106\n      jump\t// in\n    tag_144:\n        /* \"#utility.yul\":2241:2459   */\n      swap3\n      swap2\n      pop\n      pop\n      jump\t// out\n        /* \"#utility.yul\":2465:2583   */\n    tag_107:\n        /* \"#utility.yul\":2552:2576   */\n      tag_146\n        /* \"#utility.yul\":2570:2575   */\n      dup2\n        /* \"#utility.yul\":2552:2576   */\n      tag_97\n      jump\t// in\n    tag_146:\n        /* \"#utility.yul\":2547:2550   */\n      dup3\n        /* \"#utility.yul\":2540:2577   */\n      mstore\n        /* \"#utility.yul\":2465:2583   */\n      pop\n      pop\n      jump\t// out\n        /* \"#utility.yul\":2589:3031   */\n    tag_45:\n        /* \"#utility.yul\":2738:2742   */\n      0x00\n        /* \"#utility.yul\":2776:2778   */\n      0x60\n        /* \"#utility.yul\":2765:2774   */\n      dup3\n        /* \"#utility.yul\":2761:2779   */\n      add\n        /* \"#utility.yul\":2753:2779   */\n      swap1\n      pop\n        /* \"#utility.yul\":2789:2860   */\n      tag_148\n        /* \"#utility.yul\":2857:2858   */\n      0x00\n        /* \"#utility.yul\":2846:2855   */\n      dup4\n        /* \"#utility.yul\":2842:2859   */\n      add\n        /* \"#utility.yul\":2833:2839   */\n      dup7\n        /* \"#utility.yul\":2789:2860   */\n      tag_102\n      jump\t// in\n    tag_148:\n        /* \"#utility.yul\":2870:2942   */\n      tag_149\n        /* \"#utility.yul\":2938:2940   */\n      0x20\n        /* \"#utility.yul\":2927:2936   */\n      dup4\n        /* \"#utility.yul\":2923:2941   */\n      add\n        /* \"#utility.yul\":2914:2920   */\n      dup6\n        /* \"#utility.yul\":2870:2942   */\n      tag_107\n      jump\t// in\n    tag_149:\n        /* \"#utility.yul\":2952:3024   */\n      tag_150\n        /* \"#utility.yul\":3020:3022   */\n      0x40\n        /* \"#utility.yul\":3009:3018   */\n      dup4\n        /* \"#utility.yul\":3005:3023   */\n      add\n        /* \"#utility.yul\":2996:3002   */\n      dup5\n        /* \"#utility.yul\":2952:3024   */\n      tag_107\n      jump\t// in\n    tag_150:\n        /* \"#utility.yul\":2589:3031   */\n      swap5\n      swap4\n      pop\n      pop\n      pop\n      pop\n      jump\t// out\n        /* \"#utility.yul\":3037:3259   */\n    tag_52:\n        /* \"#utility.yul\":3130:3134   */\n      0x00\n        /* \"#utility.yul\":3168:3170   */\n      0x20\n        /* \"#utility.yul\":3157:3166   */\n      dup3\n        /* \"#utility.yul\":3153:3171   */\n      add\n        /* \"#utility.yul\":3145:3171   */\n      swap1\n      pop\n        /* \"#utility.yul\":3181:3252   */\n      tag_152\n        /* \"#utility.yul\":3249:3250   */\n      0x00\n        /* \"#utility.yul\":3238:3247   */\n      dup4\n        /* \"#utility.yul\":3234:3251   */\n      add\n        /* \"#utility.yul\":3225:3231   */\n      dup5\n        /* \"#utility.yul\":3181:3252   */\n      tag_107\n      jump\t// in\n    tag_152:\n        /* \"#utility.yul\":3037:3259   */\n      swap3\n      swap2\n      pop\n      pop\n      jump\t// out\n        /* \"#utility.yul\":3265:3342   */\n    tag_108:\n        /* \"#utility.yul\":3302:3309   */\n      0x00\n        /* \"#utility.yul\":3331:3336   */\n      dup2\n        /* \"#utility.yul\":3320:3336   */\n      swap1\n      pop\n        /* \"#utility.yul\":3265:3342   */\n      swap2\n      swap1\n      pop\n      jump\t// out\n        /* \"#utility.yul\":3348:3466   */\n    tag_109:\n        /* \"#utility.yul\":3435:3459   */\n      tag_155\n        /* \"#utility.yul\":3453:3458   */\n      dup2\n        /* \"#utility.yul\":3435:3459   */\n      tag_108\n      jump\t// in\n    tag_155:\n        /* \"#utility.yul\":3430:3433   */\n      dup3\n        /* \"#utility.yul\":3423:3460   */\n      mstore\n        /* \"#utility.yul\":3348:3466   */\n      pop\n      pop\n      jump\t// out\n        /* \"#utility.yul\":3472:3694   */\n    tag_68:\n        /* \"#utility.yul\":3565:3569   */\n      0x00\n        /* \"#utility.yul\":3603:3605   */\n      0x20\n        /* \"#utility.yul\":3592:3601   */\n      dup3\n        /* \"#utility.yul\":3588:3606   */\n      add\n        /* \"#utility.yul\":3580:3606   */\n      swap1\n      pop\n        /* \"#utility.yul\":3616:3687   */\n      tag_157\n        /* \"#utility.yul\":3684:3685   */\n      0x00\n        /* \"#utility.yul\":3673:3682   */\n      dup4\n        /* \"#utility.yul\":3669:3686   */\n      add\n        /* \"#utility.yul\":3660:3666   */\n      dup5\n        /* \"#utility.yul\":3616:3687   */\n      tag_109\n      jump\t// in\n    tag_157:\n        /* \"#utility.yul\":3472:3694   */\n      swap3\n      swap2\n      pop\n      pop\n      jump\t// out\n        /* \"#utility.yul\":3700:3880   */\n    tag_110:\n        /* \"#utility.yul\":3748:3825   */\n      0x4e487b7100000000000000000000000000000000000000000000000000000000\n        /* \"#utility.yul\":3745:3746   */\n      0x00\n        /* \"#utility.yul\":3738:3826   */\n      mstore\n        /* \"#utility.yul\":3845:3849   */\n      0x11\n        /* \"#utility.yul\":3842:3843   */\n      0x04\n        /* \"#utility.yul\":3835:3850   */\n      mstore\n        /* \"#utility.yul\":3869:3873   */\n      0x24\n        /* \"#utility.yul\":3866:3867   */\n      0x00\n        /* \"#utility.yul\":3859:3874   */\n      revert\n        /* \"#utility.yul\":3886:4119   */\n    tag_78:\n        /* \"#utility.yul\":3925:3928   */\n      0x00\n        /* \"#utility.yul\":3948:3972   */\n      tag_160\n        /* \"#utility.yul\":3966:3971   */\n      dup3\n        /* \"#utility.yul\":3948:3972   */\n      tag_97\n      jump\t// in\n    tag_160:\n        /* \"#utility.yul\":3939:3972   */\n      swap2\n      pop\n        /* \"#utility.yul\":3994:4060   */\n      0xffffffffffffffffffffffffffffffffffffffffffffffffffffffffffffffff\n        /* \"#utility.yul\":3987:3992   */\n      dup3\n        /* \"#utility.yul\":3984:4061   */\n      sub\n        /* \"#utility.yul\":3981:4084   */\n      tag_161\n      jumpi\n        /* \"#utility.yul\":4064:4082   */\n      tag_162\n      tag_110\n      jump\t// in\n    tag_162:\n        /* \"#utility.yul\":3981:4084   */\n    tag_161:\n        /* \"#utility.yul\":4111:4112   */\n      0x01\n        /* \"#utility.yul\":4104:4109   */\n      dup3\n        /* \"#utility.yul\":4100:4113   */\n      add\n        /* \"#utility.yul\":4093:4113   */\n      swap1\n      pop\n        /* \"#utility.yul\":3886:4119   */\n      swap2\n      swap1\n      pop\n      jump\t// out\n        /* \"#utility.yul\":4125:4294   */\n    tag_111:\n        /* \"#utility.yul\":4209:4220   */\n      0x00\n        /* \"#utility.yul\":4243:4249   */\n      dup3\n        /* \"#utility.yul\":4238:4241   */\n      dup3\n        /* \"#utility.yul\":4231:4250   */\n      mstore\n        /* \"#utility.yul\":4283:4287   */\n      0x20\n        /* \"#utility.yul\":4278:4281   */\n      dup3\n        /* \"#utility.yul\":4274:4288   */\n      add\n        /* \"#utility.yul\":4259:4288   */\n      swap1\n      pop\n        /* \"#utility.yul\":4125:4294   */\n      swap3\n      swap2\n      pop\n      pop\n      jump\t// out\n        /* \"#utility.yul\":4300:4456   */\n    tag_112:\n        /* \"#utility.yul\":4440:4448   */\n      0x69203e2031300000000000000000000000000000000000000000000000000000\n        /* \"#utility.yul\":4436:4437   */\n      0x00\n        /* \"#utility.yul\":4428:4434   */\n      dup3\n        /* \"#utility.yul\":4424:4438   */\n      add\n        /* \"#utility.yul\":4417:4449   */\n      mstore\n        /* \"#utility.yul\":4300:4456   */\n      pop\n      jump\t// out\n        /* \"#utility.yul\":4462:4827   */\n    tag_113:\n        /* \"#utility.yul\":4604:4607   */\n      0x00\n        /* \"#utility.yul\":4625:4691   */\n      tag_166\n        /* \"#utility.yul\":4689:4690   */\n      0x06\n        /* \"#utility.yul\":4684:4687   */\n      dup4\n        /* \"#utility.yul\":4625:4691   */\n      tag_111\n      jump\t// in\n    tag_166:\n        /* \"#utility.yul\":4618:4691   */\n      swap2\n      pop\n        /* \"#utility.yul\":4700:4793   */\n      tag_167\n        /* \"#utility.yul\":4789:4792   */\n      dup3\n        /* \"#utility.yul\":4700:4793   */\n      tag_112\n      jump\t// in\n    tag_167:\n        /* \"#utility.yul\":4818:4820   */\n      0x20\n        /* \"#utility.yul\":4813:4816   */\n      dup3\n        /* \"#utility.yul\":4809:4821   */\n      add\n        /* \"#utility.yul\":4802:4821   */\n      swap1\n      pop\n        /* \"#utility.yul\":4462:4827   */\n      swap2\n      swap1\n      pop\n      jump\t// out\n        /* \"#utility.yul\":4833:5252   */\n    tag_92:\n        /* \"#utility.yul\":4999:5003   */\n      0x00\n        /* \"#utility.yul\":5037:5039   */\n      0x20\n        /* \"#utility.yul\":5026:5035   */\n      dup3\n        /* \"#utility.yul\":5022:5040   */\n      add\n        /* \"#utility.yul\":5014:5040   */\n      swap1\n      pop\n        /* \"#utility.yul\":5086:5095   */\n      dup2\n        /* \"#utility.yul\":5080:5084   */\n      dup2\n        /* \"#utility.yul\":5076:5096   */\n      sub\n        /* \"#utility.yul\":5072:5073   */\n      0x00\n        /* \"#utility.yul\":5061:5070   */\n      dup4\n        /* \"#utility.yul\":5057:5074   */\n      add\n        /* \"#utility.yul\":5050:5097   */\n      mstore\n        /* \"#utility.yul\":5114:5245   */\n      tag_169\n        /* \"#utility.yul\":5240:5244   */\n      dup2\n        /* \"#utility.yul\":5114:5245   */\n      tag_113\n      jump\t// in\n    tag_169:\n        /* \"#utility.yul\":5106:5245   */\n      swap1\n      pop\n        /* \"#utility.yul\":4833:5252   */\n      swap2\n      swap1\n      pop\n      jump\t// out\n\n    auxdata: 0xa2646970667358221220ce126dabac578f3b14eb3b3c92f2f569ad22d6963d7b703677d310bff3a61dd564736f6c63430008110033\n}\n",
				"bytecode": {
					"linkReferences": {},
					"object": "608060405260016000806101000a81548160ff021916908315150217905550607b6001557fffffffffffffffffffffffffffffffffffffffffffffffffffffffffffffff856002557f80000000000000000000000000000000000000000000000000000000000000006003557f800000000000000000000000000000000000000000000000000000000000000060045573ca35b7d915458ef540ade6068dfe2f44e8fa733c600560006101000a81548173ffffffffffffffffffffffffffffffffffffffff021916908373ffffffffffffffffffffffffffffffffffffffff1602179055507f111122223333444455556666777788889999aaaabbbbccccddddeeeeffffcccc60001b60065534801561011757600080fd5b506106f3806101276000396000f3fe608060405234801561001057600080fd5b50600436106100ea5760003560e01c8063938b9ceb1161008c578063c6a898c511610066578063c6a898c514610217578063dc75bec714610235578063e5aa3d5814610253578063f8aab23814610271576100ea565b8063938b9ceb146101c1578063950b9954146101cb578063b8bd717f146101fb576100ea565b8063767800de116100c8578063767800de146101475780637a4c2571146101655780637e4e14cc146101835780637e6230f3146101a1576100ea565b806320987767146100ef5780633a756cec1461010b5780634df7e3d014610129575b600080fd5b61010960048036038101906101049190610441565b61028f565b005b610113610292565b60405161012091906104af565b60405180910390f35b6101316102aa565b60405161013e91906104e5565b60405180910390f35b61014f6102bb565b60405161015c91906104af565b60405180910390f35b61016d6102e1565b60405161017a9190610519565b60405180910390f35b61018b6102e7565b6040516101989190610519565b60405180910390f35b6101a96102ed565b6040516101b893929190610543565b60405180910390f35b6101c9610311565b005b6101e560048036038101906101e09190610441565b610366565b6040516101f2919061057a565b60405180910390f35b61021560048036038101906102109190610441565b610396565b005b61021f6103dd565b60405161022c919061057a565b60405180910390f35b61023d6103e3565b60405161024a919061057a565b60405180910390f35b61025b6103fa565b6040516102689190610519565b60405180910390f35b610279610400565b60405161028691906105ae565b60405180910390f35b50565b73ca35b7d915458ef540ade6068dfe2f44e8fa733c81565b60008054906101000a900460ff1681565b600560009054906101000a900473ffffffffffffffffffffffffffffffffffffffff1681565b60045481565b60035481565b60008060008033905060004290506000439050828282955095509550505050909192565b60005b600a811015610343576003810315610330576005810315610343575b808061033b906105f8565b915050610314565b5060005b600a81101561036357808061035b906105f8565b915050610347565b50565b6000600a82101561037a5760019050610391565b601482101561038c5760029050610391565b600390505b919050565b600a8111156103da576040517f08c379a00000000000000000000000000000000000000000000000000000000081526004016103d19061069d565b60405180910390fd5b50565b60015481565b600080600090508080600190039150508091505090565b60025481565b60065481565b600080fd5b6000819050919050565b61041e8161040b565b811461042957600080fd5b50565b60008135905061043b81610415565b92915050565b60006020828403121561045757610456610406565b5b60006104658482850161042c565b91505092915050565b600073ffffffffffffffffffffffffffffffffffffffff82169050919050565b60006104998261046e565b9050919050565b6104a98161048e565b82525050565b60006020820190506104c460008301846104a0565b92915050565b60008115159050919050565b6104df816104ca565b82525050565b60006020820190506104fa60008301846104d6565b92915050565b6000819050919050565b61051381610500565b82525050565b600060208201905061052e600083018461050a565b92915050565b61053d8161040b565b82525050565b600060608201905061055860008301866104a0565b6105656020830185610534565b6105726040830184610534565b949350505050565b600060208201905061058f6000830184610534565b92915050565b6000819050919050565b6105a881610595565b82525050565b60006020820190506105c3600083018461059f565b92915050565b7f4e487b7100000000000000000000000000000000000000000000000000000000600052601160045260246000fd5b60006106038261040b565b91507fffffffffffffffffffffffffffffffffffffffffffffffffffffffffffffffff8203610635576106346105c9565b5b600182019050919050565b600082825260208201905092915050565b7f69203e2031300000000000000000000000000000000000000000000000000000600082015250565b6000610687600683610640565b915061069282610651565b602082019050919050565b600060208201905081810360008301526106b68161067a565b905091905056fea2646970667358221220ce126dabac578f3b14eb3b3c92f2f569ad22d6963d7b703677d310bff3a61dd564736f6c63430008110033",
					"opcodes": "PUSH1 0x80 PUSH1 0x40 MSTORE PUSH1 0x1 PUSH1 0x0 DUP1 PUSH2 0x100 EXP DUP2 SLOAD DUP2 PUSH1 0xFF MUL NOT AND SWAP1 DUP4 ISZERO ISZERO MUL OR SWAP1 SSTORE POP PUSH1 0x7B PUSH1 0x1 SSTORE PUSH32 0xFFFFFFFFFFFFFFFFFFFFFFFFFFFFFFFFFFFFFFFFFFFFFFFFFFFFFFFFFFFFFF85 PUSH1 0x2 SSTORE PUSH32 0x8000000000000000000000000000000000000000000000000000000000000000 PUSH1 0x3 SSTORE PUSH32 0x8000000000000000000000000000000000000000000000000000000000000000 PUSH1 0x4 SSTORE PUSH20 0xCA35B7D915458EF540ADE6068DFE2F44E8FA733C PUSH1 0x5 PUSH1 0x0 PUSH2 0x100 EXP DUP2 SLOAD DUP2 PUSH20 0xFFFFFFFFFFFFFFFFFFFFFFFFFFFFFFFFFFFFFFFF MUL NOT AND SWAP1 DUP4 PUSH20 0xFFFFFFFFFFFFFFFFFFFFFFFFFFFFFFFFFFFFFFFF AND MUL OR SWAP1 SSTORE POP PUSH32 0x111122223333444455556666777788889999AAAABBBBCCCCDDDDEEEEFFFFCCCC PUSH1 0x0 SHL PUSH1 0x6 SSTORE CALLVALUE DUP1 ISZERO PUSH2 0x117 JUMPI PUSH1 0x0 DUP1 REVERT JUMPDEST POP PUSH2 0x6F3 DUP1 PUSH2 0x127 PUSH1 0x0 CODECOPY PUSH1 0x0 RETURN INVALID PUSH1 0x80 PUSH1 0x40 MSTORE CALLVALUE DUP1 ISZERO PUSH2 0x10 JUMPI PUSH1 0x0 DUP1 REVERT JUMPDEST POP PUSH1 0x4 CALLDATASIZE LT PUSH2 0xEA JUMPI PUSH1 0x0 CALLDATALOAD PUSH1 0xE0 SHR DUP1 PUSH4 0x938B9CEB GT PUSH2 0x8C JUMPI DUP1 PUSH4 0xC6A898C5 GT PUSH2 0x66 JUMPI DUP1 PUSH4 0xC6A898C5 EQ PUSH2 0x217 JUMPI DUP1 PUSH4 0xDC75BEC7 EQ PUSH2 0x235 JUMPI DUP1 PUSH4 0xE5AA3D58 EQ PUSH2 0x253 JUMPI DUP1 PUSH4 0xF8AAB238 EQ PUSH2 0x271 JUMPI PUSH2 0xEA JUMP JUMPDEST DUP1 PUSH4 0x938B9CEB EQ PUSH2 0x1C1 JUMPI DUP1 PUSH4 0x950B9954 EQ PUSH2 0x1CB JUMPI DUP1 PUSH4 0xB8BD717F EQ PUSH2 0x1FB JUMPI PUSH2 0xEA JUMP JUMPDEST DUP1 PUSH4 0x767800DE GT PUSH2 0xC8 JUMPI DUP1 PUSH4 0x767800DE EQ PUSH2 0x147 JUMPI DUP1 PUSH4 0x7A4C2571 EQ PUSH2 0x165 JUMPI DUP1 PUSH4 0x7E4E14CC EQ PUSH2 0x183 JUMPI DUP1 PUSH4 0x7E6230F3 EQ PUSH2 0x1A1 JUMPI PUSH2 0xEA JUMP JUMPDEST DUP1 PUSH4 0x20987767 EQ PUSH2 0xEF JUMPI DUP1 PUSH4 0x3A756CEC EQ PUSH2 0x10B JUMPI DUP1 PUSH4 0x4DF7E3D0 EQ PUSH2 0x129 JUMPI JUMPDEST PUSH1 0x0 DUP1 REVERT JUMPDEST PUSH2 0x109 PUSH1 0x4 DUP1 CALLDATASIZE SUB DUP2 ADD SWAP1 PUSH2 0x104 SWAP2 SWAP1 PUSH2 0x441 JUMP JUMPDEST PUSH2 0x28F JUMP JUMPDEST STOP JUMPDEST PUSH2 0x113 PUSH2 0x292 JUMP JUMPDEST PUSH1 0x40 MLOAD PUSH2 0x120 SWAP2 SWAP1 PUSH2 0x4AF JUMP JUMPDEST PUSH1 0x40 MLOAD DUP1 SWAP2 SUB SWAP1 RETURN JUMPDEST PUSH2 0x131 PUSH2 0x2AA JUMP JUMPDEST PUSH1 0x40 MLOAD PUSH2 0x13E SWAP2 SWAP1 PUSH2 0x4E5 JUMP JUMPDEST PUSH1 0x40 MLOAD DUP1 SWAP2 SUB SWAP1 RETURN JUMPDEST PUSH2 0x14F PUSH2 0x2BB JUMP JUMPDEST PUSH1 0x40 MLOAD PUSH2 0x15C SWAP2 SWAP1 PUSH2 0x4AF JUMP JUMPDEST PUSH1 0x40 MLOAD DUP1 SWAP2 SUB SWAP1 RETURN JUMPDEST PUSH2 0x16D PUSH2 0x2E1 JUMP JUMPDEST PUSH1 0x40 MLOAD PUSH2 0x17A SWAP2 SWAP1 PUSH2 0x519 JUMP JUMPDEST PUSH1 0x40 MLOAD DUP1 SWAP2 SUB SWAP1 RETURN JUMPDEST PUSH2 0x18B PUSH2 0x2E7 JUMP JUMPDEST PUSH1 0x40 MLOAD PUSH2 0x198 SWAP2 SWAP1 PUSH2 0x519 JUMP JUMPDEST PUSH1 0x40 MLOAD DUP1 SWAP2 SUB SWAP1 RETURN JUMPDEST PUSH2 0x1A9 PUSH2 0x2ED JUMP JUMPDEST PUSH1 0x40 MLOAD PUSH2 0x1B8 SWAP4 SWAP3 SWAP2 SWAP1 PUSH2 0x543 JUMP JUMPDEST PUSH1 0x40 MLOAD DUP1 SWAP2 SUB SWAP1 RETURN JUMPDEST PUSH2 0x1C9 PUSH2 0x311 JUMP JUMPDEST STOP JUMPDEST PUSH2 0x1E5 PUSH1 0x4 DUP1 CALLDATASIZE SUB DUP2 ADD SWAP1 PUSH2 0x1E0 SWAP2 SWAP1 PUSH2 0x441 JUMP JUMPDEST PUSH2 0x366 JUMP JUMPDEST PUSH1 0x40 MLOAD PUSH2 0x1F2 SWAP2 SWAP1 PUSH2 0x57A JUMP JUMPDEST PUSH1 0x40 MLOAD DUP1 SWAP2 SUB SWAP1 RETURN JUMPDEST PUSH2 0x215 PUSH1 0x4 DUP1 CALLDATASIZE SUB DUP2 ADD SWAP1 PUSH2 0x210 SWAP2 SWAP1 PUSH2 0x441 JUMP JUMPDEST PUSH2 0x396 JUMP JUMPDEST STOP JUMPDEST PUSH2 0x21F PUSH2 0x3DD JUMP JUMPDEST PUSH1 0x40 MLOAD PUSH2 0x22C SWAP2 SWAP1 PUSH2 0x57A JUMP JUMPDEST PUSH1 0x40 MLOAD DUP1 SWAP2 SUB SWAP1 RETURN JUMPDEST PUSH2 0x23D PUSH2 0x3E3 JUMP JUMPDEST PUSH1 0x40 MLOAD PUSH2 0x24A SWAP2 SWAP1 PUSH2 0x57A JUMP JUMPDEST PUSH1 0x40 MLOAD DUP1 SWAP2 SUB SWAP1 RETURN JUMPDEST PUSH2 0x25B PUSH2 0x3FA JUMP JUMPDEST PUSH1 0x40 MLOAD PUSH2 0x268 SWAP2 SWAP1 PUSH2 0x519 JUMP JUMPDEST PUSH1 0x40 MLOAD DUP1 SWAP2 SUB SWAP1 RETURN JUMPDEST PUSH2 0x279 PUSH2 0x400 JUMP JUMPDEST PUSH1 0x40 MLOAD PUSH2 0x286 SWAP2 SWAP1 PUSH2 0x5AE JUMP JUMPDEST PUSH1 0x40 MLOAD DUP1 SWAP2 SUB SWAP1 RETURN JUMPDEST POP JUMP JUMPDEST PUSH20 0xCA35B7D915458EF540ADE6068DFE2F44E8FA733C DUP2 JUMP JUMPDEST PUSH1 0x0 DUP1 SLOAD SWAP1 PUSH2 0x100 EXP SWAP1 DIV PUSH1 0xFF AND DUP2 JUMP JUMPDEST PUSH1 0x5 PUSH1 0x0 SWAP1 SLOAD SWAP1 PUSH2 0x100 EXP SWAP1 DIV PUSH20 0xFFFFFFFFFFFFFFFFFFFFFFFFFFFFFFFFFFFFFFFF AND DUP2 JUMP JUMPDEST PUSH1 0x4 SLOAD DUP2 JUMP JUMPDEST PUSH1 0x3 SLOAD DUP2 JUMP JUMPDEST PUSH1 0x0 DUP1 PUSH1 0x0 DUP1 CALLER SWAP1 POP PUSH1 0x0 TIMESTAMP SWAP1 POP PUSH1 0x0 NUMBER SWAP1 POP DUP3 DUP3 DUP3 SWAP6 POP SWAP6 POP SWAP6 POP POP POP POP SWAP1 SWAP2 SWAP3 JUMP JUMPDEST PUSH1 0x0 JUMPDEST PUSH1 0xA DUP2 LT ISZERO PUSH2 0x343 JUMPI PUSH1 0x3 DUP2 SUB ISZERO PUSH2 0x330 JUMPI PUSH1 0x5 DUP2 SUB ISZERO PUSH2 0x343 JUMPI JUMPDEST DUP1 DUP1 PUSH2 0x33B SWAP1 PUSH2 0x5F8 JUMP JUMPDEST SWAP2 POP POP PUSH2 0x314 JUMP JUMPDEST POP PUSH1 0x0 JUMPDEST PUSH1 0xA DUP2 LT ISZERO PUSH2 0x363 JUMPI DUP1 DUP1 PUSH2 0x35B SWAP1 PUSH2 0x5F8 JUMP JUMPDEST SWAP2 POP POP PUSH2 0x347 JUMP JUMPDEST POP JUMP JUMPDEST PUSH1 0x0 PUSH1 0xA DUP3 LT ISZERO PUSH2 0x37A JUMPI PUSH1 0x1 SWAP1 POP PUSH2 0x391 JUMP JUMPDEST PUSH1 0x14 DUP3 LT ISZERO PUSH2 0x38C JUMPI PUSH1 0x2 SWAP1 POP PUSH2 0x391 JUMP JUMPDEST PUSH1 0x3 SWAP1 POP JUMPDEST SWAP2 SWAP1 POP JUMP JUMPDEST PUSH1 0xA DUP2 GT ISZERO PUSH2 0x3DA JUMPI PUSH1 0x40 MLOAD PUSH32 0x8C379A000000000000000000000000000000000000000000000000000000000 DUP2 MSTORE PUSH1 0x4 ADD PUSH2 0x3D1 SWAP1 PUSH2 0x69D JUMP JUMPDEST PUSH1 0x40 MLOAD DUP1 SWAP2 SUB SWAP1 REVERT JUMPDEST POP JUMP JUMPDEST PUSH1 0x1 SLOAD DUP2 JUMP JUMPDEST PUSH1 0x0 DUP1 PUSH1 0x0 SWAP1 POP DUP1 DUP1 PUSH1 0x1 SWAP1 SUB SWAP2 POP POP DUP1 SWAP2 POP POP SWAP1 JUMP JUMPDEST PUSH1 0x2 SLOAD DUP2 JUMP JUMPDEST PUSH1 0x6 SLOAD DUP2 JUMP JUMPDEST PUSH1 0x0 DUP1 REVERT JUMPDEST PUSH1 0x0 DUP2 SWAP1 POP SWAP2 SWAP1 POP JUMP JUMPDEST PUSH2 0x41E DUP2 PUSH2 0x40B JUMP JUMPDEST DUP2 EQ PUSH2 0x429 JUMPI PUSH1 0x0 DUP1 REVERT JUMPDEST POP JUMP JUMPDEST PUSH1 0x0 DUP2 CALLDATALOAD SWAP1 POP PUSH2 0x43B DUP2 PUSH2 0x415 JUMP JUMPDEST SWAP3 SWAP2 POP POP JUMP JUMPDEST PUSH1 0x0 PUSH1 0x20 DUP3 DUP5 SUB SLT ISZERO PUSH2 0x457 JUMPI PUSH2 0x456 PUSH2 0x406 JUMP JUMPDEST JUMPDEST PUSH1 0x0 PUSH2 0x465 DUP5 DUP3 DUP6 ADD PUSH2 0x42C JUMP JUMPDEST SWAP2 POP POP SWAP3 SWAP2 POP POP JUMP JUMPDEST PUSH1 0x0 PUSH20 0xFFFFFFFFFFFFFFFFFFFFFFFFFFFFFFFFFFFFFFFF DUP3 AND SWAP1 POP SWAP2 SWAP1 POP JUMP JUMPDEST PUSH1 0x0 PUSH2 0x499 DUP3 PUSH2 0x46E JUMP JUMPDEST SWAP1 POP SWAP2 SWAP1 POP JUMP JUMPDEST PUSH2 0x4A9 DUP2 PUSH2 0x48E JUMP JUMPDEST DUP3 MSTORE POP POP JUMP JUMPDEST PUSH1 0x0 PUSH1 0x20 DUP3 ADD SWAP1 POP PUSH2 0x4C4 PUSH1 0x0 DUP4 ADD DUP5 PUSH2 0x4A0 JUMP JUMPDEST SWAP3 SWAP2 POP POP JUMP JUMPDEST PUSH1 0x0 DUP2 ISZERO ISZERO SWAP1 POP SWAP2 SWAP1 POP JUMP JUMPDEST PUSH2 0x4DF DUP2 PUSH2 0x4CA JUMP JUMPDEST DUP3 MSTORE POP POP JUMP JUMPDEST PUSH1 0x0 PUSH1 0x20 DUP3 ADD SWAP1 POP PUSH2 0x4FA PUSH1 0x0 DUP4 ADD DUP5 PUSH2 0x4D6 JUMP JUMPDEST SWAP3 SWAP2 POP POP JUMP JUMPDEST PUSH1 0x0 DUP2 SWAP1 POP SWAP2 SWAP1 POP JUMP JUMPDEST PUSH2 0x513 DUP2 PUSH2 0x500 JUMP JUMPDEST DUP3 MSTORE POP POP JUMP JUMPDEST PUSH1 0x0 PUSH1 0x20 DUP3 ADD SWAP1 POP PUSH2 0x52E PUSH1 0x0 DUP4 ADD DUP5 PUSH2 0x50A JUMP JUMPDEST SWAP3 SWAP2 POP POP JUMP JUMPDEST PUSH2 0x53D DUP2 PUSH2 0x40B JUMP JUMPDEST DUP3 MSTORE POP POP JUMP JUMPDEST PUSH1 0x0 PUSH1 0x60 DUP3 ADD SWAP1 POP PUSH2 0x558 PUSH1 0x0 DUP4 ADD DUP7 PUSH2 0x4A0 JUMP JUMPDEST PUSH2 0x565 PUSH1 0x20 DUP4 ADD DUP6 PUSH2 0x534 JUMP JUMPDEST PUSH2 0x572 PUSH1 0x40 DUP4 ADD DUP5 PUSH2 0x534 JUMP JUMPDEST SWAP5 SWAP4 POP POP POP POP JUMP JUMPDEST PUSH1 0x0 PUSH1 0x20 DUP3 ADD SWAP1 POP PUSH2 0x58F PUSH1 0x0 DUP4 ADD DUP5 PUSH2 0x534 JUMP JUMPDEST SWAP3 SWAP2 POP POP JUMP JUMPDEST PUSH1 0x0 DUP2 SWAP1 POP SWAP2 SWAP1 POP JUMP JUMPDEST PUSH2 0x5A8 DUP2 PUSH2 0x595 JUMP JUMPDEST DUP3 MSTORE POP POP JUMP JUMPDEST PUSH1 0x0 PUSH1 0x20 DUP3 ADD SWAP1 POP PUSH2 0x5C3 PUSH1 0x0 DUP4 ADD DUP5 PUSH2 0x59F JUMP JUMPDEST SWAP3 SWAP2 POP POP JUMP JUMPDEST PUSH32 0x4E487B7100000000000000000000000000000000000000000000000000000000 PUSH1 0x0 MSTORE PUSH1 0x11 PUSH1 0x4 MSTORE PUSH1 0x24 PUSH1 0x0 REVERT JUMPDEST PUSH1 0x0 PUSH2 0x603 DUP3 PUSH2 0x40B JUMP JUMPDEST SWAP2 POP PUSH32 0xFFFFFFFFFFFFFFFFFFFFFFFFFFFFFFFFFFFFFFFFFFFFFFFFFFFFFFFFFFFFFFFF DUP3 SUB PUSH2 0x635 JUMPI PUSH2 0x634 PUSH2 0x5C9 JUMP JUMPDEST JUMPDEST PUSH1 0x1 DUP3 ADD SWAP1 POP SWAP2 SWAP1 POP JUMP JUMPDEST PUSH1 0x0 DUP3 DUP3 MSTORE PUSH1 0x20 DUP3 ADD SWAP1 POP SWAP3 SWAP2 POP POP JUMP JUMPDEST PUSH32 0x69203E2031300000000000000000000000000000000000000000000000000000 PUSH1 0x0 DUP3 ADD MSTORE POP JUMP JUMPDEST PUSH1 0x0 PUSH2 0x687 PUSH1 0x6 DUP4 PUSH2 0x640 JUMP JUMPDEST SWAP2 POP PUSH2 0x692 DUP3 PUSH2 0x651 JUMP JUMPDEST PUSH1 0x20 DUP3 ADD SWAP1 POP SWAP2 SWAP1 POP JUMP JUMPDEST PUSH1 0x0 PUSH1 0x20 DUP3 ADD SWAP1 POP DUP2 DUP2 SUB PUSH1 0x0 DUP4 ADD MSTORE PUSH2 0x6B6 DUP2 PUSH2 0x67A JUMP JUMPDEST SWAP1 POP SWAP2 SWAP1 POP JUMP INVALID LOG2 PUSH5 0x6970667358 0x22 SLT KECCAK256 0xCE SLT PUSH14 0xABAC578F3B14EB3B3C92F2F569AD 0x22 0xD6 SWAP7 RETURNDATASIZE PUSH28 0x703677D310BFF3A61DD564736F6C6343000811003300000000000000 "
				},
				"gasEstimates": {
					"creation": {
						"codeDepositCost": "355800",
						"executionCost": "159463",
						"totalCost": "515263"
					},
					"external": {
						"MY_ADDRESS()": "424",
						"addr()": "2537",
						"b()": "2536",
						"b32()": "2517",
						"globalVars()": "infinite",
						"i()": "2495",
						"ifElse(uint256)": "infinite",
						"loops()": "infinite",
						"maxInt()": "2474",
						"minInt()": "2496",
						"testRequire(uint256)": "786",
						"testRevert(uint256)": "430",
						"u()": "2451",
						"underflow()": "416"
					}
				},
				"methodIdentifiers": {
					"MY_ADDRESS()": "3a756cec",
					"addr()": "767800de",
					"b()": "4df7e3d0",
					"b32()": "f8aab238",
					"globalVars()": "7e6230f3",
					"i()": "e5aa3d58",
					"ifElse(uint256)": "950b9954",
					"loops()": "938b9ceb",
					"maxInt()": "7a4c2571",
					"minInt()": "7e4e14cc",
					"testRequire(uint256)": "b8bd717f",
					"testRevert(uint256)": "20987767",
					"u()": "c6a898c5",
					"underflow()": "dc75bec7"
				}
			},
			"storageLayout": {
				"storage": [
					{
						"astId": 4,
						"contract": "1_Common.sol:SolidityByExample",
						"label": "b",
						"offset": 0,
						"slot": "0",
						"type": "t_bool"
					},
					{
						"astId": 7,
						"contract": "1_Common.sol:SolidityByExample",
						"label": "u",
						"offset": 0,
						"slot": "1",
						"type": "t_uint256"
					},
					{
						"astId": 11,
						"contract": "1_Common.sol:SolidityByExample",
						"label": "i",
						"offset": 0,
						"slot": "2",
						"type": "t_int256"
					},
					{
						"astId": 18,
						"contract": "1_Common.sol:SolidityByExample",
						"label": "minInt",
						"offset": 0,
						"slot": "3",
						"type": "t_int256"
					},
					{
						"astId": 25,
						"contract": "1_Common.sol:SolidityByExample",
						"label": "maxInt",
						"offset": 0,
						"slot": "4",
						"type": "t_int256"
					},
					{
						"astId": 28,
						"contract": "1_Common.sol:SolidityByExample",
						"label": "addr",
						"offset": 0,
						"slot": "5",
						"type": "t_address"
					},
					{
						"astId": 31,
						"contract": "1_Common.sol:SolidityByExample",
						"label": "b32",
						"offset": 0,
						"slot": "6",
						"type": "t_bytes32"
					}
				],
				"types": {
					"t_address": {
						"encoding": "inplace",
						"label": "address",
						"numberOfBytes": "20"
					},
					"t_bool": {
						"encoding": "inplace",
						"label": "bool",
						"numberOfBytes": "1"
					},
					"t_bytes32": {
						"encoding": "inplace",
						"label": "bytes32",
						"numberOfBytes": "32"
					},
					"t_int256": {
						"encoding": "inplace",
						"label": "int256",
						"numberOfBytes": "32"
					},
					"t_uint256": {
						"encoding": "inplace",
						"label": "uint256",
						"numberOfBytes": "32"
					}
				}
			},
			"userdoc": {
				"kind": "user",
				"methods": {},
				"version": 1
			}
		}
	}
}