{
	"data": {
		"bytecode": {
			"linkReferences": {},
			"object": "608060405234801561001057600080fd5b50610b21806100206000396000f3fe608060405234801561001057600080fd5b506004361061002b5760003560e01c80632251a8a914610030575b600080fd5b61004a6004803603810190610045919061052c565b610060565b60405161005791906105b6565b60405180910390f35b6000807360ae865ee4c725cd04353b5aab364553f56cef82905060007349e565ed1bdc17f3d220f72df0857c26fa83f873905060008173ffffffffffffffffffffffffffffffffffffffff1663e6a1e888735d8b4c2554aeb7e86f387b4d6c00ac33499ed01f89896040518463ffffffff1660e01b81526004016100e69392919061063f565b608060405180830381865afa158015610103573d6000803e3d6000fd5b505050506040513d601f19601f8201168201806040525081019061012791906106e5565b505091505060008373ffffffffffffffffffffffffffffffffffffffff16636352211e61015388610204565b6040518263ffffffff1660e01b815260040161016f919061075b565b602060405180830381865afa15801561018c573d6000803e3d6000fd5b505050506040513d601f19601f820116820180604052508101906101b0919061078b565b9050600182600b0b13806101ef57508073ffffffffffffffffffffffffffffffffffffffff168873ffffffffffffffffffffffffffffffffffffffff16145b156101f957600194505b505050509392505050565b6000610211826000610218565b9050919050565b60008083905060008060005b8351811015610343576030848281518110610242576102416107b8565b5b602001015160f81c60f81b60f81c60ff161015801561028557506039848281518110610271576102706107b8565b5b602001015160f81c60f81b60f81c60ff1611155b156102fe5781156102ad57600086141561029e57610343565b85806102a990610816565b9650505b600a836102ba9190610840565b925060308482815181106102d1576102d06107b8565b5b602001015160f81c60f81b60f81c60ff166102ec919061089a565b836102f791906108ce565b9250610330565b602e848281518110610313576103126107b8565b5b602001015160f81c60f81b60f81c60ff16141561032f57600191505b5b808061033b90610924565b915050610224565b5060008511156103685784600a61035a9190610aa0565b826103659190610840565b91505b81935050505092915050565b6000604051905090565b600080fd5b600080fd5b600073ffffffffffffffffffffffffffffffffffffffff82169050919050565b60006103b382610388565b9050919050565b6103c3816103a8565b81146103ce57600080fd5b50565b6000813590506103e0816103ba565b92915050565b600080fd5b600080fd5b6000601f19601f8301169050919050565b7f4e487b7100000000000000000000000000000000000000000000000000000000600052604160045260246000fd5b610439826103f0565b810181811067ffffffffffffffff8211171561045857610457610401565b5b80604052505050565b600061046b610374565b90506104778282610430565b919050565b600067ffffffffffffffff82111561049757610496610401565b5b6104a0826103f0565b9050602081019050919050565b82818337600083830152505050565b60006104cf6104ca8461047c565b610461565b9050828152602081018484840111156104eb576104ea6103eb565b5b6104f68482856104ad565b509392505050565b600082601f830112610513576105126103e6565b5b81356105238482602086016104bc565b91505092915050565b6000806000606084860312156105455761054461037e565b5b6000610553868287016103d1565b9350506020610564868287016103d1565b925050604084013567ffffffffffffffff81111561058557610584610383565b5b610591868287016104fe565b9150509250925092565b60008115159050919050565b6105b08161059b565b82525050565b60006020820190506105cb60008301846105a7565b92915050565b6000819050919050565b60006105f66105f16105ec84610388565b6105d1565b610388565b9050919050565b6000610608826105db565b9050919050565b600061061a826105fd565b9050919050565b61062a8161060f565b82525050565b610639816103a8565b82525050565b60006060820190506106546000830186610621565b6106616020830185610630565b61066e6040830184610630565b949350505050565b6000819050919050565b61068981610676565b811461069457600080fd5b50565b6000815190506106a681610680565b92915050565b600081600b0b9050919050565b6106c2816106ac565b81146106cd57600080fd5b50565b6000815190506106df816106b9565b92915050565b600080600080608085870312156106ff576106fe61037e565b5b600061070d87828801610697565b945050602061071e878288016106d0565b935050604061072f87828801610697565b925050606061074087828801610697565b91505092959194509250565b61075581610676565b82525050565b6000602082019050610770600083018461074c565b92915050565b600081519050610785816103ba565b92915050565b6000602082840312156107a1576107a061037e565b5b60006107af84828501610776565b91505092915050565b7f4e487b7100000000000000000000000000000000000000000000000000000000600052603260045260246000fd5b7f4e487b7100000000000000000000000000000000000000000000000000000000600052601160045260246000fd5b600061082182610676565b91506000821415610835576108346107e7565b5b600182039050919050565b600061084b82610676565b915061085683610676565b9250817fffffffffffffffffffffffffffffffffffffffffffffffffffffffffffffffff048311821515161561088f5761088e6107e7565b5b828202905092915050565b60006108a582610676565b91506108b083610676565b9250828210156108c3576108c26107e7565b5b828203905092915050565b60006108d982610676565b91506108e483610676565b9250827fffffffffffffffffffffffffffffffffffffffffffffffffffffffffffffffff03821115610919576109186107e7565b5b828201905092915050565b600061092f82610676565b91507fffffffffffffffffffffffffffffffffffffffffffffffffffffffffffffffff821415610962576109616107e7565b5b600182019050919050565b60008160011c9050919050565b6000808291508390505b60018511156109c4578086048111156109a05761099f6107e7565b5b60018516156109af5780820291505b80810290506109bd8561096d565b9450610984565b94509492505050565b6000826109dd5760019050610a99565b816109eb5760009050610a99565b8160018114610a015760028114610a0b57610a3a565b6001915050610a99565b60ff841115610a1d57610a1c6107e7565b5b8360020a915084821115610a3457610a336107e7565b5b50610a99565b5060208310610133831016604e8410600b8410161715610a6f5782820a905083811115610a6a57610a696107e7565b5b610a99565b610a7c848484600161097a565b92509050818404811115610a9357610a926107e7565b5b81810290505b9392505050565b6000610aab82610676565b9150610ab683610676565b9250610ae37fffffffffffffffffffffffffffffffffffffffffffffffffffffffffffffffff84846109cd565b90509291505056fea26469706673582212205d17ef19d00c579521c7b81c67d146b19163e61084724599ab0343c57002394d64736f6c634300080a0033",
			"opcodes": "PUSH1 0x80 PUSH1 0x40 MSTORE CALLVALUE DUP1 ISZERO PUSH2 0x10 JUMPI PUSH1 0x0 DUP1 REVERT JUMPDEST POP PUSH2 0xB21 DUP1 PUSH2 0x20 PUSH1 0x0 CODECOPY PUSH1 0x0 RETURN INVALID PUSH1 0x80 PUSH1 0x40 MSTORE CALLVALUE DUP1 ISZERO PUSH2 0x10 JUMPI PUSH1 0x0 DUP1 REVERT JUMPDEST POP PUSH1 0x4 CALLDATASIZE LT PUSH2 0x2B JUMPI PUSH1 0x0 CALLDATALOAD PUSH1 0xE0 SHR DUP1 PUSH4 0x2251A8A9 EQ PUSH2 0x30 JUMPI JUMPDEST PUSH1 0x0 DUP1 REVERT JUMPDEST PUSH2 0x4A PUSH1 0x4 DUP1 CALLDATASIZE SUB DUP2 ADD SWAP1 PUSH2 0x45 SWAP2 SWAP1 PUSH2 0x52C JUMP JUMPDEST PUSH2 0x60 JUMP JUMPDEST PUSH1 0x40 MLOAD PUSH2 0x57 SWAP2 SWAP1 PUSH2 0x5B6 JUMP JUMPDEST PUSH1 0x40 MLOAD DUP1 SWAP2 SUB SWAP1 RETURN JUMPDEST PUSH1 0x0 DUP1 PUSH20 0x60AE865EE4C725CD04353B5AAB364553F56CEF82 SWAP1 POP PUSH1 0x0 PUSH20 0x49E565ED1BDC17F3D220F72DF0857C26FA83F873 SWAP1 POP PUSH1 0x0 DUP2 PUSH20 0xFFFFFFFFFFFFFFFFFFFFFFFFFFFFFFFFFFFFFFFF AND PUSH4 0xE6A1E888 PUSH20 0x5D8B4C2554AEB7E86F387B4D6C00AC33499ED01F DUP10 DUP10 PUSH1 0x40 MLOAD DUP5 PUSH4 0xFFFFFFFF AND PUSH1 0xE0 SHL DUP2 MSTORE PUSH1 0x4 ADD PUSH2 0xE6 SWAP4 SWAP3 SWAP2 SWAP1 PUSH2 0x63F JUMP JUMPDEST PUSH1 0x80 PUSH1 0x40 MLOAD DUP1 DUP4 SUB DUP2 DUP7 GAS STATICCALL ISZERO DUP1 ISZERO PUSH2 0x103 JUMPI RETURNDATASIZE PUSH1 0x0 DUP1 RETURNDATACOPY RETURNDATASIZE PUSH1 0x0 REVERT JUMPDEST POP POP POP POP PUSH1 0x40 MLOAD RETURNDATASIZE PUSH1 0x1F NOT PUSH1 0x1F DUP3 ADD AND DUP3 ADD DUP1 PUSH1 0x40 MSTORE POP DUP2 ADD SWAP1 PUSH2 0x127 SWAP2 SWAP1 PUSH2 0x6E5 JUMP JUMPDEST POP POP SWAP2 POP POP PUSH1 0x0 DUP4 PUSH20 0xFFFFFFFFFFFFFFFFFFFFFFFFFFFFFFFFFFFFFFFF AND PUSH4 0x6352211E PUSH2 0x153 DUP9 PUSH2 0x204 JUMP JUMPDEST PUSH1 0x40 MLOAD DUP3 PUSH4 0xFFFFFFFF AND PUSH1 0xE0 SHL DUP2 MSTORE PUSH1 0x4 ADD PUSH2 0x16F SWAP2 SWAP1 PUSH2 0x75B JUMP JUMPDEST PUSH1 0x20 PUSH1 0x40 MLOAD DUP1 DUP4 SUB DUP2 DUP7 GAS STATICCALL ISZERO DUP1 ISZERO PUSH2 0x18C JUMPI RETURNDATASIZE PUSH1 0x0 DUP1 RETURNDATACOPY RETURNDATASIZE PUSH1 0x0 REVERT JUMPDEST POP POP POP POP PUSH1 0x40 MLOAD RETURNDATASIZE PUSH1 0x1F NOT PUSH1 0x1F DUP3 ADD AND DUP3 ADD DUP1 PUSH1 0x40 MSTORE POP DUP2 ADD SWAP1 PUSH2 0x1B0 SWAP2 SWAP1 PUSH2 0x78B JUMP JUMPDEST SWAP1 POP PUSH1 0x1 DUP3 PUSH1 0xB SIGNEXTEND SGT DUP1 PUSH2 0x1EF JUMPI POP DUP1 PUSH20 0xFFFFFFFFFFFFFFFFFFFFFFFFFFFFFFFFFFFFFFFF AND DUP9 PUSH20 0xFFFFFFFFFFFFFFFFFFFFFFFFFFFFFFFFFFFFFFFF AND EQ JUMPDEST ISZERO PUSH2 0x1F9 JUMPI PUSH1 0x1 SWAP5 POP JUMPDEST POP POP POP POP SWAP4 SWAP3 POP POP POP JUMP JUMPDEST PUSH1 0x0 PUSH2 0x211 DUP3 PUSH1 0x0 PUSH2 0x218 JUMP JUMPDEST SWAP1 POP SWAP2 SWAP1 POP JUMP JUMPDEST PUSH1 0x0 DUP1 DUP4 SWAP1 POP PUSH1 0x0 DUP1 PUSH1 0x0 JUMPDEST DUP4 MLOAD DUP2 LT ISZERO PUSH2 0x343 JUMPI PUSH1 0x30 DUP5 DUP3 DUP2 MLOAD DUP2 LT PUSH2 0x242 JUMPI PUSH2 0x241 PUSH2 0x7B8 JUMP JUMPDEST JUMPDEST PUSH1 0x20 ADD ADD MLOAD PUSH1 0xF8 SHR PUSH1 0xF8 SHL PUSH1 0xF8 SHR PUSH1 0xFF AND LT ISZERO DUP1 ISZERO PUSH2 0x285 JUMPI POP PUSH1 0x39 DUP5 DUP3 DUP2 MLOAD DUP2 LT PUSH2 0x271 JUMPI PUSH2 0x270 PUSH2 0x7B8 JUMP JUMPDEST JUMPDEST PUSH1 0x20 ADD ADD MLOAD PUSH1 0xF8 SHR PUSH1 0xF8 SHL PUSH1 0xF8 SHR PUSH1 0xFF AND GT ISZERO JUMPDEST ISZERO PUSH2 0x2FE JUMPI DUP2 ISZERO PUSH2 0x2AD JUMPI PUSH1 0x0 DUP7 EQ ISZERO PUSH2 0x29E JUMPI PUSH2 0x343 JUMP JUMPDEST DUP6 DUP1 PUSH2 0x2A9 SWAP1 PUSH2 0x816 JUMP JUMPDEST SWAP7 POP POP JUMPDEST PUSH1 0xA DUP4 PUSH2 0x2BA SWAP2 SWAP1 PUSH2 0x840 JUMP JUMPDEST SWAP3 POP PUSH1 0x30 DUP5 DUP3 DUP2 MLOAD DUP2 LT PUSH2 0x2D1 JUMPI PUSH2 0x2D0 PUSH2 0x7B8 JUMP JUMPDEST JUMPDEST PUSH1 0x20 ADD ADD MLOAD PUSH1 0xF8 SHR PUSH1 0xF8 SHL PUSH1 0xF8 SHR PUSH1 0xFF AND PUSH2 0x2EC SWAP2 SWAP1 PUSH2 0x89A JUMP JUMPDEST DUP4 PUSH2 0x2F7 SWAP2 SWAP1 PUSH2 0x8CE JUMP JUMPDEST SWAP3 POP PUSH2 0x330 JUMP JUMPDEST PUSH1 0x2E DUP5 DUP3 DUP2 MLOAD DUP2 LT PUSH2 0x313 JUMPI PUSH2 0x312 PUSH2 0x7B8 JUMP JUMPDEST JUMPDEST PUSH1 0x20 ADD ADD MLOAD PUSH1 0xF8 SHR PUSH1 0xF8 SHL PUSH1 0xF8 SHR PUSH1 0xFF AND EQ ISZERO PUSH2 0x32F JUMPI PUSH1 0x1 SWAP2 POP JUMPDEST JUMPDEST DUP1 DUP1 PUSH2 0x33B SWAP1 PUSH2 0x924 JUMP JUMPDEST SWAP2 POP POP PUSH2 0x224 JUMP JUMPDEST POP PUSH1 0x0 DUP6 GT ISZERO PUSH2 0x368 JUMPI DUP5 PUSH1 0xA PUSH2 0x35A SWAP2 SWAP1 PUSH2 0xAA0 JUMP JUMPDEST DUP3 PUSH2 0x365 SWAP2 SWAP1 PUSH2 0x840 JUMP JUMPDEST SWAP2 POP JUMPDEST DUP2 SWAP4 POP POP POP POP SWAP3 SWAP2 POP POP JUMP JUMPDEST PUSH1 0x0 PUSH1 0x40 MLOAD SWAP1 POP SWAP1 JUMP JUMPDEST PUSH1 0x0 DUP1 REVERT JUMPDEST PUSH1 0x0 DUP1 REVERT JUMPDEST PUSH1 0x0 PUSH20 0xFFFFFFFFFFFFFFFFFFFFFFFFFFFFFFFFFFFFFFFF DUP3 AND SWAP1 POP SWAP2 SWAP1 POP JUMP JUMPDEST PUSH1 0x0 PUSH2 0x3B3 DUP3 PUSH2 0x388 JUMP JUMPDEST SWAP1 POP SWAP2 SWAP1 POP JUMP JUMPDEST PUSH2 0x3C3 DUP2 PUSH2 0x3A8 JUMP JUMPDEST DUP2 EQ PUSH2 0x3CE JUMPI PUSH1 0x0 DUP1 REVERT JUMPDEST POP JUMP JUMPDEST PUSH1 0x0 DUP2 CALLDATALOAD SWAP1 POP PUSH2 0x3E0 DUP2 PUSH2 0x3BA JUMP JUMPDEST SWAP3 SWAP2 POP POP JUMP JUMPDEST PUSH1 0x0 DUP1 REVERT JUMPDEST PUSH1 0x0 DUP1 REVERT JUMPDEST PUSH1 0x0 PUSH1 0x1F NOT PUSH1 0x1F DUP4 ADD AND SWAP1 POP SWAP2 SWAP1 POP JUMP JUMPDEST PUSH32 0x4E487B7100000000000000000000000000000000000000000000000000000000 PUSH1 0x0 MSTORE PUSH1 0x41 PUSH1 0x4 MSTORE PUSH1 0x24 PUSH1 0x0 REVERT JUMPDEST PUSH2 0x439 DUP3 PUSH2 0x3F0 JUMP JUMPDEST DUP2 ADD DUP2 DUP2 LT PUSH8 0xFFFFFFFFFFFFFFFF DUP3 GT OR ISZERO PUSH2 0x458 JUMPI PUSH2 0x457 PUSH2 0x401 JUMP JUMPDEST JUMPDEST DUP1 PUSH1 0x40 MSTORE POP POP POP JUMP JUMPDEST PUSH1 0x0 PUSH2 0x46B PUSH2 0x374 JUMP JUMPDEST SWAP1 POP PUSH2 0x477 DUP3 DUP3 PUSH2 0x430 JUMP JUMPDEST SWAP2 SWAP1 POP JUMP JUMPDEST PUSH1 0x0 PUSH8 0xFFFFFFFFFFFFFFFF DUP3 GT ISZERO PUSH2 0x497 JUMPI PUSH2 0x496 PUSH2 0x401 JUMP JUMPDEST JUMPDEST PUSH2 0x4A0 DUP3 PUSH2 0x3F0 JUMP JUMPDEST SWAP1 POP PUSH1 0x20 DUP2 ADD SWAP1 POP SWAP2 SWAP1 POP JUMP JUMPDEST DUP3 DUP2 DUP4 CALLDATACOPY PUSH1 0x0 DUP4 DUP4 ADD MSTORE POP POP POP JUMP JUMPDEST PUSH1 0x0 PUSH2 0x4CF PUSH2 0x4CA DUP5 PUSH2 0x47C JUMP JUMPDEST PUSH2 0x461 JUMP JUMPDEST SWAP1 POP DUP3 DUP2 MSTORE PUSH1 0x20 DUP2 ADD DUP5 DUP5 DUP5 ADD GT ISZERO PUSH2 0x4EB JUMPI PUSH2 0x4EA PUSH2 0x3EB JUMP JUMPDEST JUMPDEST PUSH2 0x4F6 DUP5 DUP3 DUP6 PUSH2 0x4AD JUMP JUMPDEST POP SWAP4 SWAP3 POP POP POP JUMP JUMPDEST PUSH1 0x0 DUP3 PUSH1 0x1F DUP4 ADD SLT PUSH2 0x513 JUMPI PUSH2 0x512 PUSH2 0x3E6 JUMP JUMPDEST JUMPDEST DUP2 CALLDATALOAD PUSH2 0x523 DUP5 DUP3 PUSH1 0x20 DUP7 ADD PUSH2 0x4BC JUMP JUMPDEST SWAP2 POP POP SWAP3 SWAP2 POP POP JUMP JUMPDEST PUSH1 0x0 DUP1 PUSH1 0x0 PUSH1 0x60 DUP5 DUP7 SUB SLT ISZERO PUSH2 0x545 JUMPI PUSH2 0x544 PUSH2 0x37E JUMP JUMPDEST JUMPDEST PUSH1 0x0 PUSH2 0x553 DUP7 DUP3 DUP8 ADD PUSH2 0x3D1 JUMP JUMPDEST SWAP4 POP POP PUSH1 0x20 PUSH2 0x564 DUP7 DUP3 DUP8 ADD PUSH2 0x3D1 JUMP JUMPDEST SWAP3 POP POP PUSH1 0x40 DUP5 ADD CALLDATALOAD PUSH8 0xFFFFFFFFFFFFFFFF DUP2 GT ISZERO PUSH2 0x585 JUMPI PUSH2 0x584 PUSH2 0x383 JUMP JUMPDEST JUMPDEST PUSH2 0x591 DUP7 DUP3 DUP8 ADD PUSH2 0x4FE JUMP JUMPDEST SWAP2 POP POP SWAP3 POP SWAP3 POP SWAP3 JUMP JUMPDEST PUSH1 0x0 DUP2 ISZERO ISZERO SWAP1 POP SWAP2 SWAP1 POP JUMP JUMPDEST PUSH2 0x5B0 DUP2 PUSH2 0x59B JUMP JUMPDEST DUP3 MSTORE POP POP JUMP JUMPDEST PUSH1 0x0 PUSH1 0x20 DUP3 ADD SWAP1 POP PUSH2 0x5CB PUSH1 0x0 DUP4 ADD DUP5 PUSH2 0x5A7 JUMP JUMPDEST SWAP3 SWAP2 POP POP JUMP JUMPDEST PUSH1 0x0 DUP2 SWAP1 POP SWAP2 SWAP1 POP JUMP JUMPDEST PUSH1 0x0 PUSH2 0x5F6 PUSH2 0x5F1 PUSH2 0x5EC DUP5 PUSH2 0x388 JUMP JUMPDEST PUSH2 0x5D1 JUMP JUMPDEST PUSH2 0x388 JUMP JUMPDEST SWAP1 POP SWAP2 SWAP1 POP JUMP JUMPDEST PUSH1 0x0 PUSH2 0x608 DUP3 PUSH2 0x5DB JUMP JUMPDEST SWAP1 POP SWAP2 SWAP1 POP JUMP JUMPDEST PUSH1 0x0 PUSH2 0x61A DUP3 PUSH2 0x5FD JUMP JUMPDEST SWAP1 POP SWAP2 SWAP1 POP JUMP JUMPDEST PUSH2 0x62A DUP2 PUSH2 0x60F JUMP JUMPDEST DUP3 MSTORE POP POP JUMP JUMPDEST PUSH2 0x639 DUP2 PUSH2 0x3A8 JUMP JUMPDEST DUP3 MSTORE POP POP JUMP JUMPDEST PUSH1 0x0 PUSH1 0x60 DUP3 ADD SWAP1 POP PUSH2 0x654 PUSH1 0x0 DUP4 ADD DUP7 PUSH2 0x621 JUMP JUMPDEST PUSH2 0x661 PUSH1 0x20 DUP4 ADD DUP6 PUSH2 0x630 JUMP JUMPDEST PUSH2 0x66E PUSH1 0x40 DUP4 ADD DUP5 PUSH2 0x630 JUMP JUMPDEST SWAP5 SWAP4 POP POP POP POP JUMP JUMPDEST PUSH1 0x0 DUP2 SWAP1 POP SWAP2 SWAP1 POP JUMP JUMPDEST PUSH2 0x689 DUP2 PUSH2 0x676 JUMP JUMPDEST DUP2 EQ PUSH2 0x694 JUMPI PUSH1 0x0 DUP1 REVERT JUMPDEST POP JUMP JUMPDEST PUSH1 0x0 DUP2 MLOAD SWAP1 POP PUSH2 0x6A6 DUP2 PUSH2 0x680 JUMP JUMPDEST SWAP3 SWAP2 POP POP JUMP JUMPDEST PUSH1 0x0 DUP2 PUSH1 0xB SIGNEXTEND SWAP1 POP SWAP2 SWAP1 POP JUMP JUMPDEST PUSH2 0x6C2 DUP2 PUSH2 0x6AC JUMP JUMPDEST DUP2 EQ PUSH2 0x6CD JUMPI PUSH1 0x0 DUP1 REVERT JUMPDEST POP JUMP JUMPDEST PUSH1 0x0 DUP2 MLOAD SWAP1 POP PUSH2 0x6DF DUP2 PUSH2 0x6B9 JUMP JUMPDEST SWAP3 SWAP2 POP POP JUMP JUMPDEST PUSH1 0x0 DUP1 PUSH1 0x0 DUP1 PUSH1 0x80 DUP6 DUP8 SUB SLT ISZERO PUSH2 0x6FF JUMPI PUSH2 0x6FE PUSH2 0x37E JUMP JUMPDEST JUMPDEST PUSH1 0x0 PUSH2 0x70D DUP8 DUP3 DUP9 ADD PUSH2 0x697 JUMP JUMPDEST SWAP5 POP POP PUSH1 0x20 PUSH2 0x71E DUP8 DUP3 DUP9 ADD PUSH2 0x6D0 JUMP JUMPDEST SWAP4 POP POP PUSH1 0x40 PUSH2 0x72F DUP8 DUP3 DUP9 ADD PUSH2 0x697 JUMP JUMPDEST SWAP3 POP POP PUSH1 0x60 PUSH2 0x740 DUP8 DUP3 DUP9 ADD PUSH2 0x697 JUMP JUMPDEST SWAP2 POP POP SWAP3 SWAP6 SWAP2 SWAP5 POP SWAP3 POP JUMP JUMPDEST PUSH2 0x755 DUP2 PUSH2 0x676 JUMP JUMPDEST DUP3 MSTORE POP POP JUMP JUMPDEST PUSH1 0x0 PUSH1 0x20 DUP3 ADD SWAP1 POP PUSH2 0x770 PUSH1 0x0 DUP4 ADD DUP5 PUSH2 0x74C JUMP JUMPDEST SWAP3 SWAP2 POP POP JUMP JUMPDEST PUSH1 0x0 DUP2 MLOAD SWAP1 POP PUSH2 0x785 DUP2 PUSH2 0x3BA JUMP JUMPDEST SWAP3 SWAP2 POP POP JUMP JUMPDEST PUSH1 0x0 PUSH1 0x20 DUP3 DUP5 SUB SLT ISZERO PUSH2 0x7A1 JUMPI PUSH2 0x7A0 PUSH2 0x37E JUMP JUMPDEST JUMPDEST PUSH1 0x0 PUSH2 0x7AF DUP5 DUP3 DUP6 ADD PUSH2 0x776 JUMP JUMPDEST SWAP2 POP POP SWAP3 SWAP2 POP POP JUMP JUMPDEST PUSH32 0x4E487B7100000000000000000000000000000000000000000000000000000000 PUSH1 0x0 MSTORE PUSH1 0x32 PUSH1 0x4 MSTORE PUSH1 0x24 PUSH1 0x0 REVERT JUMPDEST PUSH32 0x4E487B7100000000000000000000000000000000000000000000000000000000 PUSH1 0x0 MSTORE PUSH1 0x11 PUSH1 0x4 MSTORE PUSH1 0x24 PUSH1 0x0 REVERT JUMPDEST PUSH1 0x0 PUSH2 0x821 DUP3 PUSH2 0x676 JUMP JUMPDEST SWAP2 POP PUSH1 0x0 DUP3 EQ ISZERO PUSH2 0x835 JUMPI PUSH2 0x834 PUSH2 0x7E7 JUMP JUMPDEST JUMPDEST PUSH1 0x1 DUP3 SUB SWAP1 POP SWAP2 SWAP1 POP JUMP JUMPDEST PUSH1 0x0 PUSH2 0x84B DUP3 PUSH2 0x676 JUMP JUMPDEST SWAP2 POP PUSH2 0x856 DUP4 PUSH2 0x676 JUMP JUMPDEST SWAP3 POP DUP2 PUSH32 0xFFFFFFFFFFFFFFFFFFFFFFFFFFFFFFFFFFFFFFFFFFFFFFFFFFFFFFFFFFFFFFFF DIV DUP4 GT DUP3 ISZERO ISZERO AND ISZERO PUSH2 0x88F JUMPI PUSH2 0x88E PUSH2 0x7E7 JUMP JUMPDEST JUMPDEST DUP3 DUP3 MUL SWAP1 POP SWAP3 SWAP2 POP POP JUMP JUMPDEST PUSH1 0x0 PUSH2 0x8A5 DUP3 PUSH2 0x676 JUMP JUMPDEST SWAP2 POP PUSH2 0x8B0 DUP4 PUSH2 0x676 JUMP JUMPDEST SWAP3 POP DUP3 DUP3 LT ISZERO PUSH2 0x8C3 JUMPI PUSH2 0x8C2 PUSH2 0x7E7 JUMP JUMPDEST JUMPDEST DUP3 DUP3 SUB SWAP1 POP SWAP3 SWAP2 POP POP JUMP JUMPDEST PUSH1 0x0 PUSH2 0x8D9 DUP3 PUSH2 0x676 JUMP JUMPDEST SWAP2 POP PUSH2 0x8E4 DUP4 PUSH2 0x676 JUMP JUMPDEST SWAP3 POP DUP3 PUSH32 0xFFFFFFFFFFFFFFFFFFFFFFFFFFFFFFFFFFFFFFFFFFFFFFFFFFFFFFFFFFFFFFFF SUB DUP3 GT ISZERO PUSH2 0x919 JUMPI PUSH2 0x918 PUSH2 0x7E7 JUMP JUMPDEST JUMPDEST DUP3 DUP3 ADD SWAP1 POP SWAP3 SWAP2 POP POP JUMP JUMPDEST PUSH1 0x0 PUSH2 0x92F DUP3 PUSH2 0x676 JUMP JUMPDEST SWAP2 POP PUSH32 0xFFFFFFFFFFFFFFFFFFFFFFFFFFFFFFFFFFFFFFFFFFFFFFFFFFFFFFFFFFFFFFFF DUP3 EQ ISZERO PUSH2 0x962 JUMPI PUSH2 0x961 PUSH2 0x7E7 JUMP JUMPDEST JUMPDEST PUSH1 0x1 DUP3 ADD SWAP1 POP SWAP2 SWAP1 POP JUMP JUMPDEST PUSH1 0x0 DUP2 PUSH1 0x1 SHR SWAP1 POP SWAP2 SWAP1 POP JUMP JUMPDEST PUSH1 0x0 DUP1 DUP3 SWAP2 POP DUP4 SWAP1 POP JUMPDEST PUSH1 0x1 DUP6 GT ISZERO PUSH2 0x9C4 JUMPI DUP1 DUP7 DIV DUP2 GT ISZERO PUSH2 0x9A0 JUMPI PUSH2 0x99F PUSH2 0x7E7 JUMP JUMPDEST JUMPDEST PUSH1 0x1 DUP6 AND ISZERO PUSH2 0x9AF JUMPI DUP1 DUP3 MUL SWAP2 POP JUMPDEST DUP1 DUP2 MUL SWAP1 POP PUSH2 0x9BD DUP6 PUSH2 0x96D JUMP JUMPDEST SWAP5 POP PUSH2 0x984 JUMP JUMPDEST SWAP5 POP SWAP5 SWAP3 POP POP POP JUMP JUMPDEST PUSH1 0x0 DUP3 PUSH2 0x9DD JUMPI PUSH1 0x1 SWAP1 POP PUSH2 0xA99 JUMP JUMPDEST DUP2 PUSH2 0x9EB JUMPI PUSH1 0x0 SWAP1 POP PUSH2 0xA99 JUMP JUMPDEST DUP2 PUSH1 0x1 DUP2 EQ PUSH2 0xA01 JUMPI PUSH1 0x2 DUP2 EQ PUSH2 0xA0B JUMPI PUSH2 0xA3A JUMP JUMPDEST PUSH1 0x1 SWAP2 POP POP PUSH2 0xA99 JUMP JUMPDEST PUSH1 0xFF DUP5 GT ISZERO PUSH2 0xA1D JUMPI PUSH2 0xA1C PUSH2 0x7E7 JUMP JUMPDEST JUMPDEST DUP4 PUSH1 0x2 EXP SWAP2 POP DUP5 DUP3 GT ISZERO PUSH2 0xA34 JUMPI PUSH2 0xA33 PUSH2 0x7E7 JUMP JUMPDEST JUMPDEST POP PUSH2 0xA99 JUMP JUMPDEST POP PUSH1 0x20 DUP4 LT PUSH2 0x133 DUP4 LT AND PUSH1 0x4E DUP5 LT PUSH1 0xB DUP5 LT AND OR ISZERO PUSH2 0xA6F JUMPI DUP3 DUP3 EXP SWAP1 POP DUP4 DUP2 GT ISZERO PUSH2 0xA6A JUMPI PUSH2 0xA69 PUSH2 0x7E7 JUMP JUMPDEST JUMPDEST PUSH2 0xA99 JUMP JUMPDEST PUSH2 0xA7C DUP5 DUP5 DUP5 PUSH1 0x1 PUSH2 0x97A JUMP JUMPDEST SWAP3 POP SWAP1 POP DUP2 DUP5 DIV DUP2 GT ISZERO PUSH2 0xA93 JUMPI PUSH2 0xA92 PUSH2 0x7E7 JUMP JUMPDEST JUMPDEST DUP2 DUP2 MUL SWAP1 POP JUMPDEST SWAP4 SWAP3 POP POP POP JUMP JUMPDEST PUSH1 0x0 PUSH2 0xAAB DUP3 PUSH2 0x676 JUMP JUMPDEST SWAP2 POP PUSH2 0xAB6 DUP4 PUSH2 0x676 JUMP JUMPDEST SWAP3 POP PUSH2 0xAE3 PUSH32 0xFFFFFFFFFFFFFFFFFFFFFFFFFFFFFFFFFFFFFFFFFFFFFFFFFFFFFFFFFFFFFFFF DUP5 DUP5 PUSH2 0x9CD JUMP JUMPDEST SWAP1 POP SWAP3 SWAP2 POP POP JUMP INVALID LOG2 PUSH5 0x6970667358 0x22 SLT KECCAK256 0x5D OR 0xEF NOT 0xD0 0xC JUMPI SWAP6 0x21 0xC7 0xB8 SHR PUSH8 0xD146B19163E61084 PUSH19 0x4599AB0343C57002394D64736F6C634300080A STOP CALLER "
		},
		"gasEstimates": {
			"creation": {
				"codeDepositCost": "569800",
				"executionCost": "606",
				"totalCost": "570406"
			},
			"external": {
				"isSubscribed(address,address,string)": "infinite"
			},
			"internal": {
				"parseInt(string memory)": "infinite",
				"parseInt(string memory,uint256)": "infinite"
			}
		},
		"methodIdentifiers": {
			"isSubscribed(address,address,string)": "2251a8a9"
		}
	},
	"abi": [
		{
			"inputs": [
				{
					"internalType": "address",
					"name": "sender",
					"type": "address"
				},
				{
					"internalType": "address",
					"name": "receiver",
					"type": "address"
				},
				{
					"internalType": "string",
					"name": "profileId",
					"type": "string"
				}
			],
			"name": "isSubscribed",
			"outputs": [
				{
					"internalType": "bool",
					"name": "subscribed",
					"type": "bool"
				}
			],
			"stateMutability": "view",
			"type": "function"
		}
	]
}