{
	"data": {
		"bytecode": {
			"linkReferences": {},
			"object": "60a06040523480156200001157600080fd5b5060405162005bd838038062005bd8833981810160405281019062000037919062000365565b80600160006001604051806020016040528060008152506200005f81620001bf60201b60201c565b506200008062000074620001d460201b60201c565b620001dc60201b60201c565b83600560006101000a81548173ffffffffffffffffffffffffffffffffffffffff021916908373ffffffffffffffffffffffffffffffffffffffff1602179055506000640100000000600117905083620000df57640200000000811790505b82620000f75764080000000064040000000017811790505b816200010f5764200000000064100000000017811790505b8473ffffffffffffffffffffffffffffffffffffffff1663ad3915c8826040518263ffffffff1660e01b81526004016200014a9190620003c7565b600060405180830381600087803b1580156200016557600080fd5b505af11580156200017a573d6000803e3d6000fd5b5050505050505050508173ffffffffffffffffffffffffffffffffffffffff1660808173ffffffffffffffffffffffffffffffffffffffff168152505050506200073b565b8060029081620001d0919062000654565b5050565b600033905090565b6000600360009054906101000a900473ffffffffffffffffffffffffffffffffffffffff16905081600360006101000a81548173ffffffffffffffffffffffffffffffffffffffff021916908373ffffffffffffffffffffffffffffffffffffffff1602179055508173ffffffffffffffffffffffffffffffffffffffff168173ffffffffffffffffffffffffffffffffffffffff167f8be0079c531659141344cd1fd0a4f28419497f9722a3daafe3b4186f6b6457e060405160405180910390a35050565b600080fd5b600073ffffffffffffffffffffffffffffffffffffffff82169050919050565b6000620002d482620002a7565b9050919050565b6000620002e882620002c7565b9050919050565b620002fa81620002db565b81146200030657600080fd5b50565b6000815190506200031a81620002ef565b92915050565b60006200032d82620002c7565b9050919050565b6200033f8162000320565b81146200034b57600080fd5b50565b6000815190506200035f8162000334565b92915050565b600080604083850312156200037f576200037e620002a2565b5b60006200038f8582860162000309565b9250506020620003a2858286016200034e565b9150509250929050565b6000819050919050565b620003c181620003ac565b82525050565b6000602082019050620003de6000830184620003b6565b92915050565b600081519050919050565b7f4e487b7100000000000000000000000000000000000000000000000000000000600052604160045260246000fd5b7f4e487b7100000000000000000000000000000000000000000000000000000000600052602260045260246000fd5b600060028204905060018216806200046657607f821691505b6020821081036200047c576200047b6200041e565b5b50919050565b60008190508160005260206000209050919050565b60006020601f8301049050919050565b600082821b905092915050565b600060088302620004e67fffffffffffffffffffffffffffffffffffffffffffffffffffffffffffffffff82620004a7565b620004f28683620004a7565b95508019841693508086168417925050509392505050565b6000819050919050565b6000620005356200052f6200052984620003ac565b6200050a565b620003ac565b9050919050565b6000819050919050565b620005518362000514565b6200056962000560826200053c565b848454620004b4565b825550505050565b600090565b6200058062000571565b6200058d81848462000546565b505050565b5b81811015620005b557620005a960008262000576565b60018101905062000593565b5050565b601f8211156200060457620005ce8162000482565b620005d98462000497565b81016020851015620005e9578190505b62000601620005f88562000497565b83018262000592565b50505b505050565b600082821c905092915050565b6000620006296000198460080262000609565b1980831691505092915050565b600062000644838362000616565b9150826002028217905092915050565b6200065f82620003e4565b67ffffffffffffffff8111156200067b576200067a620003ef565b5b6200068782546200044d565b62000694828285620005b9565b600060209050601f831160018114620006cc5760008415620006b7578287015190505b620006c3858262000636565b86555062000733565b601f198416620006dc8662000482565b60005b828110156200070657848901518255600182019150602085019450602081019050620006df565b8683101562000726578489015162000722601f89168262000616565b8355505b6001600288020188555050505b505050505050565b60805161547a6200075e60003960008181610a0c0152610e5c015261547a6000f3fe608060405234801561001057600080fd5b506004361061018d5760003560e01c806372ca8a3e116100de578063bea6998f11610097578063f242432a11610071578063f242432a14610508578063f2fde38b14610524578063f437bc5914610540578063f5298aca1461055e5761018d565b8063bea6998f1461048a578063d86ed3e5146104a8578063e985e9c5146104d85761018d565b806372ca8a3e146103a2578063884d1f40146103d25780638da5cb5b14610402578063a22cb46514610420578063bcb4546f1461043c578063bd85b0391461045a5761018d565b8063451c3d801161014b57806353c11f991161012557806353c11f991461031c5780635f9e7d771461034c5780636b20c4541461037c578063715018a6146103985761018d565b8063451c3d801461029e5780634e1273f4146102bc5780634f558e79146102ec5761018d565b8062fdd58e1461019257806301ffc9a7146101c25780630e89341c146101f2578063230dbd29146102225780632eb2c2d61461025257806330d9c9151461026e575b600080fd5b6101ac60048036038101906101a7919061319b565b61057a565b6040516101b991906131ea565b60405180910390f35b6101dc60048036038101906101d7919061325d565b610642565b6040516101e991906132a5565b60405180910390f35b61020c600480360381019061020791906132c0565b610724565b604051610219919061337d565b60405180910390f35b61023c60048036038101906102379190613478565b6107b8565b60405161024991906135bc565b60405180910390f35b61026c600480360381019061026791906137d1565b610924565b005b610288600480360381019061028391906138a0565b6109c5565b60405161029591906135bc565b60405180910390f35b6102a6610a0a565b6040516102b391906139bb565b60405180910390f35b6102d660048036038101906102d19190613a99565b610a2e565b6040516102e39190613bcf565b60405180910390f35b610306600480360381019061030191906132c0565b610b47565b60405161031391906132a5565b60405180910390f35b61033660048036038101906103319190613478565b610b5b565b60405161034391906135bc565b60405180910390f35b610366600480360381019061036191906138a0565b610c71565b60405161037391906135bc565b60405180910390f35b61039660048036038101906103919190613bf1565b610da7565b005b6103a0610e44565b005b6103bc60048036038101906103b79190613c7c565b610e58565b6040516103c991906132a5565b60405180910390f35b6103ec60048036038101906103e791906138a0565b610eb0565b6040516103f991906135bc565b60405180910390f35b61040a61103d565b6040516104179190613cb8565b60405180910390f35b61043a60048036038101906104359190613cff565b611067565b005b61044461107d565b6040516104519190613d4e565b60405180910390f35b610474600480360381019061046f91906132c0565b6110a1565b60405161048191906131ea565b60405180910390f35b6104926110be565b60405161049f919061337d565b60405180910390f35b6104c260048036038101906104bd9190613478565b61114c565b6040516104cf91906135bc565b60405180910390f35b6104f260048036038101906104ed9190613d69565b61129e565b6040516104ff91906132a5565b60405180910390f35b610522600480360381019061051d9190613da9565b611332565b005b61053e60048036038101906105399190613e40565b6113d3565b005b610548611456565b6040516105559190613e8e565b60405180910390f35b61057860048036038101906105739190613ea9565b61147c565b005b60008073ffffffffffffffffffffffffffffffffffffffff168373ffffffffffffffffffffffffffffffffffffffff16036105ea576040517f08c379a00000000000000000000000000000000000000000000000000000000081526004016105e190613f6e565b60405180910390fd5b60008083815260200190815260200160002060008473ffffffffffffffffffffffffffffffffffffffff1673ffffffffffffffffffffffffffffffffffffffff16815260200190815260200160002054905092915050565b60007fd9b67a26000000000000000000000000000000000000000000000000000000007bffffffffffffffffffffffffffffffffffffffffffffffffffffffff1916827bffffffffffffffffffffffffffffffffffffffffffffffffffffffff1916148061070d57507f0e89341c000000000000000000000000000000000000000000000000000000007bffffffffffffffffffffffffffffffffffffffffffffffffffffffff1916827bffffffffffffffffffffffffffffffffffffffffffffffffffffffff1916145b8061071d575061071c82611519565b5b9050919050565b60606002805461073390613fbd565b80601f016020809104026020016040519081016040528092919081815260200182805461075f90613fbd565b80156107ac5780601f10610781576101008083540402835291602001916107ac565b820191906000526020600020905b81548152906001019060200180831161078f57829003601f168201915b50505050509050919050565b6060600560009054906101000a900473ffffffffffffffffffffffffffffffffffffffff1673ffffffffffffffffffffffffffffffffffffffff163373ffffffffffffffffffffffffffffffffffffffff1614610841576040517f2f2d36a700000000000000000000000000000000000000000000000000000000815260040160405180910390fd5b61084a89611583565b61089a5782828080601f016020809104026020016040519081016040528093929190818152602001838380828437600081840152601f19601f820116905080830192505050505050509050610917565b6108a38a610e58565b6108d9576040517ff512dd5800000000000000000000000000000000000000000000000000000000815260040160405180910390fd5b600087878101906108ea919061402c565b50905060008087878101906108ff91906140a5565b915091506109118d8484848a8a611676565b93505050505b9998505050505050505050565b61092c6116c9565b73ffffffffffffffffffffffffffffffffffffffff168573ffffffffffffffffffffffffffffffffffffffff16148061097257506109718561096c6116c9565b61129e565b5b6109b1576040517f08c379a00000000000000000000000000000000000000000000000000000000081526004016109a890614157565b60405180910390fd5b6109be85858585856116d1565b5050505050565b60606040518060400160405280600281526020017f30780000000000000000000000000000000000000000000000000000000000008152509050979650505050505050565b7f000000000000000000000000000000000000000000000000000000000000000081565b60608151835114610a74576040517f08c379a0000000000000000000000000000000000000000000000000000000008152600401610a6b906141e9565b60405180910390fd5b6000835167ffffffffffffffff811115610a9157610a906135de565b5b604051908082528060200260200182016040528015610abf5781602001602082028036833780820191505090505b50905060005b8451811015610b3c57610b0c858281518110610ae457610ae3614209565b5b6020026020010151858381518110610aff57610afe614209565b5b602002602001015161057a565b828281518110610b1f57610b1e614209565b5b60200260200101818152505080610b3590614267565b9050610ac5565b508091505092915050565b600080610b53836110a1565b119050919050565b6060600560009054906101000a900473ffffffffffffffffffffffffffffffffffffffff1673ffffffffffffffffffffffffffffffffffffffff163373ffffffffffffffffffffffffffffffffffffffff16141580610bc05750610bbe89611583565b155b80610bd15750610bcf8a610e58565b155b15610c225782828080601f016020809104026020016040519081016040528093929190818152602001838380828437600081840152601f19601f820116905080830192505050505050509050610c64565b6000808888810190610c34919061402c565b915091506000808888810190610c4a91906142af565b91509150610c5d8e858584868c8c6119f2565b9450505050505b9998505050505050505050565b6060600560009054906101000a900473ffffffffffffffffffffffffffffffffffffffff1673ffffffffffffffffffffffffffffffffffffffff163373ffffffffffffffffffffffffffffffffffffffff16141580610cd65750610cd487611583565b155b80610ce75750610ce588610e58565b155b15610d29576040518060400160405280600281526020017f30780000000000000000000000000000000000000000000000000000000000008152509050610d9c565b6000808686810190610d3b919061402c565b91509150600080610d6d84848e73ffffffffffffffffffffffffffffffffffffffff16611a669092919063ffffffff16565b5050915091508181604051602001610d869291906142fe565b6040516020818303038152906040529450505050505b979650505050505050565b610daf6116c9565b73ffffffffffffffffffffffffffffffffffffffff168373ffffffffffffffffffffffffffffffffffffffff161480610df55750610df483610def6116c9565b61129e565b5b610e34576040517f08c379a0000000000000000000000000000000000000000000000000000000008152600401610e2b90614157565b60405180910390fd5b610e3f838383611b12565b505050565b610e4c611de0565b610e566000611e5e565b565b60007f000000000000000000000000000000000000000000000000000000000000000073ffffffffffffffffffffffffffffffffffffffff168273ffffffffffffffffffffffffffffffffffffffff16149050919050565b6060600560009054906101000a900473ffffffffffffffffffffffffffffffffffffffff1673ffffffffffffffffffffffffffffffffffffffff163373ffffffffffffffffffffffffffffffffffffffff1614610f39576040517f2f2d36a700000000000000000000000000000000000000000000000000000000815260040160405180910390fd5b610f4287611583565b610f83576040518060400160405280600281526020017f30780000000000000000000000000000000000000000000000000000000000008152509050611032565b610f8c88610e58565b610fc2576040517ff512dd5800000000000000000000000000000000000000000000000000000000815260040160405180910390fd5b60008585810190610fd3919061402c565b50905060008061100483308d73ffffffffffffffffffffffffffffffffffffffff16611a669092919063ffffffff16565b505091509150808260405160200161101d929190614327565b60405160208183030381529060405293505050505b979650505050505050565b6000600360009054906101000a900473ffffffffffffffffffffffffffffffffffffffff16905090565b6110796110726116c9565b8383611f24565b5050565b7fa9214cc96615e0085d3bb077758db69497dc2dce3b2b1e97bc93c3d18d83efd381565b600060046000838152602001908152602001600020549050919050565b600680546110cb90613fbd565b80601f01602080910402602001604051908101604052809291908181526020018280546110f790613fbd565b80156111445780601f1061111957610100808354040283529160200191611144565b820191906000526020600020905b81548152906001019060200180831161112757829003601f168201915b505050505081565b6060600560009054906101000a900473ffffffffffffffffffffffffffffffffffffffff1673ffffffffffffffffffffffffffffffffffffffff163373ffffffffffffffffffffffffffffffffffffffff16146111d5576040517f2f2d36a700000000000000000000000000000000000000000000000000000000815260040160405180910390fd5b6111de89611583565b61122e5782828080601f016020809104026020016040519081016040528093929190818152602001838380828437600081840152601f19601f820116905080830192505050505050509050611291565b6112378a610e58565b61126d576040517ff512dd5800000000000000000000000000000000000000000000000000000000815260040160405180910390fd5b6000878781019061127e919061402c565b50905061128d8b828686612090565b9150505b9998505050505050505050565b6000600160008473ffffffffffffffffffffffffffffffffffffffff1673ffffffffffffffffffffffffffffffffffffffff16815260200190815260200160002060008373ffffffffffffffffffffffffffffffffffffffff1673ffffffffffffffffffffffffffffffffffffffff16815260200190815260200160002060009054906101000a900460ff16905092915050565b61133a6116c9565b73ffffffffffffffffffffffffffffffffffffffff168573ffffffffffffffffffffffffffffffffffffffff161480611380575061137f8561137a6116c9565b61129e565b5b6113bf576040517f08c379a00000000000000000000000000000000000000000000000000000000081526004016113b690614157565b60405180910390fd5b6113cc85858585856121e0565b5050505050565b6113db611de0565b600073ffffffffffffffffffffffffffffffffffffffff168173ffffffffffffffffffffffffffffffffffffffff160361144a576040517f08c379a0000000000000000000000000000000000000000000000000000000008152600401611441906143c2565b60405180910390fd5b61145381611e5e565b50565b600560009054906101000a900473ffffffffffffffffffffffffffffffffffffffff1681565b6114846116c9565b73ffffffffffffffffffffffffffffffffffffffff168373ffffffffffffffffffffffffffffffffffffffff1614806114ca57506114c9836114c46116c9565b61129e565b5b611509576040517f08c379a000000000000000000000000000000000000000000000000000000000815260040161150090614157565b60405180910390fd5b61151483838361247b565b505050565b60007f01ffc9a7000000000000000000000000000000000000000000000000000000007bffffffffffffffffffffffffffffffffffffffffffffffffffffffff1916827bffffffffffffffffffffffffffffffffffffffffffffffffffffffff1916149050919050565b6000600560009054906101000a900473ffffffffffffffffffffffffffffffffffffffff1673ffffffffffffffffffffffffffffffffffffffff1663b6d200de7fa9214cc96615e0085d3bb077758db69497dc2dce3b2b1e97bc93c3d18d83efd36040518263ffffffff1660e01b81526004016116009190613d4e565b602060405180830381865afa15801561161d573d6000803e3d6000fd5b505050506040513d601f19601f820116820180604052508101906116419190614420565b73ffffffffffffffffffffffffffffffffffffffff168273ffffffffffffffffffffffffffffffffffffffff16149050919050565b606082828080601f016020809104026020016040519081016040528093929190818152602001838380828437600081840152601f19601f8201169050808301925050505050505090509695505050505050565b600033905090565b8151835114611715576040517f08c379a000000000000000000000000000000000000000000000000000000000815260040161170c906144bf565b60405180910390fd5b600073ffffffffffffffffffffffffffffffffffffffff168473ffffffffffffffffffffffffffffffffffffffff1603611784576040517f08c379a000000000000000000000000000000000000000000000000000000000815260040161177b90614551565b60405180910390fd5b600061178e6116c9565b905061179e8187878787876126c1565b60005b845181101561194f5760008582815181106117bf576117be614209565b5b6020026020010151905060008583815181106117de576117dd614209565b5b60200260200101519050600080600084815260200190815260200160002060008b73ffffffffffffffffffffffffffffffffffffffff1673ffffffffffffffffffffffffffffffffffffffff1681526020019081526020016000205490508181101561187f576040517f08c379a0000000000000000000000000000000000000000000000000000000008152600401611876906145e3565b60405180910390fd5b81810360008085815260200190815260200160002060008c73ffffffffffffffffffffffffffffffffffffffff1673ffffffffffffffffffffffffffffffffffffffff168152602001908152602001600020819055508160008085815260200190815260200160002060008b73ffffffffffffffffffffffffffffffffffffffff1673ffffffffffffffffffffffffffffffffffffffff16815260200190815260200160002060008282546119349190614603565b925050819055505050508061194890614267565b90506117a1565b508473ffffffffffffffffffffffffffffffffffffffff168673ffffffffffffffffffffffffffffffffffffffff168273ffffffffffffffffffffffffffffffffffffffff167f4a39dc06d4c0dbc64b70af90fd698a233a518aa5d07e595d983b8c0526c8f7fb87876040516119c6929190614637565b60405180910390a46119dc8187878787876126d7565b6119ea8187878787876126df565b505050505050565b60606000611a0188607b61057a565b03611a1457611a1387607b600161247b565b5b82828080601f016020809104026020016040519081016040528093929190818152602001838380828437600081840152601f19601f820116905080830192505050505050509050979650505050505050565b6000806000806000611a77886128b6565b9150508073ffffffffffffffffffffffffffffffffffffffff1663e6a1e8888989896040518463ffffffff1660e01b8152600401611ab79392919061466e565b608060405180830381865afa158015611ad4573d6000803e3d6000fd5b505050506040513d601f19601f82011682018060405250810190611af891906146cf565b809550819650829750839850505050505093509350935093565b600073ffffffffffffffffffffffffffffffffffffffff168373ffffffffffffffffffffffffffffffffffffffff1603611b81576040517f08c379a0000000000000000000000000000000000000000000000000000000008152600401611b78906147a8565b60405180910390fd5b8051825114611bc5576040517f08c379a0000000000000000000000000000000000000000000000000000000008152600401611bbc906144bf565b60405180910390fd5b6000611bcf6116c9565b9050611bef818560008686604051806020016040528060008152506126c1565b60005b8351811015611d3c576000848281518110611c1057611c0f614209565b5b602002602001015190506000848381518110611c2f57611c2e614209565b5b60200260200101519050600080600084815260200190815260200160002060008973ffffffffffffffffffffffffffffffffffffffff1673ffffffffffffffffffffffffffffffffffffffff16815260200190815260200160002054905081811015611cd0576040517f08c379a0000000000000000000000000000000000000000000000000000000008152600401611cc79061483a565b60405180910390fd5b81810360008085815260200190815260200160002060008a73ffffffffffffffffffffffffffffffffffffffff1673ffffffffffffffffffffffffffffffffffffffff168152602001908152602001600020819055505050508080611d3490614267565b915050611bf2565b50600073ffffffffffffffffffffffffffffffffffffffff168473ffffffffffffffffffffffffffffffffffffffff168273ffffffffffffffffffffffffffffffffffffffff167f4a39dc06d4c0dbc64b70af90fd698a233a518aa5d07e595d983b8c0526c8f7fb8686604051611db4929190614637565b60405180910390a4611dda818560008686604051806020016040528060008152506126d7565b50505050565b611de86116c9565b73ffffffffffffffffffffffffffffffffffffffff16611e0661103d565b73ffffffffffffffffffffffffffffffffffffffff1614611e5c576040517f08c379a0000000000000000000000000000000000000000000000000000000008152600401611e53906148a6565b60405180910390fd5b565b6000600360009054906101000a900473ffffffffffffffffffffffffffffffffffffffff16905081600360006101000a81548173ffffffffffffffffffffffffffffffffffffffff021916908373ffffffffffffffffffffffffffffffffffffffff1602179055508173ffffffffffffffffffffffffffffffffffffffff168173ffffffffffffffffffffffffffffffffffffffff167f8be0079c531659141344cd1fd0a4f28419497f9722a3daafe3b4186f6b6457e060405160405180910390a35050565b8173ffffffffffffffffffffffffffffffffffffffff168373ffffffffffffffffffffffffffffffffffffffff1603611f92576040517f08c379a0000000000000000000000000000000000000000000000000000000008152600401611f8990614938565b60405180910390fd5b80600160008573ffffffffffffffffffffffffffffffffffffffff1673ffffffffffffffffffffffffffffffffffffffff16815260200190815260200160002060008473ffffffffffffffffffffffffffffffffffffffff1673ffffffffffffffffffffffffffffffffffffffff16815260200190815260200160002060006101000a81548160ff0219169083151502179055508173ffffffffffffffffffffffffffffffffffffffff168373ffffffffffffffffffffffffffffffffffffffff167f17307eab39ab6107e8899845ad3d59bd9653f200f220920489ca2b5937696c318360405161208391906132a5565b60405180910390a3505050565b6060600061209f85607b61057a565b036120c2576120c184607b600160405180602001604052806000815250612af7565b5b6000600560009054906101000a900473ffffffffffffffffffffffffffffffffffffffff1673ffffffffffffffffffffffffffffffffffffffff16633f6c923a85856040518363ffffffff1660e01b8152600401612121929190614985565b600060405180830381865afa15801561213e573d6000803e3d6000fd5b505050506040513d6000823e3d601f19601f820116820180604052508101906121679190614c22565b90508060a001518060200190518101906121819190614d0c565b6006908161218f9190614ef7565b5083838080601f016020809104026020016040519081016040528093929190818152602001838380828437600081840152601f19601f82011690508083019250505050505050915050949350505050565b600073ffffffffffffffffffffffffffffffffffffffff168473ffffffffffffffffffffffffffffffffffffffff160361224f576040517f08c379a000000000000000000000000000000000000000000000000000000000815260040161224690614551565b60405180910390fd5b60006122596116c9565b9050600061226685612ca7565b9050600061227385612ca7565b90506122838389898585896126c1565b600080600088815260200190815260200160002060008a73ffffffffffffffffffffffffffffffffffffffff1673ffffffffffffffffffffffffffffffffffffffff1681526020019081526020016000205490508581101561231a576040517f08c379a0000000000000000000000000000000000000000000000000000000008152600401612311906145e3565b60405180910390fd5b85810360008089815260200190815260200160002060008b73ffffffffffffffffffffffffffffffffffffffff1673ffffffffffffffffffffffffffffffffffffffff168152602001908152602001600020819055508560008089815260200190815260200160002060008a73ffffffffffffffffffffffffffffffffffffffff1673ffffffffffffffffffffffffffffffffffffffff16815260200190815260200160002060008282546123cf9190614603565b925050819055508773ffffffffffffffffffffffffffffffffffffffff168973ffffffffffffffffffffffffffffffffffffffff168573ffffffffffffffffffffffffffffffffffffffff167fc3d58168c5ae7397731d063d5bbf3d657854427343f4c083240f7aacaa2d0f628a8a60405161244c929190614fc9565b60405180910390a4612462848a8a86868a6126d7565b612470848a8a8a8a8a612d21565b505050505050505050565b600073ffffffffffffffffffffffffffffffffffffffff168373ffffffffffffffffffffffffffffffffffffffff16036124ea576040517f08c379a00000000000000000000000000000000000000000000000000000000081526004016124e1906147a8565b60405180910390fd5b60006124f46116c9565b9050600061250184612ca7565b9050600061250e84612ca7565b905061252e838760008585604051806020016040528060008152506126c1565b600080600087815260200190815260200160002060008873ffffffffffffffffffffffffffffffffffffffff1673ffffffffffffffffffffffffffffffffffffffff168152602001908152602001600020549050848110156125c5576040517f08c379a00000000000000000000000000000000000000000000000000000000081526004016125bc9061483a565b60405180910390fd5b84810360008088815260200190815260200160002060008973ffffffffffffffffffffffffffffffffffffffff1673ffffffffffffffffffffffffffffffffffffffff16815260200190815260200160002081905550600073ffffffffffffffffffffffffffffffffffffffff168773ffffffffffffffffffffffffffffffffffffffff168573ffffffffffffffffffffffffffffffffffffffff167fc3d58168c5ae7397731d063d5bbf3d657854427343f4c083240f7aacaa2d0f628989604051612692929190614fc9565b60405180910390a46126b8848860008686604051806020016040528060008152506126d7565b50505050505050565b6126cf868686868686612ef8565b505050505050565b505050505050565b6126fe8473ffffffffffffffffffffffffffffffffffffffff166130c8565b156128ae578373ffffffffffffffffffffffffffffffffffffffff1663bc197c8187878686866040518663ffffffff1660e01b8152600401612744959493929190614ff2565b6020604051808303816000875af192505050801561278057506040513d601f19601f8201168201806040525081019061277d919061505a565b60015b6128255761278c615094565b806308c379a0036127e857506127a06150b6565b806127ab57506127ea565b806040517f08c379a00000000000000000000000000000000000000000000000000000000081526004016127df919061337d565b60405180910390fd5b505b6040517f08c379a000000000000000000000000000000000000000000000000000000000815260040161281c906151b8565b60405180910390fd5b63bc197c8160e01b7bffffffffffffffffffffffffffffffffffffffffffffffffffffffff1916817bffffffffffffffffffffffffffffffffffffffffffffffffffffffff1916146128ac576040517f08c379a00000000000000000000000000000000000000000000000000000000081526004016128a39061524a565b60405180910390fd5b505b505050505050565b6000807f65599bf746e17a00ea62e3610586992d88101b78eec3cf380706621fb97ea8375491507fb969d79d88acd02d04ed7ee7d43b949e7daf093d363abcfbbc43dfdfd1ce969a549050600073ffffffffffffffffffffffffffffffffffffffff168173ffffffffffffffffffffffffffffffffffffffff1603612a7857600073ffffffffffffffffffffffffffffffffffffffff168273ffffffffffffffffffffffffffffffffffffffff16036129db578273ffffffffffffffffffffffffffffffffffffffff166320bc44256040518163ffffffff1660e01b8152600401602060405180830381865afa1580156129b4573d6000803e3d6000fd5b505050506040513d601f19601f820116820180604052508101906129d8919061526a565b91505b8173ffffffffffffffffffffffffffffffffffffffff1663b6d200de7fa9214cc96615e0085d3bb077758db69497dc2dce3b2b1e97bc93c3d18d83efd36040518263ffffffff1660e01b8152600401612a349190613d4e565b602060405180830381865afa158015612a51573d6000803e3d6000fd5b505050506040513d601f19601f82011682018060405250810190612a759190614420565b90505b600073ffffffffffffffffffffffffffffffffffffffff168273ffffffffffffffffffffffffffffffffffffffff1603612ab557612ab4615297565b5b600073ffffffffffffffffffffffffffffffffffffffff168173ffffffffffffffffffffffffffffffffffffffff1603612af257612af1615297565b5b915091565b600073ffffffffffffffffffffffffffffffffffffffff168473ffffffffffffffffffffffffffffffffffffffff1603612b66576040517f08c379a0000000000000000000000000000000000000000000000000000000008152600401612b5d90615338565b60405180910390fd5b6000612b706116c9565b90506000612b7d85612ca7565b90506000612b8a85612ca7565b9050612b9b836000898585896126c1565b8460008088815260200190815260200160002060008973ffffffffffffffffffffffffffffffffffffffff1673ffffffffffffffffffffffffffffffffffffffff1681526020019081526020016000206000828254612bfa9190614603565b925050819055508673ffffffffffffffffffffffffffffffffffffffff16600073ffffffffffffffffffffffffffffffffffffffff168473ffffffffffffffffffffffffffffffffffffffff167fc3d58168c5ae7397731d063d5bbf3d657854427343f4c083240f7aacaa2d0f628989604051612c78929190614fc9565b60405180910390a4612c8f836000898585896126d7565b612c9e83600089898989612d21565b50505050505050565b60606000600167ffffffffffffffff811115612cc657612cc56135de565b5b604051908082528060200260200182016040528015612cf45781602001602082028036833780820191505090505b5090508281600081518110612d0c57612d0b614209565b5b60200260200101818152505080915050919050565b612d408473ffffffffffffffffffffffffffffffffffffffff166130c8565b15612ef0578373ffffffffffffffffffffffffffffffffffffffff1663f23a6e6187878686866040518663ffffffff1660e01b8152600401612d86959493929190615358565b6020604051808303816000875af1925050508015612dc257506040513d601f19601f82011682018060405250810190612dbf919061505a565b60015b612e6757612dce615094565b806308c379a003612e2a5750612de26150b6565b80612ded5750612e2c565b806040517f08c379a0000000000000000000000000000000000000000000000000000000008152600401612e21919061337d565b60405180910390fd5b505b6040517f08c379a0000000000000000000000000000000000000000000000000000000008152600401612e5e906151b8565b60405180910390fd5b63f23a6e6160e01b7bffffffffffffffffffffffffffffffffffffffffffffffffffffffff1916817bffffffffffffffffffffffffffffffffffffffffffffffffffffffff191614612eee576040517f08c379a0000000000000000000000000000000000000000000000000000000008152600401612ee59061524a565b60405180910390fd5b505b505050505050565b612f068686868686866130eb565b600073ffffffffffffffffffffffffffffffffffffffff168573ffffffffffffffffffffffffffffffffffffffff1603612fb75760005b8351811015612fb557828181518110612f5957612f58614209565b5b602002602001015160046000868481518110612f7857612f77614209565b5b602002602001015181526020019081526020016000206000828254612f9d9190614603565b9250508190555080612fae90614267565b9050612f3d565b505b600073ffffffffffffffffffffffffffffffffffffffff168473ffffffffffffffffffffffffffffffffffffffff16036130c05760005b83518110156130be57600084828151811061300c5761300b614209565b5b60200260200101519050600084838151811061302b5761302a614209565b5b6020026020010151905060006004600084815260200190815260200160002054905081811015613090576040517f08c379a000000000000000000000000000000000000000000000000000000000815260040161308790615424565b60405180910390fd5b8181036004600085815260200190815260200160002081905550505050806130b790614267565b9050612fee565b505b505050505050565b6000808273ffffffffffffffffffffffffffffffffffffffff163b119050919050565b505050505050565b6000604051905090565b600080fd5b600080fd5b600073ffffffffffffffffffffffffffffffffffffffff82169050919050565b600061313282613107565b9050919050565b61314281613127565b811461314d57600080fd5b50565b60008135905061315f81613139565b92915050565b6000819050919050565b61317881613165565b811461318357600080fd5b50565b6000813590506131958161316f565b92915050565b600080604083850312156131b2576131b16130fd565b5b60006131c085828601613150565b92505060206131d185828601613186565b9150509250929050565b6131e481613165565b82525050565b60006020820190506131ff60008301846131db565b92915050565b60007fffffffff0000000000000000000000000000000000000000000000000000000082169050919050565b61323a81613205565b811461324557600080fd5b50565b60008135905061325781613231565b92915050565b600060208284031215613273576132726130fd565b5b600061328184828501613248565b91505092915050565b60008115159050919050565b61329f8161328a565b82525050565b60006020820190506132ba6000830184613296565b92915050565b6000602082840312156132d6576132d56130fd565b5b60006132e484828501613186565b91505092915050565b600081519050919050565b600082825260208201905092915050565b60005b8381101561332757808201518184015260208101905061330c565b60008484015250505050565b6000601f19601f8301169050919050565b600061334f826132ed565b61335981856132f8565b9350613369818560208601613309565b61337281613333565b840191505092915050565b600060208201905081810360008301526133978184613344565b905092915050565b60006133aa82613127565b9050919050565b6133ba8161339f565b81146133c557600080fd5b50565b6000813590506133d7816133b1565b92915050565b6000819050919050565b6133f0816133dd565b81146133fb57600080fd5b50565b60008135905061340d816133e7565b92915050565b600080fd5b600080fd5b600080fd5b60008083601f84011261343857613437613413565b5b8235905067ffffffffffffffff81111561345557613454613418565b5b6020830191508360018202830111156134715761347061341d565b5b9250929050565b600080600080600080600080600060c08a8c03121561349a576134996130fd565b5b60006134a88c828d016133c8565b99505060206134b98c828d01613150565b98505060406134ca8c828d016133fe565b97505060608a013567ffffffffffffffff8111156134eb576134ea613102565b5b6134f78c828d01613422565b965096505060808a013567ffffffffffffffff81111561351a57613519613102565b5b6135268c828d01613422565b945094505060a08a013567ffffffffffffffff81111561354957613548613102565b5b6135558c828d01613422565b92509250509295985092959850929598565b600081519050919050565b600082825260208201905092915050565b600061358e82613567565b6135988185613572565b93506135a8818560208601613309565b6135b181613333565b840191505092915050565b600060208201905081810360008301526135d68184613583565b905092915050565b7f4e487b7100000000000000000000000000000000000000000000000000000000600052604160045260246000fd5b61361682613333565b810181811067ffffffffffffffff82111715613635576136346135de565b5b80604052505050565b60006136486130f3565b9050613654828261360d565b919050565b600067ffffffffffffffff821115613674576136736135de565b5b602082029050602081019050919050565b600061369861369384613659565b61363e565b905080838252602082019050602084028301858111156136bb576136ba61341d565b5b835b818110156136e457806136d08882613186565b8452602084019350506020810190506136bd565b5050509392505050565b600082601f83011261370357613702613413565b5b8135613713848260208601613685565b91505092915050565b600080fd5b600067ffffffffffffffff82111561373c5761373b6135de565b5b61374582613333565b9050602081019050919050565b82818337600083830152505050565b600061377461376f84613721565b61363e565b9050828152602081018484840111156137905761378f61371c565b5b61379b848285613752565b509392505050565b600082601f8301126137b8576137b7613413565b5b81356137c8848260208601613761565b91505092915050565b600080600080600060a086880312156137ed576137ec6130fd565b5b60006137fb88828901613150565b955050602061380c88828901613150565b945050604086013567ffffffffffffffff81111561382d5761382c613102565b5b613839888289016136ee565b935050606086013567ffffffffffffffff81111561385a57613859613102565b5b613866888289016136ee565b925050608086013567ffffffffffffffff81111561388757613886613102565b5b613893888289016137a3565b9150509295509295909350565b600080600080600080600060a0888a0312156138bf576138be6130fd565b5b60006138cd8a828b016133c8565b97505060206138de8a828b01613150565b96505060406138ef8a828b016133fe565b955050606088013567ffffffffffffffff8111156139105761390f613102565b5b61391c8a828b01613422565b9450945050608088013567ffffffffffffffff81111561393f5761393e613102565b5b61394b8a828b01613422565b925092505092959891949750929550565b6000819050919050565b600061398161397c61397784613107565b61395c565b613107565b9050919050565b600061399382613966565b9050919050565b60006139a582613988565b9050919050565b6139b58161399a565b82525050565b60006020820190506139d060008301846139ac565b92915050565b600067ffffffffffffffff8211156139f1576139f06135de565b5b602082029050602081019050919050565b6000613a15613a10846139d6565b61363e565b90508083825260208201905060208402830185811115613a3857613a3761341d565b5b835b81811015613a615780613a4d8882613150565b845260208401935050602081019050613a3a565b5050509392505050565b600082601f830112613a8057613a7f613413565b5b8135613a90848260208601613a02565b91505092915050565b60008060408385031215613ab057613aaf6130fd565b5b600083013567ffffffffffffffff811115613ace57613acd613102565b5b613ada85828601613a6b565b925050602083013567ffffffffffffffff811115613afb57613afa613102565b5b613b07858286016136ee565b9150509250929050565b600081519050919050565b600082825260208201905092915050565b6000819050602082019050919050565b613b4681613165565b82525050565b6000613b588383613b3d565b60208301905092915050565b6000602082019050919050565b6000613b7c82613b11565b613b868185613b1c565b9350613b9183613b2d565b8060005b83811015613bc2578151613ba98882613b4c565b9750613bb483613b64565b925050600181019050613b95565b5085935050505092915050565b60006020820190508181036000830152613be98184613b71565b905092915050565b600080600060608486031215613c0a57613c096130fd565b5b6000613c1886828701613150565b935050602084013567ffffffffffffffff811115613c3957613c38613102565b5b613c45868287016136ee565b925050604084013567ffffffffffffffff811115613c6657613c65613102565b5b613c72868287016136ee565b9150509250925092565b600060208284031215613c9257613c916130fd565b5b6000613ca0848285016133c8565b91505092915050565b613cb281613127565b82525050565b6000602082019050613ccd6000830184613ca9565b92915050565b613cdc8161328a565b8114613ce757600080fd5b50565b600081359050613cf981613cd3565b92915050565b60008060408385031215613d1657613d156130fd565b5b6000613d2485828601613150565b9250506020613d3585828601613cea565b9150509250929050565b613d48816133dd565b82525050565b6000602082019050613d636000830184613d3f565b92915050565b60008060408385031215613d8057613d7f6130fd565b5b6000613d8e85828601613150565b9250506020613d9f85828601613150565b9150509250929050565b600080600080600060a08688031215613dc557613dc46130fd565b5b6000613dd388828901613150565b9550506020613de488828901613150565b9450506040613df588828901613186565b9350506060613e0688828901613186565b925050608086013567ffffffffffffffff811115613e2757613e26613102565b5b613e33888289016137a3565b9150509295509295909350565b600060208284031215613e5657613e556130fd565b5b6000613e6484828501613150565b91505092915050565b6000613e7882613988565b9050919050565b613e8881613e6d565b82525050565b6000602082019050613ea36000830184613e7f565b92915050565b600080600060608486031215613ec257613ec16130fd565b5b6000613ed086828701613150565b9350506020613ee186828701613186565b9250506040613ef286828701613186565b9150509250925092565b7f455243313135353a2061646472657373207a65726f206973206e6f742061207660008201527f616c6964206f776e657200000000000000000000000000000000000000000000602082015250565b6000613f58602a836132f8565b9150613f6382613efc565b604082019050919050565b60006020820190508181036000830152613f8781613f4b565b9050919050565b7f4e487b7100000000000000000000000000000000000000000000000000000000600052602260045260246000fd5b60006002820490506001821680613fd557607f821691505b602082108103613fe857613fe7613f8e565b5b50919050565b6000613ff982613107565b9050919050565b61400981613fee565b811461401457600080fd5b50565b60008135905061402681614000565b92915050565b60008060408385031215614043576140426130fd565b5b600061405185828601614017565b925050602061406285828601614017565b9150509250929050565b600081600b0b9050919050565b6140828161406c565b811461408d57600080fd5b50565b60008135905061409f81614079565b92915050565b600080604083850312156140bc576140bb6130fd565b5b60006140ca85828601614090565b92505060206140db85828601613186565b9150509250929050565b7f455243313135353a2063616c6c6572206973206e6f7420746f6b656e206f776e60008201527f6572206f7220617070726f766564000000000000000000000000000000000000602082015250565b6000614141602e836132f8565b915061414c826140e5565b604082019050919050565b6000602082019050818103600083015261417081614134565b9050919050565b7f455243313135353a206163636f756e747320616e6420696473206c656e67746860008201527f206d69736d617463680000000000000000000000000000000000000000000000602082015250565b60006141d36029836132f8565b91506141de82614177565b604082019050919050565b60006020820190508181036000830152614202816141c6565b9050919050565b7f4e487b7100000000000000000000000000000000000000000000000000000000600052603260045260246000fd5b7f4e487b7100000000000000000000000000000000000000000000000000000000600052601160045260246000fd5b600061427282613165565b91507fffffffffffffffffffffffffffffffffffffffffffffffffffffffffffffffff82036142a4576142a3614238565b5b600182019050919050565b600080604083850312156142c6576142c56130fd565b5b60006142d485828601613186565b92505060206142e585828601614090565b9150509250929050565b6142f88161406c565b82525050565b600060408201905061431360008301856131db565b61432060208301846142ef565b9392505050565b600060408201905061433c60008301856142ef565b61434960208301846131db565b9392505050565b7f4f776e61626c653a206e6577206f776e657220697320746865207a65726f206160008201527f6464726573730000000000000000000000000000000000000000000000000000602082015250565b60006143ac6026836132f8565b91506143b782614350565b604082019050919050565b600060208201905081810360008301526143db8161439f565b9050919050565b60006143ed82613127565b9050919050565b6143fd816143e2565b811461440857600080fd5b50565b60008151905061441a816143f4565b92915050565b600060208284031215614436576144356130fd565b5b60006144448482850161440b565b91505092915050565b7f455243313135353a2069647320616e6420616d6f756e7473206c656e6774682060008201527f6d69736d61746368000000000000000000000000000000000000000000000000602082015250565b60006144a96028836132f8565b91506144b48261444d565b604082019050919050565b600060208201905081810360008301526144d88161449c565b9050919050565b7f455243313135353a207472616e7366657220746f20746865207a65726f20616460008201527f6472657373000000000000000000000000000000000000000000000000000000602082015250565b600061453b6025836132f8565b9150614546826144df565b604082019050919050565b6000602082019050818103600083015261456a8161452e565b9050919050565b7f455243313135353a20696e73756666696369656e742062616c616e636520666f60008201527f72207472616e7366657200000000000000000000000000000000000000000000602082015250565b60006145cd602a836132f8565b91506145d882614571565b604082019050919050565b600060208201905081810360008301526145fc816145c0565b9050919050565b600061460e82613165565b915061461983613165565b925082820190508082111561463157614630614238565b5b92915050565b600060408201905081810360008301526146518185613b71565b905081810360208301526146658184613b71565b90509392505050565b600060608201905061468360008301866139ac565b6146906020830185613ca9565b61469d6040830184613ca9565b949350505050565b6000815190506146b48161316f565b92915050565b6000815190506146c981614079565b92915050565b600080600080608085870312156146e9576146e86130fd565b5b60006146f7878288016146a5565b9450506020614708878288016146ba565b9350506040614719878288016146a5565b925050606061472a878288016146a5565b91505092959194509250565b7f455243313135353a206275726e2066726f6d20746865207a65726f206164647260008201527f6573730000000000000000000000000000000000000000000000000000000000602082015250565b60006147926023836132f8565b915061479d82614736565b604082019050919050565b600060208201905081810360008301526147c181614785565b9050919050565b7f455243313135353a206275726e20616d6f756e7420657863656564732062616c60008201527f616e636500000000000000000000000000000000000000000000000000000000602082015250565b60006148246024836132f8565b915061482f826147c8565b604082019050919050565b6000602082019050818103600083015261485381614817565b9050919050565b7f4f776e61626c653a2063616c6c6572206973206e6f7420746865206f776e6572600082015250565b60006148906020836132f8565b915061489b8261485a565b602082019050919050565b600060208201905081810360008301526148bf81614883565b9050919050565b7f455243313135353a2073657474696e6720617070726f76616c2073746174757360008201527f20666f722073656c660000000000000000000000000000000000000000000000602082015250565b60006149226029836132f8565b915061492d826148c6565b604082019050919050565b6000602082019050818103600083015261495181614915565b9050919050565b60006149648385613572565b9350614971838584613752565b61497a83613333565b840190509392505050565b600060208201905081810360008301526149a0818486614958565b90509392505050565b600080fd5b600080fd5b600060ff82169050919050565b6149c9816149b3565b81146149d457600080fd5b50565b6000815190506149e6816149c0565b92915050565b6000815190506149fb81613139565b92915050565b600081519050614a1081613231565b92915050565b6000614a29614a2484613721565b61363e565b905082815260208101848484011115614a4557614a4461371c565b5b614a50848285613309565b509392505050565b600082601f830112614a6d57614a6c613413565b5b8151614a7d848260208601614a16565b91505092915050565b6000819050919050565b614a9981614a86565b8114614aa457600080fd5b50565b600081519050614ab681614a90565b92915050565b6000614ac782613127565b9050919050565b614ad781614abc565b8114614ae257600080fd5b50565b600081519050614af481614ace565b92915050565b60006101608284031215614b1157614b106149a9565b5b614b1c61016061363e565b90506000614b2c848285016149d7565b6000830152506020614b40848285016149d7565b6020830152506040614b54848285016146a5565b6040830152506060614b68848285016149ec565b6060830152506080614b7c84828501614a01565b60808301525060a082015167ffffffffffffffff811115614ba057614b9f6149ae565b5b614bac84828501614a58565b60a08301525060c0614bc0848285016146a5565b60c08301525060e0614bd4848285016146a5565b60e083015250610100614be984828501614aa7565b61010083015250610120614bff848285016149ec565b61012083015250610140614c1584828501614ae5565b6101408301525092915050565b600060208284031215614c3857614c376130fd565b5b600082015167ffffffffffffffff811115614c5657614c55613102565b5b614c6284828501614afa565b91505092915050565b600067ffffffffffffffff821115614c8657614c856135de565b5b614c8f82613333565b9050602081019050919050565b6000614caf614caa84614c6b565b61363e565b905082815260208101848484011115614ccb57614cca61371c565b5b614cd6848285613309565b509392505050565b600082601f830112614cf357614cf2613413565b5b8151614d03848260208601614c9c565b91505092915050565b600060208284031215614d2257614d216130fd565b5b600082015167ffffffffffffffff811115614d4057614d3f613102565b5b614d4c84828501614cde565b91505092915050565b60008190508160005260206000209050919050565b60006020601f8301049050919050565b600082821b905092915050565b600060088302614db77fffffffffffffffffffffffffffffffffffffffffffffffffffffffffffffffff82614d7a565b614dc18683614d7a565b95508019841693508086168417925050509392505050565b6000614df4614def614dea84613165565b61395c565b613165565b9050919050565b6000819050919050565b614e0e83614dd9565b614e22614e1a82614dfb565b848454614d87565b825550505050565b600090565b614e37614e2a565b614e42818484614e05565b505050565b5b81811015614e6657614e5b600082614e2f565b600181019050614e48565b5050565b601f821115614eab57614e7c81614d55565b614e8584614d6a565b81016020851015614e94578190505b614ea8614ea085614d6a565b830182614e47565b50505b505050565b600082821c905092915050565b6000614ece60001984600802614eb0565b1980831691505092915050565b6000614ee78383614ebd565b9150826002028217905092915050565b614f00826132ed565b67ffffffffffffffff811115614f1957614f186135de565b5b614f238254613fbd565b614f2e828285614e6a565b600060209050601f831160018114614f615760008415614f4f578287015190505b614f598582614edb565b865550614fc1565b601f198416614f6f86614d55565b60005b82811015614f9757848901518255600182019150602085019450602081019050614f72565b86831015614fb45784890151614fb0601f891682614ebd565b8355505b6001600288020188555050505b505050505050565b6000604082019050614fde60008301856131db565b614feb60208301846131db565b9392505050565b600060a0820190506150076000830188613ca9565b6150146020830187613ca9565b81810360408301526150268186613b71565b9050818103606083015261503a8185613b71565b9050818103608083015261504e8184613583565b90509695505050505050565b6000602082840312156150705761506f6130fd565b5b600061507e84828501614a01565b91505092915050565b60008160e01c9050919050565b600060033d11156150b35760046000803e6150b0600051615087565b90505b90565b600060443d10615143576150c86130f3565b60043d036004823e80513d602482011167ffffffffffffffff821117156150f0575050615143565b808201805167ffffffffffffffff81111561510e5750505050615143565b80602083010160043d03850181111561512b575050505050615143565b61513a8260200185018661360d565b82955050505050505b90565b7f455243313135353a207472616e7366657220746f206e6f6e2d4552433131353560008201527f526563656976657220696d706c656d656e746572000000000000000000000000602082015250565b60006151a26034836132f8565b91506151ad82615146565b604082019050919050565b600060208201905081810360008301526151d181615195565b9050919050565b7f455243313135353a204552433131353552656365697665722072656a6563746560008201527f6420746f6b656e73000000000000000000000000000000000000000000000000602082015250565b60006152346028836132f8565b915061523f826151d8565b604082019050919050565b6000602082019050818103600083015261526381615227565b9050919050565b6000602082840312156152805761527f6130fd565b5b600061528e848285016149ec565b91505092915050565b7f4e487b7100000000000000000000000000000000000000000000000000000000600052600160045260246000fd5b7f455243313135353a206d696e7420746f20746865207a65726f2061646472657360008201527f7300000000000000000000000000000000000000000000000000000000000000602082015250565b60006153226021836132f8565b915061532d826152c6565b604082019050919050565b6000602082019050818103600083015261535181615315565b9050919050565b600060a08201905061536d6000830188613ca9565b61537a6020830187613ca9565b61538760408301866131db565b61539460608301856131db565b81810360808301526153a68184613583565b90509695505050505050565b7f455243313135353a206275726e20616d6f756e74206578636565647320746f7460008201527f616c537570706c79000000000000000000000000000000000000000000000000602082015250565b600061540e6028836132f8565b9150615419826153b2565b604082019050919050565b6000602082019050818103600083015261543d81615401565b905091905056fea2646970667358221220a452d982712e6ae1428ed06e36a99d3bb8dbaa6d2d963d57253911c37cd1a53264736f6c63430008130033",
			"opcodes": "PUSH1 0xA0 PUSH1 0x40 MSTORE CALLVALUE DUP1 ISZERO PUSH3 0x11 JUMPI PUSH1 0x0 DUP1 REVERT JUMPDEST POP PUSH1 0x40 MLOAD PUSH3 0x5BD8 CODESIZE SUB DUP1 PUSH3 0x5BD8 DUP4 CODECOPY DUP2 DUP2 ADD PUSH1 0x40 MSTORE DUP2 ADD SWAP1 PUSH3 0x37 SWAP2 SWAP1 PUSH3 0x365 JUMP JUMPDEST DUP1 PUSH1 0x1 PUSH1 0x0 PUSH1 0x1 PUSH1 0x40 MLOAD DUP1 PUSH1 0x20 ADD PUSH1 0x40 MSTORE DUP1 PUSH1 0x0 DUP2 MSTORE POP PUSH3 0x5F DUP2 PUSH3 0x1BF PUSH1 0x20 SHL PUSH1 0x20 SHR JUMP JUMPDEST POP PUSH3 0x80 PUSH3 0x74 PUSH3 0x1D4 PUSH1 0x20 SHL PUSH1 0x20 SHR JUMP JUMPDEST PUSH3 0x1DC PUSH1 0x20 SHL PUSH1 0x20 SHR JUMP JUMPDEST DUP4 PUSH1 0x5 PUSH1 0x0 PUSH2 0x100 EXP DUP2 SLOAD DUP2 PUSH20 0xFFFFFFFFFFFFFFFFFFFFFFFFFFFFFFFFFFFFFFFF MUL NOT AND SWAP1 DUP4 PUSH20 0xFFFFFFFFFFFFFFFFFFFFFFFFFFFFFFFFFFFFFFFF AND MUL OR SWAP1 SSTORE POP PUSH1 0x0 PUSH5 0x100000000 PUSH1 0x1 OR SWAP1 POP DUP4 PUSH3 0xDF JUMPI PUSH5 0x200000000 DUP2 OR SWAP1 POP JUMPDEST DUP3 PUSH3 0xF7 JUMPI PUSH5 0x800000000 PUSH5 0x400000000 OR DUP2 OR SWAP1 POP JUMPDEST DUP2 PUSH3 0x10F JUMPI PUSH5 0x2000000000 PUSH5 0x1000000000 OR DUP2 OR SWAP1 POP JUMPDEST DUP5 PUSH20 0xFFFFFFFFFFFFFFFFFFFFFFFFFFFFFFFFFFFFFFFF AND PUSH4 0xAD3915C8 DUP3 PUSH1 0x40 MLOAD DUP3 PUSH4 0xFFFFFFFF AND PUSH1 0xE0 SHL DUP2 MSTORE PUSH1 0x4 ADD PUSH3 0x14A SWAP2 SWAP1 PUSH3 0x3C7 JUMP JUMPDEST PUSH1 0x0 PUSH1 0x40 MLOAD DUP1 DUP4 SUB DUP2 PUSH1 0x0 DUP8 DUP1 EXTCODESIZE ISZERO DUP1 ISZERO PUSH3 0x165 JUMPI PUSH1 0x0 DUP1 REVERT JUMPDEST POP GAS CALL ISZERO DUP1 ISZERO PUSH3 0x17A JUMPI RETURNDATASIZE PUSH1 0x0 DUP1 RETURNDATACOPY RETURNDATASIZE PUSH1 0x0 REVERT JUMPDEST POP POP POP POP POP POP POP POP POP DUP2 PUSH20 0xFFFFFFFFFFFFFFFFFFFFFFFFFFFFFFFFFFFFFFFF AND PUSH1 0x80 DUP2 PUSH20 0xFFFFFFFFFFFFFFFFFFFFFFFFFFFFFFFFFFFFFFFF AND DUP2 MSTORE POP POP POP POP PUSH3 0x73B JUMP JUMPDEST DUP1 PUSH1 0x2 SWAP1 DUP2 PUSH3 0x1D0 SWAP2 SWAP1 PUSH3 0x654 JUMP JUMPDEST POP POP JUMP JUMPDEST PUSH1 0x0 CALLER SWAP1 POP SWAP1 JUMP JUMPDEST PUSH1 0x0 PUSH1 0x3 PUSH1 0x0 SWAP1 SLOAD SWAP1 PUSH2 0x100 EXP SWAP1 DIV PUSH20 0xFFFFFFFFFFFFFFFFFFFFFFFFFFFFFFFFFFFFFFFF AND SWAP1 POP DUP2 PUSH1 0x3 PUSH1 0x0 PUSH2 0x100 EXP DUP2 SLOAD DUP2 PUSH20 0xFFFFFFFFFFFFFFFFFFFFFFFFFFFFFFFFFFFFFFFF MUL NOT AND SWAP1 DUP4 PUSH20 0xFFFFFFFFFFFFFFFFFFFFFFFFFFFFFFFFFFFFFFFF AND MUL OR SWAP1 SSTORE POP DUP2 PUSH20 0xFFFFFFFFFFFFFFFFFFFFFFFFFFFFFFFFFFFFFFFF AND DUP2 PUSH20 0xFFFFFFFFFFFFFFFFFFFFFFFFFFFFFFFFFFFFFFFF AND PUSH32 0x8BE0079C531659141344CD1FD0A4F28419497F9722A3DAAFE3B4186F6B6457E0 PUSH1 0x40 MLOAD PUSH1 0x40 MLOAD DUP1 SWAP2 SUB SWAP1 LOG3 POP POP JUMP JUMPDEST PUSH1 0x0 DUP1 REVERT JUMPDEST PUSH1 0x0 PUSH20 0xFFFFFFFFFFFFFFFFFFFFFFFFFFFFFFFFFFFFFFFF DUP3 AND SWAP1 POP SWAP2 SWAP1 POP JUMP JUMPDEST PUSH1 0x0 PUSH3 0x2D4 DUP3 PUSH3 0x2A7 JUMP JUMPDEST SWAP1 POP SWAP2 SWAP1 POP JUMP JUMPDEST PUSH1 0x0 PUSH3 0x2E8 DUP3 PUSH3 0x2C7 JUMP JUMPDEST SWAP1 POP SWAP2 SWAP1 POP JUMP JUMPDEST PUSH3 0x2FA DUP2 PUSH3 0x2DB JUMP JUMPDEST DUP2 EQ PUSH3 0x306 JUMPI PUSH1 0x0 DUP1 REVERT JUMPDEST POP JUMP JUMPDEST PUSH1 0x0 DUP2 MLOAD SWAP1 POP PUSH3 0x31A DUP2 PUSH3 0x2EF JUMP JUMPDEST SWAP3 SWAP2 POP POP JUMP JUMPDEST PUSH1 0x0 PUSH3 0x32D DUP3 PUSH3 0x2C7 JUMP JUMPDEST SWAP1 POP SWAP2 SWAP1 POP JUMP JUMPDEST PUSH3 0x33F DUP2 PUSH3 0x320 JUMP JUMPDEST DUP2 EQ PUSH3 0x34B JUMPI PUSH1 0x0 DUP1 REVERT JUMPDEST POP JUMP JUMPDEST PUSH1 0x0 DUP2 MLOAD SWAP1 POP PUSH3 0x35F DUP2 PUSH3 0x334 JUMP JUMPDEST SWAP3 SWAP2 POP POP JUMP JUMPDEST PUSH1 0x0 DUP1 PUSH1 0x40 DUP4 DUP6 SUB SLT ISZERO PUSH3 0x37F JUMPI PUSH3 0x37E PUSH3 0x2A2 JUMP JUMPDEST JUMPDEST PUSH1 0x0 PUSH3 0x38F DUP6 DUP3 DUP7 ADD PUSH3 0x309 JUMP JUMPDEST SWAP3 POP POP PUSH1 0x20 PUSH3 0x3A2 DUP6 DUP3 DUP7 ADD PUSH3 0x34E JUMP JUMPDEST SWAP2 POP POP SWAP3 POP SWAP3 SWAP1 POP JUMP JUMPDEST PUSH1 0x0 DUP2 SWAP1 POP SWAP2 SWAP1 POP JUMP JUMPDEST PUSH3 0x3C1 DUP2 PUSH3 0x3AC JUMP JUMPDEST DUP3 MSTORE POP POP JUMP JUMPDEST PUSH1 0x0 PUSH1 0x20 DUP3 ADD SWAP1 POP PUSH3 0x3DE PUSH1 0x0 DUP4 ADD DUP5 PUSH3 0x3B6 JUMP JUMPDEST SWAP3 SWAP2 POP POP JUMP JUMPDEST PUSH1 0x0 DUP2 MLOAD SWAP1 POP SWAP2 SWAP1 POP JUMP JUMPDEST PUSH32 0x4E487B7100000000000000000000000000000000000000000000000000000000 PUSH1 0x0 MSTORE PUSH1 0x41 PUSH1 0x4 MSTORE PUSH1 0x24 PUSH1 0x0 REVERT JUMPDEST PUSH32 0x4E487B7100000000000000000000000000000000000000000000000000000000 PUSH1 0x0 MSTORE PUSH1 0x22 PUSH1 0x4 MSTORE PUSH1 0x24 PUSH1 0x0 REVERT JUMPDEST PUSH1 0x0 PUSH1 0x2 DUP3 DIV SWAP1 POP PUSH1 0x1 DUP3 AND DUP1 PUSH3 0x466 JUMPI PUSH1 0x7F DUP3 AND SWAP2 POP JUMPDEST PUSH1 0x20 DUP3 LT DUP2 SUB PUSH3 0x47C JUMPI PUSH3 0x47B PUSH3 0x41E JUMP JUMPDEST JUMPDEST POP SWAP2 SWAP1 POP JUMP JUMPDEST PUSH1 0x0 DUP2 SWAP1 POP DUP2 PUSH1 0x0 MSTORE PUSH1 0x20 PUSH1 0x0 KECCAK256 SWAP1 POP SWAP2 SWAP1 POP JUMP JUMPDEST PUSH1 0x0 PUSH1 0x20 PUSH1 0x1F DUP4 ADD DIV SWAP1 POP SWAP2 SWAP1 POP JUMP JUMPDEST PUSH1 0x0 DUP3 DUP3 SHL SWAP1 POP SWAP3 SWAP2 POP POP JUMP JUMPDEST PUSH1 0x0 PUSH1 0x8 DUP4 MUL PUSH3 0x4E6 PUSH32 0xFFFFFFFFFFFFFFFFFFFFFFFFFFFFFFFFFFFFFFFFFFFFFFFFFFFFFFFFFFFFFFFF DUP3 PUSH3 0x4A7 JUMP JUMPDEST PUSH3 0x4F2 DUP7 DUP4 PUSH3 0x4A7 JUMP JUMPDEST SWAP6 POP DUP1 NOT DUP5 AND SWAP4 POP DUP1 DUP7 AND DUP5 OR SWAP3 POP POP POP SWAP4 SWAP3 POP POP POP JUMP JUMPDEST PUSH1 0x0 DUP2 SWAP1 POP SWAP2 SWAP1 POP JUMP JUMPDEST PUSH1 0x0 PUSH3 0x535 PUSH3 0x52F PUSH3 0x529 DUP5 PUSH3 0x3AC JUMP JUMPDEST PUSH3 0x50A JUMP JUMPDEST PUSH3 0x3AC JUMP JUMPDEST SWAP1 POP SWAP2 SWAP1 POP JUMP JUMPDEST PUSH1 0x0 DUP2 SWAP1 POP SWAP2 SWAP1 POP JUMP JUMPDEST PUSH3 0x551 DUP4 PUSH3 0x514 JUMP JUMPDEST PUSH3 0x569 PUSH3 0x560 DUP3 PUSH3 0x53C JUMP JUMPDEST DUP5 DUP5 SLOAD PUSH3 0x4B4 JUMP JUMPDEST DUP3 SSTORE POP POP POP POP JUMP JUMPDEST PUSH1 0x0 SWAP1 JUMP JUMPDEST PUSH3 0x580 PUSH3 0x571 JUMP JUMPDEST PUSH3 0x58D DUP2 DUP5 DUP5 PUSH3 0x546 JUMP JUMPDEST POP POP POP JUMP JUMPDEST JUMPDEST DUP2 DUP2 LT ISZERO PUSH3 0x5B5 JUMPI PUSH3 0x5A9 PUSH1 0x0 DUP3 PUSH3 0x576 JUMP JUMPDEST PUSH1 0x1 DUP2 ADD SWAP1 POP PUSH3 0x593 JUMP JUMPDEST POP POP JUMP JUMPDEST PUSH1 0x1F DUP3 GT ISZERO PUSH3 0x604 JUMPI PUSH3 0x5CE DUP2 PUSH3 0x482 JUMP JUMPDEST PUSH3 0x5D9 DUP5 PUSH3 0x497 JUMP JUMPDEST DUP2 ADD PUSH1 0x20 DUP6 LT ISZERO PUSH3 0x5E9 JUMPI DUP2 SWAP1 POP JUMPDEST PUSH3 0x601 PUSH3 0x5F8 DUP6 PUSH3 0x497 JUMP JUMPDEST DUP4 ADD DUP3 PUSH3 0x592 JUMP JUMPDEST POP POP JUMPDEST POP POP POP JUMP JUMPDEST PUSH1 0x0 DUP3 DUP3 SHR SWAP1 POP SWAP3 SWAP2 POP POP JUMP JUMPDEST PUSH1 0x0 PUSH3 0x629 PUSH1 0x0 NOT DUP5 PUSH1 0x8 MUL PUSH3 0x609 JUMP JUMPDEST NOT DUP1 DUP4 AND SWAP2 POP POP SWAP3 SWAP2 POP POP JUMP JUMPDEST PUSH1 0x0 PUSH3 0x644 DUP4 DUP4 PUSH3 0x616 JUMP JUMPDEST SWAP2 POP DUP3 PUSH1 0x2 MUL DUP3 OR SWAP1 POP SWAP3 SWAP2 POP POP JUMP JUMPDEST PUSH3 0x65F DUP3 PUSH3 0x3E4 JUMP JUMPDEST PUSH8 0xFFFFFFFFFFFFFFFF DUP2 GT ISZERO PUSH3 0x67B JUMPI PUSH3 0x67A PUSH3 0x3EF JUMP JUMPDEST JUMPDEST PUSH3 0x687 DUP3 SLOAD PUSH3 0x44D JUMP JUMPDEST PUSH3 0x694 DUP3 DUP3 DUP6 PUSH3 0x5B9 JUMP JUMPDEST PUSH1 0x0 PUSH1 0x20 SWAP1 POP PUSH1 0x1F DUP4 GT PUSH1 0x1 DUP2 EQ PUSH3 0x6CC JUMPI PUSH1 0x0 DUP5 ISZERO PUSH3 0x6B7 JUMPI DUP3 DUP8 ADD MLOAD SWAP1 POP JUMPDEST PUSH3 0x6C3 DUP6 DUP3 PUSH3 0x636 JUMP JUMPDEST DUP7 SSTORE POP PUSH3 0x733 JUMP JUMPDEST PUSH1 0x1F NOT DUP5 AND PUSH3 0x6DC DUP7 PUSH3 0x482 JUMP JUMPDEST PUSH1 0x0 JUMPDEST DUP3 DUP2 LT ISZERO PUSH3 0x706 JUMPI DUP5 DUP10 ADD MLOAD DUP3 SSTORE PUSH1 0x1 DUP3 ADD SWAP2 POP PUSH1 0x20 DUP6 ADD SWAP5 POP PUSH1 0x20 DUP2 ADD SWAP1 POP PUSH3 0x6DF JUMP JUMPDEST DUP7 DUP4 LT ISZERO PUSH3 0x726 JUMPI DUP5 DUP10 ADD MLOAD PUSH3 0x722 PUSH1 0x1F DUP10 AND DUP3 PUSH3 0x616 JUMP JUMPDEST DUP4 SSTORE POP JUMPDEST PUSH1 0x1 PUSH1 0x2 DUP9 MUL ADD DUP9 SSTORE POP POP POP JUMPDEST POP POP POP POP POP POP JUMP JUMPDEST PUSH1 0x80 MLOAD PUSH2 0x547A PUSH3 0x75E PUSH1 0x0 CODECOPY PUSH1 0x0 DUP2 DUP2 PUSH2 0xA0C ADD MSTORE PUSH2 0xE5C ADD MSTORE PUSH2 0x547A PUSH1 0x0 RETURN INVALID PUSH1 0x80 PUSH1 0x40 MSTORE CALLVALUE DUP1 ISZERO PUSH2 0x10 JUMPI PUSH1 0x0 DUP1 REVERT JUMPDEST POP PUSH1 0x4 CALLDATASIZE LT PUSH2 0x18D JUMPI PUSH1 0x0 CALLDATALOAD PUSH1 0xE0 SHR DUP1 PUSH4 0x72CA8A3E GT PUSH2 0xDE JUMPI DUP1 PUSH4 0xBEA6998F GT PUSH2 0x97 JUMPI DUP1 PUSH4 0xF242432A GT PUSH2 0x71 JUMPI DUP1 PUSH4 0xF242432A EQ PUSH2 0x508 JUMPI DUP1 PUSH4 0xF2FDE38B EQ PUSH2 0x524 JUMPI DUP1 PUSH4 0xF437BC59 EQ PUSH2 0x540 JUMPI DUP1 PUSH4 0xF5298ACA EQ PUSH2 0x55E JUMPI PUSH2 0x18D JUMP JUMPDEST DUP1 PUSH4 0xBEA6998F EQ PUSH2 0x48A JUMPI DUP1 PUSH4 0xD86ED3E5 EQ PUSH2 0x4A8 JUMPI DUP1 PUSH4 0xE985E9C5 EQ PUSH2 0x4D8 JUMPI PUSH2 0x18D JUMP JUMPDEST DUP1 PUSH4 0x72CA8A3E EQ PUSH2 0x3A2 JUMPI DUP1 PUSH4 0x884D1F40 EQ PUSH2 0x3D2 JUMPI DUP1 PUSH4 0x8DA5CB5B EQ PUSH2 0x402 JUMPI DUP1 PUSH4 0xA22CB465 EQ PUSH2 0x420 JUMPI DUP1 PUSH4 0xBCB4546F EQ PUSH2 0x43C JUMPI DUP1 PUSH4 0xBD85B039 EQ PUSH2 0x45A JUMPI PUSH2 0x18D JUMP JUMPDEST DUP1 PUSH4 0x451C3D80 GT PUSH2 0x14B JUMPI DUP1 PUSH4 0x53C11F99 GT PUSH2 0x125 JUMPI DUP1 PUSH4 0x53C11F99 EQ PUSH2 0x31C JUMPI DUP1 PUSH4 0x5F9E7D77 EQ PUSH2 0x34C JUMPI DUP1 PUSH4 0x6B20C454 EQ PUSH2 0x37C JUMPI DUP1 PUSH4 0x715018A6 EQ PUSH2 0x398 JUMPI PUSH2 0x18D JUMP JUMPDEST DUP1 PUSH4 0x451C3D80 EQ PUSH2 0x29E JUMPI DUP1 PUSH4 0x4E1273F4 EQ PUSH2 0x2BC JUMPI DUP1 PUSH4 0x4F558E79 EQ PUSH2 0x2EC JUMPI PUSH2 0x18D JUMP JUMPDEST DUP1 PUSH3 0xFDD58E EQ PUSH2 0x192 JUMPI DUP1 PUSH4 0x1FFC9A7 EQ PUSH2 0x1C2 JUMPI DUP1 PUSH4 0xE89341C EQ PUSH2 0x1F2 JUMPI DUP1 PUSH4 0x230DBD29 EQ PUSH2 0x222 JUMPI DUP1 PUSH4 0x2EB2C2D6 EQ PUSH2 0x252 JUMPI DUP1 PUSH4 0x30D9C915 EQ PUSH2 0x26E JUMPI JUMPDEST PUSH1 0x0 DUP1 REVERT JUMPDEST PUSH2 0x1AC PUSH1 0x4 DUP1 CALLDATASIZE SUB DUP2 ADD SWAP1 PUSH2 0x1A7 SWAP2 SWAP1 PUSH2 0x319B JUMP JUMPDEST PUSH2 0x57A JUMP JUMPDEST PUSH1 0x40 MLOAD PUSH2 0x1B9 SWAP2 SWAP1 PUSH2 0x31EA JUMP JUMPDEST PUSH1 0x40 MLOAD DUP1 SWAP2 SUB SWAP1 RETURN JUMPDEST PUSH2 0x1DC PUSH1 0x4 DUP1 CALLDATASIZE SUB DUP2 ADD SWAP1 PUSH2 0x1D7 SWAP2 SWAP1 PUSH2 0x325D JUMP JUMPDEST PUSH2 0x642 JUMP JUMPDEST PUSH1 0x40 MLOAD PUSH2 0x1E9 SWAP2 SWAP1 PUSH2 0x32A5 JUMP JUMPDEST PUSH1 0x40 MLOAD DUP1 SWAP2 SUB SWAP1 RETURN JUMPDEST PUSH2 0x20C PUSH1 0x4 DUP1 CALLDATASIZE SUB DUP2 ADD SWAP1 PUSH2 0x207 SWAP2 SWAP1 PUSH2 0x32C0 JUMP JUMPDEST PUSH2 0x724 JUMP JUMPDEST PUSH1 0x40 MLOAD PUSH2 0x219 SWAP2 SWAP1 PUSH2 0x337D JUMP JUMPDEST PUSH1 0x40 MLOAD DUP1 SWAP2 SUB SWAP1 RETURN JUMPDEST PUSH2 0x23C PUSH1 0x4 DUP1 CALLDATASIZE SUB DUP2 ADD SWAP1 PUSH2 0x237 SWAP2 SWAP1 PUSH2 0x3478 JUMP JUMPDEST PUSH2 0x7B8 JUMP JUMPDEST PUSH1 0x40 MLOAD PUSH2 0x249 SWAP2 SWAP1 PUSH2 0x35BC JUMP JUMPDEST PUSH1 0x40 MLOAD DUP1 SWAP2 SUB SWAP1 RETURN JUMPDEST PUSH2 0x26C PUSH1 0x4 DUP1 CALLDATASIZE SUB DUP2 ADD SWAP1 PUSH2 0x267 SWAP2 SWAP1 PUSH2 0x37D1 JUMP JUMPDEST PUSH2 0x924 JUMP JUMPDEST STOP JUMPDEST PUSH2 0x288 PUSH1 0x4 DUP1 CALLDATASIZE SUB DUP2 ADD SWAP1 PUSH2 0x283 SWAP2 SWAP1 PUSH2 0x38A0 JUMP JUMPDEST PUSH2 0x9C5 JUMP JUMPDEST PUSH1 0x40 MLOAD PUSH2 0x295 SWAP2 SWAP1 PUSH2 0x35BC JUMP JUMPDEST PUSH1 0x40 MLOAD DUP1 SWAP2 SUB SWAP1 RETURN JUMPDEST PUSH2 0x2A6 PUSH2 0xA0A JUMP JUMPDEST PUSH1 0x40 MLOAD PUSH2 0x2B3 SWAP2 SWAP1 PUSH2 0x39BB JUMP JUMPDEST PUSH1 0x40 MLOAD DUP1 SWAP2 SUB SWAP1 RETURN JUMPDEST PUSH2 0x2D6 PUSH1 0x4 DUP1 CALLDATASIZE SUB DUP2 ADD SWAP1 PUSH2 0x2D1 SWAP2 SWAP1 PUSH2 0x3A99 JUMP JUMPDEST PUSH2 0xA2E JUMP JUMPDEST PUSH1 0x40 MLOAD PUSH2 0x2E3 SWAP2 SWAP1 PUSH2 0x3BCF JUMP JUMPDEST PUSH1 0x40 MLOAD DUP1 SWAP2 SUB SWAP1 RETURN JUMPDEST PUSH2 0x306 PUSH1 0x4 DUP1 CALLDATASIZE SUB DUP2 ADD SWAP1 PUSH2 0x301 SWAP2 SWAP1 PUSH2 0x32C0 JUMP JUMPDEST PUSH2 0xB47 JUMP JUMPDEST PUSH1 0x40 MLOAD PUSH2 0x313 SWAP2 SWAP1 PUSH2 0x32A5 JUMP JUMPDEST PUSH1 0x40 MLOAD DUP1 SWAP2 SUB SWAP1 RETURN JUMPDEST PUSH2 0x336 PUSH1 0x4 DUP1 CALLDATASIZE SUB DUP2 ADD SWAP1 PUSH2 0x331 SWAP2 SWAP1 PUSH2 0x3478 JUMP JUMPDEST PUSH2 0xB5B JUMP JUMPDEST PUSH1 0x40 MLOAD PUSH2 0x343 SWAP2 SWAP1 PUSH2 0x35BC JUMP JUMPDEST PUSH1 0x40 MLOAD DUP1 SWAP2 SUB SWAP1 RETURN JUMPDEST PUSH2 0x366 PUSH1 0x4 DUP1 CALLDATASIZE SUB DUP2 ADD SWAP1 PUSH2 0x361 SWAP2 SWAP1 PUSH2 0x38A0 JUMP JUMPDEST PUSH2 0xC71 JUMP JUMPDEST PUSH1 0x40 MLOAD PUSH2 0x373 SWAP2 SWAP1 PUSH2 0x35BC JUMP JUMPDEST PUSH1 0x40 MLOAD DUP1 SWAP2 SUB SWAP1 RETURN JUMPDEST PUSH2 0x396 PUSH1 0x4 DUP1 CALLDATASIZE SUB DUP2 ADD SWAP1 PUSH2 0x391 SWAP2 SWAP1 PUSH2 0x3BF1 JUMP JUMPDEST PUSH2 0xDA7 JUMP JUMPDEST STOP JUMPDEST PUSH2 0x3A0 PUSH2 0xE44 JUMP JUMPDEST STOP JUMPDEST PUSH2 0x3BC PUSH1 0x4 DUP1 CALLDATASIZE SUB DUP2 ADD SWAP1 PUSH2 0x3B7 SWAP2 SWAP1 PUSH2 0x3C7C JUMP JUMPDEST PUSH2 0xE58 JUMP JUMPDEST PUSH1 0x40 MLOAD PUSH2 0x3C9 SWAP2 SWAP1 PUSH2 0x32A5 JUMP JUMPDEST PUSH1 0x40 MLOAD DUP1 SWAP2 SUB SWAP1 RETURN JUMPDEST PUSH2 0x3EC PUSH1 0x4 DUP1 CALLDATASIZE SUB DUP2 ADD SWAP1 PUSH2 0x3E7 SWAP2 SWAP1 PUSH2 0x38A0 JUMP JUMPDEST PUSH2 0xEB0 JUMP JUMPDEST PUSH1 0x40 MLOAD PUSH2 0x3F9 SWAP2 SWAP1 PUSH2 0x35BC JUMP JUMPDEST PUSH1 0x40 MLOAD DUP1 SWAP2 SUB SWAP1 RETURN JUMPDEST PUSH2 0x40A PUSH2 0x103D JUMP JUMPDEST PUSH1 0x40 MLOAD PUSH2 0x417 SWAP2 SWAP1 PUSH2 0x3CB8 JUMP JUMPDEST PUSH1 0x40 MLOAD DUP1 SWAP2 SUB SWAP1 RETURN JUMPDEST PUSH2 0x43A PUSH1 0x4 DUP1 CALLDATASIZE SUB DUP2 ADD SWAP1 PUSH2 0x435 SWAP2 SWAP1 PUSH2 0x3CFF JUMP JUMPDEST PUSH2 0x1067 JUMP JUMPDEST STOP JUMPDEST PUSH2 0x444 PUSH2 0x107D JUMP JUMPDEST PUSH1 0x40 MLOAD PUSH2 0x451 SWAP2 SWAP1 PUSH2 0x3D4E JUMP JUMPDEST PUSH1 0x40 MLOAD DUP1 SWAP2 SUB SWAP1 RETURN JUMPDEST PUSH2 0x474 PUSH1 0x4 DUP1 CALLDATASIZE SUB DUP2 ADD SWAP1 PUSH2 0x46F SWAP2 SWAP1 PUSH2 0x32C0 JUMP JUMPDEST PUSH2 0x10A1 JUMP JUMPDEST PUSH1 0x40 MLOAD PUSH2 0x481 SWAP2 SWAP1 PUSH2 0x31EA JUMP JUMPDEST PUSH1 0x40 MLOAD DUP1 SWAP2 SUB SWAP1 RETURN JUMPDEST PUSH2 0x492 PUSH2 0x10BE JUMP JUMPDEST PUSH1 0x40 MLOAD PUSH2 0x49F SWAP2 SWAP1 PUSH2 0x337D JUMP JUMPDEST PUSH1 0x40 MLOAD DUP1 SWAP2 SUB SWAP1 RETURN JUMPDEST PUSH2 0x4C2 PUSH1 0x4 DUP1 CALLDATASIZE SUB DUP2 ADD SWAP1 PUSH2 0x4BD SWAP2 SWAP1 PUSH2 0x3478 JUMP JUMPDEST PUSH2 0x114C JUMP JUMPDEST PUSH1 0x40 MLOAD PUSH2 0x4CF SWAP2 SWAP1 PUSH2 0x35BC JUMP JUMPDEST PUSH1 0x40 MLOAD DUP1 SWAP2 SUB SWAP1 RETURN JUMPDEST PUSH2 0x4F2 PUSH1 0x4 DUP1 CALLDATASIZE SUB DUP2 ADD SWAP1 PUSH2 0x4ED SWAP2 SWAP1 PUSH2 0x3D69 JUMP JUMPDEST PUSH2 0x129E JUMP JUMPDEST PUSH1 0x40 MLOAD PUSH2 0x4FF SWAP2 SWAP1 PUSH2 0x32A5 JUMP JUMPDEST PUSH1 0x40 MLOAD DUP1 SWAP2 SUB SWAP1 RETURN JUMPDEST PUSH2 0x522 PUSH1 0x4 DUP1 CALLDATASIZE SUB DUP2 ADD SWAP1 PUSH2 0x51D SWAP2 SWAP1 PUSH2 0x3DA9 JUMP JUMPDEST PUSH2 0x1332 JUMP JUMPDEST STOP JUMPDEST PUSH2 0x53E PUSH1 0x4 DUP1 CALLDATASIZE SUB DUP2 ADD SWAP1 PUSH2 0x539 SWAP2 SWAP1 PUSH2 0x3E40 JUMP JUMPDEST PUSH2 0x13D3 JUMP JUMPDEST STOP JUMPDEST PUSH2 0x548 PUSH2 0x1456 JUMP JUMPDEST PUSH1 0x40 MLOAD PUSH2 0x555 SWAP2 SWAP1 PUSH2 0x3E8E JUMP JUMPDEST PUSH1 0x40 MLOAD DUP1 SWAP2 SUB SWAP1 RETURN JUMPDEST PUSH2 0x578 PUSH1 0x4 DUP1 CALLDATASIZE SUB DUP2 ADD SWAP1 PUSH2 0x573 SWAP2 SWAP1 PUSH2 0x3EA9 JUMP JUMPDEST PUSH2 0x147C JUMP JUMPDEST STOP JUMPDEST PUSH1 0x0 DUP1 PUSH20 0xFFFFFFFFFFFFFFFFFFFFFFFFFFFFFFFFFFFFFFFF AND DUP4 PUSH20 0xFFFFFFFFFFFFFFFFFFFFFFFFFFFFFFFFFFFFFFFF AND SUB PUSH2 0x5EA JUMPI PUSH1 0x40 MLOAD PUSH32 0x8C379A000000000000000000000000000000000000000000000000000000000 DUP2 MSTORE PUSH1 0x4 ADD PUSH2 0x5E1 SWAP1 PUSH2 0x3F6E JUMP JUMPDEST PUSH1 0x40 MLOAD DUP1 SWAP2 SUB SWAP1 REVERT JUMPDEST PUSH1 0x0 DUP1 DUP4 DUP2 MSTORE PUSH1 0x20 ADD SWAP1 DUP2 MSTORE PUSH1 0x20 ADD PUSH1 0x0 KECCAK256 PUSH1 0x0 DUP5 PUSH20 0xFFFFFFFFFFFFFFFFFFFFFFFFFFFFFFFFFFFFFFFF AND PUSH20 0xFFFFFFFFFFFFFFFFFFFFFFFFFFFFFFFFFFFFFFFF AND DUP2 MSTORE PUSH1 0x20 ADD SWAP1 DUP2 MSTORE PUSH1 0x20 ADD PUSH1 0x0 KECCAK256 SLOAD SWAP1 POP SWAP3 SWAP2 POP POP JUMP JUMPDEST PUSH1 0x0 PUSH32 0xD9B67A2600000000000000000000000000000000000000000000000000000000 PUSH28 0xFFFFFFFFFFFFFFFFFFFFFFFFFFFFFFFFFFFFFFFFFFFFFFFFFFFFFFFF NOT AND DUP3 PUSH28 0xFFFFFFFFFFFFFFFFFFFFFFFFFFFFFFFFFFFFFFFFFFFFFFFFFFFFFFFF NOT AND EQ DUP1 PUSH2 0x70D JUMPI POP PUSH32 0xE89341C00000000000000000000000000000000000000000000000000000000 PUSH28 0xFFFFFFFFFFFFFFFFFFFFFFFFFFFFFFFFFFFFFFFFFFFFFFFFFFFFFFFF NOT AND DUP3 PUSH28 0xFFFFFFFFFFFFFFFFFFFFFFFFFFFFFFFFFFFFFFFFFFFFFFFFFFFFFFFF NOT AND EQ JUMPDEST DUP1 PUSH2 0x71D JUMPI POP PUSH2 0x71C DUP3 PUSH2 0x1519 JUMP JUMPDEST JUMPDEST SWAP1 POP SWAP2 SWAP1 POP JUMP JUMPDEST PUSH1 0x60 PUSH1 0x2 DUP1 SLOAD PUSH2 0x733 SWAP1 PUSH2 0x3FBD JUMP JUMPDEST DUP1 PUSH1 0x1F ADD PUSH1 0x20 DUP1 SWAP2 DIV MUL PUSH1 0x20 ADD PUSH1 0x40 MLOAD SWAP1 DUP2 ADD PUSH1 0x40 MSTORE DUP1 SWAP3 SWAP2 SWAP1 DUP2 DUP2 MSTORE PUSH1 0x20 ADD DUP3 DUP1 SLOAD PUSH2 0x75F SWAP1 PUSH2 0x3FBD JUMP JUMPDEST DUP1 ISZERO PUSH2 0x7AC JUMPI DUP1 PUSH1 0x1F LT PUSH2 0x781 JUMPI PUSH2 0x100 DUP1 DUP4 SLOAD DIV MUL DUP4 MSTORE SWAP2 PUSH1 0x20 ADD SWAP2 PUSH2 0x7AC JUMP JUMPDEST DUP3 ADD SWAP2 SWAP1 PUSH1 0x0 MSTORE PUSH1 0x20 PUSH1 0x0 KECCAK256 SWAP1 JUMPDEST DUP2 SLOAD DUP2 MSTORE SWAP1 PUSH1 0x1 ADD SWAP1 PUSH1 0x20 ADD DUP1 DUP4 GT PUSH2 0x78F JUMPI DUP3 SWAP1 SUB PUSH1 0x1F AND DUP3 ADD SWAP2 JUMPDEST POP POP POP POP POP SWAP1 POP SWAP2 SWAP1 POP JUMP JUMPDEST PUSH1 0x60 PUSH1 0x5 PUSH1 0x0 SWAP1 SLOAD SWAP1 PUSH2 0x100 EXP SWAP1 DIV PUSH20 0xFFFFFFFFFFFFFFFFFFFFFFFFFFFFFFFFFFFFFFFF AND PUSH20 0xFFFFFFFFFFFFFFFFFFFFFFFFFFFFFFFFFFFFFFFF AND CALLER PUSH20 0xFFFFFFFFFFFFFFFFFFFFFFFFFFFFFFFFFFFFFFFF AND EQ PUSH2 0x841 JUMPI PUSH1 0x40 MLOAD PUSH32 0x2F2D36A700000000000000000000000000000000000000000000000000000000 DUP2 MSTORE PUSH1 0x4 ADD PUSH1 0x40 MLOAD DUP1 SWAP2 SUB SWAP1 REVERT JUMPDEST PUSH2 0x84A DUP10 PUSH2 0x1583 JUMP JUMPDEST PUSH2 0x89A JUMPI DUP3 DUP3 DUP1 DUP1 PUSH1 0x1F ADD PUSH1 0x20 DUP1 SWAP2 DIV MUL PUSH1 0x20 ADD PUSH1 0x40 MLOAD SWAP1 DUP2 ADD PUSH1 0x40 MSTORE DUP1 SWAP4 SWAP3 SWAP2 SWAP1 DUP2 DUP2 MSTORE PUSH1 0x20 ADD DUP4 DUP4 DUP1 DUP3 DUP5 CALLDATACOPY PUSH1 0x0 DUP2 DUP5 ADD MSTORE PUSH1 0x1F NOT PUSH1 0x1F DUP3 ADD AND SWAP1 POP DUP1 DUP4 ADD SWAP3 POP POP POP POP POP POP POP SWAP1 POP PUSH2 0x917 JUMP JUMPDEST PUSH2 0x8A3 DUP11 PUSH2 0xE58 JUMP JUMPDEST PUSH2 0x8D9 JUMPI PUSH1 0x40 MLOAD PUSH32 0xF512DD5800000000000000000000000000000000000000000000000000000000 DUP2 MSTORE PUSH1 0x4 ADD PUSH1 0x40 MLOAD DUP1 SWAP2 SUB SWAP1 REVERT JUMPDEST PUSH1 0x0 DUP8 DUP8 DUP2 ADD SWAP1 PUSH2 0x8EA SWAP2 SWAP1 PUSH2 0x402C JUMP JUMPDEST POP SWAP1 POP PUSH1 0x0 DUP1 DUP8 DUP8 DUP2 ADD SWAP1 PUSH2 0x8FF SWAP2 SWAP1 PUSH2 0x40A5 JUMP JUMPDEST SWAP2 POP SWAP2 POP PUSH2 0x911 DUP14 DUP5 DUP5 DUP5 DUP11 DUP11 PUSH2 0x1676 JUMP JUMPDEST SWAP4 POP POP POP POP JUMPDEST SWAP10 SWAP9 POP POP POP POP POP POP POP POP POP JUMP JUMPDEST PUSH2 0x92C PUSH2 0x16C9 JUMP JUMPDEST PUSH20 0xFFFFFFFFFFFFFFFFFFFFFFFFFFFFFFFFFFFFFFFF AND DUP6 PUSH20 0xFFFFFFFFFFFFFFFFFFFFFFFFFFFFFFFFFFFFFFFF AND EQ DUP1 PUSH2 0x972 JUMPI POP PUSH2 0x971 DUP6 PUSH2 0x96C PUSH2 0x16C9 JUMP JUMPDEST PUSH2 0x129E JUMP JUMPDEST JUMPDEST PUSH2 0x9B1 JUMPI PUSH1 0x40 MLOAD PUSH32 0x8C379A000000000000000000000000000000000000000000000000000000000 DUP2 MSTORE PUSH1 0x4 ADD PUSH2 0x9A8 SWAP1 PUSH2 0x4157 JUMP JUMPDEST PUSH1 0x40 MLOAD DUP1 SWAP2 SUB SWAP1 REVERT JUMPDEST PUSH2 0x9BE DUP6 DUP6 DUP6 DUP6 DUP6 PUSH2 0x16D1 JUMP JUMPDEST POP POP POP POP POP JUMP JUMPDEST PUSH1 0x60 PUSH1 0x40 MLOAD DUP1 PUSH1 0x40 ADD PUSH1 0x40 MSTORE DUP1 PUSH1 0x2 DUP2 MSTORE PUSH1 0x20 ADD PUSH32 0x3078000000000000000000000000000000000000000000000000000000000000 DUP2 MSTORE POP SWAP1 POP SWAP8 SWAP7 POP POP POP POP POP POP POP JUMP JUMPDEST PUSH32 0x0 DUP2 JUMP JUMPDEST PUSH1 0x60 DUP2 MLOAD DUP4 MLOAD EQ PUSH2 0xA74 JUMPI PUSH1 0x40 MLOAD PUSH32 0x8C379A000000000000000000000000000000000000000000000000000000000 DUP2 MSTORE PUSH1 0x4 ADD PUSH2 0xA6B SWAP1 PUSH2 0x41E9 JUMP JUMPDEST PUSH1 0x40 MLOAD DUP1 SWAP2 SUB SWAP1 REVERT JUMPDEST PUSH1 0x0 DUP4 MLOAD PUSH8 0xFFFFFFFFFFFFFFFF DUP2 GT ISZERO PUSH2 0xA91 JUMPI PUSH2 0xA90 PUSH2 0x35DE JUMP JUMPDEST JUMPDEST PUSH1 0x40 MLOAD SWAP1 DUP1 DUP3 MSTORE DUP1 PUSH1 0x20 MUL PUSH1 0x20 ADD DUP3 ADD PUSH1 0x40 MSTORE DUP1 ISZERO PUSH2 0xABF JUMPI DUP2 PUSH1 0x20 ADD PUSH1 0x20 DUP3 MUL DUP1 CALLDATASIZE DUP4 CALLDATACOPY DUP1 DUP3 ADD SWAP2 POP POP SWAP1 POP JUMPDEST POP SWAP1 POP PUSH1 0x0 JUMPDEST DUP5 MLOAD DUP2 LT ISZERO PUSH2 0xB3C JUMPI PUSH2 0xB0C DUP6 DUP3 DUP2 MLOAD DUP2 LT PUSH2 0xAE4 JUMPI PUSH2 0xAE3 PUSH2 0x4209 JUMP JUMPDEST JUMPDEST PUSH1 0x20 MUL PUSH1 0x20 ADD ADD MLOAD DUP6 DUP4 DUP2 MLOAD DUP2 LT PUSH2 0xAFF JUMPI PUSH2 0xAFE PUSH2 0x4209 JUMP JUMPDEST JUMPDEST PUSH1 0x20 MUL PUSH1 0x20 ADD ADD MLOAD PUSH2 0x57A JUMP JUMPDEST DUP3 DUP3 DUP2 MLOAD DUP2 LT PUSH2 0xB1F JUMPI PUSH2 0xB1E PUSH2 0x4209 JUMP JUMPDEST JUMPDEST PUSH1 0x20 MUL PUSH1 0x20 ADD ADD DUP2 DUP2 MSTORE POP POP DUP1 PUSH2 0xB35 SWAP1 PUSH2 0x4267 JUMP JUMPDEST SWAP1 POP PUSH2 0xAC5 JUMP JUMPDEST POP DUP1 SWAP2 POP POP SWAP3 SWAP2 POP POP JUMP JUMPDEST PUSH1 0x0 DUP1 PUSH2 0xB53 DUP4 PUSH2 0x10A1 JUMP JUMPDEST GT SWAP1 POP SWAP2 SWAP1 POP JUMP JUMPDEST PUSH1 0x60 PUSH1 0x5 PUSH1 0x0 SWAP1 SLOAD SWAP1 PUSH2 0x100 EXP SWAP1 DIV PUSH20 0xFFFFFFFFFFFFFFFFFFFFFFFFFFFFFFFFFFFFFFFF AND PUSH20 0xFFFFFFFFFFFFFFFFFFFFFFFFFFFFFFFFFFFFFFFF AND CALLER PUSH20 0xFFFFFFFFFFFFFFFFFFFFFFFFFFFFFFFFFFFFFFFF AND EQ ISZERO DUP1 PUSH2 0xBC0 JUMPI POP PUSH2 0xBBE DUP10 PUSH2 0x1583 JUMP JUMPDEST ISZERO JUMPDEST DUP1 PUSH2 0xBD1 JUMPI POP PUSH2 0xBCF DUP11 PUSH2 0xE58 JUMP JUMPDEST ISZERO JUMPDEST ISZERO PUSH2 0xC22 JUMPI DUP3 DUP3 DUP1 DUP1 PUSH1 0x1F ADD PUSH1 0x20 DUP1 SWAP2 DIV MUL PUSH1 0x20 ADD PUSH1 0x40 MLOAD SWAP1 DUP2 ADD PUSH1 0x40 MSTORE DUP1 SWAP4 SWAP3 SWAP2 SWAP1 DUP2 DUP2 MSTORE PUSH1 0x20 ADD DUP4 DUP4 DUP1 DUP3 DUP5 CALLDATACOPY PUSH1 0x0 DUP2 DUP5 ADD MSTORE PUSH1 0x1F NOT PUSH1 0x1F DUP3 ADD AND SWAP1 POP DUP1 DUP4 ADD SWAP3 POP POP POP POP POP POP POP SWAP1 POP PUSH2 0xC64 JUMP JUMPDEST PUSH1 0x0 DUP1 DUP9 DUP9 DUP2 ADD SWAP1 PUSH2 0xC34 SWAP2 SWAP1 PUSH2 0x402C JUMP JUMPDEST SWAP2 POP SWAP2 POP PUSH1 0x0 DUP1 DUP9 DUP9 DUP2 ADD SWAP1 PUSH2 0xC4A SWAP2 SWAP1 PUSH2 0x42AF JUMP JUMPDEST SWAP2 POP SWAP2 POP PUSH2 0xC5D DUP15 DUP6 DUP6 DUP5 DUP7 DUP13 DUP13 PUSH2 0x19F2 JUMP JUMPDEST SWAP5 POP POP POP POP POP JUMPDEST SWAP10 SWAP9 POP POP POP POP POP POP POP POP POP JUMP JUMPDEST PUSH1 0x60 PUSH1 0x5 PUSH1 0x0 SWAP1 SLOAD SWAP1 PUSH2 0x100 EXP SWAP1 DIV PUSH20 0xFFFFFFFFFFFFFFFFFFFFFFFFFFFFFFFFFFFFFFFF AND PUSH20 0xFFFFFFFFFFFFFFFFFFFFFFFFFFFFFFFFFFFFFFFF AND CALLER PUSH20 0xFFFFFFFFFFFFFFFFFFFFFFFFFFFFFFFFFFFFFFFF AND EQ ISZERO DUP1 PUSH2 0xCD6 JUMPI POP PUSH2 0xCD4 DUP8 PUSH2 0x1583 JUMP JUMPDEST ISZERO JUMPDEST DUP1 PUSH2 0xCE7 JUMPI POP PUSH2 0xCE5 DUP9 PUSH2 0xE58 JUMP JUMPDEST ISZERO JUMPDEST ISZERO PUSH2 0xD29 JUMPI PUSH1 0x40 MLOAD DUP1 PUSH1 0x40 ADD PUSH1 0x40 MSTORE DUP1 PUSH1 0x2 DUP2 MSTORE PUSH1 0x20 ADD PUSH32 0x3078000000000000000000000000000000000000000000000000000000000000 DUP2 MSTORE POP SWAP1 POP PUSH2 0xD9C JUMP JUMPDEST PUSH1 0x0 DUP1 DUP7 DUP7 DUP2 ADD SWAP1 PUSH2 0xD3B SWAP2 SWAP1 PUSH2 0x402C JUMP JUMPDEST SWAP2 POP SWAP2 POP PUSH1 0x0 DUP1 PUSH2 0xD6D DUP5 DUP5 DUP15 PUSH20 0xFFFFFFFFFFFFFFFFFFFFFFFFFFFFFFFFFFFFFFFF AND PUSH2 0x1A66 SWAP1 SWAP3 SWAP2 SWAP1 PUSH4 0xFFFFFFFF AND JUMP JUMPDEST POP POP SWAP2 POP SWAP2 POP DUP2 DUP2 PUSH1 0x40 MLOAD PUSH1 0x20 ADD PUSH2 0xD86 SWAP3 SWAP2 SWAP1 PUSH2 0x42FE JUMP JUMPDEST PUSH1 0x40 MLOAD PUSH1 0x20 DUP2 DUP4 SUB SUB DUP2 MSTORE SWAP1 PUSH1 0x40 MSTORE SWAP5 POP POP POP POP POP JUMPDEST SWAP8 SWAP7 POP POP POP POP POP POP POP JUMP JUMPDEST PUSH2 0xDAF PUSH2 0x16C9 JUMP JUMPDEST PUSH20 0xFFFFFFFFFFFFFFFFFFFFFFFFFFFFFFFFFFFFFFFF AND DUP4 PUSH20 0xFFFFFFFFFFFFFFFFFFFFFFFFFFFFFFFFFFFFFFFF AND EQ DUP1 PUSH2 0xDF5 JUMPI POP PUSH2 0xDF4 DUP4 PUSH2 0xDEF PUSH2 0x16C9 JUMP JUMPDEST PUSH2 0x129E JUMP JUMPDEST JUMPDEST PUSH2 0xE34 JUMPI PUSH1 0x40 MLOAD PUSH32 0x8C379A000000000000000000000000000000000000000000000000000000000 DUP2 MSTORE PUSH1 0x4 ADD PUSH2 0xE2B SWAP1 PUSH2 0x4157 JUMP JUMPDEST PUSH1 0x40 MLOAD DUP1 SWAP2 SUB SWAP1 REVERT JUMPDEST PUSH2 0xE3F DUP4 DUP4 DUP4 PUSH2 0x1B12 JUMP JUMPDEST POP POP POP JUMP JUMPDEST PUSH2 0xE4C PUSH2 0x1DE0 JUMP JUMPDEST PUSH2 0xE56 PUSH1 0x0 PUSH2 0x1E5E JUMP JUMPDEST JUMP JUMPDEST PUSH1 0x0 PUSH32 0x0 PUSH20 0xFFFFFFFFFFFFFFFFFFFFFFFFFFFFFFFFFFFFFFFF AND DUP3 PUSH20 0xFFFFFFFFFFFFFFFFFFFFFFFFFFFFFFFFFFFFFFFF AND EQ SWAP1 POP SWAP2 SWAP1 POP JUMP JUMPDEST PUSH1 0x60 PUSH1 0x5 PUSH1 0x0 SWAP1 SLOAD SWAP1 PUSH2 0x100 EXP SWAP1 DIV PUSH20 0xFFFFFFFFFFFFFFFFFFFFFFFFFFFFFFFFFFFFFFFF AND PUSH20 0xFFFFFFFFFFFFFFFFFFFFFFFFFFFFFFFFFFFFFFFF AND CALLER PUSH20 0xFFFFFFFFFFFFFFFFFFFFFFFFFFFFFFFFFFFFFFFF AND EQ PUSH2 0xF39 JUMPI PUSH1 0x40 MLOAD PUSH32 0x2F2D36A700000000000000000000000000000000000000000000000000000000 DUP2 MSTORE PUSH1 0x4 ADD PUSH1 0x40 MLOAD DUP1 SWAP2 SUB SWAP1 REVERT JUMPDEST PUSH2 0xF42 DUP8 PUSH2 0x1583 JUMP JUMPDEST PUSH2 0xF83 JUMPI PUSH1 0x40 MLOAD DUP1 PUSH1 0x40 ADD PUSH1 0x40 MSTORE DUP1 PUSH1 0x2 DUP2 MSTORE PUSH1 0x20 ADD PUSH32 0x3078000000000000000000000000000000000000000000000000000000000000 DUP2 MSTORE POP SWAP1 POP PUSH2 0x1032 JUMP JUMPDEST PUSH2 0xF8C DUP9 PUSH2 0xE58 JUMP JUMPDEST PUSH2 0xFC2 JUMPI PUSH1 0x40 MLOAD PUSH32 0xF512DD5800000000000000000000000000000000000000000000000000000000 DUP2 MSTORE PUSH1 0x4 ADD PUSH1 0x40 MLOAD DUP1 SWAP2 SUB SWAP1 REVERT JUMPDEST PUSH1 0x0 DUP6 DUP6 DUP2 ADD SWAP1 PUSH2 0xFD3 SWAP2 SWAP1 PUSH2 0x402C JUMP JUMPDEST POP SWAP1 POP PUSH1 0x0 DUP1 PUSH2 0x1004 DUP4 ADDRESS DUP14 PUSH20 0xFFFFFFFFFFFFFFFFFFFFFFFFFFFFFFFFFFFFFFFF AND PUSH2 0x1A66 SWAP1 SWAP3 SWAP2 SWAP1 PUSH4 0xFFFFFFFF AND JUMP JUMPDEST POP POP SWAP2 POP SWAP2 POP DUP1 DUP3 PUSH1 0x40 MLOAD PUSH1 0x20 ADD PUSH2 0x101D SWAP3 SWAP2 SWAP1 PUSH2 0x4327 JUMP JUMPDEST PUSH1 0x40 MLOAD PUSH1 0x20 DUP2 DUP4 SUB SUB DUP2 MSTORE SWAP1 PUSH1 0x40 MSTORE SWAP4 POP POP POP POP JUMPDEST SWAP8 SWAP7 POP POP POP POP POP POP POP JUMP JUMPDEST PUSH1 0x0 PUSH1 0x3 PUSH1 0x0 SWAP1 SLOAD SWAP1 PUSH2 0x100 EXP SWAP1 DIV PUSH20 0xFFFFFFFFFFFFFFFFFFFFFFFFFFFFFFFFFFFFFFFF AND SWAP1 POP SWAP1 JUMP JUMPDEST PUSH2 0x1079 PUSH2 0x1072 PUSH2 0x16C9 JUMP JUMPDEST DUP4 DUP4 PUSH2 0x1F24 JUMP JUMPDEST POP POP JUMP JUMPDEST PUSH32 0xA9214CC96615E0085D3BB077758DB69497DC2DCE3B2B1E97BC93C3D18D83EFD3 DUP2 JUMP JUMPDEST PUSH1 0x0 PUSH1 0x4 PUSH1 0x0 DUP4 DUP2 MSTORE PUSH1 0x20 ADD SWAP1 DUP2 MSTORE PUSH1 0x20 ADD PUSH1 0x0 KECCAK256 SLOAD SWAP1 POP SWAP2 SWAP1 POP JUMP JUMPDEST PUSH1 0x6 DUP1 SLOAD PUSH2 0x10CB SWAP1 PUSH2 0x3FBD JUMP JUMPDEST DUP1 PUSH1 0x1F ADD PUSH1 0x20 DUP1 SWAP2 DIV MUL PUSH1 0x20 ADD PUSH1 0x40 MLOAD SWAP1 DUP2 ADD PUSH1 0x40 MSTORE DUP1 SWAP3 SWAP2 SWAP1 DUP2 DUP2 MSTORE PUSH1 0x20 ADD DUP3 DUP1 SLOAD PUSH2 0x10F7 SWAP1 PUSH2 0x3FBD JUMP JUMPDEST DUP1 ISZERO PUSH2 0x1144 JUMPI DUP1 PUSH1 0x1F LT PUSH2 0x1119 JUMPI PUSH2 0x100 DUP1 DUP4 SLOAD DIV MUL DUP4 MSTORE SWAP2 PUSH1 0x20 ADD SWAP2 PUSH2 0x1144 JUMP JUMPDEST DUP3 ADD SWAP2 SWAP1 PUSH1 0x0 MSTORE PUSH1 0x20 PUSH1 0x0 KECCAK256 SWAP1 JUMPDEST DUP2 SLOAD DUP2 MSTORE SWAP1 PUSH1 0x1 ADD SWAP1 PUSH1 0x20 ADD DUP1 DUP4 GT PUSH2 0x1127 JUMPI DUP3 SWAP1 SUB PUSH1 0x1F AND DUP3 ADD SWAP2 JUMPDEST POP POP POP POP POP DUP2 JUMP JUMPDEST PUSH1 0x60 PUSH1 0x5 PUSH1 0x0 SWAP1 SLOAD SWAP1 PUSH2 0x100 EXP SWAP1 DIV PUSH20 0xFFFFFFFFFFFFFFFFFFFFFFFFFFFFFFFFFFFFFFFF AND PUSH20 0xFFFFFFFFFFFFFFFFFFFFFFFFFFFFFFFFFFFFFFFF AND CALLER PUSH20 0xFFFFFFFFFFFFFFFFFFFFFFFFFFFFFFFFFFFFFFFF AND EQ PUSH2 0x11D5 JUMPI PUSH1 0x40 MLOAD PUSH32 0x2F2D36A700000000000000000000000000000000000000000000000000000000 DUP2 MSTORE PUSH1 0x4 ADD PUSH1 0x40 MLOAD DUP1 SWAP2 SUB SWAP1 REVERT JUMPDEST PUSH2 0x11DE DUP10 PUSH2 0x1583 JUMP JUMPDEST PUSH2 0x122E JUMPI DUP3 DUP3 DUP1 DUP1 PUSH1 0x1F ADD PUSH1 0x20 DUP1 SWAP2 DIV MUL PUSH1 0x20 ADD PUSH1 0x40 MLOAD SWAP1 DUP2 ADD PUSH1 0x40 MSTORE DUP1 SWAP4 SWAP3 SWAP2 SWAP1 DUP2 DUP2 MSTORE PUSH1 0x20 ADD DUP4 DUP4 DUP1 DUP3 DUP5 CALLDATACOPY PUSH1 0x0 DUP2 DUP5 ADD MSTORE PUSH1 0x1F NOT PUSH1 0x1F DUP3 ADD AND SWAP1 POP DUP1 DUP4 ADD SWAP3 POP POP POP POP POP POP POP SWAP1 POP PUSH2 0x1291 JUMP JUMPDEST PUSH2 0x1237 DUP11 PUSH2 0xE58 JUMP JUMPDEST PUSH2 0x126D JUMPI PUSH1 0x40 MLOAD PUSH32 0xF512DD5800000000000000000000000000000000000000000000000000000000 DUP2 MSTORE PUSH1 0x4 ADD PUSH1 0x40 MLOAD DUP1 SWAP2 SUB SWAP1 REVERT JUMPDEST PUSH1 0x0 DUP8 DUP8 DUP2 ADD SWAP1 PUSH2 0x127E SWAP2 SWAP1 PUSH2 0x402C JUMP JUMPDEST POP SWAP1 POP PUSH2 0x128D DUP12 DUP3 DUP7 DUP7 PUSH2 0x2090 JUMP JUMPDEST SWAP2 POP POP JUMPDEST SWAP10 SWAP9 POP POP POP POP POP POP POP POP POP JUMP JUMPDEST PUSH1 0x0 PUSH1 0x1 PUSH1 0x0 DUP5 PUSH20 0xFFFFFFFFFFFFFFFFFFFFFFFFFFFFFFFFFFFFFFFF AND PUSH20 0xFFFFFFFFFFFFFFFFFFFFFFFFFFFFFFFFFFFFFFFF AND DUP2 MSTORE PUSH1 0x20 ADD SWAP1 DUP2 MSTORE PUSH1 0x20 ADD PUSH1 0x0 KECCAK256 PUSH1 0x0 DUP4 PUSH20 0xFFFFFFFFFFFFFFFFFFFFFFFFFFFFFFFFFFFFFFFF AND PUSH20 0xFFFFFFFFFFFFFFFFFFFFFFFFFFFFFFFFFFFFFFFF AND DUP2 MSTORE PUSH1 0x20 ADD SWAP1 DUP2 MSTORE PUSH1 0x20 ADD PUSH1 0x0 KECCAK256 PUSH1 0x0 SWAP1 SLOAD SWAP1 PUSH2 0x100 EXP SWAP1 DIV PUSH1 0xFF AND SWAP1 POP SWAP3 SWAP2 POP POP JUMP JUMPDEST PUSH2 0x133A PUSH2 0x16C9 JUMP JUMPDEST PUSH20 0xFFFFFFFFFFFFFFFFFFFFFFFFFFFFFFFFFFFFFFFF AND DUP6 PUSH20 0xFFFFFFFFFFFFFFFFFFFFFFFFFFFFFFFFFFFFFFFF AND EQ DUP1 PUSH2 0x1380 JUMPI POP PUSH2 0x137F DUP6 PUSH2 0x137A PUSH2 0x16C9 JUMP JUMPDEST PUSH2 0x129E JUMP JUMPDEST JUMPDEST PUSH2 0x13BF JUMPI PUSH1 0x40 MLOAD PUSH32 0x8C379A000000000000000000000000000000000000000000000000000000000 DUP2 MSTORE PUSH1 0x4 ADD PUSH2 0x13B6 SWAP1 PUSH2 0x4157 JUMP JUMPDEST PUSH1 0x40 MLOAD DUP1 SWAP2 SUB SWAP1 REVERT JUMPDEST PUSH2 0x13CC DUP6 DUP6 DUP6 DUP6 DUP6 PUSH2 0x21E0 JUMP JUMPDEST POP POP POP POP POP JUMP JUMPDEST PUSH2 0x13DB PUSH2 0x1DE0 JUMP JUMPDEST PUSH1 0x0 PUSH20 0xFFFFFFFFFFFFFFFFFFFFFFFFFFFFFFFFFFFFFFFF AND DUP2 PUSH20 0xFFFFFFFFFFFFFFFFFFFFFFFFFFFFFFFFFFFFFFFF AND SUB PUSH2 0x144A JUMPI PUSH1 0x40 MLOAD PUSH32 0x8C379A000000000000000000000000000000000000000000000000000000000 DUP2 MSTORE PUSH1 0x4 ADD PUSH2 0x1441 SWAP1 PUSH2 0x43C2 JUMP JUMPDEST PUSH1 0x40 MLOAD DUP1 SWAP2 SUB SWAP1 REVERT JUMPDEST PUSH2 0x1453 DUP2 PUSH2 0x1E5E JUMP JUMPDEST POP JUMP JUMPDEST PUSH1 0x5 PUSH1 0x0 SWAP1 SLOAD SWAP1 PUSH2 0x100 EXP SWAP1 DIV PUSH20 0xFFFFFFFFFFFFFFFFFFFFFFFFFFFFFFFFFFFFFFFF AND DUP2 JUMP JUMPDEST PUSH2 0x1484 PUSH2 0x16C9 JUMP JUMPDEST PUSH20 0xFFFFFFFFFFFFFFFFFFFFFFFFFFFFFFFFFFFFFFFF AND DUP4 PUSH20 0xFFFFFFFFFFFFFFFFFFFFFFFFFFFFFFFFFFFFFFFF AND EQ DUP1 PUSH2 0x14CA JUMPI POP PUSH2 0x14C9 DUP4 PUSH2 0x14C4 PUSH2 0x16C9 JUMP JUMPDEST PUSH2 0x129E JUMP JUMPDEST JUMPDEST PUSH2 0x1509 JUMPI PUSH1 0x40 MLOAD PUSH32 0x8C379A000000000000000000000000000000000000000000000000000000000 DUP2 MSTORE PUSH1 0x4 ADD PUSH2 0x1500 SWAP1 PUSH2 0x4157 JUMP JUMPDEST PUSH1 0x40 MLOAD DUP1 SWAP2 SUB SWAP1 REVERT JUMPDEST PUSH2 0x1514 DUP4 DUP4 DUP4 PUSH2 0x247B JUMP JUMPDEST POP POP POP JUMP JUMPDEST PUSH1 0x0 PUSH32 0x1FFC9A700000000000000000000000000000000000000000000000000000000 PUSH28 0xFFFFFFFFFFFFFFFFFFFFFFFFFFFFFFFFFFFFFFFFFFFFFFFFFFFFFFFF NOT AND DUP3 PUSH28 0xFFFFFFFFFFFFFFFFFFFFFFFFFFFFFFFFFFFFFFFFFFFFFFFFFFFFFFFF NOT AND EQ SWAP1 POP SWAP2 SWAP1 POP JUMP JUMPDEST PUSH1 0x0 PUSH1 0x5 PUSH1 0x0 SWAP1 SLOAD SWAP1 PUSH2 0x100 EXP SWAP1 DIV PUSH20 0xFFFFFFFFFFFFFFFFFFFFFFFFFFFFFFFFFFFFFFFF AND PUSH20 0xFFFFFFFFFFFFFFFFFFFFFFFFFFFFFFFFFFFFFFFF AND PUSH4 0xB6D200DE PUSH32 0xA9214CC96615E0085D3BB077758DB69497DC2DCE3B2B1E97BC93C3D18D83EFD3 PUSH1 0x40 MLOAD DUP3 PUSH4 0xFFFFFFFF AND PUSH1 0xE0 SHL DUP2 MSTORE PUSH1 0x4 ADD PUSH2 0x1600 SWAP2 SWAP1 PUSH2 0x3D4E JUMP JUMPDEST PUSH1 0x20 PUSH1 0x40 MLOAD DUP1 DUP4 SUB DUP2 DUP7 GAS STATICCALL ISZERO DUP1 ISZERO PUSH2 0x161D JUMPI RETURNDATASIZE PUSH1 0x0 DUP1 RETURNDATACOPY RETURNDATASIZE PUSH1 0x0 REVERT JUMPDEST POP POP POP POP PUSH1 0x40 MLOAD RETURNDATASIZE PUSH1 0x1F NOT PUSH1 0x1F DUP3 ADD AND DUP3 ADD DUP1 PUSH1 0x40 MSTORE POP DUP2 ADD SWAP1 PUSH2 0x1641 SWAP2 SWAP1 PUSH2 0x4420 JUMP JUMPDEST PUSH20 0xFFFFFFFFFFFFFFFFFFFFFFFFFFFFFFFFFFFFFFFF AND DUP3 PUSH20 0xFFFFFFFFFFFFFFFFFFFFFFFFFFFFFFFFFFFFFFFF AND EQ SWAP1 POP SWAP2 SWAP1 POP JUMP JUMPDEST PUSH1 0x60 DUP3 DUP3 DUP1 DUP1 PUSH1 0x1F ADD PUSH1 0x20 DUP1 SWAP2 DIV MUL PUSH1 0x20 ADD PUSH1 0x40 MLOAD SWAP1 DUP2 ADD PUSH1 0x40 MSTORE DUP1 SWAP4 SWAP3 SWAP2 SWAP1 DUP2 DUP2 MSTORE PUSH1 0x20 ADD DUP4 DUP4 DUP1 DUP3 DUP5 CALLDATACOPY PUSH1 0x0 DUP2 DUP5 ADD MSTORE PUSH1 0x1F NOT PUSH1 0x1F DUP3 ADD AND SWAP1 POP DUP1 DUP4 ADD SWAP3 POP POP POP POP POP POP POP SWAP1 POP SWAP7 SWAP6 POP POP POP POP POP POP JUMP JUMPDEST PUSH1 0x0 CALLER SWAP1 POP SWAP1 JUMP JUMPDEST DUP2 MLOAD DUP4 MLOAD EQ PUSH2 0x1715 JUMPI PUSH1 0x40 MLOAD PUSH32 0x8C379A000000000000000000000000000000000000000000000000000000000 DUP2 MSTORE PUSH1 0x4 ADD PUSH2 0x170C SWAP1 PUSH2 0x44BF JUMP JUMPDEST PUSH1 0x40 MLOAD DUP1 SWAP2 SUB SWAP1 REVERT JUMPDEST PUSH1 0x0 PUSH20 0xFFFFFFFFFFFFFFFFFFFFFFFFFFFFFFFFFFFFFFFF AND DUP5 PUSH20 0xFFFFFFFFFFFFFFFFFFFFFFFFFFFFFFFFFFFFFFFF AND SUB PUSH2 0x1784 JUMPI PUSH1 0x40 MLOAD PUSH32 0x8C379A000000000000000000000000000000000000000000000000000000000 DUP2 MSTORE PUSH1 0x4 ADD PUSH2 0x177B SWAP1 PUSH2 0x4551 JUMP JUMPDEST PUSH1 0x40 MLOAD DUP1 SWAP2 SUB SWAP1 REVERT JUMPDEST PUSH1 0x0 PUSH2 0x178E PUSH2 0x16C9 JUMP JUMPDEST SWAP1 POP PUSH2 0x179E DUP2 DUP8 DUP8 DUP8 DUP8 DUP8 PUSH2 0x26C1 JUMP JUMPDEST PUSH1 0x0 JUMPDEST DUP5 MLOAD DUP2 LT ISZERO PUSH2 0x194F JUMPI PUSH1 0x0 DUP6 DUP3 DUP2 MLOAD DUP2 LT PUSH2 0x17BF JUMPI PUSH2 0x17BE PUSH2 0x4209 JUMP JUMPDEST JUMPDEST PUSH1 0x20 MUL PUSH1 0x20 ADD ADD MLOAD SWAP1 POP PUSH1 0x0 DUP6 DUP4 DUP2 MLOAD DUP2 LT PUSH2 0x17DE JUMPI PUSH2 0x17DD PUSH2 0x4209 JUMP JUMPDEST JUMPDEST PUSH1 0x20 MUL PUSH1 0x20 ADD ADD MLOAD SWAP1 POP PUSH1 0x0 DUP1 PUSH1 0x0 DUP5 DUP2 MSTORE PUSH1 0x20 ADD SWAP1 DUP2 MSTORE PUSH1 0x20 ADD PUSH1 0x0 KECCAK256 PUSH1 0x0 DUP12 PUSH20 0xFFFFFFFFFFFFFFFFFFFFFFFFFFFFFFFFFFFFFFFF AND PUSH20 0xFFFFFFFFFFFFFFFFFFFFFFFFFFFFFFFFFFFFFFFF AND DUP2 MSTORE PUSH1 0x20 ADD SWAP1 DUP2 MSTORE PUSH1 0x20 ADD PUSH1 0x0 KECCAK256 SLOAD SWAP1 POP DUP2 DUP2 LT ISZERO PUSH2 0x187F JUMPI PUSH1 0x40 MLOAD PUSH32 0x8C379A000000000000000000000000000000000000000000000000000000000 DUP2 MSTORE PUSH1 0x4 ADD PUSH2 0x1876 SWAP1 PUSH2 0x45E3 JUMP JUMPDEST PUSH1 0x40 MLOAD DUP1 SWAP2 SUB SWAP1 REVERT JUMPDEST DUP2 DUP2 SUB PUSH1 0x0 DUP1 DUP6 DUP2 MSTORE PUSH1 0x20 ADD SWAP1 DUP2 MSTORE PUSH1 0x20 ADD PUSH1 0x0 KECCAK256 PUSH1 0x0 DUP13 PUSH20 0xFFFFFFFFFFFFFFFFFFFFFFFFFFFFFFFFFFFFFFFF AND PUSH20 0xFFFFFFFFFFFFFFFFFFFFFFFFFFFFFFFFFFFFFFFF AND DUP2 MSTORE PUSH1 0x20 ADD SWAP1 DUP2 MSTORE PUSH1 0x20 ADD PUSH1 0x0 KECCAK256 DUP2 SWAP1 SSTORE POP DUP2 PUSH1 0x0 DUP1 DUP6 DUP2 MSTORE PUSH1 0x20 ADD SWAP1 DUP2 MSTORE PUSH1 0x20 ADD PUSH1 0x0 KECCAK256 PUSH1 0x0 DUP12 PUSH20 0xFFFFFFFFFFFFFFFFFFFFFFFFFFFFFFFFFFFFFFFF AND PUSH20 0xFFFFFFFFFFFFFFFFFFFFFFFFFFFFFFFFFFFFFFFF AND DUP2 MSTORE PUSH1 0x20 ADD SWAP1 DUP2 MSTORE PUSH1 0x20 ADD PUSH1 0x0 KECCAK256 PUSH1 0x0 DUP3 DUP3 SLOAD PUSH2 0x1934 SWAP2 SWAP1 PUSH2 0x4603 JUMP JUMPDEST SWAP3 POP POP DUP2 SWAP1 SSTORE POP POP POP POP DUP1 PUSH2 0x1948 SWAP1 PUSH2 0x4267 JUMP JUMPDEST SWAP1 POP PUSH2 0x17A1 JUMP JUMPDEST POP DUP5 PUSH20 0xFFFFFFFFFFFFFFFFFFFFFFFFFFFFFFFFFFFFFFFF AND DUP7 PUSH20 0xFFFFFFFFFFFFFFFFFFFFFFFFFFFFFFFFFFFFFFFF AND DUP3 PUSH20 0xFFFFFFFFFFFFFFFFFFFFFFFFFFFFFFFFFFFFFFFF AND PUSH32 0x4A39DC06D4C0DBC64B70AF90FD698A233A518AA5D07E595D983B8C0526C8F7FB DUP8 DUP8 PUSH1 0x40 MLOAD PUSH2 0x19C6 SWAP3 SWAP2 SWAP1 PUSH2 0x4637 JUMP JUMPDEST PUSH1 0x40 MLOAD DUP1 SWAP2 SUB SWAP1 LOG4 PUSH2 0x19DC DUP2 DUP8 DUP8 DUP8 DUP8 DUP8 PUSH2 0x26D7 JUMP JUMPDEST PUSH2 0x19EA DUP2 DUP8 DUP8 DUP8 DUP8 DUP8 PUSH2 0x26DF JUMP JUMPDEST POP POP POP POP POP POP JUMP JUMPDEST PUSH1 0x60 PUSH1 0x0 PUSH2 0x1A01 DUP9 PUSH1 0x7B PUSH2 0x57A JUMP JUMPDEST SUB PUSH2 0x1A14 JUMPI PUSH2 0x1A13 DUP8 PUSH1 0x7B PUSH1 0x1 PUSH2 0x247B JUMP JUMPDEST JUMPDEST DUP3 DUP3 DUP1 DUP1 PUSH1 0x1F ADD PUSH1 0x20 DUP1 SWAP2 DIV MUL PUSH1 0x20 ADD PUSH1 0x40 MLOAD SWAP1 DUP2 ADD PUSH1 0x40 MSTORE DUP1 SWAP4 SWAP3 SWAP2 SWAP1 DUP2 DUP2 MSTORE PUSH1 0x20 ADD DUP4 DUP4 DUP1 DUP3 DUP5 CALLDATACOPY PUSH1 0x0 DUP2 DUP5 ADD MSTORE PUSH1 0x1F NOT PUSH1 0x1F DUP3 ADD AND SWAP1 POP DUP1 DUP4 ADD SWAP3 POP POP POP POP POP POP POP SWAP1 POP SWAP8 SWAP7 POP POP POP POP POP POP POP JUMP JUMPDEST PUSH1 0x0 DUP1 PUSH1 0x0 DUP1 PUSH1 0x0 PUSH2 0x1A77 DUP9 PUSH2 0x28B6 JUMP JUMPDEST SWAP2 POP POP DUP1 PUSH20 0xFFFFFFFFFFFFFFFFFFFFFFFFFFFFFFFFFFFFFFFF AND PUSH4 0xE6A1E888 DUP10 DUP10 DUP10 PUSH1 0x40 MLOAD DUP5 PUSH4 0xFFFFFFFF AND PUSH1 0xE0 SHL DUP2 MSTORE PUSH1 0x4 ADD PUSH2 0x1AB7 SWAP4 SWAP3 SWAP2 SWAP1 PUSH2 0x466E JUMP JUMPDEST PUSH1 0x80 PUSH1 0x40 MLOAD DUP1 DUP4 SUB DUP2 DUP7 GAS STATICCALL ISZERO DUP1 ISZERO PUSH2 0x1AD4 JUMPI RETURNDATASIZE PUSH1 0x0 DUP1 RETURNDATACOPY RETURNDATASIZE PUSH1 0x0 REVERT JUMPDEST POP POP POP POP PUSH1 0x40 MLOAD RETURNDATASIZE PUSH1 0x1F NOT PUSH1 0x1F DUP3 ADD AND DUP3 ADD DUP1 PUSH1 0x40 MSTORE POP DUP2 ADD SWAP1 PUSH2 0x1AF8 SWAP2 SWAP1 PUSH2 0x46CF JUMP JUMPDEST DUP1 SWAP6 POP DUP2 SWAP7 POP DUP3 SWAP8 POP DUP4 SWAP9 POP POP POP POP POP POP SWAP4 POP SWAP4 POP SWAP4 POP SWAP4 JUMP JUMPDEST PUSH1 0x0 PUSH20 0xFFFFFFFFFFFFFFFFFFFFFFFFFFFFFFFFFFFFFFFF AND DUP4 PUSH20 0xFFFFFFFFFFFFFFFFFFFFFFFFFFFFFFFFFFFFFFFF AND SUB PUSH2 0x1B81 JUMPI PUSH1 0x40 MLOAD PUSH32 0x8C379A000000000000000000000000000000000000000000000000000000000 DUP2 MSTORE PUSH1 0x4 ADD PUSH2 0x1B78 SWAP1 PUSH2 0x47A8 JUMP JUMPDEST PUSH1 0x40 MLOAD DUP1 SWAP2 SUB SWAP1 REVERT JUMPDEST DUP1 MLOAD DUP3 MLOAD EQ PUSH2 0x1BC5 JUMPI PUSH1 0x40 MLOAD PUSH32 0x8C379A000000000000000000000000000000000000000000000000000000000 DUP2 MSTORE PUSH1 0x4 ADD PUSH2 0x1BBC SWAP1 PUSH2 0x44BF JUMP JUMPDEST PUSH1 0x40 MLOAD DUP1 SWAP2 SUB SWAP1 REVERT JUMPDEST PUSH1 0x0 PUSH2 0x1BCF PUSH2 0x16C9 JUMP JUMPDEST SWAP1 POP PUSH2 0x1BEF DUP2 DUP6 PUSH1 0x0 DUP7 DUP7 PUSH1 0x40 MLOAD DUP1 PUSH1 0x20 ADD PUSH1 0x40 MSTORE DUP1 PUSH1 0x0 DUP2 MSTORE POP PUSH2 0x26C1 JUMP JUMPDEST PUSH1 0x0 JUMPDEST DUP4 MLOAD DUP2 LT ISZERO PUSH2 0x1D3C JUMPI PUSH1 0x0 DUP5 DUP3 DUP2 MLOAD DUP2 LT PUSH2 0x1C10 JUMPI PUSH2 0x1C0F PUSH2 0x4209 JUMP JUMPDEST JUMPDEST PUSH1 0x20 MUL PUSH1 0x20 ADD ADD MLOAD SWAP1 POP PUSH1 0x0 DUP5 DUP4 DUP2 MLOAD DUP2 LT PUSH2 0x1C2F JUMPI PUSH2 0x1C2E PUSH2 0x4209 JUMP JUMPDEST JUMPDEST PUSH1 0x20 MUL PUSH1 0x20 ADD ADD MLOAD SWAP1 POP PUSH1 0x0 DUP1 PUSH1 0x0 DUP5 DUP2 MSTORE PUSH1 0x20 ADD SWAP1 DUP2 MSTORE PUSH1 0x20 ADD PUSH1 0x0 KECCAK256 PUSH1 0x0 DUP10 PUSH20 0xFFFFFFFFFFFFFFFFFFFFFFFFFFFFFFFFFFFFFFFF AND PUSH20 0xFFFFFFFFFFFFFFFFFFFFFFFFFFFFFFFFFFFFFFFF AND DUP2 MSTORE PUSH1 0x20 ADD SWAP1 DUP2 MSTORE PUSH1 0x20 ADD PUSH1 0x0 KECCAK256 SLOAD SWAP1 POP DUP2 DUP2 LT ISZERO PUSH2 0x1CD0 JUMPI PUSH1 0x40 MLOAD PUSH32 0x8C379A000000000000000000000000000000000000000000000000000000000 DUP2 MSTORE PUSH1 0x4 ADD PUSH2 0x1CC7 SWAP1 PUSH2 0x483A JUMP JUMPDEST PUSH1 0x40 MLOAD DUP1 SWAP2 SUB SWAP1 REVERT JUMPDEST DUP2 DUP2 SUB PUSH1 0x0 DUP1 DUP6 DUP2 MSTORE PUSH1 0x20 ADD SWAP1 DUP2 MSTORE PUSH1 0x20 ADD PUSH1 0x0 KECCAK256 PUSH1 0x0 DUP11 PUSH20 0xFFFFFFFFFFFFFFFFFFFFFFFFFFFFFFFFFFFFFFFF AND PUSH20 0xFFFFFFFFFFFFFFFFFFFFFFFFFFFFFFFFFFFFFFFF AND DUP2 MSTORE PUSH1 0x20 ADD SWAP1 DUP2 MSTORE PUSH1 0x20 ADD PUSH1 0x0 KECCAK256 DUP2 SWAP1 SSTORE POP POP POP POP DUP1 DUP1 PUSH2 0x1D34 SWAP1 PUSH2 0x4267 JUMP JUMPDEST SWAP2 POP POP PUSH2 0x1BF2 JUMP JUMPDEST POP PUSH1 0x0 PUSH20 0xFFFFFFFFFFFFFFFFFFFFFFFFFFFFFFFFFFFFFFFF AND DUP5 PUSH20 0xFFFFFFFFFFFFFFFFFFFFFFFFFFFFFFFFFFFFFFFF AND DUP3 PUSH20 0xFFFFFFFFFFFFFFFFFFFFFFFFFFFFFFFFFFFFFFFF AND PUSH32 0x4A39DC06D4C0DBC64B70AF90FD698A233A518AA5D07E595D983B8C0526C8F7FB DUP7 DUP7 PUSH1 0x40 MLOAD PUSH2 0x1DB4 SWAP3 SWAP2 SWAP1 PUSH2 0x4637 JUMP JUMPDEST PUSH1 0x40 MLOAD DUP1 SWAP2 SUB SWAP1 LOG4 PUSH2 0x1DDA DUP2 DUP6 PUSH1 0x0 DUP7 DUP7 PUSH1 0x40 MLOAD DUP1 PUSH1 0x20 ADD PUSH1 0x40 MSTORE DUP1 PUSH1 0x0 DUP2 MSTORE POP PUSH2 0x26D7 JUMP JUMPDEST POP POP POP POP JUMP JUMPDEST PUSH2 0x1DE8 PUSH2 0x16C9 JUMP JUMPDEST PUSH20 0xFFFFFFFFFFFFFFFFFFFFFFFFFFFFFFFFFFFFFFFF AND PUSH2 0x1E06 PUSH2 0x103D JUMP JUMPDEST PUSH20 0xFFFFFFFFFFFFFFFFFFFFFFFFFFFFFFFFFFFFFFFF AND EQ PUSH2 0x1E5C JUMPI PUSH1 0x40 MLOAD PUSH32 0x8C379A000000000000000000000000000000000000000000000000000000000 DUP2 MSTORE PUSH1 0x4 ADD PUSH2 0x1E53 SWAP1 PUSH2 0x48A6 JUMP JUMPDEST PUSH1 0x40 MLOAD DUP1 SWAP2 SUB SWAP1 REVERT JUMPDEST JUMP JUMPDEST PUSH1 0x0 PUSH1 0x3 PUSH1 0x0 SWAP1 SLOAD SWAP1 PUSH2 0x100 EXP SWAP1 DIV PUSH20 0xFFFFFFFFFFFFFFFFFFFFFFFFFFFFFFFFFFFFFFFF AND SWAP1 POP DUP2 PUSH1 0x3 PUSH1 0x0 PUSH2 0x100 EXP DUP2 SLOAD DUP2 PUSH20 0xFFFFFFFFFFFFFFFFFFFFFFFFFFFFFFFFFFFFFFFF MUL NOT AND SWAP1 DUP4 PUSH20 0xFFFFFFFFFFFFFFFFFFFFFFFFFFFFFFFFFFFFFFFF AND MUL OR SWAP1 SSTORE POP DUP2 PUSH20 0xFFFFFFFFFFFFFFFFFFFFFFFFFFFFFFFFFFFFFFFF AND DUP2 PUSH20 0xFFFFFFFFFFFFFFFFFFFFFFFFFFFFFFFFFFFFFFFF AND PUSH32 0x8BE0079C531659141344CD1FD0A4F28419497F9722A3DAAFE3B4186F6B6457E0 PUSH1 0x40 MLOAD PUSH1 0x40 MLOAD DUP1 SWAP2 SUB SWAP1 LOG3 POP POP JUMP JUMPDEST DUP2 PUSH20 0xFFFFFFFFFFFFFFFFFFFFFFFFFFFFFFFFFFFFFFFF AND DUP4 PUSH20 0xFFFFFFFFFFFFFFFFFFFFFFFFFFFFFFFFFFFFFFFF AND SUB PUSH2 0x1F92 JUMPI PUSH1 0x40 MLOAD PUSH32 0x8C379A000000000000000000000000000000000000000000000000000000000 DUP2 MSTORE PUSH1 0x4 ADD PUSH2 0x1F89 SWAP1 PUSH2 0x4938 JUMP JUMPDEST PUSH1 0x40 MLOAD DUP1 SWAP2 SUB SWAP1 REVERT JUMPDEST DUP1 PUSH1 0x1 PUSH1 0x0 DUP6 PUSH20 0xFFFFFFFFFFFFFFFFFFFFFFFFFFFFFFFFFFFFFFFF AND PUSH20 0xFFFFFFFFFFFFFFFFFFFFFFFFFFFFFFFFFFFFFFFF AND DUP2 MSTORE PUSH1 0x20 ADD SWAP1 DUP2 MSTORE PUSH1 0x20 ADD PUSH1 0x0 KECCAK256 PUSH1 0x0 DUP5 PUSH20 0xFFFFFFFFFFFFFFFFFFFFFFFFFFFFFFFFFFFFFFFF AND PUSH20 0xFFFFFFFFFFFFFFFFFFFFFFFFFFFFFFFFFFFFFFFF AND DUP2 MSTORE PUSH1 0x20 ADD SWAP1 DUP2 MSTORE PUSH1 0x20 ADD PUSH1 0x0 KECCAK256 PUSH1 0x0 PUSH2 0x100 EXP DUP2 SLOAD DUP2 PUSH1 0xFF MUL NOT AND SWAP1 DUP4 ISZERO ISZERO MUL OR SWAP1 SSTORE POP DUP2 PUSH20 0xFFFFFFFFFFFFFFFFFFFFFFFFFFFFFFFFFFFFFFFF AND DUP4 PUSH20 0xFFFFFFFFFFFFFFFFFFFFFFFFFFFFFFFFFFFFFFFF AND PUSH32 0x17307EAB39AB6107E8899845AD3D59BD9653F200F220920489CA2B5937696C31 DUP4 PUSH1 0x40 MLOAD PUSH2 0x2083 SWAP2 SWAP1 PUSH2 0x32A5 JUMP JUMPDEST PUSH1 0x40 MLOAD DUP1 SWAP2 SUB SWAP1 LOG3 POP POP POP JUMP JUMPDEST PUSH1 0x60 PUSH1 0x0 PUSH2 0x209F DUP6 PUSH1 0x7B PUSH2 0x57A JUMP JUMPDEST SUB PUSH2 0x20C2 JUMPI PUSH2 0x20C1 DUP5 PUSH1 0x7B PUSH1 0x1 PUSH1 0x40 MLOAD DUP1 PUSH1 0x20 ADD PUSH1 0x40 MSTORE DUP1 PUSH1 0x0 DUP2 MSTORE POP PUSH2 0x2AF7 JUMP JUMPDEST JUMPDEST PUSH1 0x0 PUSH1 0x5 PUSH1 0x0 SWAP1 SLOAD SWAP1 PUSH2 0x100 EXP SWAP1 DIV PUSH20 0xFFFFFFFFFFFFFFFFFFFFFFFFFFFFFFFFFFFFFFFF AND PUSH20 0xFFFFFFFFFFFFFFFFFFFFFFFFFFFFFFFFFFFFFFFF AND PUSH4 0x3F6C923A DUP6 DUP6 PUSH1 0x40 MLOAD DUP4 PUSH4 0xFFFFFFFF AND PUSH1 0xE0 SHL DUP2 MSTORE PUSH1 0x4 ADD PUSH2 0x2121 SWAP3 SWAP2 SWAP1 PUSH2 0x4985 JUMP JUMPDEST PUSH1 0x0 PUSH1 0x40 MLOAD DUP1 DUP4 SUB DUP2 DUP7 GAS STATICCALL ISZERO DUP1 ISZERO PUSH2 0x213E JUMPI RETURNDATASIZE PUSH1 0x0 DUP1 RETURNDATACOPY RETURNDATASIZE PUSH1 0x0 REVERT JUMPDEST POP POP POP POP PUSH1 0x40 MLOAD RETURNDATASIZE PUSH1 0x0 DUP3 RETURNDATACOPY RETURNDATASIZE PUSH1 0x1F NOT PUSH1 0x1F DUP3 ADD AND DUP3 ADD DUP1 PUSH1 0x40 MSTORE POP DUP2 ADD SWAP1 PUSH2 0x2167 SWAP2 SWAP1 PUSH2 0x4C22 JUMP JUMPDEST SWAP1 POP DUP1 PUSH1 0xA0 ADD MLOAD DUP1 PUSH1 0x20 ADD SWAP1 MLOAD DUP2 ADD SWAP1 PUSH2 0x2181 SWAP2 SWAP1 PUSH2 0x4D0C JUMP JUMPDEST PUSH1 0x6 SWAP1 DUP2 PUSH2 0x218F SWAP2 SWAP1 PUSH2 0x4EF7 JUMP JUMPDEST POP DUP4 DUP4 DUP1 DUP1 PUSH1 0x1F ADD PUSH1 0x20 DUP1 SWAP2 DIV MUL PUSH1 0x20 ADD PUSH1 0x40 MLOAD SWAP1 DUP2 ADD PUSH1 0x40 MSTORE DUP1 SWAP4 SWAP3 SWAP2 SWAP1 DUP2 DUP2 MSTORE PUSH1 0x20 ADD DUP4 DUP4 DUP1 DUP3 DUP5 CALLDATACOPY PUSH1 0x0 DUP2 DUP5 ADD MSTORE PUSH1 0x1F NOT PUSH1 0x1F DUP3 ADD AND SWAP1 POP DUP1 DUP4 ADD SWAP3 POP POP POP POP POP POP POP SWAP2 POP POP SWAP5 SWAP4 POP POP POP POP JUMP JUMPDEST PUSH1 0x0 PUSH20 0xFFFFFFFFFFFFFFFFFFFFFFFFFFFFFFFFFFFFFFFF AND DUP5 PUSH20 0xFFFFFFFFFFFFFFFFFFFFFFFFFFFFFFFFFFFFFFFF AND SUB PUSH2 0x224F JUMPI PUSH1 0x40 MLOAD PUSH32 0x8C379A000000000000000000000000000000000000000000000000000000000 DUP2 MSTORE PUSH1 0x4 ADD PUSH2 0x2246 SWAP1 PUSH2 0x4551 JUMP JUMPDEST PUSH1 0x40 MLOAD DUP1 SWAP2 SUB SWAP1 REVERT JUMPDEST PUSH1 0x0 PUSH2 0x2259 PUSH2 0x16C9 JUMP JUMPDEST SWAP1 POP PUSH1 0x0 PUSH2 0x2266 DUP6 PUSH2 0x2CA7 JUMP JUMPDEST SWAP1 POP PUSH1 0x0 PUSH2 0x2273 DUP6 PUSH2 0x2CA7 JUMP JUMPDEST SWAP1 POP PUSH2 0x2283 DUP4 DUP10 DUP10 DUP6 DUP6 DUP10 PUSH2 0x26C1 JUMP JUMPDEST PUSH1 0x0 DUP1 PUSH1 0x0 DUP9 DUP2 MSTORE PUSH1 0x20 ADD SWAP1 DUP2 MSTORE PUSH1 0x20 ADD PUSH1 0x0 KECCAK256 PUSH1 0x0 DUP11 PUSH20 0xFFFFFFFFFFFFFFFFFFFFFFFFFFFFFFFFFFFFFFFF AND PUSH20 0xFFFFFFFFFFFFFFFFFFFFFFFFFFFFFFFFFFFFFFFF AND DUP2 MSTORE PUSH1 0x20 ADD SWAP1 DUP2 MSTORE PUSH1 0x20 ADD PUSH1 0x0 KECCAK256 SLOAD SWAP1 POP DUP6 DUP2 LT ISZERO PUSH2 0x231A JUMPI PUSH1 0x40 MLOAD PUSH32 0x8C379A000000000000000000000000000000000000000000000000000000000 DUP2 MSTORE PUSH1 0x4 ADD PUSH2 0x2311 SWAP1 PUSH2 0x45E3 JUMP JUMPDEST PUSH1 0x40 MLOAD DUP1 SWAP2 SUB SWAP1 REVERT JUMPDEST DUP6 DUP2 SUB PUSH1 0x0 DUP1 DUP10 DUP2 MSTORE PUSH1 0x20 ADD SWAP1 DUP2 MSTORE PUSH1 0x20 ADD PUSH1 0x0 KECCAK256 PUSH1 0x0 DUP12 PUSH20 0xFFFFFFFFFFFFFFFFFFFFFFFFFFFFFFFFFFFFFFFF AND PUSH20 0xFFFFFFFFFFFFFFFFFFFFFFFFFFFFFFFFFFFFFFFF AND DUP2 MSTORE PUSH1 0x20 ADD SWAP1 DUP2 MSTORE PUSH1 0x20 ADD PUSH1 0x0 KECCAK256 DUP2 SWAP1 SSTORE POP DUP6 PUSH1 0x0 DUP1 DUP10 DUP2 MSTORE PUSH1 0x20 ADD SWAP1 DUP2 MSTORE PUSH1 0x20 ADD PUSH1 0x0 KECCAK256 PUSH1 0x0 DUP11 PUSH20 0xFFFFFFFFFFFFFFFFFFFFFFFFFFFFFFFFFFFFFFFF AND PUSH20 0xFFFFFFFFFFFFFFFFFFFFFFFFFFFFFFFFFFFFFFFF AND DUP2 MSTORE PUSH1 0x20 ADD SWAP1 DUP2 MSTORE PUSH1 0x20 ADD PUSH1 0x0 KECCAK256 PUSH1 0x0 DUP3 DUP3 SLOAD PUSH2 0x23CF SWAP2 SWAP1 PUSH2 0x4603 JUMP JUMPDEST SWAP3 POP POP DUP2 SWAP1 SSTORE POP DUP8 PUSH20 0xFFFFFFFFFFFFFFFFFFFFFFFFFFFFFFFFFFFFFFFF AND DUP10 PUSH20 0xFFFFFFFFFFFFFFFFFFFFFFFFFFFFFFFFFFFFFFFF AND DUP6 PUSH20 0xFFFFFFFFFFFFFFFFFFFFFFFFFFFFFFFFFFFFFFFF AND PUSH32 0xC3D58168C5AE7397731D063D5BBF3D657854427343F4C083240F7AACAA2D0F62 DUP11 DUP11 PUSH1 0x40 MLOAD PUSH2 0x244C SWAP3 SWAP2 SWAP1 PUSH2 0x4FC9 JUMP JUMPDEST PUSH1 0x40 MLOAD DUP1 SWAP2 SUB SWAP1 LOG4 PUSH2 0x2462 DUP5 DUP11 DUP11 DUP7 DUP7 DUP11 PUSH2 0x26D7 JUMP JUMPDEST PUSH2 0x2470 DUP5 DUP11 DUP11 DUP11 DUP11 DUP11 PUSH2 0x2D21 JUMP JUMPDEST POP POP POP POP POP POP POP POP POP JUMP JUMPDEST PUSH1 0x0 PUSH20 0xFFFFFFFFFFFFFFFFFFFFFFFFFFFFFFFFFFFFFFFF AND DUP4 PUSH20 0xFFFFFFFFFFFFFFFFFFFFFFFFFFFFFFFFFFFFFFFF AND SUB PUSH2 0x24EA JUMPI PUSH1 0x40 MLOAD PUSH32 0x8C379A000000000000000000000000000000000000000000000000000000000 DUP2 MSTORE PUSH1 0x4 ADD PUSH2 0x24E1 SWAP1 PUSH2 0x47A8 JUMP JUMPDEST PUSH1 0x40 MLOAD DUP1 SWAP2 SUB SWAP1 REVERT JUMPDEST PUSH1 0x0 PUSH2 0x24F4 PUSH2 0x16C9 JUMP JUMPDEST SWAP1 POP PUSH1 0x0 PUSH2 0x2501 DUP5 PUSH2 0x2CA7 JUMP JUMPDEST SWAP1 POP PUSH1 0x0 PUSH2 0x250E DUP5 PUSH2 0x2CA7 JUMP JUMPDEST SWAP1 POP PUSH2 0x252E DUP4 DUP8 PUSH1 0x0 DUP6 DUP6 PUSH1 0x40 MLOAD DUP1 PUSH1 0x20 ADD PUSH1 0x40 MSTORE DUP1 PUSH1 0x0 DUP2 MSTORE POP PUSH2 0x26C1 JUMP JUMPDEST PUSH1 0x0 DUP1 PUSH1 0x0 DUP8 DUP2 MSTORE PUSH1 0x20 ADD SWAP1 DUP2 MSTORE PUSH1 0x20 ADD PUSH1 0x0 KECCAK256 PUSH1 0x0 DUP9 PUSH20 0xFFFFFFFFFFFFFFFFFFFFFFFFFFFFFFFFFFFFFFFF AND PUSH20 0xFFFFFFFFFFFFFFFFFFFFFFFFFFFFFFFFFFFFFFFF AND DUP2 MSTORE PUSH1 0x20 ADD SWAP1 DUP2 MSTORE PUSH1 0x20 ADD PUSH1 0x0 KECCAK256 SLOAD SWAP1 POP DUP5 DUP2 LT ISZERO PUSH2 0x25C5 JUMPI PUSH1 0x40 MLOAD PUSH32 0x8C379A000000000000000000000000000000000000000000000000000000000 DUP2 MSTORE PUSH1 0x4 ADD PUSH2 0x25BC SWAP1 PUSH2 0x483A JUMP JUMPDEST PUSH1 0x40 MLOAD DUP1 SWAP2 SUB SWAP1 REVERT JUMPDEST DUP5 DUP2 SUB PUSH1 0x0 DUP1 DUP9 DUP2 MSTORE PUSH1 0x20 ADD SWAP1 DUP2 MSTORE PUSH1 0x20 ADD PUSH1 0x0 KECCAK256 PUSH1 0x0 DUP10 PUSH20 0xFFFFFFFFFFFFFFFFFFFFFFFFFFFFFFFFFFFFFFFF AND PUSH20 0xFFFFFFFFFFFFFFFFFFFFFFFFFFFFFFFFFFFFFFFF AND DUP2 MSTORE PUSH1 0x20 ADD SWAP1 DUP2 MSTORE PUSH1 0x20 ADD PUSH1 0x0 KECCAK256 DUP2 SWAP1 SSTORE POP PUSH1 0x0 PUSH20 0xFFFFFFFFFFFFFFFFFFFFFFFFFFFFFFFFFFFFFFFF AND DUP8 PUSH20 0xFFFFFFFFFFFFFFFFFFFFFFFFFFFFFFFFFFFFFFFF AND DUP6 PUSH20 0xFFFFFFFFFFFFFFFFFFFFFFFFFFFFFFFFFFFFFFFF AND PUSH32 0xC3D58168C5AE7397731D063D5BBF3D657854427343F4C083240F7AACAA2D0F62 DUP10 DUP10 PUSH1 0x40 MLOAD PUSH2 0x2692 SWAP3 SWAP2 SWAP1 PUSH2 0x4FC9 JUMP JUMPDEST PUSH1 0x40 MLOAD DUP1 SWAP2 SUB SWAP1 LOG4 PUSH2 0x26B8 DUP5 DUP9 PUSH1 0x0 DUP7 DUP7 PUSH1 0x40 MLOAD DUP1 PUSH1 0x20 ADD PUSH1 0x40 MSTORE DUP1 PUSH1 0x0 DUP2 MSTORE POP PUSH2 0x26D7 JUMP JUMPDEST POP POP POP POP POP POP POP JUMP JUMPDEST PUSH2 0x26CF DUP7 DUP7 DUP7 DUP7 DUP7 DUP7 PUSH2 0x2EF8 JUMP JUMPDEST POP POP POP POP POP POP JUMP JUMPDEST POP POP POP POP POP POP JUMP JUMPDEST PUSH2 0x26FE DUP5 PUSH20 0xFFFFFFFFFFFFFFFFFFFFFFFFFFFFFFFFFFFFFFFF AND PUSH2 0x30C8 JUMP JUMPDEST ISZERO PUSH2 0x28AE JUMPI DUP4 PUSH20 0xFFFFFFFFFFFFFFFFFFFFFFFFFFFFFFFFFFFFFFFF AND PUSH4 0xBC197C81 DUP8 DUP8 DUP7 DUP7 DUP7 PUSH1 0x40 MLOAD DUP7 PUSH4 0xFFFFFFFF AND PUSH1 0xE0 SHL DUP2 MSTORE PUSH1 0x4 ADD PUSH2 0x2744 SWAP6 SWAP5 SWAP4 SWAP3 SWAP2 SWAP1 PUSH2 0x4FF2 JUMP JUMPDEST PUSH1 0x20 PUSH1 0x40 MLOAD DUP1 DUP4 SUB DUP2 PUSH1 0x0 DUP8 GAS CALL SWAP3 POP POP POP DUP1 ISZERO PUSH2 0x2780 JUMPI POP PUSH1 0x40 MLOAD RETURNDATASIZE PUSH1 0x1F NOT PUSH1 0x1F DUP3 ADD AND DUP3 ADD DUP1 PUSH1 0x40 MSTORE POP DUP2 ADD SWAP1 PUSH2 0x277D SWAP2 SWAP1 PUSH2 0x505A JUMP JUMPDEST PUSH1 0x1 JUMPDEST PUSH2 0x2825 JUMPI PUSH2 0x278C PUSH2 0x5094 JUMP JUMPDEST DUP1 PUSH4 0x8C379A0 SUB PUSH2 0x27E8 JUMPI POP PUSH2 0x27A0 PUSH2 0x50B6 JUMP JUMPDEST DUP1 PUSH2 0x27AB JUMPI POP PUSH2 0x27EA JUMP JUMPDEST DUP1 PUSH1 0x40 MLOAD PUSH32 0x8C379A000000000000000000000000000000000000000000000000000000000 DUP2 MSTORE PUSH1 0x4 ADD PUSH2 0x27DF SWAP2 SWAP1 PUSH2 0x337D JUMP JUMPDEST PUSH1 0x40 MLOAD DUP1 SWAP2 SUB SWAP1 REVERT JUMPDEST POP JUMPDEST PUSH1 0x40 MLOAD PUSH32 0x8C379A000000000000000000000000000000000000000000000000000000000 DUP2 MSTORE PUSH1 0x4 ADD PUSH2 0x281C SWAP1 PUSH2 0x51B8 JUMP JUMPDEST PUSH1 0x40 MLOAD DUP1 SWAP2 SUB SWAP1 REVERT JUMPDEST PUSH4 0xBC197C81 PUSH1 0xE0 SHL PUSH28 0xFFFFFFFFFFFFFFFFFFFFFFFFFFFFFFFFFFFFFFFFFFFFFFFFFFFFFFFF NOT AND DUP2 PUSH28 0xFFFFFFFFFFFFFFFFFFFFFFFFFFFFFFFFFFFFFFFFFFFFFFFFFFFFFFFF NOT AND EQ PUSH2 0x28AC JUMPI PUSH1 0x40 MLOAD PUSH32 0x8C379A000000000000000000000000000000000000000000000000000000000 DUP2 MSTORE PUSH1 0x4 ADD PUSH2 0x28A3 SWAP1 PUSH2 0x524A JUMP JUMPDEST PUSH1 0x40 MLOAD DUP1 SWAP2 SUB SWAP1 REVERT JUMPDEST POP JUMPDEST POP POP POP POP POP POP JUMP JUMPDEST PUSH1 0x0 DUP1 PUSH32 0x65599BF746E17A00EA62E3610586992D88101B78EEC3CF380706621FB97EA837 SLOAD SWAP2 POP PUSH32 0xB969D79D88ACD02D04ED7EE7D43B949E7DAF093D363ABCFBBC43DFDFD1CE969A SLOAD SWAP1 POP PUSH1 0x0 PUSH20 0xFFFFFFFFFFFFFFFFFFFFFFFFFFFFFFFFFFFFFFFF AND DUP2 PUSH20 0xFFFFFFFFFFFFFFFFFFFFFFFFFFFFFFFFFFFFFFFF AND SUB PUSH2 0x2A78 JUMPI PUSH1 0x0 PUSH20 0xFFFFFFFFFFFFFFFFFFFFFFFFFFFFFFFFFFFFFFFF AND DUP3 PUSH20 0xFFFFFFFFFFFFFFFFFFFFFFFFFFFFFFFFFFFFFFFF AND SUB PUSH2 0x29DB JUMPI DUP3 PUSH20 0xFFFFFFFFFFFFFFFFFFFFFFFFFFFFFFFFFFFFFFFF AND PUSH4 0x20BC4425 PUSH1 0x40 MLOAD DUP2 PUSH4 0xFFFFFFFF AND PUSH1 0xE0 SHL DUP2 MSTORE PUSH1 0x4 ADD PUSH1 0x20 PUSH1 0x40 MLOAD DUP1 DUP4 SUB DUP2 DUP7 GAS STATICCALL ISZERO DUP1 ISZERO PUSH2 0x29B4 JUMPI RETURNDATASIZE PUSH1 0x0 DUP1 RETURNDATACOPY RETURNDATASIZE PUSH1 0x0 REVERT JUMPDEST POP POP POP POP PUSH1 0x40 MLOAD RETURNDATASIZE PUSH1 0x1F NOT PUSH1 0x1F DUP3 ADD AND DUP3 ADD DUP1 PUSH1 0x40 MSTORE POP DUP2 ADD SWAP1 PUSH2 0x29D8 SWAP2 SWAP1 PUSH2 0x526A JUMP JUMPDEST SWAP2 POP JUMPDEST DUP2 PUSH20 0xFFFFFFFFFFFFFFFFFFFFFFFFFFFFFFFFFFFFFFFF AND PUSH4 0xB6D200DE PUSH32 0xA9214CC96615E0085D3BB077758DB69497DC2DCE3B2B1E97BC93C3D18D83EFD3 PUSH1 0x40 MLOAD DUP3 PUSH4 0xFFFFFFFF AND PUSH1 0xE0 SHL DUP2 MSTORE PUSH1 0x4 ADD PUSH2 0x2A34 SWAP2 SWAP1 PUSH2 0x3D4E JUMP JUMPDEST PUSH1 0x20 PUSH1 0x40 MLOAD DUP1 DUP4 SUB DUP2 DUP7 GAS STATICCALL ISZERO DUP1 ISZERO PUSH2 0x2A51 JUMPI RETURNDATASIZE PUSH1 0x0 DUP1 RETURNDATACOPY RETURNDATASIZE PUSH1 0x0 REVERT JUMPDEST POP POP POP POP PUSH1 0x40 MLOAD RETURNDATASIZE PUSH1 0x1F NOT PUSH1 0x1F DUP3 ADD AND DUP3 ADD DUP1 PUSH1 0x40 MSTORE POP DUP2 ADD SWAP1 PUSH2 0x2A75 SWAP2 SWAP1 PUSH2 0x4420 JUMP JUMPDEST SWAP1 POP JUMPDEST PUSH1 0x0 PUSH20 0xFFFFFFFFFFFFFFFFFFFFFFFFFFFFFFFFFFFFFFFF AND DUP3 PUSH20 0xFFFFFFFFFFFFFFFFFFFFFFFFFFFFFFFFFFFFFFFF AND SUB PUSH2 0x2AB5 JUMPI PUSH2 0x2AB4 PUSH2 0x5297 JUMP JUMPDEST JUMPDEST PUSH1 0x0 PUSH20 0xFFFFFFFFFFFFFFFFFFFFFFFFFFFFFFFFFFFFFFFF AND DUP2 PUSH20 0xFFFFFFFFFFFFFFFFFFFFFFFFFFFFFFFFFFFFFFFF AND SUB PUSH2 0x2AF2 JUMPI PUSH2 0x2AF1 PUSH2 0x5297 JUMP JUMPDEST JUMPDEST SWAP2 POP SWAP2 JUMP JUMPDEST PUSH1 0x0 PUSH20 0xFFFFFFFFFFFFFFFFFFFFFFFFFFFFFFFFFFFFFFFF AND DUP5 PUSH20 0xFFFFFFFFFFFFFFFFFFFFFFFFFFFFFFFFFFFFFFFF AND SUB PUSH2 0x2B66 JUMPI PUSH1 0x40 MLOAD PUSH32 0x8C379A000000000000000000000000000000000000000000000000000000000 DUP2 MSTORE PUSH1 0x4 ADD PUSH2 0x2B5D SWAP1 PUSH2 0x5338 JUMP JUMPDEST PUSH1 0x40 MLOAD DUP1 SWAP2 SUB SWAP1 REVERT JUMPDEST PUSH1 0x0 PUSH2 0x2B70 PUSH2 0x16C9 JUMP JUMPDEST SWAP1 POP PUSH1 0x0 PUSH2 0x2B7D DUP6 PUSH2 0x2CA7 JUMP JUMPDEST SWAP1 POP PUSH1 0x0 PUSH2 0x2B8A DUP6 PUSH2 0x2CA7 JUMP JUMPDEST SWAP1 POP PUSH2 0x2B9B DUP4 PUSH1 0x0 DUP10 DUP6 DUP6 DUP10 PUSH2 0x26C1 JUMP JUMPDEST DUP5 PUSH1 0x0 DUP1 DUP9 DUP2 MSTORE PUSH1 0x20 ADD SWAP1 DUP2 MSTORE PUSH1 0x20 ADD PUSH1 0x0 KECCAK256 PUSH1 0x0 DUP10 PUSH20 0xFFFFFFFFFFFFFFFFFFFFFFFFFFFFFFFFFFFFFFFF AND PUSH20 0xFFFFFFFFFFFFFFFFFFFFFFFFFFFFFFFFFFFFFFFF AND DUP2 MSTORE PUSH1 0x20 ADD SWAP1 DUP2 MSTORE PUSH1 0x20 ADD PUSH1 0x0 KECCAK256 PUSH1 0x0 DUP3 DUP3 SLOAD PUSH2 0x2BFA SWAP2 SWAP1 PUSH2 0x4603 JUMP JUMPDEST SWAP3 POP POP DUP2 SWAP1 SSTORE POP DUP7 PUSH20 0xFFFFFFFFFFFFFFFFFFFFFFFFFFFFFFFFFFFFFFFF AND PUSH1 0x0 PUSH20 0xFFFFFFFFFFFFFFFFFFFFFFFFFFFFFFFFFFFFFFFF AND DUP5 PUSH20 0xFFFFFFFFFFFFFFFFFFFFFFFFFFFFFFFFFFFFFFFF AND PUSH32 0xC3D58168C5AE7397731D063D5BBF3D657854427343F4C083240F7AACAA2D0F62 DUP10 DUP10 PUSH1 0x40 MLOAD PUSH2 0x2C78 SWAP3 SWAP2 SWAP1 PUSH2 0x4FC9 JUMP JUMPDEST PUSH1 0x40 MLOAD DUP1 SWAP2 SUB SWAP1 LOG4 PUSH2 0x2C8F DUP4 PUSH1 0x0 DUP10 DUP6 DUP6 DUP10 PUSH2 0x26D7 JUMP JUMPDEST PUSH2 0x2C9E DUP4 PUSH1 0x0 DUP10 DUP10 DUP10 DUP10 PUSH2 0x2D21 JUMP JUMPDEST POP POP POP POP POP POP POP JUMP JUMPDEST PUSH1 0x60 PUSH1 0x0 PUSH1 0x1 PUSH8 0xFFFFFFFFFFFFFFFF DUP2 GT ISZERO PUSH2 0x2CC6 JUMPI PUSH2 0x2CC5 PUSH2 0x35DE JUMP JUMPDEST JUMPDEST PUSH1 0x40 MLOAD SWAP1 DUP1 DUP3 MSTORE DUP1 PUSH1 0x20 MUL PUSH1 0x20 ADD DUP3 ADD PUSH1 0x40 MSTORE DUP1 ISZERO PUSH2 0x2CF4 JUMPI DUP2 PUSH1 0x20 ADD PUSH1 0x20 DUP3 MUL DUP1 CALLDATASIZE DUP4 CALLDATACOPY DUP1 DUP3 ADD SWAP2 POP POP SWAP1 POP JUMPDEST POP SWAP1 POP DUP3 DUP2 PUSH1 0x0 DUP2 MLOAD DUP2 LT PUSH2 0x2D0C JUMPI PUSH2 0x2D0B PUSH2 0x4209 JUMP JUMPDEST JUMPDEST PUSH1 0x20 MUL PUSH1 0x20 ADD ADD DUP2 DUP2 MSTORE POP POP DUP1 SWAP2 POP POP SWAP2 SWAP1 POP JUMP JUMPDEST PUSH2 0x2D40 DUP5 PUSH20 0xFFFFFFFFFFFFFFFFFFFFFFFFFFFFFFFFFFFFFFFF AND PUSH2 0x30C8 JUMP JUMPDEST ISZERO PUSH2 0x2EF0 JUMPI DUP4 PUSH20 0xFFFFFFFFFFFFFFFFFFFFFFFFFFFFFFFFFFFFFFFF AND PUSH4 0xF23A6E61 DUP8 DUP8 DUP7 DUP7 DUP7 PUSH1 0x40 MLOAD DUP7 PUSH4 0xFFFFFFFF AND PUSH1 0xE0 SHL DUP2 MSTORE PUSH1 0x4 ADD PUSH2 0x2D86 SWAP6 SWAP5 SWAP4 SWAP3 SWAP2 SWAP1 PUSH2 0x5358 JUMP JUMPDEST PUSH1 0x20 PUSH1 0x40 MLOAD DUP1 DUP4 SUB DUP2 PUSH1 0x0 DUP8 GAS CALL SWAP3 POP POP POP DUP1 ISZERO PUSH2 0x2DC2 JUMPI POP PUSH1 0x40 MLOAD RETURNDATASIZE PUSH1 0x1F NOT PUSH1 0x1F DUP3 ADD AND DUP3 ADD DUP1 PUSH1 0x40 MSTORE POP DUP2 ADD SWAP1 PUSH2 0x2DBF SWAP2 SWAP1 PUSH2 0x505A JUMP JUMPDEST PUSH1 0x1 JUMPDEST PUSH2 0x2E67 JUMPI PUSH2 0x2DCE PUSH2 0x5094 JUMP JUMPDEST DUP1 PUSH4 0x8C379A0 SUB PUSH2 0x2E2A JUMPI POP PUSH2 0x2DE2 PUSH2 0x50B6 JUMP JUMPDEST DUP1 PUSH2 0x2DED JUMPI POP PUSH2 0x2E2C JUMP JUMPDEST DUP1 PUSH1 0x40 MLOAD PUSH32 0x8C379A000000000000000000000000000000000000000000000000000000000 DUP2 MSTORE PUSH1 0x4 ADD PUSH2 0x2E21 SWAP2 SWAP1 PUSH2 0x337D JUMP JUMPDEST PUSH1 0x40 MLOAD DUP1 SWAP2 SUB SWAP1 REVERT JUMPDEST POP JUMPDEST PUSH1 0x40 MLOAD PUSH32 0x8C379A000000000000000000000000000000000000000000000000000000000 DUP2 MSTORE PUSH1 0x4 ADD PUSH2 0x2E5E SWAP1 PUSH2 0x51B8 JUMP JUMPDEST PUSH1 0x40 MLOAD DUP1 SWAP2 SUB SWAP1 REVERT JUMPDEST PUSH4 0xF23A6E61 PUSH1 0xE0 SHL PUSH28 0xFFFFFFFFFFFFFFFFFFFFFFFFFFFFFFFFFFFFFFFFFFFFFFFFFFFFFFFF NOT AND DUP2 PUSH28 0xFFFFFFFFFFFFFFFFFFFFFFFFFFFFFFFFFFFFFFFFFFFFFFFFFFFFFFFF NOT AND EQ PUSH2 0x2EEE JUMPI PUSH1 0x40 MLOAD PUSH32 0x8C379A000000000000000000000000000000000000000000000000000000000 DUP2 MSTORE PUSH1 0x4 ADD PUSH2 0x2EE5 SWAP1 PUSH2 0x524A JUMP JUMPDEST PUSH1 0x40 MLOAD DUP1 SWAP2 SUB SWAP1 REVERT JUMPDEST POP JUMPDEST POP POP POP POP POP POP JUMP JUMPDEST PUSH2 0x2F06 DUP7 DUP7 DUP7 DUP7 DUP7 DUP7 PUSH2 0x30EB JUMP JUMPDEST PUSH1 0x0 PUSH20 0xFFFFFFFFFFFFFFFFFFFFFFFFFFFFFFFFFFFFFFFF AND DUP6 PUSH20 0xFFFFFFFFFFFFFFFFFFFFFFFFFFFFFFFFFFFFFFFF AND SUB PUSH2 0x2FB7 JUMPI PUSH1 0x0 JUMPDEST DUP4 MLOAD DUP2 LT ISZERO PUSH2 0x2FB5 JUMPI DUP3 DUP2 DUP2 MLOAD DUP2 LT PUSH2 0x2F59 JUMPI PUSH2 0x2F58 PUSH2 0x4209 JUMP JUMPDEST JUMPDEST PUSH1 0x20 MUL PUSH1 0x20 ADD ADD MLOAD PUSH1 0x4 PUSH1 0x0 DUP7 DUP5 DUP2 MLOAD DUP2 LT PUSH2 0x2F78 JUMPI PUSH2 0x2F77 PUSH2 0x4209 JUMP JUMPDEST JUMPDEST PUSH1 0x20 MUL PUSH1 0x20 ADD ADD MLOAD DUP2 MSTORE PUSH1 0x20 ADD SWAP1 DUP2 MSTORE PUSH1 0x20 ADD PUSH1 0x0 KECCAK256 PUSH1 0x0 DUP3 DUP3 SLOAD PUSH2 0x2F9D SWAP2 SWAP1 PUSH2 0x4603 JUMP JUMPDEST SWAP3 POP POP DUP2 SWAP1 SSTORE POP DUP1 PUSH2 0x2FAE SWAP1 PUSH2 0x4267 JUMP JUMPDEST SWAP1 POP PUSH2 0x2F3D JUMP JUMPDEST POP JUMPDEST PUSH1 0x0 PUSH20 0xFFFFFFFFFFFFFFFFFFFFFFFFFFFFFFFFFFFFFFFF AND DUP5 PUSH20 0xFFFFFFFFFFFFFFFFFFFFFFFFFFFFFFFFFFFFFFFF AND SUB PUSH2 0x30C0 JUMPI PUSH1 0x0 JUMPDEST DUP4 MLOAD DUP2 LT ISZERO PUSH2 0x30BE JUMPI PUSH1 0x0 DUP5 DUP3 DUP2 MLOAD DUP2 LT PUSH2 0x300C JUMPI PUSH2 0x300B PUSH2 0x4209 JUMP JUMPDEST JUMPDEST PUSH1 0x20 MUL PUSH1 0x20 ADD ADD MLOAD SWAP1 POP PUSH1 0x0 DUP5 DUP4 DUP2 MLOAD DUP2 LT PUSH2 0x302B JUMPI PUSH2 0x302A PUSH2 0x4209 JUMP JUMPDEST JUMPDEST PUSH1 0x20 MUL PUSH1 0x20 ADD ADD MLOAD SWAP1 POP PUSH1 0x0 PUSH1 0x4 PUSH1 0x0 DUP5 DUP2 MSTORE PUSH1 0x20 ADD SWAP1 DUP2 MSTORE PUSH1 0x20 ADD PUSH1 0x0 KECCAK256 SLOAD SWAP1 POP DUP2 DUP2 LT ISZERO PUSH2 0x3090 JUMPI PUSH1 0x40 MLOAD PUSH32 0x8C379A000000000000000000000000000000000000000000000000000000000 DUP2 MSTORE PUSH1 0x4 ADD PUSH2 0x3087 SWAP1 PUSH2 0x5424 JUMP JUMPDEST PUSH1 0x40 MLOAD DUP1 SWAP2 SUB SWAP1 REVERT JUMPDEST DUP2 DUP2 SUB PUSH1 0x4 PUSH1 0x0 DUP6 DUP2 MSTORE PUSH1 0x20 ADD SWAP1 DUP2 MSTORE PUSH1 0x20 ADD PUSH1 0x0 KECCAK256 DUP2 SWAP1 SSTORE POP POP POP POP DUP1 PUSH2 0x30B7 SWAP1 PUSH2 0x4267 JUMP JUMPDEST SWAP1 POP PUSH2 0x2FEE JUMP JUMPDEST POP JUMPDEST POP POP POP POP POP POP JUMP JUMPDEST PUSH1 0x0 DUP1 DUP3 PUSH20 0xFFFFFFFFFFFFFFFFFFFFFFFFFFFFFFFFFFFFFFFF AND EXTCODESIZE GT SWAP1 POP SWAP2 SWAP1 POP JUMP JUMPDEST POP POP POP POP POP POP JUMP JUMPDEST PUSH1 0x0 PUSH1 0x40 MLOAD SWAP1 POP SWAP1 JUMP JUMPDEST PUSH1 0x0 DUP1 REVERT JUMPDEST PUSH1 0x0 DUP1 REVERT JUMPDEST PUSH1 0x0 PUSH20 0xFFFFFFFFFFFFFFFFFFFFFFFFFFFFFFFFFFFFFFFF DUP3 AND SWAP1 POP SWAP2 SWAP1 POP JUMP JUMPDEST PUSH1 0x0 PUSH2 0x3132 DUP3 PUSH2 0x3107 JUMP JUMPDEST SWAP1 POP SWAP2 SWAP1 POP JUMP JUMPDEST PUSH2 0x3142 DUP2 PUSH2 0x3127 JUMP JUMPDEST DUP2 EQ PUSH2 0x314D JUMPI PUSH1 0x0 DUP1 REVERT JUMPDEST POP JUMP JUMPDEST PUSH1 0x0 DUP2 CALLDATALOAD SWAP1 POP PUSH2 0x315F DUP2 PUSH2 0x3139 JUMP JUMPDEST SWAP3 SWAP2 POP POP JUMP JUMPDEST PUSH1 0x0 DUP2 SWAP1 POP SWAP2 SWAP1 POP JUMP JUMPDEST PUSH2 0x3178 DUP2 PUSH2 0x3165 JUMP JUMPDEST DUP2 EQ PUSH2 0x3183 JUMPI PUSH1 0x0 DUP1 REVERT JUMPDEST POP JUMP JUMPDEST PUSH1 0x0 DUP2 CALLDATALOAD SWAP1 POP PUSH2 0x3195 DUP2 PUSH2 0x316F JUMP JUMPDEST SWAP3 SWAP2 POP POP JUMP JUMPDEST PUSH1 0x0 DUP1 PUSH1 0x40 DUP4 DUP6 SUB SLT ISZERO PUSH2 0x31B2 JUMPI PUSH2 0x31B1 PUSH2 0x30FD JUMP JUMPDEST JUMPDEST PUSH1 0x0 PUSH2 0x31C0 DUP6 DUP3 DUP7 ADD PUSH2 0x3150 JUMP JUMPDEST SWAP3 POP POP PUSH1 0x20 PUSH2 0x31D1 DUP6 DUP3 DUP7 ADD PUSH2 0x3186 JUMP JUMPDEST SWAP2 POP POP SWAP3 POP SWAP3 SWAP1 POP JUMP JUMPDEST PUSH2 0x31E4 DUP2 PUSH2 0x3165 JUMP JUMPDEST DUP3 MSTORE POP POP JUMP JUMPDEST PUSH1 0x0 PUSH1 0x20 DUP3 ADD SWAP1 POP PUSH2 0x31FF PUSH1 0x0 DUP4 ADD DUP5 PUSH2 0x31DB JUMP JUMPDEST SWAP3 SWAP2 POP POP JUMP JUMPDEST PUSH1 0x0 PUSH32 0xFFFFFFFF00000000000000000000000000000000000000000000000000000000 DUP3 AND SWAP1 POP SWAP2 SWAP1 POP JUMP JUMPDEST PUSH2 0x323A DUP2 PUSH2 0x3205 JUMP JUMPDEST DUP2 EQ PUSH2 0x3245 JUMPI PUSH1 0x0 DUP1 REVERT JUMPDEST POP JUMP JUMPDEST PUSH1 0x0 DUP2 CALLDATALOAD SWAP1 POP PUSH2 0x3257 DUP2 PUSH2 0x3231 JUMP JUMPDEST SWAP3 SWAP2 POP POP JUMP JUMPDEST PUSH1 0x0 PUSH1 0x20 DUP3 DUP5 SUB SLT ISZERO PUSH2 0x3273 JUMPI PUSH2 0x3272 PUSH2 0x30FD JUMP JUMPDEST JUMPDEST PUSH1 0x0 PUSH2 0x3281 DUP5 DUP3 DUP6 ADD PUSH2 0x3248 JUMP JUMPDEST SWAP2 POP POP SWAP3 SWAP2 POP POP JUMP JUMPDEST PUSH1 0x0 DUP2 ISZERO ISZERO SWAP1 POP SWAP2 SWAP1 POP JUMP JUMPDEST PUSH2 0x329F DUP2 PUSH2 0x328A JUMP JUMPDEST DUP3 MSTORE POP POP JUMP JUMPDEST PUSH1 0x0 PUSH1 0x20 DUP3 ADD SWAP1 POP PUSH2 0x32BA PUSH1 0x0 DUP4 ADD DUP5 PUSH2 0x3296 JUMP JUMPDEST SWAP3 SWAP2 POP POP JUMP JUMPDEST PUSH1 0x0 PUSH1 0x20 DUP3 DUP5 SUB SLT ISZERO PUSH2 0x32D6 JUMPI PUSH2 0x32D5 PUSH2 0x30FD JUMP JUMPDEST JUMPDEST PUSH1 0x0 PUSH2 0x32E4 DUP5 DUP3 DUP6 ADD PUSH2 0x3186 JUMP JUMPDEST SWAP2 POP POP SWAP3 SWAP2 POP POP JUMP JUMPDEST PUSH1 0x0 DUP2 MLOAD SWAP1 POP SWAP2 SWAP1 POP JUMP JUMPDEST PUSH1 0x0 DUP3 DUP3 MSTORE PUSH1 0x20 DUP3 ADD SWAP1 POP SWAP3 SWAP2 POP POP JUMP JUMPDEST PUSH1 0x0 JUMPDEST DUP4 DUP2 LT ISZERO PUSH2 0x3327 JUMPI DUP1 DUP3 ADD MLOAD DUP2 DUP5 ADD MSTORE PUSH1 0x20 DUP2 ADD SWAP1 POP PUSH2 0x330C JUMP JUMPDEST PUSH1 0x0 DUP5 DUP5 ADD MSTORE POP POP POP POP JUMP JUMPDEST PUSH1 0x0 PUSH1 0x1F NOT PUSH1 0x1F DUP4 ADD AND SWAP1 POP SWAP2 SWAP1 POP JUMP JUMPDEST PUSH1 0x0 PUSH2 0x334F DUP3 PUSH2 0x32ED JUMP JUMPDEST PUSH2 0x3359 DUP2 DUP6 PUSH2 0x32F8 JUMP JUMPDEST SWAP4 POP PUSH2 0x3369 DUP2 DUP6 PUSH1 0x20 DUP7 ADD PUSH2 0x3309 JUMP JUMPDEST PUSH2 0x3372 DUP2 PUSH2 0x3333 JUMP JUMPDEST DUP5 ADD SWAP2 POP POP SWAP3 SWAP2 POP POP JUMP JUMPDEST PUSH1 0x0 PUSH1 0x20 DUP3 ADD SWAP1 POP DUP2 DUP2 SUB PUSH1 0x0 DUP4 ADD MSTORE PUSH2 0x3397 DUP2 DUP5 PUSH2 0x3344 JUMP JUMPDEST SWAP1 POP SWAP3 SWAP2 POP POP JUMP JUMPDEST PUSH1 0x0 PUSH2 0x33AA DUP3 PUSH2 0x3127 JUMP JUMPDEST SWAP1 POP SWAP2 SWAP1 POP JUMP JUMPDEST PUSH2 0x33BA DUP2 PUSH2 0x339F JUMP JUMPDEST DUP2 EQ PUSH2 0x33C5 JUMPI PUSH1 0x0 DUP1 REVERT JUMPDEST POP JUMP JUMPDEST PUSH1 0x0 DUP2 CALLDATALOAD SWAP1 POP PUSH2 0x33D7 DUP2 PUSH2 0x33B1 JUMP JUMPDEST SWAP3 SWAP2 POP POP JUMP JUMPDEST PUSH1 0x0 DUP2 SWAP1 POP SWAP2 SWAP1 POP JUMP JUMPDEST PUSH2 0x33F0 DUP2 PUSH2 0x33DD JUMP JUMPDEST DUP2 EQ PUSH2 0x33FB JUMPI PUSH1 0x0 DUP1 REVERT JUMPDEST POP JUMP JUMPDEST PUSH1 0x0 DUP2 CALLDATALOAD SWAP1 POP PUSH2 0x340D DUP2 PUSH2 0x33E7 JUMP JUMPDEST SWAP3 SWAP2 POP POP JUMP JUMPDEST PUSH1 0x0 DUP1 REVERT JUMPDEST PUSH1 0x0 DUP1 REVERT JUMPDEST PUSH1 0x0 DUP1 REVERT JUMPDEST PUSH1 0x0 DUP1 DUP4 PUSH1 0x1F DUP5 ADD SLT PUSH2 0x3438 JUMPI PUSH2 0x3437 PUSH2 0x3413 JUMP JUMPDEST JUMPDEST DUP3 CALLDATALOAD SWAP1 POP PUSH8 0xFFFFFFFFFFFFFFFF DUP2 GT ISZERO PUSH2 0x3455 JUMPI PUSH2 0x3454 PUSH2 0x3418 JUMP JUMPDEST JUMPDEST PUSH1 0x20 DUP4 ADD SWAP2 POP DUP4 PUSH1 0x1 DUP3 MUL DUP4 ADD GT ISZERO PUSH2 0x3471 JUMPI PUSH2 0x3470 PUSH2 0x341D JUMP JUMPDEST JUMPDEST SWAP3 POP SWAP3 SWAP1 POP JUMP JUMPDEST PUSH1 0x0 DUP1 PUSH1 0x0 DUP1 PUSH1 0x0 DUP1 PUSH1 0x0 DUP1 PUSH1 0x0 PUSH1 0xC0 DUP11 DUP13 SUB SLT ISZERO PUSH2 0x349A JUMPI PUSH2 0x3499 PUSH2 0x30FD JUMP JUMPDEST JUMPDEST PUSH1 0x0 PUSH2 0x34A8 DUP13 DUP3 DUP14 ADD PUSH2 0x33C8 JUMP JUMPDEST SWAP10 POP POP PUSH1 0x20 PUSH2 0x34B9 DUP13 DUP3 DUP14 ADD PUSH2 0x3150 JUMP JUMPDEST SWAP9 POP POP PUSH1 0x40 PUSH2 0x34CA DUP13 DUP3 DUP14 ADD PUSH2 0x33FE JUMP JUMPDEST SWAP8 POP POP PUSH1 0x60 DUP11 ADD CALLDATALOAD PUSH8 0xFFFFFFFFFFFFFFFF DUP2 GT ISZERO PUSH2 0x34EB JUMPI PUSH2 0x34EA PUSH2 0x3102 JUMP JUMPDEST JUMPDEST PUSH2 0x34F7 DUP13 DUP3 DUP14 ADD PUSH2 0x3422 JUMP JUMPDEST SWAP7 POP SWAP7 POP POP PUSH1 0x80 DUP11 ADD CALLDATALOAD PUSH8 0xFFFFFFFFFFFFFFFF DUP2 GT ISZERO PUSH2 0x351A JUMPI PUSH2 0x3519 PUSH2 0x3102 JUMP JUMPDEST JUMPDEST PUSH2 0x3526 DUP13 DUP3 DUP14 ADD PUSH2 0x3422 JUMP JUMPDEST SWAP5 POP SWAP5 POP POP PUSH1 0xA0 DUP11 ADD CALLDATALOAD PUSH8 0xFFFFFFFFFFFFFFFF DUP2 GT ISZERO PUSH2 0x3549 JUMPI PUSH2 0x3548 PUSH2 0x3102 JUMP JUMPDEST JUMPDEST PUSH2 0x3555 DUP13 DUP3 DUP14 ADD PUSH2 0x3422 JUMP JUMPDEST SWAP3 POP SWAP3 POP POP SWAP3 SWAP6 SWAP9 POP SWAP3 SWAP6 SWAP9 POP SWAP3 SWAP6 SWAP9 JUMP JUMPDEST PUSH1 0x0 DUP2 MLOAD SWAP1 POP SWAP2 SWAP1 POP JUMP JUMPDEST PUSH1 0x0 DUP3 DUP3 MSTORE PUSH1 0x20 DUP3 ADD SWAP1 POP SWAP3 SWAP2 POP POP JUMP JUMPDEST PUSH1 0x0 PUSH2 0x358E DUP3 PUSH2 0x3567 JUMP JUMPDEST PUSH2 0x3598 DUP2 DUP6 PUSH2 0x3572 JUMP JUMPDEST SWAP4 POP PUSH2 0x35A8 DUP2 DUP6 PUSH1 0x20 DUP7 ADD PUSH2 0x3309 JUMP JUMPDEST PUSH2 0x35B1 DUP2 PUSH2 0x3333 JUMP JUMPDEST DUP5 ADD SWAP2 POP POP SWAP3 SWAP2 POP POP JUMP JUMPDEST PUSH1 0x0 PUSH1 0x20 DUP3 ADD SWAP1 POP DUP2 DUP2 SUB PUSH1 0x0 DUP4 ADD MSTORE PUSH2 0x35D6 DUP2 DUP5 PUSH2 0x3583 JUMP JUMPDEST SWAP1 POP SWAP3 SWAP2 POP POP JUMP JUMPDEST PUSH32 0x4E487B7100000000000000000000000000000000000000000000000000000000 PUSH1 0x0 MSTORE PUSH1 0x41 PUSH1 0x4 MSTORE PUSH1 0x24 PUSH1 0x0 REVERT JUMPDEST PUSH2 0x3616 DUP3 PUSH2 0x3333 JUMP JUMPDEST DUP2 ADD DUP2 DUP2 LT PUSH8 0xFFFFFFFFFFFFFFFF DUP3 GT OR ISZERO PUSH2 0x3635 JUMPI PUSH2 0x3634 PUSH2 0x35DE JUMP JUMPDEST JUMPDEST DUP1 PUSH1 0x40 MSTORE POP POP POP JUMP JUMPDEST PUSH1 0x0 PUSH2 0x3648 PUSH2 0x30F3 JUMP JUMPDEST SWAP1 POP PUSH2 0x3654 DUP3 DUP3 PUSH2 0x360D JUMP JUMPDEST SWAP2 SWAP1 POP JUMP JUMPDEST PUSH1 0x0 PUSH8 0xFFFFFFFFFFFFFFFF DUP3 GT ISZERO PUSH2 0x3674 JUMPI PUSH2 0x3673 PUSH2 0x35DE JUMP JUMPDEST JUMPDEST PUSH1 0x20 DUP3 MUL SWAP1 POP PUSH1 0x20 DUP2 ADD SWAP1 POP SWAP2 SWAP1 POP JUMP JUMPDEST PUSH1 0x0 PUSH2 0x3698 PUSH2 0x3693 DUP5 PUSH2 0x3659 JUMP JUMPDEST PUSH2 0x363E JUMP JUMPDEST SWAP1 POP DUP1 DUP4 DUP3 MSTORE PUSH1 0x20 DUP3 ADD SWAP1 POP PUSH1 0x20 DUP5 MUL DUP4 ADD DUP6 DUP2 GT ISZERO PUSH2 0x36BB JUMPI PUSH2 0x36BA PUSH2 0x341D JUMP JUMPDEST JUMPDEST DUP4 JUMPDEST DUP2 DUP2 LT ISZERO PUSH2 0x36E4 JUMPI DUP1 PUSH2 0x36D0 DUP9 DUP3 PUSH2 0x3186 JUMP JUMPDEST DUP5 MSTORE PUSH1 0x20 DUP5 ADD SWAP4 POP POP PUSH1 0x20 DUP2 ADD SWAP1 POP PUSH2 0x36BD JUMP JUMPDEST POP POP POP SWAP4 SWAP3 POP POP POP JUMP JUMPDEST PUSH1 0x0 DUP3 PUSH1 0x1F DUP4 ADD SLT PUSH2 0x3703 JUMPI PUSH2 0x3702 PUSH2 0x3413 JUMP JUMPDEST JUMPDEST DUP2 CALLDATALOAD PUSH2 0x3713 DUP5 DUP3 PUSH1 0x20 DUP7 ADD PUSH2 0x3685 JUMP JUMPDEST SWAP2 POP POP SWAP3 SWAP2 POP POP JUMP JUMPDEST PUSH1 0x0 DUP1 REVERT JUMPDEST PUSH1 0x0 PUSH8 0xFFFFFFFFFFFFFFFF DUP3 GT ISZERO PUSH2 0x373C JUMPI PUSH2 0x373B PUSH2 0x35DE JUMP JUMPDEST JUMPDEST PUSH2 0x3745 DUP3 PUSH2 0x3333 JUMP JUMPDEST SWAP1 POP PUSH1 0x20 DUP2 ADD SWAP1 POP SWAP2 SWAP1 POP JUMP JUMPDEST DUP3 DUP2 DUP4 CALLDATACOPY PUSH1 0x0 DUP4 DUP4 ADD MSTORE POP POP POP JUMP JUMPDEST PUSH1 0x0 PUSH2 0x3774 PUSH2 0x376F DUP5 PUSH2 0x3721 JUMP JUMPDEST PUSH2 0x363E JUMP JUMPDEST SWAP1 POP DUP3 DUP2 MSTORE PUSH1 0x20 DUP2 ADD DUP5 DUP5 DUP5 ADD GT ISZERO PUSH2 0x3790 JUMPI PUSH2 0x378F PUSH2 0x371C JUMP JUMPDEST JUMPDEST PUSH2 0x379B DUP5 DUP3 DUP6 PUSH2 0x3752 JUMP JUMPDEST POP SWAP4 SWAP3 POP POP POP JUMP JUMPDEST PUSH1 0x0 DUP3 PUSH1 0x1F DUP4 ADD SLT PUSH2 0x37B8 JUMPI PUSH2 0x37B7 PUSH2 0x3413 JUMP JUMPDEST JUMPDEST DUP2 CALLDATALOAD PUSH2 0x37C8 DUP5 DUP3 PUSH1 0x20 DUP7 ADD PUSH2 0x3761 JUMP JUMPDEST SWAP2 POP POP SWAP3 SWAP2 POP POP JUMP JUMPDEST PUSH1 0x0 DUP1 PUSH1 0x0 DUP1 PUSH1 0x0 PUSH1 0xA0 DUP7 DUP9 SUB SLT ISZERO PUSH2 0x37ED JUMPI PUSH2 0x37EC PUSH2 0x30FD JUMP JUMPDEST JUMPDEST PUSH1 0x0 PUSH2 0x37FB DUP9 DUP3 DUP10 ADD PUSH2 0x3150 JUMP JUMPDEST SWAP6 POP POP PUSH1 0x20 PUSH2 0x380C DUP9 DUP3 DUP10 ADD PUSH2 0x3150 JUMP JUMPDEST SWAP5 POP POP PUSH1 0x40 DUP7 ADD CALLDATALOAD PUSH8 0xFFFFFFFFFFFFFFFF DUP2 GT ISZERO PUSH2 0x382D JUMPI PUSH2 0x382C PUSH2 0x3102 JUMP JUMPDEST JUMPDEST PUSH2 0x3839 DUP9 DUP3 DUP10 ADD PUSH2 0x36EE JUMP JUMPDEST SWAP4 POP POP PUSH1 0x60 DUP7 ADD CALLDATALOAD PUSH8 0xFFFFFFFFFFFFFFFF DUP2 GT ISZERO PUSH2 0x385A JUMPI PUSH2 0x3859 PUSH2 0x3102 JUMP JUMPDEST JUMPDEST PUSH2 0x3866 DUP9 DUP3 DUP10 ADD PUSH2 0x36EE JUMP JUMPDEST SWAP3 POP POP PUSH1 0x80 DUP7 ADD CALLDATALOAD PUSH8 0xFFFFFFFFFFFFFFFF DUP2 GT ISZERO PUSH2 0x3887 JUMPI PUSH2 0x3886 PUSH2 0x3102 JUMP JUMPDEST JUMPDEST PUSH2 0x3893 DUP9 DUP3 DUP10 ADD PUSH2 0x37A3 JUMP JUMPDEST SWAP2 POP POP SWAP3 SWAP6 POP SWAP3 SWAP6 SWAP1 SWAP4 POP JUMP JUMPDEST PUSH1 0x0 DUP1 PUSH1 0x0 DUP1 PUSH1 0x0 DUP1 PUSH1 0x0 PUSH1 0xA0 DUP9 DUP11 SUB SLT ISZERO PUSH2 0x38BF JUMPI PUSH2 0x38BE PUSH2 0x30FD JUMP JUMPDEST JUMPDEST PUSH1 0x0 PUSH2 0x38CD DUP11 DUP3 DUP12 ADD PUSH2 0x33C8 JUMP JUMPDEST SWAP8 POP POP PUSH1 0x20 PUSH2 0x38DE DUP11 DUP3 DUP12 ADD PUSH2 0x3150 JUMP JUMPDEST SWAP7 POP POP PUSH1 0x40 PUSH2 0x38EF DUP11 DUP3 DUP12 ADD PUSH2 0x33FE JUMP JUMPDEST SWAP6 POP POP PUSH1 0x60 DUP9 ADD CALLDATALOAD PUSH8 0xFFFFFFFFFFFFFFFF DUP2 GT ISZERO PUSH2 0x3910 JUMPI PUSH2 0x390F PUSH2 0x3102 JUMP JUMPDEST JUMPDEST PUSH2 0x391C DUP11 DUP3 DUP12 ADD PUSH2 0x3422 JUMP JUMPDEST SWAP5 POP SWAP5 POP POP PUSH1 0x80 DUP9 ADD CALLDATALOAD PUSH8 0xFFFFFFFFFFFFFFFF DUP2 GT ISZERO PUSH2 0x393F JUMPI PUSH2 0x393E PUSH2 0x3102 JUMP JUMPDEST JUMPDEST PUSH2 0x394B DUP11 DUP3 DUP12 ADD PUSH2 0x3422 JUMP JUMPDEST SWAP3 POP SWAP3 POP POP SWAP3 SWAP6 SWAP9 SWAP2 SWAP5 SWAP8 POP SWAP3 SWAP6 POP JUMP JUMPDEST PUSH1 0x0 DUP2 SWAP1 POP SWAP2 SWAP1 POP JUMP JUMPDEST PUSH1 0x0 PUSH2 0x3981 PUSH2 0x397C PUSH2 0x3977 DUP5 PUSH2 0x3107 JUMP JUMPDEST PUSH2 0x395C JUMP JUMPDEST PUSH2 0x3107 JUMP JUMPDEST SWAP1 POP SWAP2 SWAP1 POP JUMP JUMPDEST PUSH1 0x0 PUSH2 0x3993 DUP3 PUSH2 0x3966 JUMP JUMPDEST SWAP1 POP SWAP2 SWAP1 POP JUMP JUMPDEST PUSH1 0x0 PUSH2 0x39A5 DUP3 PUSH2 0x3988 JUMP JUMPDEST SWAP1 POP SWAP2 SWAP1 POP JUMP JUMPDEST PUSH2 0x39B5 DUP2 PUSH2 0x399A JUMP JUMPDEST DUP3 MSTORE POP POP JUMP JUMPDEST PUSH1 0x0 PUSH1 0x20 DUP3 ADD SWAP1 POP PUSH2 0x39D0 PUSH1 0x0 DUP4 ADD DUP5 PUSH2 0x39AC JUMP JUMPDEST SWAP3 SWAP2 POP POP JUMP JUMPDEST PUSH1 0x0 PUSH8 0xFFFFFFFFFFFFFFFF DUP3 GT ISZERO PUSH2 0x39F1 JUMPI PUSH2 0x39F0 PUSH2 0x35DE JUMP JUMPDEST JUMPDEST PUSH1 0x20 DUP3 MUL SWAP1 POP PUSH1 0x20 DUP2 ADD SWAP1 POP SWAP2 SWAP1 POP JUMP JUMPDEST PUSH1 0x0 PUSH2 0x3A15 PUSH2 0x3A10 DUP5 PUSH2 0x39D6 JUMP JUMPDEST PUSH2 0x363E JUMP JUMPDEST SWAP1 POP DUP1 DUP4 DUP3 MSTORE PUSH1 0x20 DUP3 ADD SWAP1 POP PUSH1 0x20 DUP5 MUL DUP4 ADD DUP6 DUP2 GT ISZERO PUSH2 0x3A38 JUMPI PUSH2 0x3A37 PUSH2 0x341D JUMP JUMPDEST JUMPDEST DUP4 JUMPDEST DUP2 DUP2 LT ISZERO PUSH2 0x3A61 JUMPI DUP1 PUSH2 0x3A4D DUP9 DUP3 PUSH2 0x3150 JUMP JUMPDEST DUP5 MSTORE PUSH1 0x20 DUP5 ADD SWAP4 POP POP PUSH1 0x20 DUP2 ADD SWAP1 POP PUSH2 0x3A3A JUMP JUMPDEST POP POP POP SWAP4 SWAP3 POP POP POP JUMP JUMPDEST PUSH1 0x0 DUP3 PUSH1 0x1F DUP4 ADD SLT PUSH2 0x3A80 JUMPI PUSH2 0x3A7F PUSH2 0x3413 JUMP JUMPDEST JUMPDEST DUP2 CALLDATALOAD PUSH2 0x3A90 DUP5 DUP3 PUSH1 0x20 DUP7 ADD PUSH2 0x3A02 JUMP JUMPDEST SWAP2 POP POP SWAP3 SWAP2 POP POP JUMP JUMPDEST PUSH1 0x0 DUP1 PUSH1 0x40 DUP4 DUP6 SUB SLT ISZERO PUSH2 0x3AB0 JUMPI PUSH2 0x3AAF PUSH2 0x30FD JUMP JUMPDEST JUMPDEST PUSH1 0x0 DUP4 ADD CALLDATALOAD PUSH8 0xFFFFFFFFFFFFFFFF DUP2 GT ISZERO PUSH2 0x3ACE JUMPI PUSH2 0x3ACD PUSH2 0x3102 JUMP JUMPDEST JUMPDEST PUSH2 0x3ADA DUP6 DUP3 DUP7 ADD PUSH2 0x3A6B JUMP JUMPDEST SWAP3 POP POP PUSH1 0x20 DUP4 ADD CALLDATALOAD PUSH8 0xFFFFFFFFFFFFFFFF DUP2 GT ISZERO PUSH2 0x3AFB JUMPI PUSH2 0x3AFA PUSH2 0x3102 JUMP JUMPDEST JUMPDEST PUSH2 0x3B07 DUP6 DUP3 DUP7 ADD PUSH2 0x36EE JUMP JUMPDEST SWAP2 POP POP SWAP3 POP SWAP3 SWAP1 POP JUMP JUMPDEST PUSH1 0x0 DUP2 MLOAD SWAP1 POP SWAP2 SWAP1 POP JUMP JUMPDEST PUSH1 0x0 DUP3 DUP3 MSTORE PUSH1 0x20 DUP3 ADD SWAP1 POP SWAP3 SWAP2 POP POP JUMP JUMPDEST PUSH1 0x0 DUP2 SWAP1 POP PUSH1 0x20 DUP3 ADD SWAP1 POP SWAP2 SWAP1 POP JUMP JUMPDEST PUSH2 0x3B46 DUP2 PUSH2 0x3165 JUMP JUMPDEST DUP3 MSTORE POP POP JUMP JUMPDEST PUSH1 0x0 PUSH2 0x3B58 DUP4 DUP4 PUSH2 0x3B3D JUMP JUMPDEST PUSH1 0x20 DUP4 ADD SWAP1 POP SWAP3 SWAP2 POP POP JUMP JUMPDEST PUSH1 0x0 PUSH1 0x20 DUP3 ADD SWAP1 POP SWAP2 SWAP1 POP JUMP JUMPDEST PUSH1 0x0 PUSH2 0x3B7C DUP3 PUSH2 0x3B11 JUMP JUMPDEST PUSH2 0x3B86 DUP2 DUP6 PUSH2 0x3B1C JUMP JUMPDEST SWAP4 POP PUSH2 0x3B91 DUP4 PUSH2 0x3B2D JUMP JUMPDEST DUP1 PUSH1 0x0 JUMPDEST DUP4 DUP2 LT ISZERO PUSH2 0x3BC2 JUMPI DUP2 MLOAD PUSH2 0x3BA9 DUP9 DUP3 PUSH2 0x3B4C JUMP JUMPDEST SWAP8 POP PUSH2 0x3BB4 DUP4 PUSH2 0x3B64 JUMP JUMPDEST SWAP3 POP POP PUSH1 0x1 DUP2 ADD SWAP1 POP PUSH2 0x3B95 JUMP JUMPDEST POP DUP6 SWAP4 POP POP POP POP SWAP3 SWAP2 POP POP JUMP JUMPDEST PUSH1 0x0 PUSH1 0x20 DUP3 ADD SWAP1 POP DUP2 DUP2 SUB PUSH1 0x0 DUP4 ADD MSTORE PUSH2 0x3BE9 DUP2 DUP5 PUSH2 0x3B71 JUMP JUMPDEST SWAP1 POP SWAP3 SWAP2 POP POP JUMP JUMPDEST PUSH1 0x0 DUP1 PUSH1 0x0 PUSH1 0x60 DUP5 DUP7 SUB SLT ISZERO PUSH2 0x3C0A JUMPI PUSH2 0x3C09 PUSH2 0x30FD JUMP JUMPDEST JUMPDEST PUSH1 0x0 PUSH2 0x3C18 DUP7 DUP3 DUP8 ADD PUSH2 0x3150 JUMP JUMPDEST SWAP4 POP POP PUSH1 0x20 DUP5 ADD CALLDATALOAD PUSH8 0xFFFFFFFFFFFFFFFF DUP2 GT ISZERO PUSH2 0x3C39 JUMPI PUSH2 0x3C38 PUSH2 0x3102 JUMP JUMPDEST JUMPDEST PUSH2 0x3C45 DUP7 DUP3 DUP8 ADD PUSH2 0x36EE JUMP JUMPDEST SWAP3 POP POP PUSH1 0x40 DUP5 ADD CALLDATALOAD PUSH8 0xFFFFFFFFFFFFFFFF DUP2 GT ISZERO PUSH2 0x3C66 JUMPI PUSH2 0x3C65 PUSH2 0x3102 JUMP JUMPDEST JUMPDEST PUSH2 0x3C72 DUP7 DUP3 DUP8 ADD PUSH2 0x36EE JUMP JUMPDEST SWAP2 POP POP SWAP3 POP SWAP3 POP SWAP3 JUMP JUMPDEST PUSH1 0x0 PUSH1 0x20 DUP3 DUP5 SUB SLT ISZERO PUSH2 0x3C92 JUMPI PUSH2 0x3C91 PUSH2 0x30FD JUMP JUMPDEST JUMPDEST PUSH1 0x0 PUSH2 0x3CA0 DUP5 DUP3 DUP6 ADD PUSH2 0x33C8 JUMP JUMPDEST SWAP2 POP POP SWAP3 SWAP2 POP POP JUMP JUMPDEST PUSH2 0x3CB2 DUP2 PUSH2 0x3127 JUMP JUMPDEST DUP3 MSTORE POP POP JUMP JUMPDEST PUSH1 0x0 PUSH1 0x20 DUP3 ADD SWAP1 POP PUSH2 0x3CCD PUSH1 0x0 DUP4 ADD DUP5 PUSH2 0x3CA9 JUMP JUMPDEST SWAP3 SWAP2 POP POP JUMP JUMPDEST PUSH2 0x3CDC DUP2 PUSH2 0x328A JUMP JUMPDEST DUP2 EQ PUSH2 0x3CE7 JUMPI PUSH1 0x0 DUP1 REVERT JUMPDEST POP JUMP JUMPDEST PUSH1 0x0 DUP2 CALLDATALOAD SWAP1 POP PUSH2 0x3CF9 DUP2 PUSH2 0x3CD3 JUMP JUMPDEST SWAP3 SWAP2 POP POP JUMP JUMPDEST PUSH1 0x0 DUP1 PUSH1 0x40 DUP4 DUP6 SUB SLT ISZERO PUSH2 0x3D16 JUMPI PUSH2 0x3D15 PUSH2 0x30FD JUMP JUMPDEST JUMPDEST PUSH1 0x0 PUSH2 0x3D24 DUP6 DUP3 DUP7 ADD PUSH2 0x3150 JUMP JUMPDEST SWAP3 POP POP PUSH1 0x20 PUSH2 0x3D35 DUP6 DUP3 DUP7 ADD PUSH2 0x3CEA JUMP JUMPDEST SWAP2 POP POP SWAP3 POP SWAP3 SWAP1 POP JUMP JUMPDEST PUSH2 0x3D48 DUP2 PUSH2 0x33DD JUMP JUMPDEST DUP3 MSTORE POP POP JUMP JUMPDEST PUSH1 0x0 PUSH1 0x20 DUP3 ADD SWAP1 POP PUSH2 0x3D63 PUSH1 0x0 DUP4 ADD DUP5 PUSH2 0x3D3F JUMP JUMPDEST SWAP3 SWAP2 POP POP JUMP JUMPDEST PUSH1 0x0 DUP1 PUSH1 0x40 DUP4 DUP6 SUB SLT ISZERO PUSH2 0x3D80 JUMPI PUSH2 0x3D7F PUSH2 0x30FD JUMP JUMPDEST JUMPDEST PUSH1 0x0 PUSH2 0x3D8E DUP6 DUP3 DUP7 ADD PUSH2 0x3150 JUMP JUMPDEST SWAP3 POP POP PUSH1 0x20 PUSH2 0x3D9F DUP6 DUP3 DUP7 ADD PUSH2 0x3150 JUMP JUMPDEST SWAP2 POP POP SWAP3 POP SWAP3 SWAP1 POP JUMP JUMPDEST PUSH1 0x0 DUP1 PUSH1 0x0 DUP1 PUSH1 0x0 PUSH1 0xA0 DUP7 DUP9 SUB SLT ISZERO PUSH2 0x3DC5 JUMPI PUSH2 0x3DC4 PUSH2 0x30FD JUMP JUMPDEST JUMPDEST PUSH1 0x0 PUSH2 0x3DD3 DUP9 DUP3 DUP10 ADD PUSH2 0x3150 JUMP JUMPDEST SWAP6 POP POP PUSH1 0x20 PUSH2 0x3DE4 DUP9 DUP3 DUP10 ADD PUSH2 0x3150 JUMP JUMPDEST SWAP5 POP POP PUSH1 0x40 PUSH2 0x3DF5 DUP9 DUP3 DUP10 ADD PUSH2 0x3186 JUMP JUMPDEST SWAP4 POP POP PUSH1 0x60 PUSH2 0x3E06 DUP9 DUP3 DUP10 ADD PUSH2 0x3186 JUMP JUMPDEST SWAP3 POP POP PUSH1 0x80 DUP7 ADD CALLDATALOAD PUSH8 0xFFFFFFFFFFFFFFFF DUP2 GT ISZERO PUSH2 0x3E27 JUMPI PUSH2 0x3E26 PUSH2 0x3102 JUMP JUMPDEST JUMPDEST PUSH2 0x3E33 DUP9 DUP3 DUP10 ADD PUSH2 0x37A3 JUMP JUMPDEST SWAP2 POP POP SWAP3 SWAP6 POP SWAP3 SWAP6 SWAP1 SWAP4 POP JUMP JUMPDEST PUSH1 0x0 PUSH1 0x20 DUP3 DUP5 SUB SLT ISZERO PUSH2 0x3E56 JUMPI PUSH2 0x3E55 PUSH2 0x30FD JUMP JUMPDEST JUMPDEST PUSH1 0x0 PUSH2 0x3E64 DUP5 DUP3 DUP6 ADD PUSH2 0x3150 JUMP JUMPDEST SWAP2 POP POP SWAP3 SWAP2 POP POP JUMP JUMPDEST PUSH1 0x0 PUSH2 0x3E78 DUP3 PUSH2 0x3988 JUMP JUMPDEST SWAP1 POP SWAP2 SWAP1 POP JUMP JUMPDEST PUSH2 0x3E88 DUP2 PUSH2 0x3E6D JUMP JUMPDEST DUP3 MSTORE POP POP JUMP JUMPDEST PUSH1 0x0 PUSH1 0x20 DUP3 ADD SWAP1 POP PUSH2 0x3EA3 PUSH1 0x0 DUP4 ADD DUP5 PUSH2 0x3E7F JUMP JUMPDEST SWAP3 SWAP2 POP POP JUMP JUMPDEST PUSH1 0x0 DUP1 PUSH1 0x0 PUSH1 0x60 DUP5 DUP7 SUB SLT ISZERO PUSH2 0x3EC2 JUMPI PUSH2 0x3EC1 PUSH2 0x30FD JUMP JUMPDEST JUMPDEST PUSH1 0x0 PUSH2 0x3ED0 DUP7 DUP3 DUP8 ADD PUSH2 0x3150 JUMP JUMPDEST SWAP4 POP POP PUSH1 0x20 PUSH2 0x3EE1 DUP7 DUP3 DUP8 ADD PUSH2 0x3186 JUMP JUMPDEST SWAP3 POP POP PUSH1 0x40 PUSH2 0x3EF2 DUP7 DUP3 DUP8 ADD PUSH2 0x3186 JUMP JUMPDEST SWAP2 POP POP SWAP3 POP SWAP3 POP SWAP3 JUMP JUMPDEST PUSH32 0x455243313135353A2061646472657373207A65726F206973206E6F7420612076 PUSH1 0x0 DUP3 ADD MSTORE PUSH32 0x616C6964206F776E657200000000000000000000000000000000000000000000 PUSH1 0x20 DUP3 ADD MSTORE POP JUMP JUMPDEST PUSH1 0x0 PUSH2 0x3F58 PUSH1 0x2A DUP4 PUSH2 0x32F8 JUMP JUMPDEST SWAP2 POP PUSH2 0x3F63 DUP3 PUSH2 0x3EFC JUMP JUMPDEST PUSH1 0x40 DUP3 ADD SWAP1 POP SWAP2 SWAP1 POP JUMP JUMPDEST PUSH1 0x0 PUSH1 0x20 DUP3 ADD SWAP1 POP DUP2 DUP2 SUB PUSH1 0x0 DUP4 ADD MSTORE PUSH2 0x3F87 DUP2 PUSH2 0x3F4B JUMP JUMPDEST SWAP1 POP SWAP2 SWAP1 POP JUMP JUMPDEST PUSH32 0x4E487B7100000000000000000000000000000000000000000000000000000000 PUSH1 0x0 MSTORE PUSH1 0x22 PUSH1 0x4 MSTORE PUSH1 0x24 PUSH1 0x0 REVERT JUMPDEST PUSH1 0x0 PUSH1 0x2 DUP3 DIV SWAP1 POP PUSH1 0x1 DUP3 AND DUP1 PUSH2 0x3FD5 JUMPI PUSH1 0x7F DUP3 AND SWAP2 POP JUMPDEST PUSH1 0x20 DUP3 LT DUP2 SUB PUSH2 0x3FE8 JUMPI PUSH2 0x3FE7 PUSH2 0x3F8E JUMP JUMPDEST JUMPDEST POP SWAP2 SWAP1 POP JUMP JUMPDEST PUSH1 0x0 PUSH2 0x3FF9 DUP3 PUSH2 0x3107 JUMP JUMPDEST SWAP1 POP SWAP2 SWAP1 POP JUMP JUMPDEST PUSH2 0x4009 DUP2 PUSH2 0x3FEE JUMP JUMPDEST DUP2 EQ PUSH2 0x4014 JUMPI PUSH1 0x0 DUP1 REVERT JUMPDEST POP JUMP JUMPDEST PUSH1 0x0 DUP2 CALLDATALOAD SWAP1 POP PUSH2 0x4026 DUP2 PUSH2 0x4000 JUMP JUMPDEST SWAP3 SWAP2 POP POP JUMP JUMPDEST PUSH1 0x0 DUP1 PUSH1 0x40 DUP4 DUP6 SUB SLT ISZERO PUSH2 0x4043 JUMPI PUSH2 0x4042 PUSH2 0x30FD JUMP JUMPDEST JUMPDEST PUSH1 0x0 PUSH2 0x4051 DUP6 DUP3 DUP7 ADD PUSH2 0x4017 JUMP JUMPDEST SWAP3 POP POP PUSH1 0x20 PUSH2 0x4062 DUP6 DUP3 DUP7 ADD PUSH2 0x4017 JUMP JUMPDEST SWAP2 POP POP SWAP3 POP SWAP3 SWAP1 POP JUMP JUMPDEST PUSH1 0x0 DUP2 PUSH1 0xB SIGNEXTEND SWAP1 POP SWAP2 SWAP1 POP JUMP JUMPDEST PUSH2 0x4082 DUP2 PUSH2 0x406C JUMP JUMPDEST DUP2 EQ PUSH2 0x408D JUMPI PUSH1 0x0 DUP1 REVERT JUMPDEST POP JUMP JUMPDEST PUSH1 0x0 DUP2 CALLDATALOAD SWAP1 POP PUSH2 0x409F DUP2 PUSH2 0x4079 JUMP JUMPDEST SWAP3 SWAP2 POP POP JUMP JUMPDEST PUSH1 0x0 DUP1 PUSH1 0x40 DUP4 DUP6 SUB SLT ISZERO PUSH2 0x40BC JUMPI PUSH2 0x40BB PUSH2 0x30FD JUMP JUMPDEST JUMPDEST PUSH1 0x0 PUSH2 0x40CA DUP6 DUP3 DUP7 ADD PUSH2 0x4090 JUMP JUMPDEST SWAP3 POP POP PUSH1 0x20 PUSH2 0x40DB DUP6 DUP3 DUP7 ADD PUSH2 0x3186 JUMP JUMPDEST SWAP2 POP POP SWAP3 POP SWAP3 SWAP1 POP JUMP JUMPDEST PUSH32 0x455243313135353A2063616C6C6572206973206E6F7420746F6B656E206F776E PUSH1 0x0 DUP3 ADD MSTORE PUSH32 0x6572206F7220617070726F766564000000000000000000000000000000000000 PUSH1 0x20 DUP3 ADD MSTORE POP JUMP JUMPDEST PUSH1 0x0 PUSH2 0x4141 PUSH1 0x2E DUP4 PUSH2 0x32F8 JUMP JUMPDEST SWAP2 POP PUSH2 0x414C DUP3 PUSH2 0x40E5 JUMP JUMPDEST PUSH1 0x40 DUP3 ADD SWAP1 POP SWAP2 SWAP1 POP JUMP JUMPDEST PUSH1 0x0 PUSH1 0x20 DUP3 ADD SWAP1 POP DUP2 DUP2 SUB PUSH1 0x0 DUP4 ADD MSTORE PUSH2 0x4170 DUP2 PUSH2 0x4134 JUMP JUMPDEST SWAP1 POP SWAP2 SWAP1 POP JUMP JUMPDEST PUSH32 0x455243313135353A206163636F756E747320616E6420696473206C656E677468 PUSH1 0x0 DUP3 ADD MSTORE PUSH32 0x206D69736D617463680000000000000000000000000000000000000000000000 PUSH1 0x20 DUP3 ADD MSTORE POP JUMP JUMPDEST PUSH1 0x0 PUSH2 0x41D3 PUSH1 0x29 DUP4 PUSH2 0x32F8 JUMP JUMPDEST SWAP2 POP PUSH2 0x41DE DUP3 PUSH2 0x4177 JUMP JUMPDEST PUSH1 0x40 DUP3 ADD SWAP1 POP SWAP2 SWAP1 POP JUMP JUMPDEST PUSH1 0x0 PUSH1 0x20 DUP3 ADD SWAP1 POP DUP2 DUP2 SUB PUSH1 0x0 DUP4 ADD MSTORE PUSH2 0x4202 DUP2 PUSH2 0x41C6 JUMP JUMPDEST SWAP1 POP SWAP2 SWAP1 POP JUMP JUMPDEST PUSH32 0x4E487B7100000000000000000000000000000000000000000000000000000000 PUSH1 0x0 MSTORE PUSH1 0x32 PUSH1 0x4 MSTORE PUSH1 0x24 PUSH1 0x0 REVERT JUMPDEST PUSH32 0x4E487B7100000000000000000000000000000000000000000000000000000000 PUSH1 0x0 MSTORE PUSH1 0x11 PUSH1 0x4 MSTORE PUSH1 0x24 PUSH1 0x0 REVERT JUMPDEST PUSH1 0x0 PUSH2 0x4272 DUP3 PUSH2 0x3165 JUMP JUMPDEST SWAP2 POP PUSH32 0xFFFFFFFFFFFFFFFFFFFFFFFFFFFFFFFFFFFFFFFFFFFFFFFFFFFFFFFFFFFFFFFF DUP3 SUB PUSH2 0x42A4 JUMPI PUSH2 0x42A3 PUSH2 0x4238 JUMP JUMPDEST JUMPDEST PUSH1 0x1 DUP3 ADD SWAP1 POP SWAP2 SWAP1 POP JUMP JUMPDEST PUSH1 0x0 DUP1 PUSH1 0x40 DUP4 DUP6 SUB SLT ISZERO PUSH2 0x42C6 JUMPI PUSH2 0x42C5 PUSH2 0x30FD JUMP JUMPDEST JUMPDEST PUSH1 0x0 PUSH2 0x42D4 DUP6 DUP3 DUP7 ADD PUSH2 0x3186 JUMP JUMPDEST SWAP3 POP POP PUSH1 0x20 PUSH2 0x42E5 DUP6 DUP3 DUP7 ADD PUSH2 0x4090 JUMP JUMPDEST SWAP2 POP POP SWAP3 POP SWAP3 SWAP1 POP JUMP JUMPDEST PUSH2 0x42F8 DUP2 PUSH2 0x406C JUMP JUMPDEST DUP3 MSTORE POP POP JUMP JUMPDEST PUSH1 0x0 PUSH1 0x40 DUP3 ADD SWAP1 POP PUSH2 0x4313 PUSH1 0x0 DUP4 ADD DUP6 PUSH2 0x31DB JUMP JUMPDEST PUSH2 0x4320 PUSH1 0x20 DUP4 ADD DUP5 PUSH2 0x42EF JUMP JUMPDEST SWAP4 SWAP3 POP POP POP JUMP JUMPDEST PUSH1 0x0 PUSH1 0x40 DUP3 ADD SWAP1 POP PUSH2 0x433C PUSH1 0x0 DUP4 ADD DUP6 PUSH2 0x42EF JUMP JUMPDEST PUSH2 0x4349 PUSH1 0x20 DUP4 ADD DUP5 PUSH2 0x31DB JUMP JUMPDEST SWAP4 SWAP3 POP POP POP JUMP JUMPDEST PUSH32 0x4F776E61626C653A206E6577206F776E657220697320746865207A65726F2061 PUSH1 0x0 DUP3 ADD MSTORE PUSH32 0x6464726573730000000000000000000000000000000000000000000000000000 PUSH1 0x20 DUP3 ADD MSTORE POP JUMP JUMPDEST PUSH1 0x0 PUSH2 0x43AC PUSH1 0x26 DUP4 PUSH2 0x32F8 JUMP JUMPDEST SWAP2 POP PUSH2 0x43B7 DUP3 PUSH2 0x4350 JUMP JUMPDEST PUSH1 0x40 DUP3 ADD SWAP1 POP SWAP2 SWAP1 POP JUMP JUMPDEST PUSH1 0x0 PUSH1 0x20 DUP3 ADD SWAP1 POP DUP2 DUP2 SUB PUSH1 0x0 DUP4 ADD MSTORE PUSH2 0x43DB DUP2 PUSH2 0x439F JUMP JUMPDEST SWAP1 POP SWAP2 SWAP1 POP JUMP JUMPDEST PUSH1 0x0 PUSH2 0x43ED DUP3 PUSH2 0x3127 JUMP JUMPDEST SWAP1 POP SWAP2 SWAP1 POP JUMP JUMPDEST PUSH2 0x43FD DUP2 PUSH2 0x43E2 JUMP JUMPDEST DUP2 EQ PUSH2 0x4408 JUMPI PUSH1 0x0 DUP1 REVERT JUMPDEST POP JUMP JUMPDEST PUSH1 0x0 DUP2 MLOAD SWAP1 POP PUSH2 0x441A DUP2 PUSH2 0x43F4 JUMP JUMPDEST SWAP3 SWAP2 POP POP JUMP JUMPDEST PUSH1 0x0 PUSH1 0x20 DUP3 DUP5 SUB SLT ISZERO PUSH2 0x4436 JUMPI PUSH2 0x4435 PUSH2 0x30FD JUMP JUMPDEST JUMPDEST PUSH1 0x0 PUSH2 0x4444 DUP5 DUP3 DUP6 ADD PUSH2 0x440B JUMP JUMPDEST SWAP2 POP POP SWAP3 SWAP2 POP POP JUMP JUMPDEST PUSH32 0x455243313135353A2069647320616E6420616D6F756E7473206C656E67746820 PUSH1 0x0 DUP3 ADD MSTORE PUSH32 0x6D69736D61746368000000000000000000000000000000000000000000000000 PUSH1 0x20 DUP3 ADD MSTORE POP JUMP JUMPDEST PUSH1 0x0 PUSH2 0x44A9 PUSH1 0x28 DUP4 PUSH2 0x32F8 JUMP JUMPDEST SWAP2 POP PUSH2 0x44B4 DUP3 PUSH2 0x444D JUMP JUMPDEST PUSH1 0x40 DUP3 ADD SWAP1 POP SWAP2 SWAP1 POP JUMP JUMPDEST PUSH1 0x0 PUSH1 0x20 DUP3 ADD SWAP1 POP DUP2 DUP2 SUB PUSH1 0x0 DUP4 ADD MSTORE PUSH2 0x44D8 DUP2 PUSH2 0x449C JUMP JUMPDEST SWAP1 POP SWAP2 SWAP1 POP JUMP JUMPDEST PUSH32 0x455243313135353A207472616E7366657220746F20746865207A65726F206164 PUSH1 0x0 DUP3 ADD MSTORE PUSH32 0x6472657373000000000000000000000000000000000000000000000000000000 PUSH1 0x20 DUP3 ADD MSTORE POP JUMP JUMPDEST PUSH1 0x0 PUSH2 0x453B PUSH1 0x25 DUP4 PUSH2 0x32F8 JUMP JUMPDEST SWAP2 POP PUSH2 0x4546 DUP3 PUSH2 0x44DF JUMP JUMPDEST PUSH1 0x40 DUP3 ADD SWAP1 POP SWAP2 SWAP1 POP JUMP JUMPDEST PUSH1 0x0 PUSH1 0x20 DUP3 ADD SWAP1 POP DUP2 DUP2 SUB PUSH1 0x0 DUP4 ADD MSTORE PUSH2 0x456A DUP2 PUSH2 0x452E JUMP JUMPDEST SWAP1 POP SWAP2 SWAP1 POP JUMP JUMPDEST PUSH32 0x455243313135353A20696E73756666696369656E742062616C616E636520666F PUSH1 0x0 DUP3 ADD MSTORE PUSH32 0x72207472616E7366657200000000000000000000000000000000000000000000 PUSH1 0x20 DUP3 ADD MSTORE POP JUMP JUMPDEST PUSH1 0x0 PUSH2 0x45CD PUSH1 0x2A DUP4 PUSH2 0x32F8 JUMP JUMPDEST SWAP2 POP PUSH2 0x45D8 DUP3 PUSH2 0x4571 JUMP JUMPDEST PUSH1 0x40 DUP3 ADD SWAP1 POP SWAP2 SWAP1 POP JUMP JUMPDEST PUSH1 0x0 PUSH1 0x20 DUP3 ADD SWAP1 POP DUP2 DUP2 SUB PUSH1 0x0 DUP4 ADD MSTORE PUSH2 0x45FC DUP2 PUSH2 0x45C0 JUMP JUMPDEST SWAP1 POP SWAP2 SWAP1 POP JUMP JUMPDEST PUSH1 0x0 PUSH2 0x460E DUP3 PUSH2 0x3165 JUMP JUMPDEST SWAP2 POP PUSH2 0x4619 DUP4 PUSH2 0x3165 JUMP JUMPDEST SWAP3 POP DUP3 DUP3 ADD SWAP1 POP DUP1 DUP3 GT ISZERO PUSH2 0x4631 JUMPI PUSH2 0x4630 PUSH2 0x4238 JUMP JUMPDEST JUMPDEST SWAP3 SWAP2 POP POP JUMP JUMPDEST PUSH1 0x0 PUSH1 0x40 DUP3 ADD SWAP1 POP DUP2 DUP2 SUB PUSH1 0x0 DUP4 ADD MSTORE PUSH2 0x4651 DUP2 DUP6 PUSH2 0x3B71 JUMP JUMPDEST SWAP1 POP DUP2 DUP2 SUB PUSH1 0x20 DUP4 ADD MSTORE PUSH2 0x4665 DUP2 DUP5 PUSH2 0x3B71 JUMP JUMPDEST SWAP1 POP SWAP4 SWAP3 POP POP POP JUMP JUMPDEST PUSH1 0x0 PUSH1 0x60 DUP3 ADD SWAP1 POP PUSH2 0x4683 PUSH1 0x0 DUP4 ADD DUP7 PUSH2 0x39AC JUMP JUMPDEST PUSH2 0x4690 PUSH1 0x20 DUP4 ADD DUP6 PUSH2 0x3CA9 JUMP JUMPDEST PUSH2 0x469D PUSH1 0x40 DUP4 ADD DUP5 PUSH2 0x3CA9 JUMP JUMPDEST SWAP5 SWAP4 POP POP POP POP JUMP JUMPDEST PUSH1 0x0 DUP2 MLOAD SWAP1 POP PUSH2 0x46B4 DUP2 PUSH2 0x316F JUMP JUMPDEST SWAP3 SWAP2 POP POP JUMP JUMPDEST PUSH1 0x0 DUP2 MLOAD SWAP1 POP PUSH2 0x46C9 DUP2 PUSH2 0x4079 JUMP JUMPDEST SWAP3 SWAP2 POP POP JUMP JUMPDEST PUSH1 0x0 DUP1 PUSH1 0x0 DUP1 PUSH1 0x80 DUP6 DUP8 SUB SLT ISZERO PUSH2 0x46E9 JUMPI PUSH2 0x46E8 PUSH2 0x30FD JUMP JUMPDEST JUMPDEST PUSH1 0x0 PUSH2 0x46F7 DUP8 DUP3 DUP9 ADD PUSH2 0x46A5 JUMP JUMPDEST SWAP5 POP POP PUSH1 0x20 PUSH2 0x4708 DUP8 DUP3 DUP9 ADD PUSH2 0x46BA JUMP JUMPDEST SWAP4 POP POP PUSH1 0x40 PUSH2 0x4719 DUP8 DUP3 DUP9 ADD PUSH2 0x46A5 JUMP JUMPDEST SWAP3 POP POP PUSH1 0x60 PUSH2 0x472A DUP8 DUP3 DUP9 ADD PUSH2 0x46A5 JUMP JUMPDEST SWAP2 POP POP SWAP3 SWAP6 SWAP2 SWAP5 POP SWAP3 POP JUMP JUMPDEST PUSH32 0x455243313135353A206275726E2066726F6D20746865207A65726F2061646472 PUSH1 0x0 DUP3 ADD MSTORE PUSH32 0x6573730000000000000000000000000000000000000000000000000000000000 PUSH1 0x20 DUP3 ADD MSTORE POP JUMP JUMPDEST PUSH1 0x0 PUSH2 0x4792 PUSH1 0x23 DUP4 PUSH2 0x32F8 JUMP JUMPDEST SWAP2 POP PUSH2 0x479D DUP3 PUSH2 0x4736 JUMP JUMPDEST PUSH1 0x40 DUP3 ADD SWAP1 POP SWAP2 SWAP1 POP JUMP JUMPDEST PUSH1 0x0 PUSH1 0x20 DUP3 ADD SWAP1 POP DUP2 DUP2 SUB PUSH1 0x0 DUP4 ADD MSTORE PUSH2 0x47C1 DUP2 PUSH2 0x4785 JUMP JUMPDEST SWAP1 POP SWAP2 SWAP1 POP JUMP JUMPDEST PUSH32 0x455243313135353A206275726E20616D6F756E7420657863656564732062616C PUSH1 0x0 DUP3 ADD MSTORE PUSH32 0x616E636500000000000000000000000000000000000000000000000000000000 PUSH1 0x20 DUP3 ADD MSTORE POP JUMP JUMPDEST PUSH1 0x0 PUSH2 0x4824 PUSH1 0x24 DUP4 PUSH2 0x32F8 JUMP JUMPDEST SWAP2 POP PUSH2 0x482F DUP3 PUSH2 0x47C8 JUMP JUMPDEST PUSH1 0x40 DUP3 ADD SWAP1 POP SWAP2 SWAP1 POP JUMP JUMPDEST PUSH1 0x0 PUSH1 0x20 DUP3 ADD SWAP1 POP DUP2 DUP2 SUB PUSH1 0x0 DUP4 ADD MSTORE PUSH2 0x4853 DUP2 PUSH2 0x4817 JUMP JUMPDEST SWAP1 POP SWAP2 SWAP1 POP JUMP JUMPDEST PUSH32 0x4F776E61626C653A2063616C6C6572206973206E6F7420746865206F776E6572 PUSH1 0x0 DUP3 ADD MSTORE POP JUMP JUMPDEST PUSH1 0x0 PUSH2 0x4890 PUSH1 0x20 DUP4 PUSH2 0x32F8 JUMP JUMPDEST SWAP2 POP PUSH2 0x489B DUP3 PUSH2 0x485A JUMP JUMPDEST PUSH1 0x20 DUP3 ADD SWAP1 POP SWAP2 SWAP1 POP JUMP JUMPDEST PUSH1 0x0 PUSH1 0x20 DUP3 ADD SWAP1 POP DUP2 DUP2 SUB PUSH1 0x0 DUP4 ADD MSTORE PUSH2 0x48BF DUP2 PUSH2 0x4883 JUMP JUMPDEST SWAP1 POP SWAP2 SWAP1 POP JUMP JUMPDEST PUSH32 0x455243313135353A2073657474696E6720617070726F76616C20737461747573 PUSH1 0x0 DUP3 ADD MSTORE PUSH32 0x20666F722073656C660000000000000000000000000000000000000000000000 PUSH1 0x20 DUP3 ADD MSTORE POP JUMP JUMPDEST PUSH1 0x0 PUSH2 0x4922 PUSH1 0x29 DUP4 PUSH2 0x32F8 JUMP JUMPDEST SWAP2 POP PUSH2 0x492D DUP3 PUSH2 0x48C6 JUMP JUMPDEST PUSH1 0x40 DUP3 ADD SWAP1 POP SWAP2 SWAP1 POP JUMP JUMPDEST PUSH1 0x0 PUSH1 0x20 DUP3 ADD SWAP1 POP DUP2 DUP2 SUB PUSH1 0x0 DUP4 ADD MSTORE PUSH2 0x4951 DUP2 PUSH2 0x4915 JUMP JUMPDEST SWAP1 POP SWAP2 SWAP1 POP JUMP JUMPDEST PUSH1 0x0 PUSH2 0x4964 DUP4 DUP6 PUSH2 0x3572 JUMP JUMPDEST SWAP4 POP PUSH2 0x4971 DUP4 DUP6 DUP5 PUSH2 0x3752 JUMP JUMPDEST PUSH2 0x497A DUP4 PUSH2 0x3333 JUMP JUMPDEST DUP5 ADD SWAP1 POP SWAP4 SWAP3 POP POP POP JUMP JUMPDEST PUSH1 0x0 PUSH1 0x20 DUP3 ADD SWAP1 POP DUP2 DUP2 SUB PUSH1 0x0 DUP4 ADD MSTORE PUSH2 0x49A0 DUP2 DUP5 DUP7 PUSH2 0x4958 JUMP JUMPDEST SWAP1 POP SWAP4 SWAP3 POP POP POP JUMP JUMPDEST PUSH1 0x0 DUP1 REVERT JUMPDEST PUSH1 0x0 DUP1 REVERT JUMPDEST PUSH1 0x0 PUSH1 0xFF DUP3 AND SWAP1 POP SWAP2 SWAP1 POP JUMP JUMPDEST PUSH2 0x49C9 DUP2 PUSH2 0x49B3 JUMP JUMPDEST DUP2 EQ PUSH2 0x49D4 JUMPI PUSH1 0x0 DUP1 REVERT JUMPDEST POP JUMP JUMPDEST PUSH1 0x0 DUP2 MLOAD SWAP1 POP PUSH2 0x49E6 DUP2 PUSH2 0x49C0 JUMP JUMPDEST SWAP3 SWAP2 POP POP JUMP JUMPDEST PUSH1 0x0 DUP2 MLOAD SWAP1 POP PUSH2 0x49FB DUP2 PUSH2 0x3139 JUMP JUMPDEST SWAP3 SWAP2 POP POP JUMP JUMPDEST PUSH1 0x0 DUP2 MLOAD SWAP1 POP PUSH2 0x4A10 DUP2 PUSH2 0x3231 JUMP JUMPDEST SWAP3 SWAP2 POP POP JUMP JUMPDEST PUSH1 0x0 PUSH2 0x4A29 PUSH2 0x4A24 DUP5 PUSH2 0x3721 JUMP JUMPDEST PUSH2 0x363E JUMP JUMPDEST SWAP1 POP DUP3 DUP2 MSTORE PUSH1 0x20 DUP2 ADD DUP5 DUP5 DUP5 ADD GT ISZERO PUSH2 0x4A45 JUMPI PUSH2 0x4A44 PUSH2 0x371C JUMP JUMPDEST JUMPDEST PUSH2 0x4A50 DUP5 DUP3 DUP6 PUSH2 0x3309 JUMP JUMPDEST POP SWAP4 SWAP3 POP POP POP JUMP JUMPDEST PUSH1 0x0 DUP3 PUSH1 0x1F DUP4 ADD SLT PUSH2 0x4A6D JUMPI PUSH2 0x4A6C PUSH2 0x3413 JUMP JUMPDEST JUMPDEST DUP2 MLOAD PUSH2 0x4A7D DUP5 DUP3 PUSH1 0x20 DUP7 ADD PUSH2 0x4A16 JUMP JUMPDEST SWAP2 POP POP SWAP3 SWAP2 POP POP JUMP JUMPDEST PUSH1 0x0 DUP2 SWAP1 POP SWAP2 SWAP1 POP JUMP JUMPDEST PUSH2 0x4A99 DUP2 PUSH2 0x4A86 JUMP JUMPDEST DUP2 EQ PUSH2 0x4AA4 JUMPI PUSH1 0x0 DUP1 REVERT JUMPDEST POP JUMP JUMPDEST PUSH1 0x0 DUP2 MLOAD SWAP1 POP PUSH2 0x4AB6 DUP2 PUSH2 0x4A90 JUMP JUMPDEST SWAP3 SWAP2 POP POP JUMP JUMPDEST PUSH1 0x0 PUSH2 0x4AC7 DUP3 PUSH2 0x3127 JUMP JUMPDEST SWAP1 POP SWAP2 SWAP1 POP JUMP JUMPDEST PUSH2 0x4AD7 DUP2 PUSH2 0x4ABC JUMP JUMPDEST DUP2 EQ PUSH2 0x4AE2 JUMPI PUSH1 0x0 DUP1 REVERT JUMPDEST POP JUMP JUMPDEST PUSH1 0x0 DUP2 MLOAD SWAP1 POP PUSH2 0x4AF4 DUP2 PUSH2 0x4ACE JUMP JUMPDEST SWAP3 SWAP2 POP POP JUMP JUMPDEST PUSH1 0x0 PUSH2 0x160 DUP3 DUP5 SUB SLT ISZERO PUSH2 0x4B11 JUMPI PUSH2 0x4B10 PUSH2 0x49A9 JUMP JUMPDEST JUMPDEST PUSH2 0x4B1C PUSH2 0x160 PUSH2 0x363E JUMP JUMPDEST SWAP1 POP PUSH1 0x0 PUSH2 0x4B2C DUP5 DUP3 DUP6 ADD PUSH2 0x49D7 JUMP JUMPDEST PUSH1 0x0 DUP4 ADD MSTORE POP PUSH1 0x20 PUSH2 0x4B40 DUP5 DUP3 DUP6 ADD PUSH2 0x49D7 JUMP JUMPDEST PUSH1 0x20 DUP4 ADD MSTORE POP PUSH1 0x40 PUSH2 0x4B54 DUP5 DUP3 DUP6 ADD PUSH2 0x46A5 JUMP JUMPDEST PUSH1 0x40 DUP4 ADD MSTORE POP PUSH1 0x60 PUSH2 0x4B68 DUP5 DUP3 DUP6 ADD PUSH2 0x49EC JUMP JUMPDEST PUSH1 0x60 DUP4 ADD MSTORE POP PUSH1 0x80 PUSH2 0x4B7C DUP5 DUP3 DUP6 ADD PUSH2 0x4A01 JUMP JUMPDEST PUSH1 0x80 DUP4 ADD MSTORE POP PUSH1 0xA0 DUP3 ADD MLOAD PUSH8 0xFFFFFFFFFFFFFFFF DUP2 GT ISZERO PUSH2 0x4BA0 JUMPI PUSH2 0x4B9F PUSH2 0x49AE JUMP JUMPDEST JUMPDEST PUSH2 0x4BAC DUP5 DUP3 DUP6 ADD PUSH2 0x4A58 JUMP JUMPDEST PUSH1 0xA0 DUP4 ADD MSTORE POP PUSH1 0xC0 PUSH2 0x4BC0 DUP5 DUP3 DUP6 ADD PUSH2 0x46A5 JUMP JUMPDEST PUSH1 0xC0 DUP4 ADD MSTORE POP PUSH1 0xE0 PUSH2 0x4BD4 DUP5 DUP3 DUP6 ADD PUSH2 0x46A5 JUMP JUMPDEST PUSH1 0xE0 DUP4 ADD MSTORE POP PUSH2 0x100 PUSH2 0x4BE9 DUP5 DUP3 DUP6 ADD PUSH2 0x4AA7 JUMP JUMPDEST PUSH2 0x100 DUP4 ADD MSTORE POP PUSH2 0x120 PUSH2 0x4BFF DUP5 DUP3 DUP6 ADD PUSH2 0x49EC JUMP JUMPDEST PUSH2 0x120 DUP4 ADD MSTORE POP PUSH2 0x140 PUSH2 0x4C15 DUP5 DUP3 DUP6 ADD PUSH2 0x4AE5 JUMP JUMPDEST PUSH2 0x140 DUP4 ADD MSTORE POP SWAP3 SWAP2 POP POP JUMP JUMPDEST PUSH1 0x0 PUSH1 0x20 DUP3 DUP5 SUB SLT ISZERO PUSH2 0x4C38 JUMPI PUSH2 0x4C37 PUSH2 0x30FD JUMP JUMPDEST JUMPDEST PUSH1 0x0 DUP3 ADD MLOAD PUSH8 0xFFFFFFFFFFFFFFFF DUP2 GT ISZERO PUSH2 0x4C56 JUMPI PUSH2 0x4C55 PUSH2 0x3102 JUMP JUMPDEST JUMPDEST PUSH2 0x4C62 DUP5 DUP3 DUP6 ADD PUSH2 0x4AFA JUMP JUMPDEST SWAP2 POP POP SWAP3 SWAP2 POP POP JUMP JUMPDEST PUSH1 0x0 PUSH8 0xFFFFFFFFFFFFFFFF DUP3 GT ISZERO PUSH2 0x4C86 JUMPI PUSH2 0x4C85 PUSH2 0x35DE JUMP JUMPDEST JUMPDEST PUSH2 0x4C8F DUP3 PUSH2 0x3333 JUMP JUMPDEST SWAP1 POP PUSH1 0x20 DUP2 ADD SWAP1 POP SWAP2 SWAP1 POP JUMP JUMPDEST PUSH1 0x0 PUSH2 0x4CAF PUSH2 0x4CAA DUP5 PUSH2 0x4C6B JUMP JUMPDEST PUSH2 0x363E JUMP JUMPDEST SWAP1 POP DUP3 DUP2 MSTORE PUSH1 0x20 DUP2 ADD DUP5 DUP5 DUP5 ADD GT ISZERO PUSH2 0x4CCB JUMPI PUSH2 0x4CCA PUSH2 0x371C JUMP JUMPDEST JUMPDEST PUSH2 0x4CD6 DUP5 DUP3 DUP6 PUSH2 0x3309 JUMP JUMPDEST POP SWAP4 SWAP3 POP POP POP JUMP JUMPDEST PUSH1 0x0 DUP3 PUSH1 0x1F DUP4 ADD SLT PUSH2 0x4CF3 JUMPI PUSH2 0x4CF2 PUSH2 0x3413 JUMP JUMPDEST JUMPDEST DUP2 MLOAD PUSH2 0x4D03 DUP5 DUP3 PUSH1 0x20 DUP7 ADD PUSH2 0x4C9C JUMP JUMPDEST SWAP2 POP POP SWAP3 SWAP2 POP POP JUMP JUMPDEST PUSH1 0x0 PUSH1 0x20 DUP3 DUP5 SUB SLT ISZERO PUSH2 0x4D22 JUMPI PUSH2 0x4D21 PUSH2 0x30FD JUMP JUMPDEST JUMPDEST PUSH1 0x0 DUP3 ADD MLOAD PUSH8 0xFFFFFFFFFFFFFFFF DUP2 GT ISZERO PUSH2 0x4D40 JUMPI PUSH2 0x4D3F PUSH2 0x3102 JUMP JUMPDEST JUMPDEST PUSH2 0x4D4C DUP5 DUP3 DUP6 ADD PUSH2 0x4CDE JUMP JUMPDEST SWAP2 POP POP SWAP3 SWAP2 POP POP JUMP JUMPDEST PUSH1 0x0 DUP2 SWAP1 POP DUP2 PUSH1 0x0 MSTORE PUSH1 0x20 PUSH1 0x0 KECCAK256 SWAP1 POP SWAP2 SWAP1 POP JUMP JUMPDEST PUSH1 0x0 PUSH1 0x20 PUSH1 0x1F DUP4 ADD DIV SWAP1 POP SWAP2 SWAP1 POP JUMP JUMPDEST PUSH1 0x0 DUP3 DUP3 SHL SWAP1 POP SWAP3 SWAP2 POP POP JUMP JUMPDEST PUSH1 0x0 PUSH1 0x8 DUP4 MUL PUSH2 0x4DB7 PUSH32 0xFFFFFFFFFFFFFFFFFFFFFFFFFFFFFFFFFFFFFFFFFFFFFFFFFFFFFFFFFFFFFFFF DUP3 PUSH2 0x4D7A JUMP JUMPDEST PUSH2 0x4DC1 DUP7 DUP4 PUSH2 0x4D7A JUMP JUMPDEST SWAP6 POP DUP1 NOT DUP5 AND SWAP4 POP DUP1 DUP7 AND DUP5 OR SWAP3 POP POP POP SWAP4 SWAP3 POP POP POP JUMP JUMPDEST PUSH1 0x0 PUSH2 0x4DF4 PUSH2 0x4DEF PUSH2 0x4DEA DUP5 PUSH2 0x3165 JUMP JUMPDEST PUSH2 0x395C JUMP JUMPDEST PUSH2 0x3165 JUMP JUMPDEST SWAP1 POP SWAP2 SWAP1 POP JUMP JUMPDEST PUSH1 0x0 DUP2 SWAP1 POP SWAP2 SWAP1 POP JUMP JUMPDEST PUSH2 0x4E0E DUP4 PUSH2 0x4DD9 JUMP JUMPDEST PUSH2 0x4E22 PUSH2 0x4E1A DUP3 PUSH2 0x4DFB JUMP JUMPDEST DUP5 DUP5 SLOAD PUSH2 0x4D87 JUMP JUMPDEST DUP3 SSTORE POP POP POP POP JUMP JUMPDEST PUSH1 0x0 SWAP1 JUMP JUMPDEST PUSH2 0x4E37 PUSH2 0x4E2A JUMP JUMPDEST PUSH2 0x4E42 DUP2 DUP5 DUP5 PUSH2 0x4E05 JUMP JUMPDEST POP POP POP JUMP JUMPDEST JUMPDEST DUP2 DUP2 LT ISZERO PUSH2 0x4E66 JUMPI PUSH2 0x4E5B PUSH1 0x0 DUP3 PUSH2 0x4E2F JUMP JUMPDEST PUSH1 0x1 DUP2 ADD SWAP1 POP PUSH2 0x4E48 JUMP JUMPDEST POP POP JUMP JUMPDEST PUSH1 0x1F DUP3 GT ISZERO PUSH2 0x4EAB JUMPI PUSH2 0x4E7C DUP2 PUSH2 0x4D55 JUMP JUMPDEST PUSH2 0x4E85 DUP5 PUSH2 0x4D6A JUMP JUMPDEST DUP2 ADD PUSH1 0x20 DUP6 LT ISZERO PUSH2 0x4E94 JUMPI DUP2 SWAP1 POP JUMPDEST PUSH2 0x4EA8 PUSH2 0x4EA0 DUP6 PUSH2 0x4D6A JUMP JUMPDEST DUP4 ADD DUP3 PUSH2 0x4E47 JUMP JUMPDEST POP POP JUMPDEST POP POP POP JUMP JUMPDEST PUSH1 0x0 DUP3 DUP3 SHR SWAP1 POP SWAP3 SWAP2 POP POP JUMP JUMPDEST PUSH1 0x0 PUSH2 0x4ECE PUSH1 0x0 NOT DUP5 PUSH1 0x8 MUL PUSH2 0x4EB0 JUMP JUMPDEST NOT DUP1 DUP4 AND SWAP2 POP POP SWAP3 SWAP2 POP POP JUMP JUMPDEST PUSH1 0x0 PUSH2 0x4EE7 DUP4 DUP4 PUSH2 0x4EBD JUMP JUMPDEST SWAP2 POP DUP3 PUSH1 0x2 MUL DUP3 OR SWAP1 POP SWAP3 SWAP2 POP POP JUMP JUMPDEST PUSH2 0x4F00 DUP3 PUSH2 0x32ED JUMP JUMPDEST PUSH8 0xFFFFFFFFFFFFFFFF DUP2 GT ISZERO PUSH2 0x4F19 JUMPI PUSH2 0x4F18 PUSH2 0x35DE JUMP JUMPDEST JUMPDEST PUSH2 0x4F23 DUP3 SLOAD PUSH2 0x3FBD JUMP JUMPDEST PUSH2 0x4F2E DUP3 DUP3 DUP6 PUSH2 0x4E6A JUMP JUMPDEST PUSH1 0x0 PUSH1 0x20 SWAP1 POP PUSH1 0x1F DUP4 GT PUSH1 0x1 DUP2 EQ PUSH2 0x4F61 JUMPI PUSH1 0x0 DUP5 ISZERO PUSH2 0x4F4F JUMPI DUP3 DUP8 ADD MLOAD SWAP1 POP JUMPDEST PUSH2 0x4F59 DUP6 DUP3 PUSH2 0x4EDB JUMP JUMPDEST DUP7 SSTORE POP PUSH2 0x4FC1 JUMP JUMPDEST PUSH1 0x1F NOT DUP5 AND PUSH2 0x4F6F DUP7 PUSH2 0x4D55 JUMP JUMPDEST PUSH1 0x0 JUMPDEST DUP3 DUP2 LT ISZERO PUSH2 0x4F97 JUMPI DUP5 DUP10 ADD MLOAD DUP3 SSTORE PUSH1 0x1 DUP3 ADD SWAP2 POP PUSH1 0x20 DUP6 ADD SWAP5 POP PUSH1 0x20 DUP2 ADD SWAP1 POP PUSH2 0x4F72 JUMP JUMPDEST DUP7 DUP4 LT ISZERO PUSH2 0x4FB4 JUMPI DUP5 DUP10 ADD MLOAD PUSH2 0x4FB0 PUSH1 0x1F DUP10 AND DUP3 PUSH2 0x4EBD JUMP JUMPDEST DUP4 SSTORE POP JUMPDEST PUSH1 0x1 PUSH1 0x2 DUP9 MUL ADD DUP9 SSTORE POP POP POP JUMPDEST POP POP POP POP POP POP JUMP JUMPDEST PUSH1 0x0 PUSH1 0x40 DUP3 ADD SWAP1 POP PUSH2 0x4FDE PUSH1 0x0 DUP4 ADD DUP6 PUSH2 0x31DB JUMP JUMPDEST PUSH2 0x4FEB PUSH1 0x20 DUP4 ADD DUP5 PUSH2 0x31DB JUMP JUMPDEST SWAP4 SWAP3 POP POP POP JUMP JUMPDEST PUSH1 0x0 PUSH1 0xA0 DUP3 ADD SWAP1 POP PUSH2 0x5007 PUSH1 0x0 DUP4 ADD DUP9 PUSH2 0x3CA9 JUMP JUMPDEST PUSH2 0x5014 PUSH1 0x20 DUP4 ADD DUP8 PUSH2 0x3CA9 JUMP JUMPDEST DUP2 DUP2 SUB PUSH1 0x40 DUP4 ADD MSTORE PUSH2 0x5026 DUP2 DUP7 PUSH2 0x3B71 JUMP JUMPDEST SWAP1 POP DUP2 DUP2 SUB PUSH1 0x60 DUP4 ADD MSTORE PUSH2 0x503A DUP2 DUP6 PUSH2 0x3B71 JUMP JUMPDEST SWAP1 POP DUP2 DUP2 SUB PUSH1 0x80 DUP4 ADD MSTORE PUSH2 0x504E DUP2 DUP5 PUSH2 0x3583 JUMP JUMPDEST SWAP1 POP SWAP7 SWAP6 POP POP POP POP POP POP JUMP JUMPDEST PUSH1 0x0 PUSH1 0x20 DUP3 DUP5 SUB SLT ISZERO PUSH2 0x5070 JUMPI PUSH2 0x506F PUSH2 0x30FD JUMP JUMPDEST JUMPDEST PUSH1 0x0 PUSH2 0x507E DUP5 DUP3 DUP6 ADD PUSH2 0x4A01 JUMP JUMPDEST SWAP2 POP POP SWAP3 SWAP2 POP POP JUMP JUMPDEST PUSH1 0x0 DUP2 PUSH1 0xE0 SHR SWAP1 POP SWAP2 SWAP1 POP JUMP JUMPDEST PUSH1 0x0 PUSH1 0x3 RETURNDATASIZE GT ISZERO PUSH2 0x50B3 JUMPI PUSH1 0x4 PUSH1 0x0 DUP1 RETURNDATACOPY PUSH2 0x50B0 PUSH1 0x0 MLOAD PUSH2 0x5087 JUMP JUMPDEST SWAP1 POP JUMPDEST SWAP1 JUMP JUMPDEST PUSH1 0x0 PUSH1 0x44 RETURNDATASIZE LT PUSH2 0x5143 JUMPI PUSH2 0x50C8 PUSH2 0x30F3 JUMP JUMPDEST PUSH1 0x4 RETURNDATASIZE SUB PUSH1 0x4 DUP3 RETURNDATACOPY DUP1 MLOAD RETURNDATASIZE PUSH1 0x24 DUP3 ADD GT PUSH8 0xFFFFFFFFFFFFFFFF DUP3 GT OR ISZERO PUSH2 0x50F0 JUMPI POP POP PUSH2 0x5143 JUMP JUMPDEST DUP1 DUP3 ADD DUP1 MLOAD PUSH8 0xFFFFFFFFFFFFFFFF DUP2 GT ISZERO PUSH2 0x510E JUMPI POP POP POP POP PUSH2 0x5143 JUMP JUMPDEST DUP1 PUSH1 0x20 DUP4 ADD ADD PUSH1 0x4 RETURNDATASIZE SUB DUP6 ADD DUP2 GT ISZERO PUSH2 0x512B JUMPI POP POP POP POP POP PUSH2 0x5143 JUMP JUMPDEST PUSH2 0x513A DUP3 PUSH1 0x20 ADD DUP6 ADD DUP7 PUSH2 0x360D JUMP JUMPDEST DUP3 SWAP6 POP POP POP POP POP POP JUMPDEST SWAP1 JUMP JUMPDEST PUSH32 0x455243313135353A207472616E7366657220746F206E6F6E2D45524331313535 PUSH1 0x0 DUP3 ADD MSTORE PUSH32 0x526563656976657220696D706C656D656E746572000000000000000000000000 PUSH1 0x20 DUP3 ADD MSTORE POP JUMP JUMPDEST PUSH1 0x0 PUSH2 0x51A2 PUSH1 0x34 DUP4 PUSH2 0x32F8 JUMP JUMPDEST SWAP2 POP PUSH2 0x51AD DUP3 PUSH2 0x5146 JUMP JUMPDEST PUSH1 0x40 DUP3 ADD SWAP1 POP SWAP2 SWAP1 POP JUMP JUMPDEST PUSH1 0x0 PUSH1 0x20 DUP3 ADD SWAP1 POP DUP2 DUP2 SUB PUSH1 0x0 DUP4 ADD MSTORE PUSH2 0x51D1 DUP2 PUSH2 0x5195 JUMP JUMPDEST SWAP1 POP SWAP2 SWAP1 POP JUMP JUMPDEST PUSH32 0x455243313135353A204552433131353552656365697665722072656A65637465 PUSH1 0x0 DUP3 ADD MSTORE PUSH32 0x6420746F6B656E73000000000000000000000000000000000000000000000000 PUSH1 0x20 DUP3 ADD MSTORE POP JUMP JUMPDEST PUSH1 0x0 PUSH2 0x5234 PUSH1 0x28 DUP4 PUSH2 0x32F8 JUMP JUMPDEST SWAP2 POP PUSH2 0x523F DUP3 PUSH2 0x51D8 JUMP JUMPDEST PUSH1 0x40 DUP3 ADD SWAP1 POP SWAP2 SWAP1 POP JUMP JUMPDEST PUSH1 0x0 PUSH1 0x20 DUP3 ADD SWAP1 POP DUP2 DUP2 SUB PUSH1 0x0 DUP4 ADD MSTORE PUSH2 0x5263 DUP2 PUSH2 0x5227 JUMP JUMPDEST SWAP1 POP SWAP2 SWAP1 POP JUMP JUMPDEST PUSH1 0x0 PUSH1 0x20 DUP3 DUP5 SUB SLT ISZERO PUSH2 0x5280 JUMPI PUSH2 0x527F PUSH2 0x30FD JUMP JUMPDEST JUMPDEST PUSH1 0x0 PUSH2 0x528E DUP5 DUP3 DUP6 ADD PUSH2 0x49EC JUMP JUMPDEST SWAP2 POP POP SWAP3 SWAP2 POP POP JUMP JUMPDEST PUSH32 0x4E487B7100000000000000000000000000000000000000000000000000000000 PUSH1 0x0 MSTORE PUSH1 0x1 PUSH1 0x4 MSTORE PUSH1 0x24 PUSH1 0x0 REVERT JUMPDEST PUSH32 0x455243313135353A206D696E7420746F20746865207A65726F20616464726573 PUSH1 0x0 DUP3 ADD MSTORE PUSH32 0x7300000000000000000000000000000000000000000000000000000000000000 PUSH1 0x20 DUP3 ADD MSTORE POP JUMP JUMPDEST PUSH1 0x0 PUSH2 0x5322 PUSH1 0x21 DUP4 PUSH2 0x32F8 JUMP JUMPDEST SWAP2 POP PUSH2 0x532D DUP3 PUSH2 0x52C6 JUMP JUMPDEST PUSH1 0x40 DUP3 ADD SWAP1 POP SWAP2 SWAP1 POP JUMP JUMPDEST PUSH1 0x0 PUSH1 0x20 DUP3 ADD SWAP1 POP DUP2 DUP2 SUB PUSH1 0x0 DUP4 ADD MSTORE PUSH2 0x5351 DUP2 PUSH2 0x5315 JUMP JUMPDEST SWAP1 POP SWAP2 SWAP1 POP JUMP JUMPDEST PUSH1 0x0 PUSH1 0xA0 DUP3 ADD SWAP1 POP PUSH2 0x536D PUSH1 0x0 DUP4 ADD DUP9 PUSH2 0x3CA9 JUMP JUMPDEST PUSH2 0x537A PUSH1 0x20 DUP4 ADD DUP8 PUSH2 0x3CA9 JUMP JUMPDEST PUSH2 0x5387 PUSH1 0x40 DUP4 ADD DUP7 PUSH2 0x31DB JUMP JUMPDEST PUSH2 0x5394 PUSH1 0x60 DUP4 ADD DUP6 PUSH2 0x31DB JUMP JUMPDEST DUP2 DUP2 SUB PUSH1 0x80 DUP4 ADD MSTORE PUSH2 0x53A6 DUP2 DUP5 PUSH2 0x3583 JUMP JUMPDEST SWAP1 POP SWAP7 SWAP6 POP POP POP POP POP POP JUMP JUMPDEST PUSH32 0x455243313135353A206275726E20616D6F756E74206578636565647320746F74 PUSH1 0x0 DUP3 ADD MSTORE PUSH32 0x616C537570706C79000000000000000000000000000000000000000000000000 PUSH1 0x20 DUP3 ADD MSTORE POP JUMP JUMPDEST PUSH1 0x0 PUSH2 0x540E PUSH1 0x28 DUP4 PUSH2 0x32F8 JUMP JUMPDEST SWAP2 POP PUSH2 0x5419 DUP3 PUSH2 0x53B2 JUMP JUMPDEST PUSH1 0x40 DUP3 ADD SWAP1 POP SWAP2 SWAP1 POP JUMP JUMPDEST PUSH1 0x0 PUSH1 0x20 DUP3 ADD SWAP1 POP DUP2 DUP2 SUB PUSH1 0x0 DUP4 ADD MSTORE PUSH2 0x543D DUP2 PUSH2 0x5401 JUMP JUMPDEST SWAP1 POP SWAP2 SWAP1 POP JUMP INVALID LOG2 PUSH5 0x6970667358 0x22 SLT KECCAK256 LOG4 MSTORE 0xD9 DUP3 PUSH18 0x2E6AE1428ED06E36A99D3BB8DBAA6D2D963D JUMPI 0x25 CODECOPY GT 0xC3 PUSH29 0xD1A53264736F6C63430008130033000000000000000000000000000000 "
		},
		"gasEstimates": {
			"creation": {
				"codeDepositCost": "4325200",
				"executionCost": "infinite",
				"totalCost": "infinite"
			},
			"external": {
				"CFAV1_TYPE()": "440",
				"acceptedToken()": "infinite",
				"afterAgreementCreated(address,address,bytes32,bytes,bytes,bytes)": "infinite",
				"afterAgreementTerminated(address,address,bytes32,bytes,bytes,bytes)": "infinite",
				"afterAgreementUpdated(address,address,bytes32,bytes,bytes,bytes)": "infinite",
				"balanceOf(address,uint256)": "infinite",
				"balanceOfBatch(address[],uint256[])": "infinite",
				"beforeAgreementCreated(address,address,bytes32,bytes,bytes)": "infinite",
				"beforeAgreementTerminated(address,address,bytes32,bytes,bytes)": "infinite",
				"beforeAgreementUpdated(address,address,bytes32,bytes,bytes)": "infinite",
				"burn(address,uint256,uint256)": "infinite",
				"burnBatch(address,uint256[],uint256[])": "infinite",
				"exists(uint256)": "2925",
				"host()": "infinite",
				"isAcceptedSuperToken(address)": "infinite",
				"isApprovedForAll(address,address)": "infinite",
				"owner()": "2589",
				"renounceOwnership()": "30509",
				"safeBatchTransferFrom(address,address,uint256[],uint256[],bytes)": "infinite",
				"safeTransferFrom(address,address,uint256,uint256,bytes)": "infinite",
				"setApprovalForAll(address,bool)": "infinite",
				"supportsInterface(bytes4)": "819",
				"totalSupply(uint256)": "infinite",
				"transferOwnership(address)": "30810",
				"uri(uint256)": "infinite",
				"userData()": "infinite"
			},
			"internal": {
				"_beforeTokenTransfer(address,address,address,uint256[] memory,uint256[] memory,bytes memory)": "infinite",
				"onFlowCreated(contract ISuperToken,address,bytes calldata)": "infinite",
				"onFlowDeleted(contract ISuperToken,address,address,int96,uint256,bytes calldata)": "infinite"
			}
		},
		"methodIdentifiers": {
			"CFAV1_TYPE()": "bcb4546f",
			"acceptedToken()": "451c3d80",
			"afterAgreementCreated(address,address,bytes32,bytes,bytes,bytes)": "d86ed3e5",
			"afterAgreementTerminated(address,address,bytes32,bytes,bytes,bytes)": "53c11f99",
			"afterAgreementUpdated(address,address,bytes32,bytes,bytes,bytes)": "230dbd29",
			"balanceOf(address,uint256)": "00fdd58e",
			"balanceOfBatch(address[],uint256[])": "4e1273f4",
			"beforeAgreementCreated(address,address,bytes32,bytes,bytes)": "30d9c915",
			"beforeAgreementTerminated(address,address,bytes32,bytes,bytes)": "5f9e7d77",
			"beforeAgreementUpdated(address,address,bytes32,bytes,bytes)": "884d1f40",
			"burn(address,uint256,uint256)": "f5298aca",
			"burnBatch(address,uint256[],uint256[])": "6b20c454",
			"exists(uint256)": "4f558e79",
			"host()": "f437bc59",
			"isAcceptedSuperToken(address)": "72ca8a3e",
			"isApprovedForAll(address,address)": "e985e9c5",
			"owner()": "8da5cb5b",
			"renounceOwnership()": "715018a6",
			"safeBatchTransferFrom(address,address,uint256[],uint256[],bytes)": "2eb2c2d6",
			"safeTransferFrom(address,address,uint256,uint256,bytes)": "f242432a",
			"setApprovalForAll(address,bool)": "a22cb465",
			"supportsInterface(bytes4)": "01ffc9a7",
			"totalSupply(uint256)": "bd85b039",
			"transferOwnership(address)": "f2fde38b",
			"uri(uint256)": "0e89341c",
			"userData()": "bea6998f"
		}
	},
	"abi": [
		{
			"inputs": [
				{
					"internalType": "contract ISuperToken",
					"name": "_acceptedToken",
					"type": "address"
				},
				{
					"internalType": "contract ISuperfluid",
					"name": "host",
					"type": "address"
				}
			],
			"stateMutability": "nonpayable",
			"type": "constructor"
		},
		{
			"inputs": [],
			"name": "InvalidStages",
			"type": "error"
		},
		{
			"inputs": [],
			"name": "InvalidTransfer",
			"type": "error"
		},
		{
			"inputs": [],
			"name": "NotAcceptedSuperToken",
			"type": "error"
		},
		{
			"inputs": [],
			"name": "NotImplemented",
			"type": "error"
		},
		{
			"inputs": [],
			"name": "UnauthorizedHost",
			"type": "error"
		},
		{
			"anonymous": false,
			"inputs": [
				{
					"indexed": true,
					"internalType": "address",
					"name": "account",
					"type": "address"
				},
				{
					"indexed": true,
					"internalType": "address",
					"name": "operator",
					"type": "address"
				},
				{
					"indexed": false,
					"internalType": "bool",
					"name": "approved",
					"type": "bool"
				}
			],
			"name": "ApprovalForAll",
			"type": "event"
		},
		{
			"anonymous": false,
			"inputs": [
				{
					"indexed": true,
					"internalType": "address",
					"name": "previousOwner",
					"type": "address"
				},
				{
					"indexed": true,
					"internalType": "address",
					"name": "newOwner",
					"type": "address"
				}
			],
			"name": "OwnershipTransferred",
			"type": "event"
		},
		{
			"anonymous": false,
			"inputs": [
				{
					"indexed": true,
					"internalType": "address",
					"name": "operator",
					"type": "address"
				},
				{
					"indexed": true,
					"internalType": "address",
					"name": "from",
					"type": "address"
				},
				{
					"indexed": true,
					"internalType": "address",
					"name": "to",
					"type": "address"
				},
				{
					"indexed": false,
					"internalType": "uint256[]",
					"name": "ids",
					"type": "uint256[]"
				},
				{
					"indexed": false,
					"internalType": "uint256[]",
					"name": "values",
					"type": "uint256[]"
				}
			],
			"name": "TransferBatch",
			"type": "event"
		},
		{
			"anonymous": false,
			"inputs": [
				{
					"indexed": true,
					"internalType": "address",
					"name": "operator",
					"type": "address"
				},
				{
					"indexed": true,
					"internalType": "address",
					"name": "from",
					"type": "address"
				},
				{
					"indexed": true,
					"internalType": "address",
					"name": "to",
					"type": "address"
				},
				{
					"indexed": false,
					"internalType": "uint256",
					"name": "id",
					"type": "uint256"
				},
				{
					"indexed": false,
					"internalType": "uint256",
					"name": "value",
					"type": "uint256"
				}
			],
			"name": "TransferSingle",
			"type": "event"
		},
		{
			"anonymous": false,
			"inputs": [
				{
					"indexed": false,
					"internalType": "string",
					"name": "value",
					"type": "string"
				},
				{
					"indexed": true,
					"internalType": "uint256",
					"name": "id",
					"type": "uint256"
				}
			],
			"name": "URI",
			"type": "event"
		},
		{
			"inputs": [],
			"name": "CFAV1_TYPE",
			"outputs": [
				{
					"internalType": "bytes32",
					"name": "",
					"type": "bytes32"
				}
			],
			"stateMutability": "view",
			"type": "function"
		},
		{
			"inputs": [],
			"name": "acceptedToken",
			"outputs": [
				{
					"internalType": "contract ISuperToken",
					"name": "",
					"type": "address"
				}
			],
			"stateMutability": "view",
			"type": "function"
		},
		{
			"inputs": [
				{
					"internalType": "contract ISuperToken",
					"name": "superToken",
					"type": "address"
				},
				{
					"internalType": "address",
					"name": "agreementClass",
					"type": "address"
				},
				{
					"internalType": "bytes32",
					"name": "",
					"type": "bytes32"
				},
				{
					"internalType": "bytes",
					"name": "agreementData",
					"type": "bytes"
				},
				{
					"internalType": "bytes",
					"name": "",
					"type": "bytes"
				},
				{
					"internalType": "bytes",
					"name": "ctx",
					"type": "bytes"
				}
			],
			"name": "afterAgreementCreated",
			"outputs": [
				{
					"internalType": "bytes",
					"name": "newCtx",
					"type": "bytes"
				}
			],
			"stateMutability": "nonpayable",
			"type": "function"
		},
		{
			"inputs": [
				{
					"internalType": "contract ISuperToken",
					"name": "superToken",
					"type": "address"
				},
				{
					"internalType": "address",
					"name": "agreementClass",
					"type": "address"
				},
				{
					"internalType": "bytes32",
					"name": "",
					"type": "bytes32"
				},
				{
					"internalType": "bytes",
					"name": "agreementData",
					"type": "bytes"
				},
				{
					"internalType": "bytes",
					"name": "cbdata",
					"type": "bytes"
				},
				{
					"internalType": "bytes",
					"name": "ctx",
					"type": "bytes"
				}
			],
			"name": "afterAgreementTerminated",
			"outputs": [
				{
					"internalType": "bytes",
					"name": "newCtx",
					"type": "bytes"
				}
			],
			"stateMutability": "nonpayable",
			"type": "function"
		},
		{
			"inputs": [
				{
					"internalType": "contract ISuperToken",
					"name": "superToken",
					"type": "address"
				},
				{
					"internalType": "address",
					"name": "agreementClass",
					"type": "address"
				},
				{
					"internalType": "bytes32",
					"name": "",
					"type": "bytes32"
				},
				{
					"internalType": "bytes",
					"name": "agreementData",
					"type": "bytes"
				},
				{
					"internalType": "bytes",
					"name": "cbdata",
					"type": "bytes"
				},
				{
					"internalType": "bytes",
					"name": "ctx",
					"type": "bytes"
				}
			],
			"name": "afterAgreementUpdated",
			"outputs": [
				{
					"internalType": "bytes",
					"name": "newCtx",
					"type": "bytes"
				}
			],
			"stateMutability": "nonpayable",
			"type": "function"
		},
		{
			"inputs": [
				{
					"internalType": "address",
					"name": "account",
					"type": "address"
				},
				{
					"internalType": "uint256",
					"name": "id",
					"type": "uint256"
				}
			],
			"name": "balanceOf",
			"outputs": [
				{
					"internalType": "uint256",
					"name": "",
					"type": "uint256"
				}
			],
			"stateMutability": "view",
			"type": "function"
		},
		{
			"inputs": [
				{
					"internalType": "address[]",
					"name": "accounts",
					"type": "address[]"
				},
				{
					"internalType": "uint256[]",
					"name": "ids",
					"type": "uint256[]"
				}
			],
			"name": "balanceOfBatch",
			"outputs": [
				{
					"internalType": "uint256[]",
					"name": "",
					"type": "uint256[]"
				}
			],
			"stateMutability": "view",
			"type": "function"
		},
		{
			"inputs": [
				{
					"internalType": "contract ISuperToken",
					"name": "",
					"type": "address"
				},
				{
					"internalType": "address",
					"name": "",
					"type": "address"
				},
				{
					"internalType": "bytes32",
					"name": "",
					"type": "bytes32"
				},
				{
					"internalType": "bytes",
					"name": "",
					"type": "bytes"
				},
				{
					"internalType": "bytes",
					"name": "",
					"type": "bytes"
				}
			],
			"name": "beforeAgreementCreated",
			"outputs": [
				{
					"internalType": "bytes",
					"name": "",
					"type": "bytes"
				}
			],
			"stateMutability": "pure",
			"type": "function"
		},
		{
			"inputs": [
				{
					"internalType": "contract ISuperToken",
					"name": "superToken",
					"type": "address"
				},
				{
					"internalType": "address",
					"name": "agreementClass",
					"type": "address"
				},
				{
					"internalType": "bytes32",
					"name": "",
					"type": "bytes32"
				},
				{
					"internalType": "bytes",
					"name": "agreementData",
					"type": "bytes"
				},
				{
					"internalType": "bytes",
					"name": "",
					"type": "bytes"
				}
			],
			"name": "beforeAgreementTerminated",
			"outputs": [
				{
					"internalType": "bytes",
					"name": "",
					"type": "bytes"
				}
			],
			"stateMutability": "view",
			"type": "function"
		},
		{
			"inputs": [
				{
					"internalType": "contract ISuperToken",
					"name": "superToken",
					"type": "address"
				},
				{
					"internalType": "address",
					"name": "agreementClass",
					"type": "address"
				},
				{
					"internalType": "bytes32",
					"name": "",
					"type": "bytes32"
				},
				{
					"internalType": "bytes",
					"name": "agreementData",
					"type": "bytes"
				},
				{
					"internalType": "bytes",
					"name": "",
					"type": "bytes"
				}
			],
			"name": "beforeAgreementUpdated",
			"outputs": [
				{
					"internalType": "bytes",
					"name": "",
					"type": "bytes"
				}
			],
			"stateMutability": "view",
			"type": "function"
		},
		{
			"inputs": [
				{
					"internalType": "address",
					"name": "account",
					"type": "address"
				},
				{
					"internalType": "uint256",
					"name": "id",
					"type": "uint256"
				},
				{
					"internalType": "uint256",
					"name": "value",
					"type": "uint256"
				}
			],
			"name": "burn",
			"outputs": [],
			"stateMutability": "nonpayable",
			"type": "function"
		},
		{
			"inputs": [
				{
					"internalType": "address",
					"name": "account",
					"type": "address"
				},
				{
					"internalType": "uint256[]",
					"name": "ids",
					"type": "uint256[]"
				},
				{
					"internalType": "uint256[]",
					"name": "values",
					"type": "uint256[]"
				}
			],
			"name": "burnBatch",
			"outputs": [],
			"stateMutability": "nonpayable",
			"type": "function"
		},
		{
			"inputs": [
				{
					"internalType": "uint256",
					"name": "id",
					"type": "uint256"
				}
			],
			"name": "exists",
			"outputs": [
				{
					"internalType": "bool",
					"name": "",
					"type": "bool"
				}
			],
			"stateMutability": "view",
			"type": "function"
		},
		{
			"inputs": [],
			"name": "host",
			"outputs": [
				{
					"internalType": "contract ISuperfluid",
					"name": "",
					"type": "address"
				}
			],
			"stateMutability": "view",
			"type": "function"
		},
		{
			"inputs": [
				{
					"internalType": "contract ISuperToken",
					"name": "superToken",
					"type": "address"
				}
			],
			"name": "isAcceptedSuperToken",
			"outputs": [
				{
					"internalType": "bool",
					"name": "",
					"type": "bool"
				}
			],
			"stateMutability": "view",
			"type": "function"
		},
		{
			"inputs": [
				{
					"internalType": "address",
					"name": "account",
					"type": "address"
				},
				{
					"internalType": "address",
					"name": "operator",
					"type": "address"
				}
			],
			"name": "isApprovedForAll",
			"outputs": [
				{
					"internalType": "bool",
					"name": "",
					"type": "bool"
				}
			],
			"stateMutability": "view",
			"type": "function"
		},
		{
			"inputs": [],
			"name": "owner",
			"outputs": [
				{
					"internalType": "address",
					"name": "",
					"type": "address"
				}
			],
			"stateMutability": "view",
			"type": "function"
		},
		{
			"inputs": [],
			"name": "renounceOwnership",
			"outputs": [],
			"stateMutability": "nonpayable",
			"type": "function"
		},
		{
			"inputs": [
				{
					"internalType": "address",
					"name": "from",
					"type": "address"
				},
				{
					"internalType": "address",
					"name": "to",
					"type": "address"
				},
				{
					"internalType": "uint256[]",
					"name": "ids",
					"type": "uint256[]"
				},
				{
					"internalType": "uint256[]",
					"name": "amounts",
					"type": "uint256[]"
				},
				{
					"internalType": "bytes",
					"name": "data",
					"type": "bytes"
				}
			],
			"name": "safeBatchTransferFrom",
			"outputs": [],
			"stateMutability": "nonpayable",
			"type": "function"
		},
		{
			"inputs": [
				{
					"internalType": "address",
					"name": "from",
					"type": "address"
				},
				{
					"internalType": "address",
					"name": "to",
					"type": "address"
				},
				{
					"internalType": "uint256",
					"name": "id",
					"type": "uint256"
				},
				{
					"internalType": "uint256",
					"name": "amount",
					"type": "uint256"
				},
				{
					"internalType": "bytes",
					"name": "data",
					"type": "bytes"
				}
			],
			"name": "safeTransferFrom",
			"outputs": [],
			"stateMutability": "nonpayable",
			"type": "function"
		},
		{
			"inputs": [
				{
					"internalType": "address",
					"name": "operator",
					"type": "address"
				},
				{
					"internalType": "bool",
					"name": "approved",
					"type": "bool"
				}
			],
			"name": "setApprovalForAll",
			"outputs": [],
			"stateMutability": "nonpayable",
			"type": "function"
		},
		{
			"inputs": [
				{
					"internalType": "bytes4",
					"name": "interfaceId",
					"type": "bytes4"
				}
			],
			"name": "supportsInterface",
			"outputs": [
				{
					"internalType": "bool",
					"name": "",
					"type": "bool"
				}
			],
			"stateMutability": "view",
			"type": "function"
		},
		{
			"inputs": [
				{
					"internalType": "uint256",
					"name": "id",
					"type": "uint256"
				}
			],
			"name": "totalSupply",
			"outputs": [
				{
					"internalType": "uint256",
					"name": "",
					"type": "uint256"
				}
			],
			"stateMutability": "view",
			"type": "function"
		},
		{
			"inputs": [
				{
					"internalType": "address",
					"name": "newOwner",
					"type": "address"
				}
			],
			"name": "transferOwnership",
			"outputs": [],
			"stateMutability": "nonpayable",
			"type": "function"
		},
		{
			"inputs": [
				{
					"internalType": "uint256",
					"name": "",
					"type": "uint256"
				}
			],
			"name": "uri",
			"outputs": [
				{
					"internalType": "string",
					"name": "",
					"type": "string"
				}
			],
			"stateMutability": "view",
			"type": "function"
		},
		{
			"inputs": [],
			"name": "userData",
			"outputs": [
				{
					"internalType": "string",
					"name": "",
					"type": "string"
				}
			],
			"stateMutability": "view",
			"type": "function"
		}
	]
}