{
	"premiere/Premiere.sol": {
		"Premiere": {
			"abi": [
				{
					"inputs": [
						{
							"internalType": "address",
							"name": "_owner",
							"type": "address"
						},
						{
							"internalType": "uint256",
							"name": "_id",
							"type": "uint256"
						}
					],
					"name": "balanceOf",
					"outputs": [
						{
							"internalType": "uint256",
							"name": "",
							"type": "uint256"
						}
					],
					"stateMutability": "view",
					"type": "function"
				},
				{
					"inputs": [
						{
							"internalType": "address",
							"name": "sender",
							"type": "address"
						},
						{
							"internalType": "address",
							"name": "receiver",
							"type": "address"
						},
						{
							"internalType": "string",
							"name": "profileId",
							"type": "string"
						},
						{
							"internalType": "string",
							"name": "minFlowRate",
							"type": "string"
						},
						{
							"internalType": "string",
							"name": "maxTimestamp",
							"type": "string"
						}
					],
					"name": "isSubscribed",
					"outputs": [
						{
							"internalType": "bool",
							"name": "subscribed",
							"type": "bool"
						}
					],
					"stateMutability": "view",
					"type": "function"
				}
			],
			"devdoc": {
				"kind": "dev",
				"methods": {},
				"version": 1
			},
			"evm": {
				"assembly": "    /* \"premiere/Premiere.sol\":967:3712  contract Premiere {... */\n  mstore(0x40, 0x80)\n    /* \"premiere/Premiere.sol\":1021:1063  0x49e565Ed1bdc17F3d220f72DF0857C26FA83F873 */\n  0x49e565ed1bdc17f3d220f72df0857c26fa83f873\n    /* \"premiere/Premiere.sol\":991:1063  address private _cfaAddress = 0x49e565Ed1bdc17F3d220f72DF0857C26FA83F873 */\n  0x00\n  dup1\n  0x0100\n  exp\n  dup2\n  sload\n  dup2\n  0xffffffffffffffffffffffffffffffffffffffff\n  mul\n  not\n  and\n  swap1\n  dup4\n  0xffffffffffffffffffffffffffffffffffffffff\n  and\n  mul\n  or\n  swap1\n  sstore\n  pop\n    /* \"premiere/Premiere.sol\":1106:1148  0x5D8B4C2554aeB7e86F387B4d6c00Ac33499Ed01f */\n  0x5d8b4c2554aeb7e86f387b4d6c00ac33499ed01f\n    /* \"premiere/Premiere.sol\":1069:1148  address private _superTokenAddress = 0x5D8B4C2554aeB7e86F387B4d6c00Ac33499Ed01f */\n  0x01\n  exp(0x0100, 0x00)\n  dup2\n  sload\n  dup2\n  0xffffffffffffffffffffffffffffffffffffffff\n  mul\n  not\n  and\n  swap1\n  dup4\n  0xffffffffffffffffffffffffffffffffffffffff\n  and\n  mul\n  or\n  swap1\n  sstore\n  pop\n    /* \"premiere/Premiere.sol\":1188:1230  0x60Ae865ee4C725cd04353b5AAb364553f56ceF82 */\n  0x60ae865ee4c725cd04353b5aab364553f56cef82\n    /* \"premiere/Premiere.sol\":1154:1230  address private _lensHubAddress = 0x60Ae865ee4C725cd04353b5AAb364553f56ceF82 */\n  0x02\n  exp(0x0100, 0x00)\n  dup2\n  sload\n  dup2\n  0xffffffffffffffffffffffffffffffffffffffff\n  mul\n  not\n  and\n  swap1\n  dup4\n  0xffffffffffffffffffffffffffffffffffffffff\n  and\n  mul\n  or\n  swap1\n  sstore\n  pop\n    /* \"premiere/Premiere.sol\":1267:1309  0x02101dfB77FDE026414827Fdc604ddAF224F0921 */\n  0x02101dfb77fde026414827fdc604ddaf224f0921\n    /* \"premiere/Premiere.sol\":1236:1309  address private _tbaRegistry = 0x02101dfB77FDE026414827Fdc604ddAF224F0921 */\n  0x03\n  exp(0x0100, 0x00)\n  dup2\n  sload\n  dup2\n  0xffffffffffffffffffffffffffffffffffffffff\n  mul\n  not\n  and\n  swap1\n  dup4\n  0xffffffffffffffffffffffffffffffffffffffff\n  and\n  mul\n  or\n  swap1\n  sstore\n  pop\n    /* \"premiere/Premiere.sol\":1315:1359  string private _minFlowRate = \"761035007610\" */\n  mload(0x40)\n  dup1\n  0x40\n  add\n  0x40\n  mstore\n  dup1\n  0x0c\n  dup2\n  mstore\n  0x20\n  add\n  0x3736313033353030373631300000000000000000000000000000000000000000\n  dup2\n  mstore\n  pop\n  0x04\n  swap1\n  dup2\n  tag_1\n  swap2\n  swap1\n  tag_2\n  jump\t// in\ntag_1:\n  pop\n    /* \"premiere/Premiere.sol\":1365:1398  string private _maxTimestamp = \"\" */\n  mload(0x40)\n  dup1\n  0x20\n  add\n  0x40\n  mstore\n  dup1\n  0x00\n  dup2\n  mstore\n  pop\n  0x05\n  swap1\n  dup2\n  tag_3\n  swap2\n  swap1\n  tag_2\n  jump\t// in\ntag_3:\n  pop\n    /* \"premiere/Premiere.sol\":967:3712  contract Premiere {... */\n  callvalue\n  dup1\n  iszero\n  tag_4\n  jumpi\n  0x00\n  dup1\n  revert\ntag_4:\n  pop\n  jump(tag_5)\n    /* \"#utility.yul\":7:106   */\ntag_6:\n    /* \"#utility.yul\":59:65   */\n  0x00\n    /* \"#utility.yul\":93:98   */\n  dup2\n    /* \"#utility.yul\":87:99   */\n  mload\n    /* \"#utility.yul\":77:99   */\n  swap1\n  pop\n    /* \"#utility.yul\":7:106   */\n  swap2\n  swap1\n  pop\n  jump\t// out\n    /* \"#utility.yul\":112:292   */\ntag_7:\n    /* \"#utility.yul\":160:237   */\n  0x4e487b7100000000000000000000000000000000000000000000000000000000\n    /* \"#utility.yul\":157:158   */\n  0x00\n    /* \"#utility.yul\":150:238   */\n  mstore\n    /* \"#utility.yul\":257:261   */\n  0x41\n    /* \"#utility.yul\":254:255   */\n  0x04\n    /* \"#utility.yul\":247:262   */\n  mstore\n    /* \"#utility.yul\":281:285   */\n  0x24\n    /* \"#utility.yul\":278:279   */\n  0x00\n    /* \"#utility.yul\":271:286   */\n  revert\n    /* \"#utility.yul\":298:478   */\ntag_8:\n    /* \"#utility.yul\":346:423   */\n  0x4e487b7100000000000000000000000000000000000000000000000000000000\n    /* \"#utility.yul\":343:344   */\n  0x00\n    /* \"#utility.yul\":336:424   */\n  mstore\n    /* \"#utility.yul\":443:447   */\n  0x22\n    /* \"#utility.yul\":440:441   */\n  0x04\n    /* \"#utility.yul\":433:448   */\n  mstore\n    /* \"#utility.yul\":467:471   */\n  0x24\n    /* \"#utility.yul\":464:465   */\n  0x00\n    /* \"#utility.yul\":457:472   */\n  revert\n    /* \"#utility.yul\":484:804   */\ntag_9:\n    /* \"#utility.yul\":528:534   */\n  0x00\n    /* \"#utility.yul\":565:566   */\n  0x02\n    /* \"#utility.yul\":559:563   */\n  dup3\n    /* \"#utility.yul\":555:567   */\n  div\n    /* \"#utility.yul\":545:567   */\n  swap1\n  pop\n    /* \"#utility.yul\":612:613   */\n  0x01\n    /* \"#utility.yul\":606:610   */\n  dup3\n    /* \"#utility.yul\":602:614   */\n  and\n    /* \"#utility.yul\":633:651   */\n  dup1\n    /* \"#utility.yul\":623:704   */\n  tag_31\n  jumpi\n    /* \"#utility.yul\":689:693   */\n  0x7f\n    /* \"#utility.yul\":681:687   */\n  dup3\n    /* \"#utility.yul\":677:694   */\n  and\n    /* \"#utility.yul\":667:694   */\n  swap2\n  pop\n    /* \"#utility.yul\":623:704   */\ntag_31:\n    /* \"#utility.yul\":751:753   */\n  0x20\n    /* \"#utility.yul\":743:749   */\n  dup3\n    /* \"#utility.yul\":740:754   */\n  lt\n    /* \"#utility.yul\":720:738   */\n  dup2\n    /* \"#utility.yul\":717:755   */\n  sub\n    /* \"#utility.yul\":714:798   */\n  tag_32\n  jumpi\n    /* \"#utility.yul\":770:788   */\n  tag_33\n  tag_8\n  jump\t// in\ntag_33:\n    /* \"#utility.yul\":714:798   */\ntag_32:\n    /* \"#utility.yul\":535:804   */\n  pop\n    /* \"#utility.yul\":484:804   */\n  swap2\n  swap1\n  pop\n  jump\t// out\n    /* \"#utility.yul\":810:951   */\ntag_10:\n    /* \"#utility.yul\":859:863   */\n  0x00\n    /* \"#utility.yul\":882:885   */\n  dup2\n    /* \"#utility.yul\":874:885   */\n  swap1\n  pop\n    /* \"#utility.yul\":905:908   */\n  dup2\n    /* \"#utility.yul\":902:903   */\n  0x00\n    /* \"#utility.yul\":895:909   */\n  mstore\n    /* \"#utility.yul\":939:943   */\n  0x20\n    /* \"#utility.yul\":936:937   */\n  0x00\n    /* \"#utility.yul\":926:944   */\n  keccak256\n    /* \"#utility.yul\":918:944   */\n  swap1\n  pop\n    /* \"#utility.yul\":810:951   */\n  swap2\n  swap1\n  pop\n  jump\t// out\n    /* \"#utility.yul\":957:1050   */\ntag_11:\n    /* \"#utility.yul\":994:1000   */\n  0x00\n    /* \"#utility.yul\":1041:1043   */\n  0x20\n    /* \"#utility.yul\":1036:1038   */\n  0x1f\n    /* \"#utility.yul\":1029:1034   */\n  dup4\n    /* \"#utility.yul\":1025:1039   */\n  add\n    /* \"#utility.yul\":1021:1044   */\n  div\n    /* \"#utility.yul\":1011:1044   */\n  swap1\n  pop\n    /* \"#utility.yul\":957:1050   */\n  swap2\n  swap1\n  pop\n  jump\t// out\n    /* \"#utility.yul\":1056:1163   */\ntag_12:\n    /* \"#utility.yul\":1100:1108   */\n  0x00\n    /* \"#utility.yul\":1150:1155   */\n  dup3\n    /* \"#utility.yul\":1144:1148   */\n  dup3\n    /* \"#utility.yul\":1140:1156   */\n  shl\n    /* \"#utility.yul\":1119:1156   */\n  swap1\n  pop\n    /* \"#utility.yul\":1056:1163   */\n  swap3\n  swap2\n  pop\n  pop\n  jump\t// out\n    /* \"#utility.yul\":1169:1562   */\ntag_13:\n    /* \"#utility.yul\":1238:1244   */\n  0x00\n    /* \"#utility.yul\":1288:1289   */\n  0x08\n    /* \"#utility.yul\":1276:1286   */\n  dup4\n    /* \"#utility.yul\":1272:1290   */\n  mul\n    /* \"#utility.yul\":1311:1408   */\n  tag_38\n    /* \"#utility.yul\":1341:1407   */\n  0xffffffffffffffffffffffffffffffffffffffffffffffffffffffffffffffff\n    /* \"#utility.yul\":1330:1339   */\n  dup3\n    /* \"#utility.yul\":1311:1408   */\n  tag_12\n  jump\t// in\ntag_38:\n    /* \"#utility.yul\":1429:1468   */\n  tag_39\n    /* \"#utility.yul\":1459:1467   */\n  dup7\n    /* \"#utility.yul\":1448:1457   */\n  dup4\n    /* \"#utility.yul\":1429:1468   */\n  tag_12\n  jump\t// in\ntag_39:\n    /* \"#utility.yul\":1417:1468   */\n  swap6\n  pop\n    /* \"#utility.yul\":1501:1505   */\n  dup1\n    /* \"#utility.yul\":1497:1506   */\n  not\n    /* \"#utility.yul\":1490:1495   */\n  dup5\n    /* \"#utility.yul\":1486:1507   */\n  and\n    /* \"#utility.yul\":1477:1507   */\n  swap4\n  pop\n    /* \"#utility.yul\":1550:1554   */\n  dup1\n    /* \"#utility.yul\":1540:1548   */\n  dup7\n    /* \"#utility.yul\":1536:1555   */\n  and\n    /* \"#utility.yul\":1529:1534   */\n  dup5\n    /* \"#utility.yul\":1526:1556   */\n  or\n    /* \"#utility.yul\":1516:1556   */\n  swap3\n  pop\n    /* \"#utility.yul\":1245:1562   */\n  pop\n  pop\n    /* \"#utility.yul\":1169:1562   */\n  swap4\n  swap3\n  pop\n  pop\n  pop\n  jump\t// out\n    /* \"#utility.yul\":1568:1645   */\ntag_14:\n    /* \"#utility.yul\":1605:1612   */\n  0x00\n    /* \"#utility.yul\":1634:1639   */\n  dup2\n    /* \"#utility.yul\":1623:1639   */\n  swap1\n  pop\n    /* \"#utility.yul\":1568:1645   */\n  swap2\n  swap1\n  pop\n  jump\t// out\n    /* \"#utility.yul\":1651:1711   */\ntag_15:\n    /* \"#utility.yul\":1679:1682   */\n  0x00\n    /* \"#utility.yul\":1700:1705   */\n  dup2\n    /* \"#utility.yul\":1693:1705   */\n  swap1\n  pop\n    /* \"#utility.yul\":1651:1711   */\n  swap2\n  swap1\n  pop\n  jump\t// out\n    /* \"#utility.yul\":1717:1859   */\ntag_16:\n    /* \"#utility.yul\":1767:1776   */\n  0x00\n    /* \"#utility.yul\":1800:1853   */\n  tag_43\n    /* \"#utility.yul\":1818:1852   */\n  tag_44\n    /* \"#utility.yul\":1827:1851   */\n  tag_45\n    /* \"#utility.yul\":1845:1850   */\n  dup5\n    /* \"#utility.yul\":1827:1851   */\n  tag_14\n  jump\t// in\ntag_45:\n    /* \"#utility.yul\":1818:1852   */\n  tag_15\n  jump\t// in\ntag_44:\n    /* \"#utility.yul\":1800:1853   */\n  tag_14\n  jump\t// in\ntag_43:\n    /* \"#utility.yul\":1787:1853   */\n  swap1\n  pop\n    /* \"#utility.yul\":1717:1859   */\n  swap2\n  swap1\n  pop\n  jump\t// out\n    /* \"#utility.yul\":1865:1940   */\ntag_17:\n    /* \"#utility.yul\":1908:1911   */\n  0x00\n    /* \"#utility.yul\":1929:1934   */\n  dup2\n    /* \"#utility.yul\":1922:1934   */\n  swap1\n  pop\n    /* \"#utility.yul\":1865:1940   */\n  swap2\n  swap1\n  pop\n  jump\t// out\n    /* \"#utility.yul\":1946:2215   */\ntag_18:\n    /* \"#utility.yul\":2056:2095   */\n  tag_48\n    /* \"#utility.yul\":2087:2094   */\n  dup4\n    /* \"#utility.yul\":2056:2095   */\n  tag_16\n  jump\t// in\ntag_48:\n    /* \"#utility.yul\":2117:2208   */\n  tag_49\n    /* \"#utility.yul\":2166:2207   */\n  tag_50\n    /* \"#utility.yul\":2190:2206   */\n  dup3\n    /* \"#utility.yul\":2166:2207   */\n  tag_17\n  jump\t// in\ntag_50:\n    /* \"#utility.yul\":2158:2164   */\n  dup5\n    /* \"#utility.yul\":2151:2155   */\n  dup5\n    /* \"#utility.yul\":2145:2156   */\n  sload\n    /* \"#utility.yul\":2117:2208   */\n  tag_13\n  jump\t// in\ntag_49:\n    /* \"#utility.yul\":2111:2115   */\n  dup3\n    /* \"#utility.yul\":2104:2209   */\n  sstore\n    /* \"#utility.yul\":2022:2215   */\n  pop\n    /* \"#utility.yul\":1946:2215   */\n  pop\n  pop\n  pop\n  jump\t// out\n    /* \"#utility.yul\":2221:2294   */\ntag_19:\n    /* \"#utility.yul\":2266:2269   */\n  0x00\n    /* \"#utility.yul\":2221:2294   */\n  swap1\n  jump\t// out\n    /* \"#utility.yul\":2300:2489   */\ntag_20:\n    /* \"#utility.yul\":2377:2409   */\n  tag_53\n  tag_19\n  jump\t// in\ntag_53:\n    /* \"#utility.yul\":2418:2483   */\n  tag_54\n    /* \"#utility.yul\":2476:2482   */\n  dup2\n    /* \"#utility.yul\":2468:2474   */\n  dup5\n    /* \"#utility.yul\":2462:2466   */\n  dup5\n    /* \"#utility.yul\":2418:2483   */\n  tag_18\n  jump\t// in\ntag_54:\n    /* \"#utility.yul\":2353:2489   */\n  pop\n    /* \"#utility.yul\":2300:2489   */\n  pop\n  pop\n  jump\t// out\n    /* \"#utility.yul\":2495:2681   */\ntag_21:\n    /* \"#utility.yul\":2555:2675   */\ntag_56:\n    /* \"#utility.yul\":2572:2575   */\n  dup2\n    /* \"#utility.yul\":2565:2570   */\n  dup2\n    /* \"#utility.yul\":2562:2576   */\n  lt\n    /* \"#utility.yul\":2555:2675   */\n  iszero\n  tag_58\n  jumpi\n    /* \"#utility.yul\":2626:2665   */\n  tag_59\n    /* \"#utility.yul\":2663:2664   */\n  0x00\n    /* \"#utility.yul\":2656:2661   */\n  dup3\n    /* \"#utility.yul\":2626:2665   */\n  tag_20\n  jump\t// in\ntag_59:\n    /* \"#utility.yul\":2599:2600   */\n  0x01\n    /* \"#utility.yul\":2592:2597   */\n  dup2\n    /* \"#utility.yul\":2588:2601   */\n  add\n    /* \"#utility.yul\":2579:2601   */\n  swap1\n  pop\n    /* \"#utility.yul\":2555:2675   */\n  jump(tag_56)\ntag_58:\n    /* \"#utility.yul\":2495:2681   */\n  pop\n  pop\n  jump\t// out\n    /* \"#utility.yul\":2687:3230   */\ntag_22:\n    /* \"#utility.yul\":2788:2790   */\n  0x1f\n    /* \"#utility.yul\":2783:2786   */\n  dup3\n    /* \"#utility.yul\":2780:2791   */\n  gt\n    /* \"#utility.yul\":2777:3223   */\n  iszero\n  tag_61\n  jumpi\n    /* \"#utility.yul\":2822:2860   */\n  tag_62\n    /* \"#utility.yul\":2854:2859   */\n  dup2\n    /* \"#utility.yul\":2822:2860   */\n  tag_10\n  jump\t// in\ntag_62:\n    /* \"#utility.yul\":2906:2935   */\n  tag_63\n    /* \"#utility.yul\":2924:2934   */\n  dup5\n    /* \"#utility.yul\":2906:2935   */\n  tag_11\n  jump\t// in\ntag_63:\n    /* \"#utility.yul\":2896:2904   */\n  dup2\n    /* \"#utility.yul\":2892:2936   */\n  add\n    /* \"#utility.yul\":3089:3091   */\n  0x20\n    /* \"#utility.yul\":3077:3087   */\n  dup6\n    /* \"#utility.yul\":3074:3092   */\n  lt\n    /* \"#utility.yul\":3071:3120   */\n  iszero\n  tag_64\n  jumpi\n    /* \"#utility.yul\":3110:3118   */\n  dup2\n    /* \"#utility.yul\":3095:3118   */\n  swap1\n  pop\n    /* \"#utility.yul\":3071:3120   */\ntag_64:\n    /* \"#utility.yul\":3133:3213   */\n  tag_65\n    /* \"#utility.yul\":3189:3211   */\n  tag_66\n    /* \"#utility.yul\":3207:3210   */\n  dup6\n    /* \"#utility.yul\":3189:3211   */\n  tag_11\n  jump\t// in\ntag_66:\n    /* \"#utility.yul\":3179:3187   */\n  dup4\n    /* \"#utility.yul\":3175:3212   */\n  add\n    /* \"#utility.yul\":3162:3173   */\n  dup3\n    /* \"#utility.yul\":3133:3213   */\n  tag_21\n  jump\t// in\ntag_65:\n    /* \"#utility.yul\":2792:3223   */\n  pop\n  pop\n    /* \"#utility.yul\":2777:3223   */\ntag_61:\n    /* \"#utility.yul\":2687:3230   */\n  pop\n  pop\n  pop\n  jump\t// out\n    /* \"#utility.yul\":3236:3353   */\ntag_23:\n    /* \"#utility.yul\":3290:3298   */\n  0x00\n    /* \"#utility.yul\":3340:3345   */\n  dup3\n    /* \"#utility.yul\":3334:3338   */\n  dup3\n    /* \"#utility.yul\":3330:3346   */\n  shr\n    /* \"#utility.yul\":3309:3346   */\n  swap1\n  pop\n    /* \"#utility.yul\":3236:3353   */\n  swap3\n  swap2\n  pop\n  pop\n  jump\t// out\n    /* \"#utility.yul\":3359:3528   */\ntag_24:\n    /* \"#utility.yul\":3403:3409   */\n  0x00\n    /* \"#utility.yul\":3436:3487   */\n  tag_69\n    /* \"#utility.yul\":3484:3485   */\n  0x00\n    /* \"#utility.yul\":3480:3486   */\n  not\n    /* \"#utility.yul\":3472:3477   */\n  dup5\n    /* \"#utility.yul\":3469:3470   */\n  0x08\n    /* \"#utility.yul\":3465:3478   */\n  mul\n    /* \"#utility.yul\":3436:3487   */\n  tag_23\n  jump\t// in\ntag_69:\n    /* \"#utility.yul\":3432:3488   */\n  not\n    /* \"#utility.yul\":3517:3521   */\n  dup1\n    /* \"#utility.yul\":3511:3515   */\n  dup4\n    /* \"#utility.yul\":3507:3522   */\n  and\n    /* \"#utility.yul\":3497:3522   */\n  swap2\n  pop\n    /* \"#utility.yul\":3410:3528   */\n  pop\n    /* \"#utility.yul\":3359:3528   */\n  swap3\n  swap2\n  pop\n  pop\n  jump\t// out\n    /* \"#utility.yul\":3533:3828   */\ntag_25:\n    /* \"#utility.yul\":3609:3613   */\n  0x00\n    /* \"#utility.yul\":3755:3784   */\n  tag_71\n    /* \"#utility.yul\":3780:3783   */\n  dup4\n    /* \"#utility.yul\":3774:3778   */\n  dup4\n    /* \"#utility.yul\":3755:3784   */\n  tag_24\n  jump\t// in\ntag_71:\n    /* \"#utility.yul\":3747:3784   */\n  swap2\n  pop\n    /* \"#utility.yul\":3817:3820   */\n  dup3\n    /* \"#utility.yul\":3814:3815   */\n  0x02\n    /* \"#utility.yul\":3810:3821   */\n  mul\n    /* \"#utility.yul\":3804:3808   */\n  dup3\n    /* \"#utility.yul\":3801:3822   */\n  or\n    /* \"#utility.yul\":3793:3822   */\n  swap1\n  pop\n    /* \"#utility.yul\":3533:3828   */\n  swap3\n  swap2\n  pop\n  pop\n  jump\t// out\n    /* \"#utility.yul\":3833:5228   */\ntag_2:\n    /* \"#utility.yul\":3950:3987   */\n  tag_73\n    /* \"#utility.yul\":3983:3986   */\n  dup3\n    /* \"#utility.yul\":3950:3987   */\n  tag_6\n  jump\t// in\ntag_73:\n    /* \"#utility.yul\":4052:4070   */\n  0xffffffffffffffff\n    /* \"#utility.yul\":4044:4050   */\n  dup2\n    /* \"#utility.yul\":4041:4071   */\n  gt\n    /* \"#utility.yul\":4038:4094   */\n  iszero\n  tag_74\n  jumpi\n    /* \"#utility.yul\":4074:4092   */\n  tag_75\n  tag_7\n  jump\t// in\ntag_75:\n    /* \"#utility.yul\":4038:4094   */\ntag_74:\n    /* \"#utility.yul\":4118:4156   */\n  tag_76\n    /* \"#utility.yul\":4150:4154   */\n  dup3\n    /* \"#utility.yul\":4144:4155   */\n  sload\n    /* \"#utility.yul\":4118:4156   */\n  tag_9\n  jump\t// in\ntag_76:\n    /* \"#utility.yul\":4203:4270   */\n  tag_77\n    /* \"#utility.yul\":4263:4269   */\n  dup3\n    /* \"#utility.yul\":4255:4261   */\n  dup3\n    /* \"#utility.yul\":4249:4253   */\n  dup6\n    /* \"#utility.yul\":4203:4270   */\n  tag_22\n  jump\t// in\ntag_77:\n    /* \"#utility.yul\":4297:4298   */\n  0x00\n    /* \"#utility.yul\":4321:4325   */\n  0x20\n    /* \"#utility.yul\":4308:4325   */\n  swap1\n  pop\n    /* \"#utility.yul\":4353:4355   */\n  0x1f\n    /* \"#utility.yul\":4345:4351   */\n  dup4\n    /* \"#utility.yul\":4342:4356   */\n  gt\n    /* \"#utility.yul\":4370:4371   */\n  0x01\n    /* \"#utility.yul\":4365:4983   */\n  dup2\n  eq\n  tag_79\n  jumpi\n    /* \"#utility.yul\":5027:5028   */\n  0x00\n    /* \"#utility.yul\":5044:5050   */\n  dup5\n    /* \"#utility.yul\":5041:5118   */\n  iszero\n  tag_80\n  jumpi\n    /* \"#utility.yul\":5093:5102   */\n  dup3\n    /* \"#utility.yul\":5088:5091   */\n  dup8\n    /* \"#utility.yul\":5084:5103   */\n  add\n    /* \"#utility.yul\":5078:5104   */\n  mload\n    /* \"#utility.yul\":5069:5104   */\n  swap1\n  pop\n    /* \"#utility.yul\":5041:5118   */\ntag_80:\n    /* \"#utility.yul\":5144:5211   */\n  tag_81\n    /* \"#utility.yul\":5204:5210   */\n  dup6\n    /* \"#utility.yul\":5197:5202   */\n  dup3\n    /* \"#utility.yul\":5144:5211   */\n  tag_25\n  jump\t// in\ntag_81:\n    /* \"#utility.yul\":5138:5142   */\n  dup7\n    /* \"#utility.yul\":5131:5212   */\n  sstore\n    /* \"#utility.yul\":5000:5222   */\n  pop\n    /* \"#utility.yul\":4335:5222   */\n  jump(tag_78)\n    /* \"#utility.yul\":4365:4983   */\ntag_79:\n    /* \"#utility.yul\":4417:4421   */\n  0x1f\n    /* \"#utility.yul\":4413:4422   */\n  not\n    /* \"#utility.yul\":4405:4411   */\n  dup5\n    /* \"#utility.yul\":4401:4423   */\n  and\n    /* \"#utility.yul\":4451:4488   */\n  tag_82\n    /* \"#utility.yul\":4483:4487   */\n  dup7\n    /* \"#utility.yul\":4451:4488   */\n  tag_10\n  jump\t// in\ntag_82:\n    /* \"#utility.yul\":4510:4511   */\n  0x00\n    /* \"#utility.yul\":4524:4732   */\ntag_83:\n    /* \"#utility.yul\":4538:4545   */\n  dup3\n    /* \"#utility.yul\":4535:4536   */\n  dup2\n    /* \"#utility.yul\":4532:4546   */\n  lt\n    /* \"#utility.yul\":4524:4732   */\n  iszero\n  tag_85\n  jumpi\n    /* \"#utility.yul\":4617:4626   */\n  dup5\n    /* \"#utility.yul\":4612:4615   */\n  dup10\n    /* \"#utility.yul\":4608:4627   */\n  add\n    /* \"#utility.yul\":4602:4628   */\n  mload\n    /* \"#utility.yul\":4594:4600   */\n  dup3\n    /* \"#utility.yul\":4587:4629   */\n  sstore\n    /* \"#utility.yul\":4668:4669   */\n  0x01\n    /* \"#utility.yul\":4660:4666   */\n  dup3\n    /* \"#utility.yul\":4656:4670   */\n  add\n    /* \"#utility.yul\":4646:4670   */\n  swap2\n  pop\n    /* \"#utility.yul\":4715:4717   */\n  0x20\n    /* \"#utility.yul\":4704:4713   */\n  dup6\n    /* \"#utility.yul\":4700:4718   */\n  add\n    /* \"#utility.yul\":4687:4718   */\n  swap5\n  pop\n    /* \"#utility.yul\":4561:4565   */\n  0x20\n    /* \"#utility.yul\":4558:4559   */\n  dup2\n    /* \"#utility.yul\":4554:4566   */\n  add\n    /* \"#utility.yul\":4549:4566   */\n  swap1\n  pop\n    /* \"#utility.yul\":4524:4732   */\n  jump(tag_83)\ntag_85:\n    /* \"#utility.yul\":4760:4766   */\n  dup7\n    /* \"#utility.yul\":4751:4758   */\n  dup4\n    /* \"#utility.yul\":4748:4767   */\n  lt\n    /* \"#utility.yul\":4745:4924   */\n  iszero\n  tag_86\n  jumpi\n    /* \"#utility.yul\":4818:4827   */\n  dup5\n    /* \"#utility.yul\":4813:4816   */\n  dup10\n    /* \"#utility.yul\":4809:4828   */\n  add\n    /* \"#utility.yul\":4803:4829   */\n  mload\n    /* \"#utility.yul\":4861:4909   */\n  tag_87\n    /* \"#utility.yul\":4903:4907   */\n  0x1f\n    /* \"#utility.yul\":4895:4901   */\n  dup10\n    /* \"#utility.yul\":4891:4908   */\n  and\n    /* \"#utility.yul\":4880:4889   */\n  dup3\n    /* \"#utility.yul\":4861:4909   */\n  tag_24\n  jump\t// in\ntag_87:\n    /* \"#utility.yul\":4853:4859   */\n  dup4\n    /* \"#utility.yul\":4846:4910   */\n  sstore\n    /* \"#utility.yul\":4768:4924   */\n  pop\n    /* \"#utility.yul\":4745:4924   */\ntag_86:\n    /* \"#utility.yul\":4970:4971   */\n  0x01\n    /* \"#utility.yul\":4966:4967   */\n  0x02\n    /* \"#utility.yul\":4958:4964   */\n  dup9\n    /* \"#utility.yul\":4954:4968   */\n  mul\n    /* \"#utility.yul\":4950:4972   */\n  add\n    /* \"#utility.yul\":4944:4948   */\n  dup9\n    /* \"#utility.yul\":4937:4973   */\n  sstore\n    /* \"#utility.yul\":4372:4983   */\n  pop\n  pop\n  pop\n    /* \"#utility.yul\":4335:5222   */\ntag_78:\n  pop\n    /* \"#utility.yul\":3925:5228   */\n  pop\n  pop\n  pop\n    /* \"#utility.yul\":3833:5228   */\n  pop\n  pop\n  jump\t// out\n    /* \"premiere/Premiere.sol\":967:3712  contract Premiere {... */\ntag_5:\n  dataSize(sub_0)\n  dup1\n  dataOffset(sub_0)\n  0x00\n  codecopy\n  0x00\n  return\nstop\n\nsub_0: assembly {\n        /* \"premiere/Premiere.sol\":967:3712  contract Premiere {... */\n      mstore(0x40, 0x80)\n      callvalue\n      dup1\n      iszero\n      tag_1\n      jumpi\n      0x00\n      dup1\n      revert\n    tag_1:\n      pop\n      jumpi(tag_2, lt(calldatasize, 0x04))\n      shr(0xe0, calldataload(0x00))\n      dup1\n      0xfdd58e\n      eq\n      tag_3\n      jumpi\n      dup1\n      0xbb79f587\n      eq\n      tag_4\n      jumpi\n    tag_2:\n      0x00\n      dup1\n      revert\n        /* \"premiere/Premiere.sol\":2364:2694  function balanceOf(address _owner, uint256 _id) external view returns (uint256) {... */\n    tag_3:\n      tag_5\n      0x04\n      dup1\n      calldatasize\n      sub\n      dup2\n      add\n      swap1\n      tag_6\n      swap2\n      swap1\n      tag_7\n      jump\t// in\n    tag_6:\n      tag_8\n      jump\t// in\n    tag_5:\n      mload(0x40)\n      tag_9\n      swap2\n      swap1\n      tag_10\n      jump\t// in\n    tag_9:\n      mload(0x40)\n      dup1\n      swap2\n      sub\n      swap1\n      return\n        /* \"premiere/Premiere.sol\":1405:2358  function isSubscribed(... */\n    tag_4:\n      tag_11\n      0x04\n      dup1\n      calldatasize\n      sub\n      dup2\n      add\n      swap1\n      tag_12\n      swap2\n      swap1\n      tag_13\n      jump\t// in\n    tag_12:\n      tag_14\n      jump\t// in\n    tag_11:\n      mload(0x40)\n      tag_15\n      swap2\n      swap1\n      tag_16\n      jump\t// in\n    tag_15:\n      mload(0x40)\n      dup1\n      swap2\n      sub\n      swap1\n      return\n        /* \"premiere/Premiere.sol\":2364:2694  function balanceOf(address _owner, uint256 _id) external view returns (uint256) {... */\n    tag_8:\n        /* \"premiere/Premiere.sol\":2435:2442  uint256 */\n      0x00\n        /* \"premiere/Premiere.sol\":2454:2466  address _tba */\n      dup1\n        /* \"premiere/Premiere.sol\":2479:2491  _tbaRegistry */\n      0x03\n      0x00\n      swap1\n      sload\n      swap1\n      0x0100\n      exp\n      swap1\n      div\n      0xffffffffffffffffffffffffffffffffffffffff\n      and\n        /* \"premiere/Premiere.sol\":2469:2500  IRegistry(_tbaRegistry).account */\n      0xffffffffffffffffffffffffffffffffffffffff\n      and\n      0x192df655\n        /* \"premiere/Premiere.sol\":2501:2516  _lensHubAddress */\n      0x02\n      0x00\n      swap1\n      sload\n      swap1\n      0x0100\n      exp\n      swap1\n      div\n      0xffffffffffffffffffffffffffffffffffffffff\n      and\n        /* \"premiere/Premiere.sol\":2518:2521  _id */\n      dup6\n        /* \"premiere/Premiere.sol\":2469:2522  IRegistry(_tbaRegistry).account(_lensHubAddress, _id) */\n      mload(0x40)\n      dup4\n      0xffffffff\n      and\n      0xe0\n      shl\n      dup2\n      mstore\n      0x04\n      add\n      tag_18\n      swap3\n      swap2\n      swap1\n      tag_19\n      jump\t// in\n    tag_18:\n      0x20\n      mload(0x40)\n      dup1\n      dup4\n      sub\n      dup2\n      dup7\n      gas\n      staticcall\n      iszero\n      dup1\n      iszero\n      tag_21\n      jumpi\n      returndatasize\n      0x00\n      dup1\n      returndatacopy\n      revert(0x00, returndatasize)\n    tag_21:\n      pop\n      pop\n      pop\n      pop\n      mload(0x40)\n      returndatasize\n      not(0x1f)\n      0x1f\n      dup3\n      add\n      and\n      dup3\n      add\n      dup1\n      0x40\n      mstore\n      pop\n      dup2\n      add\n      swap1\n      tag_22\n      swap2\n      swap1\n      tag_23\n      jump\t// in\n    tag_22:\n        /* \"premiere/Premiere.sol\":2454:2522  address _tba = IRegistry(_tbaRegistry).account(_lensHubAddress, _id) */\n      swap1\n      pop\n        /* \"premiere/Premiere.sol\":2536:2614  isSubscribed(_owner, _tba, Strings.toString(_id), _minFlowRate, _maxTimestamp) */\n      tag_24\n        /* \"premiere/Premiere.sol\":2549:2555  _owner */\n      dup5\n        /* \"premiere/Premiere.sol\":2557:2561  _tba */\n      dup3\n        /* \"premiere/Premiere.sol\":2563:2584  Strings.toString(_id) */\n      tag_25\n        /* \"premiere/Premiere.sol\":2580:2583  _id */\n      dup7\n        /* \"premiere/Premiere.sol\":2563:2579  Strings.toString */\n      tag_26\n        /* \"premiere/Premiere.sol\":2563:2584  Strings.toString(_id) */\n      jump\t// in\n    tag_25:\n        /* \"premiere/Premiere.sol\":2586:2598  _minFlowRate */\n      0x04\n        /* \"premiere/Premiere.sol\":2536:2614  isSubscribed(_owner, _tba, Strings.toString(_id), _minFlowRate, _maxTimestamp) */\n      dup1\n      sload\n      tag_27\n      swap1\n      tag_28\n      jump\t// in\n    tag_27:\n      dup1\n      0x1f\n      add\n      0x20\n      dup1\n      swap2\n      div\n      mul\n      0x20\n      add\n      mload(0x40)\n      swap1\n      dup2\n      add\n      0x40\n      mstore\n      dup1\n      swap3\n      swap2\n      swap1\n      dup2\n      dup2\n      mstore\n      0x20\n      add\n      dup3\n      dup1\n      sload\n      tag_29\n      swap1\n      tag_28\n      jump\t// in\n    tag_29:\n      dup1\n      iszero\n      tag_30\n      jumpi\n      dup1\n      0x1f\n      lt\n      tag_31\n      jumpi\n      0x0100\n      dup1\n      dup4\n      sload\n      div\n      mul\n      dup4\n      mstore\n      swap2\n      0x20\n      add\n      swap2\n      jump(tag_30)\n    tag_31:\n      dup3\n      add\n      swap2\n      swap1\n      0x00\n      mstore\n      keccak256(0x00, 0x20)\n      swap1\n    tag_32:\n      dup2\n      sload\n      dup2\n      mstore\n      swap1\n      0x01\n      add\n      swap1\n      0x20\n      add\n      dup1\n      dup4\n      gt\n      tag_32\n      jumpi\n      dup3\n      swap1\n      sub\n      0x1f\n      and\n      dup3\n      add\n      swap2\n    tag_30:\n      pop\n      pop\n      pop\n      pop\n      pop\n        /* \"premiere/Premiere.sol\":2600:2613  _maxTimestamp */\n      0x05\n        /* \"premiere/Premiere.sol\":2536:2614  isSubscribed(_owner, _tba, Strings.toString(_id), _minFlowRate, _maxTimestamp) */\n      dup1\n      sload\n      tag_33\n      swap1\n      tag_28\n      jump\t// in\n    tag_33:\n      dup1\n      0x1f\n      add\n      0x20\n      dup1\n      swap2\n      div\n      mul\n      0x20\n      add\n      mload(0x40)\n      swap1\n      dup2\n      add\n      0x40\n      mstore\n      dup1\n      swap3\n      swap2\n      swap1\n      dup2\n      dup2\n      mstore\n      0x20\n      add\n      dup3\n      dup1\n      sload\n      tag_34\n      swap1\n      tag_28\n      jump\t// in\n    tag_34:\n      dup1\n      iszero\n      tag_35\n      jumpi\n      dup1\n      0x1f\n      lt\n      tag_36\n      jumpi\n      0x0100\n      dup1\n      dup4\n      sload\n      div\n      mul\n      dup4\n      mstore\n      swap2\n      0x20\n      add\n      swap2\n      jump(tag_35)\n    tag_36:\n      dup3\n      add\n      swap2\n      swap1\n      0x00\n      mstore\n      keccak256(0x00, 0x20)\n      swap1\n    tag_37:\n      dup2\n      sload\n      dup2\n      mstore\n      swap1\n      0x01\n      add\n      swap1\n      0x20\n      add\n      dup1\n      dup4\n      gt\n      tag_37\n      jumpi\n      dup3\n      swap1\n      sub\n      0x1f\n      and\n      dup3\n      add\n      swap2\n    tag_35:\n      pop\n      pop\n      pop\n      pop\n      pop\n        /* \"premiere/Premiere.sol\":2536:2548  isSubscribed */\n      tag_14\n        /* \"premiere/Premiere.sol\":2536:2614  isSubscribed(_owner, _tba, Strings.toString(_id), _minFlowRate, _maxTimestamp) */\n      jump\t// in\n    tag_24:\n        /* \"premiere/Premiere.sol\":2532:2688  if (isSubscribed(_owner, _tba, Strings.toString(_id), _minFlowRate, _maxTimestamp)) {... */\n      iszero\n      tag_38\n      jumpi\n        /* \"premiere/Premiere.sol\":2637:2638  1 */\n      0x01\n        /* \"premiere/Premiere.sol\":2630:2638  return 1 */\n      swap2\n      pop\n      pop\n      jump(tag_17)\n        /* \"premiere/Premiere.sol\":2532:2688  if (isSubscribed(_owner, _tba, Strings.toString(_id), _minFlowRate, _maxTimestamp)) {... */\n    tag_38:\n        /* \"premiere/Premiere.sol\":2676:2677  0 */\n      0x00\n        /* \"premiere/Premiere.sol\":2669:2677  return 0 */\n      swap2\n      pop\n      pop\n        /* \"premiere/Premiere.sol\":2364:2694  function balanceOf(address _owner, uint256 _id) external view returns (uint256) {... */\n    tag_17:\n      swap3\n      swap2\n      pop\n      pop\n      jump\t// out\n        /* \"premiere/Premiere.sol\":1405:2358  function isSubscribed(... */\n    tag_14:\n        /* \"premiere/Premiere.sol\":1608:1623  bool subscribed */\n      0x00\n        /* \"premiere/Premiere.sol\":1664:1680  IERC721 _lensHub */\n      dup1\n        /* \"premiere/Premiere.sol\":1691:1706  _lensHubAddress */\n      0x02\n      0x00\n      swap1\n      sload\n      swap1\n      0x0100\n      exp\n      swap1\n      div\n      0xffffffffffffffffffffffffffffffffffffffff\n      and\n        /* \"premiere/Premiere.sol\":1664:1707  IERC721 _lensHub = IERC721(_lensHubAddress) */\n      swap1\n      pop\n        /* \"premiere/Premiere.sol\":1717:1746  IConstantFlowAgreementV1 _cfa */\n      0x00\n        /* \"premiere/Premiere.sol\":1787:1798  _cfaAddress */\n      dup1\n      0x00\n      swap1\n      sload\n      swap1\n      0x0100\n      exp\n      swap1\n      div\n      0xffffffffffffffffffffffffffffffffffffffff\n      and\n        /* \"premiere/Premiere.sol\":1717:1808  IConstantFlowAgreementV1 _cfa = IConstantFlowAgreementV1(... */\n      swap1\n      pop\n        /* \"premiere/Premiere.sol\":1819:1836  uint256 timestamp */\n      0x00\n        /* \"premiere/Premiere.sol\":1838:1852  int96 flowRate */\n      dup1\n        /* \"premiere/Premiere.sol\":1860:1864  _cfa */\n      dup3\n        /* \"premiere/Premiere.sol\":1860:1872  _cfa.getFlow */\n      0xffffffffffffffffffffffffffffffffffffffff\n      and\n      0xe6a1e888\n        /* \"premiere/Premiere.sol\":1903:1921  _superTokenAddress */\n      0x01\n      0x00\n      swap1\n      sload\n      swap1\n      0x0100\n      exp\n      swap1\n      div\n      0xffffffffffffffffffffffffffffffffffffffff\n      and\n        /* \"premiere/Premiere.sol\":1936:1942  sender */\n      dup13\n        /* \"premiere/Premiere.sol\":1956:1964  receiver */\n      dup13\n        /* \"premiere/Premiere.sol\":1860:1974  _cfa.getFlow(... */\n      mload(0x40)\n      dup5\n      0xffffffff\n      and\n      0xe0\n      shl\n      dup2\n      mstore\n      0x04\n      add\n      tag_41\n      swap4\n      swap3\n      swap2\n      swap1\n      tag_42\n      jump\t// in\n    tag_41:\n      0x80\n      mload(0x40)\n      dup1\n      dup4\n      sub\n      dup2\n      dup7\n      gas\n      staticcall\n      iszero\n      dup1\n      iszero\n      tag_44\n      jumpi\n      returndatasize\n      0x00\n      dup1\n      returndatacopy\n      revert(0x00, returndatasize)\n    tag_44:\n      pop\n      pop\n      pop\n      pop\n      mload(0x40)\n      returndatasize\n      not(0x1f)\n      0x1f\n      dup3\n      add\n      and\n      dup3\n      add\n      dup1\n      0x40\n      mstore\n      pop\n      dup2\n      add\n      swap1\n      tag_45\n      swap2\n      swap1\n      tag_46\n      jump\t// in\n    tag_45:\n        /* \"premiere/Premiere.sol\":1818:1974  (uint256 timestamp, int96 flowRate, , ) = _cfa.getFlow(... */\n      pop\n      pop\n      swap2\n      pop\n      swap2\n      pop\n        /* \"premiere/Premiere.sol\":1984:1998  address _owner */\n      0x00\n        /* \"premiere/Premiere.sol\":2001:2009  _lensHub */\n      dup5\n        /* \"premiere/Premiere.sol\":2001:2017  _lensHub.ownerOf */\n      0xffffffffffffffffffffffffffffffffffffffff\n      and\n      0x6352211e\n        /* \"premiere/Premiere.sol\":2023:2042  parseInt(profileId) */\n      tag_47\n        /* \"premiere/Premiere.sol\":2032:2041  profileId */\n      dup12\n        /* \"premiere/Premiere.sol\":2023:2031  parseInt */\n      tag_48\n        /* \"premiere/Premiere.sol\":2023:2042  parseInt(profileId) */\n      jump\t// in\n    tag_47:\n        /* \"premiere/Premiere.sol\":2001:2044  _lensHub.ownerOf(uint(parseInt(profileId))) */\n      mload(0x40)\n      dup3\n      0xffffffff\n      and\n      0xe0\n      shl\n      dup2\n      mstore\n      0x04\n      add\n      tag_49\n      swap2\n      swap1\n      tag_10\n      jump\t// in\n    tag_49:\n      0x20\n      mload(0x40)\n      dup1\n      dup4\n      sub\n      dup2\n      dup7\n      gas\n      staticcall\n      iszero\n      dup1\n      iszero\n      tag_51\n      jumpi\n      returndatasize\n      0x00\n      dup1\n      returndatacopy\n      revert(0x00, returndatasize)\n    tag_51:\n      pop\n      pop\n      pop\n      pop\n      mload(0x40)\n      returndatasize\n      not(0x1f)\n      0x1f\n      dup3\n      add\n      and\n      dup3\n      add\n      dup1\n      0x40\n      mstore\n      pop\n      dup2\n      add\n      swap1\n      tag_52\n      swap2\n      swap1\n      tag_23\n      jump\t// in\n    tag_52:\n        /* \"premiere/Premiere.sol\":1984:2044  address _owner = _lensHub.ownerOf(uint(parseInt(profileId))) */\n      swap1\n      pop\n        /* \"premiere/Premiere.sol\":2055:2071  int256 _flowRate */\n      0x00\n        /* \"premiere/Premiere.sol\":2078:2099  parseInt(minFlowRate) */\n      tag_53\n        /* \"premiere/Premiere.sol\":2087:2098  minFlowRate */\n      dup10\n        /* \"premiere/Premiere.sol\":2078:2086  parseInt */\n      tag_48\n        /* \"premiere/Premiere.sol\":2078:2099  parseInt(minFlowRate) */\n      jump\t// in\n    tag_53:\n        /* \"premiere/Premiere.sol\":2055:2100  int256 _flowRate = int(parseInt(minFlowRate)) */\n      swap1\n      pop\n        /* \"premiere/Premiere.sol\":2110:2128  uint256 _timestamp */\n      0x00\n        /* \"premiere/Premiere.sol\":2131:2153  parseInt(maxTimestamp) */\n      tag_54\n        /* \"premiere/Premiere.sol\":2140:2152  maxTimestamp */\n      dup10\n        /* \"premiere/Premiere.sol\":2131:2139  parseInt */\n      tag_48\n        /* \"premiere/Premiere.sol\":2131:2153  parseInt(maxTimestamp) */\n      jump\t// in\n    tag_54:\n        /* \"premiere/Premiere.sol\":2110:2153  uint256 _timestamp = parseInt(maxTimestamp) */\n      swap1\n      pop\n        /* \"premiere/Premiere.sol\":2194:2203  _flowRate */\n      dup2\n        /* \"premiere/Premiere.sol\":2182:2190  flowRate */\n      dup5\n        /* \"premiere/Premiere.sol\":2182:2203  flowRate >= _flowRate */\n      0x0b\n      signextend\n      slt\n      iszero\n        /* \"premiere/Premiere.sol\":2182:2266  flowRate >= _flowRate &&... */\n      dup1\n      iszero\n      tag_55\n      jumpi\n      pop\n        /* \"premiere/Premiere.sol\":2238:2239  0 */\n      0x00\n        /* \"premiere/Premiere.sol\":2224:2234  _timestamp */\n      dup2\n        /* \"premiere/Premiere.sol\":2224:2239  _timestamp == 0 */\n      eq\n        /* \"premiere/Premiere.sol\":2224:2265  _timestamp == 0 || timestamp < _timestamp */\n      dup1\n      tag_56\n      jumpi\n      pop\n        /* \"premiere/Premiere.sol\":2255:2265  _timestamp */\n      dup1\n        /* \"premiere/Premiere.sol\":2243:2252  timestamp */\n      dup6\n        /* \"premiere/Premiere.sol\":2243:2265  timestamp < _timestamp */\n      lt\n        /* \"premiere/Premiere.sol\":2224:2265  _timestamp == 0 || timestamp < _timestamp */\n    tag_56:\n        /* \"premiere/Premiere.sol\":2182:2266  flowRate >= _flowRate &&... */\n    tag_55:\n        /* \"premiere/Premiere.sol\":2181:2299  (flowRate >= _flowRate &&... */\n      dup1\n      tag_57\n      jumpi\n      pop\n        /* \"premiere/Premiere.sol\":2293:2299  _owner */\n      dup3\n        /* \"premiere/Premiere.sol\":2283:2299  sender == _owner */\n      0xffffffffffffffffffffffffffffffffffffffff\n      and\n        /* \"premiere/Premiere.sol\":2283:2289  sender */\n      dup14\n        /* \"premiere/Premiere.sol\":2283:2299  sender == _owner */\n      0xffffffffffffffffffffffffffffffffffffffff\n      and\n      eq\n        /* \"premiere/Premiere.sol\":2181:2299  (flowRate >= _flowRate &&... */\n    tag_57:\n        /* \"premiere/Premiere.sol\":2164:2352  if (... */\n      iszero\n      tag_58\n      jumpi\n        /* \"premiere/Premiere.sol\":2337:2341  true */\n      0x01\n        /* \"premiere/Premiere.sol\":2324:2341  subscribed = true */\n      swap8\n      pop\n        /* \"premiere/Premiere.sol\":2164:2352  if (... */\n    tag_58:\n        /* \"premiere/Premiere.sol\":1625:2358  {... */\n      pop\n      pop\n      pop\n      pop\n      pop\n      pop\n      pop\n        /* \"premiere/Premiere.sol\":1405:2358  function isSubscribed(... */\n      swap6\n      swap5\n      pop\n      pop\n      pop\n      pop\n      pop\n      jump\t// out\n        /* \"@openzeppelin/contracts/utils/Strings.sol\":447:1143  function toString(uint256 value) internal pure returns (string memory) {... */\n    tag_26:\n        /* \"@openzeppelin/contracts/utils/Strings.sol\":503:516  string memory */\n      0x60\n        /* \"@openzeppelin/contracts/utils/Strings.sol\":552:566  uint256 length */\n      0x00\n        /* \"@openzeppelin/contracts/utils/Strings.sol\":589:590  1 */\n      0x01\n        /* \"@openzeppelin/contracts/utils/Strings.sol\":569:586  Math.log10(value) */\n      tag_60\n        /* \"@openzeppelin/contracts/utils/Strings.sol\":580:585  value */\n      dup5\n        /* \"@openzeppelin/contracts/utils/Strings.sol\":569:579  Math.log10 */\n      tag_61\n        /* \"@openzeppelin/contracts/utils/Strings.sol\":569:586  Math.log10(value) */\n      jump\t// in\n    tag_60:\n        /* \"@openzeppelin/contracts/utils/Strings.sol\":569:590  Math.log10(value) + 1 */\n      add\n        /* \"@openzeppelin/contracts/utils/Strings.sol\":552:590  uint256 length = Math.log10(value) + 1 */\n      swap1\n      pop\n        /* \"@openzeppelin/contracts/utils/Strings.sol\":604:624  string memory buffer */\n      0x00\n        /* \"@openzeppelin/contracts/utils/Strings.sol\":638:644  length */\n      dup2\n        /* \"@openzeppelin/contracts/utils/Strings.sol\":627:645  new string(length) */\n      0xffffffffffffffff\n      dup2\n      gt\n      iszero\n      tag_62\n      jumpi\n      tag_63\n      tag_64\n      jump\t// in\n    tag_63:\n    tag_62:\n      mload(0x40)\n      swap1\n      dup1\n      dup3\n      mstore\n      dup1\n      0x1f\n      add\n      not(0x1f)\n      and\n      0x20\n      add\n      dup3\n      add\n      0x40\n      mstore\n      dup1\n      iszero\n      tag_65\n      jumpi\n      dup2\n      0x20\n      add\n      0x01\n      dup3\n      mul\n      dup1\n      calldatasize\n      dup4\n      calldatacopy\n      dup1\n      dup3\n      add\n      swap2\n      pop\n      pop\n      swap1\n      pop\n    tag_65:\n      pop\n        /* \"@openzeppelin/contracts/utils/Strings.sol\":604:645  string memory buffer = new string(length) */\n      swap1\n      pop\n        /* \"@openzeppelin/contracts/utils/Strings.sol\":659:670  uint256 ptr */\n      0x00\n        /* \"@openzeppelin/contracts/utils/Strings.sol\":785:791  length */\n      dup3\n        /* \"@openzeppelin/contracts/utils/Strings.sol\":781:783  32 */\n      0x20\n        /* \"@openzeppelin/contracts/utils/Strings.sol\":777:792  add(32, length) */\n      add\n        /* \"@openzeppelin/contracts/utils/Strings.sol\":769:775  buffer */\n      dup3\n        /* \"@openzeppelin/contracts/utils/Strings.sol\":765:793  add(buffer, add(32, length)) */\n      add\n        /* \"@openzeppelin/contracts/utils/Strings.sol\":758:793  ptr := add(buffer, add(32, length)) */\n      swap1\n      pop\n        /* \"@openzeppelin/contracts/utils/Strings.sol\":820:1100  while (true) {... */\n    tag_66:\n        /* \"@openzeppelin/contracts/utils/Strings.sol\":827:831  true */\n      0x01\n        /* \"@openzeppelin/contracts/utils/Strings.sol\":820:1100  while (true) {... */\n      iszero\n      tag_67\n      jumpi\n        /* \"@openzeppelin/contracts/utils/Strings.sol\":851:856  ptr-- */\n      dup1\n      dup1\n      0x01\n      swap1\n      sub\n      swap2\n      pop\n      pop\n        /* \"@openzeppelin/contracts/utils/Strings.sol\":990:998  _SYMBOLS */\n      0x3031323334353637383961626364656600000000000000000000000000000000\n        /* \"@openzeppelin/contracts/utils/Strings.sol\":985:987  10 */\n      0x0a\n        /* \"@openzeppelin/contracts/utils/Strings.sol\":978:983  value */\n      dup7\n        /* \"@openzeppelin/contracts/utils/Strings.sol\":974:988  mod(value, 10) */\n      mod\n        /* \"@openzeppelin/contracts/utils/Strings.sol\":969:999  byte(mod(value, 10), _SYMBOLS) */\n      byte\n        /* \"@openzeppelin/contracts/utils/Strings.sol\":964:967  ptr */\n      dup2\n        /* \"@openzeppelin/contracts/utils/Strings.sol\":956:1000  mstore8(ptr, byte(mod(value, 10), _SYMBOLS)) */\n      mstore8\n        /* \"@openzeppelin/contracts/utils/Strings.sol\":1044:1046  10 */\n      0x0a\n        /* \"@openzeppelin/contracts/utils/Strings.sol\":1035:1046  value /= 10 */\n      dup6\n      dup2\n      tag_68\n      jumpi\n      tag_69\n      tag_70\n      jump\t// in\n    tag_69:\n    tag_68:\n      div\n      swap5\n      pop\n        /* \"@openzeppelin/contracts/utils/Strings.sol\":1077:1078  0 */\n      0x00\n        /* \"@openzeppelin/contracts/utils/Strings.sol\":1068:1073  value */\n      dup6\n        /* \"@openzeppelin/contracts/utils/Strings.sol\":1068:1078  value == 0 */\n      sub\n        /* \"@openzeppelin/contracts/utils/Strings.sol\":820:1100  while (true) {... */\n      tag_66\n        /* \"@openzeppelin/contracts/utils/Strings.sol\":1064:1085  if (value == 0) break */\n      jumpi\n        /* \"@openzeppelin/contracts/utils/Strings.sol\":820:1100  while (true) {... */\n    tag_67:\n        /* \"@openzeppelin/contracts/utils/Strings.sol\":1120:1126  buffer */\n      dup2\n        /* \"@openzeppelin/contracts/utils/Strings.sol\":1113:1126  return buffer */\n      swap4\n      pop\n      pop\n      pop\n      pop\n        /* \"@openzeppelin/contracts/utils/Strings.sol\":447:1143  function toString(uint256 value) internal pure returns (string memory) {... */\n      swap2\n      swap1\n      pop\n      jump\t// out\n        /* \"premiere/Premiere.sol\":2700:2832  function parseInt(... */\n    tag_48:\n        /* \"premiere/Premiere.sol\":2773:2791  uint256 _parsedInt */\n      0x00\n        /* \"premiere/Premiere.sol\":2810:2825  parseInt(_a, 0) */\n      tag_73\n        /* \"premiere/Premiere.sol\":2819:2821  _a */\n      dup3\n        /* \"premiere/Premiere.sol\":2823:2824  0 */\n      0x00\n        /* \"premiere/Premiere.sol\":2810:2818  parseInt */\n      tag_74\n        /* \"premiere/Premiere.sol\":2810:2825  parseInt(_a, 0) */\n      jump\t// in\n    tag_73:\n        /* \"premiere/Premiere.sol\":2803:2825  return parseInt(_a, 0) */\n      swap1\n      pop\n        /* \"premiere/Premiere.sol\":2700:2832  function parseInt(... */\n      swap2\n      swap1\n      pop\n      jump\t// out\n        /* \"@openzeppelin/contracts/utils/math/Math.sol\":10139:11055  function log10(uint256 value) internal pure returns (uint256) {... */\n    tag_61:\n        /* \"@openzeppelin/contracts/utils/math/Math.sol\":10192:10199  uint256 */\n      0x00\n        /* \"@openzeppelin/contracts/utils/math/Math.sol\":10211:10225  uint256 result */\n      dup1\n        /* \"@openzeppelin/contracts/utils/math/Math.sol\":10228:10229  0 */\n      0x00\n        /* \"@openzeppelin/contracts/utils/math/Math.sol\":10211:10229  uint256 result = 0 */\n      swap1\n      pop\n        /* \"@openzeppelin/contracts/utils/math/Math.sol\":10276:10284  10 ** 64 */\n      0x184f03e93ff9f4daa797ed6e38ed64bf6a1f010000000000000000\n        /* \"@openzeppelin/contracts/utils/math/Math.sol\":10267:10272  value */\n      dup4\n        /* \"@openzeppelin/contracts/utils/math/Math.sol\":10267:10284  value >= 10 ** 64 */\n      lt\n        /* \"@openzeppelin/contracts/utils/math/Math.sol\":10263:10366  if (value >= 10 ** 64) {... */\n      tag_76\n      jumpi\n        /* \"@openzeppelin/contracts/utils/math/Math.sol\":10313:10321  10 ** 64 */\n      0x184f03e93ff9f4daa797ed6e38ed64bf6a1f010000000000000000\n        /* \"@openzeppelin/contracts/utils/math/Math.sol\":10304:10321  value /= 10 ** 64 */\n      dup4\n      dup2\n      tag_77\n      jumpi\n      tag_78\n      tag_70\n      jump\t// in\n    tag_78:\n    tag_77:\n      div\n      swap3\n      pop\n        /* \"@openzeppelin/contracts/utils/math/Math.sol\":10349:10351  64 */\n      0x40\n        /* \"@openzeppelin/contracts/utils/math/Math.sol\":10339:10351  result += 64 */\n      dup2\n      add\n      swap1\n      pop\n        /* \"@openzeppelin/contracts/utils/math/Math.sol\":10263:10366  if (value >= 10 ** 64) {... */\n    tag_76:\n        /* \"@openzeppelin/contracts/utils/math/Math.sol\":10392:10400  10 ** 32 */\n      0x04ee2d6d415b85acef8100000000\n        /* \"@openzeppelin/contracts/utils/math/Math.sol\":10383:10388  value */\n      dup4\n        /* \"@openzeppelin/contracts/utils/math/Math.sol\":10383:10400  value >= 10 ** 32 */\n      lt\n        /* \"@openzeppelin/contracts/utils/math/Math.sol\":10379:10482  if (value >= 10 ** 32) {... */\n      tag_79\n      jumpi\n        /* \"@openzeppelin/contracts/utils/math/Math.sol\":10429:10437  10 ** 32 */\n      0x04ee2d6d415b85acef8100000000\n        /* \"@openzeppelin/contracts/utils/math/Math.sol\":10420:10437  value /= 10 ** 32 */\n      dup4\n      dup2\n      tag_80\n      jumpi\n      tag_81\n      tag_70\n      jump\t// in\n    tag_81:\n    tag_80:\n      div\n      swap3\n      pop\n        /* \"@openzeppelin/contracts/utils/math/Math.sol\":10465:10467  32 */\n      0x20\n        /* \"@openzeppelin/contracts/utils/math/Math.sol\":10455:10467  result += 32 */\n      dup2\n      add\n      swap1\n      pop\n        /* \"@openzeppelin/contracts/utils/math/Math.sol\":10379:10482  if (value >= 10 ** 32) {... */\n    tag_79:\n        /* \"@openzeppelin/contracts/utils/math/Math.sol\":10508:10516  10 ** 16 */\n      0x2386f26fc10000\n        /* \"@openzeppelin/contracts/utils/math/Math.sol\":10499:10504  value */\n      dup4\n        /* \"@openzeppelin/contracts/utils/math/Math.sol\":10499:10516  value >= 10 ** 16 */\n      lt\n        /* \"@openzeppelin/contracts/utils/math/Math.sol\":10495:10598  if (value >= 10 ** 16) {... */\n      tag_82\n      jumpi\n        /* \"@openzeppelin/contracts/utils/math/Math.sol\":10545:10553  10 ** 16 */\n      0x2386f26fc10000\n        /* \"@openzeppelin/contracts/utils/math/Math.sol\":10536:10553  value /= 10 ** 16 */\n      dup4\n      dup2\n      tag_83\n      jumpi\n      tag_84\n      tag_70\n      jump\t// in\n    tag_84:\n    tag_83:\n      div\n      swap3\n      pop\n        /* \"@openzeppelin/contracts/utils/math/Math.sol\":10581:10583  16 */\n      0x10\n        /* \"@openzeppelin/contracts/utils/math/Math.sol\":10571:10583  result += 16 */\n      dup2\n      add\n      swap1\n      pop\n        /* \"@openzeppelin/contracts/utils/math/Math.sol\":10495:10598  if (value >= 10 ** 16) {... */\n    tag_82:\n        /* \"@openzeppelin/contracts/utils/math/Math.sol\":10624:10631  10 ** 8 */\n      0x05f5e100\n        /* \"@openzeppelin/contracts/utils/math/Math.sol\":10615:10620  value */\n      dup4\n        /* \"@openzeppelin/contracts/utils/math/Math.sol\":10615:10631  value >= 10 ** 8 */\n      lt\n        /* \"@openzeppelin/contracts/utils/math/Math.sol\":10611:10711  if (value >= 10 ** 8) {... */\n      tag_85\n      jumpi\n        /* \"@openzeppelin/contracts/utils/math/Math.sol\":10660:10667  10 ** 8 */\n      0x05f5e100\n        /* \"@openzeppelin/contracts/utils/math/Math.sol\":10651:10667  value /= 10 ** 8 */\n      dup4\n      dup2\n      tag_86\n      jumpi\n      tag_87\n      tag_70\n      jump\t// in\n    tag_87:\n    tag_86:\n      div\n      swap3\n      pop\n        /* \"@openzeppelin/contracts/utils/math/Math.sol\":10695:10696  8 */\n      0x08\n        /* \"@openzeppelin/contracts/utils/math/Math.sol\":10685:10696  result += 8 */\n      dup2\n      add\n      swap1\n      pop\n        /* \"@openzeppelin/contracts/utils/math/Math.sol\":10611:10711  if (value >= 10 ** 8) {... */\n    tag_85:\n        /* \"@openzeppelin/contracts/utils/math/Math.sol\":10737:10744  10 ** 4 */\n      0x2710\n        /* \"@openzeppelin/contracts/utils/math/Math.sol\":10728:10733  value */\n      dup4\n        /* \"@openzeppelin/contracts/utils/math/Math.sol\":10728:10744  value >= 10 ** 4 */\n      lt\n        /* \"@openzeppelin/contracts/utils/math/Math.sol\":10724:10824  if (value >= 10 ** 4) {... */\n      tag_88\n      jumpi\n        /* \"@openzeppelin/contracts/utils/math/Math.sol\":10773:10780  10 ** 4 */\n      0x2710\n        /* \"@openzeppelin/contracts/utils/math/Math.sol\":10764:10780  value /= 10 ** 4 */\n      dup4\n      dup2\n      tag_89\n      jumpi\n      tag_90\n      tag_70\n      jump\t// in\n    tag_90:\n    tag_89:\n      div\n      swap3\n      pop\n        /* \"@openzeppelin/contracts/utils/math/Math.sol\":10808:10809  4 */\n      0x04\n        /* \"@openzeppelin/contracts/utils/math/Math.sol\":10798:10809  result += 4 */\n      dup2\n      add\n      swap1\n      pop\n        /* \"@openzeppelin/contracts/utils/math/Math.sol\":10724:10824  if (value >= 10 ** 4) {... */\n    tag_88:\n        /* \"@openzeppelin/contracts/utils/math/Math.sol\":10850:10857  10 ** 2 */\n      0x64\n        /* \"@openzeppelin/contracts/utils/math/Math.sol\":10841:10846  value */\n      dup4\n        /* \"@openzeppelin/contracts/utils/math/Math.sol\":10841:10857  value >= 10 ** 2 */\n      lt\n        /* \"@openzeppelin/contracts/utils/math/Math.sol\":10837:10937  if (value >= 10 ** 2) {... */\n      tag_91\n      jumpi\n        /* \"@openzeppelin/contracts/utils/math/Math.sol\":10886:10893  10 ** 2 */\n      0x64\n        /* \"@openzeppelin/contracts/utils/math/Math.sol\":10877:10893  value /= 10 ** 2 */\n      dup4\n      dup2\n      tag_92\n      jumpi\n      tag_93\n      tag_70\n      jump\t// in\n    tag_93:\n    tag_92:\n      div\n      swap3\n      pop\n        /* \"@openzeppelin/contracts/utils/math/Math.sol\":10921:10922  2 */\n      0x02\n        /* \"@openzeppelin/contracts/utils/math/Math.sol\":10911:10922  result += 2 */\n      dup2\n      add\n      swap1\n      pop\n        /* \"@openzeppelin/contracts/utils/math/Math.sol\":10837:10937  if (value >= 10 ** 2) {... */\n    tag_91:\n        /* \"@openzeppelin/contracts/utils/math/Math.sol\":10963:10970  10 ** 1 */\n      0x0a\n        /* \"@openzeppelin/contracts/utils/math/Math.sol\":10954:10959  value */\n      dup4\n        /* \"@openzeppelin/contracts/utils/math/Math.sol\":10954:10970  value >= 10 ** 1 */\n      lt\n        /* \"@openzeppelin/contracts/utils/math/Math.sol\":10950:11016  if (value >= 10 ** 1) {... */\n      tag_94\n      jumpi\n        /* \"@openzeppelin/contracts/utils/math/Math.sol\":11000:11001  1 */\n      0x01\n        /* \"@openzeppelin/contracts/utils/math/Math.sol\":10990:11001  result += 1 */\n      dup2\n      add\n      swap1\n      pop\n        /* \"@openzeppelin/contracts/utils/math/Math.sol\":10950:11016  if (value >= 10 ** 1) {... */\n    tag_94:\n        /* \"@openzeppelin/contracts/utils/math/Math.sol\":11042:11048  result */\n      dup1\n        /* \"@openzeppelin/contracts/utils/math/Math.sol\":11035:11048  return result */\n      swap2\n      pop\n      pop\n        /* \"@openzeppelin/contracts/utils/math/Math.sol\":10139:11055  function log10(uint256 value) internal pure returns (uint256) {... */\n      swap2\n      swap1\n      pop\n      jump\t// out\n        /* \"premiere/Premiere.sol\":2838:3710  function parseInt(... */\n    tag_74:\n        /* \"premiere/Premiere.sol\":2928:2946  uint256 _parsedInt */\n      0x00\n        /* \"premiere/Premiere.sol\":2958:2978  bytes memory bresult */\n      dup1\n        /* \"premiere/Premiere.sol\":2987:2989  _a */\n      dup4\n        /* \"premiere/Premiere.sol\":2958:2990  bytes memory bresult = bytes(_a) */\n      swap1\n      pop\n        /* \"premiere/Premiere.sol\":3000:3009  uint mint */\n      0x00\n        /* \"premiere/Premiere.sol\":3023:3036  bool decimals */\n      dup1\n        /* \"premiere/Premiere.sol\":3059:3065  uint i */\n      0x00\n        /* \"premiere/Premiere.sol\":3054:3621  for (uint i = 0; i < bresult.length; i++) {... */\n    tag_96:\n        /* \"premiere/Premiere.sol\":3075:3082  bresult */\n      dup4\n        /* \"premiere/Premiere.sol\":3075:3089  bresult.length */\n      mload\n        /* \"premiere/Premiere.sol\":3071:3072  i */\n      dup2\n        /* \"premiere/Premiere.sol\":3071:3089  i < bresult.length */\n      lt\n        /* \"premiere/Premiere.sol\":3054:3621  for (uint i = 0; i < bresult.length; i++) {... */\n      iszero\n      tag_97\n      jumpi\n        /* \"premiere/Premiere.sol\":3159:3161  48 */\n      0x30\n        /* \"premiere/Premiere.sol\":3143:3150  bresult */\n      dup5\n        /* \"premiere/Premiere.sol\":3151:3152  i */\n      dup3\n        /* \"premiere/Premiere.sol\":3143:3153  bresult[i] */\n      dup2\n      mload\n      dup2\n      lt\n      tag_99\n      jumpi\n      tag_100\n      tag_101\n      jump\t// in\n    tag_100:\n    tag_99:\n      0x20\n      add\n      add\n      mload\n      0xf8\n      shr\n      0xf8\n      shl\n        /* \"premiere/Premiere.sol\":3137:3154  uint8(bresult[i]) */\n      0xf8\n      shr\n        /* \"premiere/Premiere.sol\":3132:3155  uint(uint8(bresult[i])) */\n      0xff\n      and\n        /* \"premiere/Premiere.sol\":3132:3161  uint(uint8(bresult[i])) >= 48 */\n      lt\n      iszero\n        /* \"premiere/Premiere.sol\":3131:3213  (uint(uint8(bresult[i])) >= 48) &&... */\n      dup1\n      iszero\n      tag_102\n      jumpi\n      pop\n        /* \"premiere/Premiere.sol\":3210:3212  57 */\n      0x39\n        /* \"premiere/Premiere.sol\":3194:3201  bresult */\n      dup5\n        /* \"premiere/Premiere.sol\":3202:3203  i */\n      dup3\n        /* \"premiere/Premiere.sol\":3194:3204  bresult[i] */\n      dup2\n      mload\n      dup2\n      lt\n      tag_103\n      jumpi\n      tag_104\n      tag_101\n      jump\t// in\n    tag_104:\n    tag_103:\n      0x20\n      add\n      add\n      mload\n      0xf8\n      shr\n      0xf8\n      shl\n        /* \"premiere/Premiere.sol\":3188:3205  uint8(bresult[i]) */\n      0xf8\n      shr\n        /* \"premiere/Premiere.sol\":3183:3206  uint(uint8(bresult[i])) */\n      0xff\n      and\n        /* \"premiere/Premiere.sol\":3183:3212  uint(uint8(bresult[i])) <= 57 */\n      gt\n      iszero\n        /* \"premiere/Premiere.sol\":3131:3213  (uint(uint8(bresult[i])) >= 48) &&... */\n    tag_102:\n        /* \"premiere/Premiere.sol\":3110:3611  if (... */\n      iszero\n      tag_105\n      jumpi\n        /* \"premiere/Premiere.sol\":3250:3258  decimals */\n      dup2\n        /* \"premiere/Premiere.sol\":3246:3426  if (decimals) {... */\n      iszero\n      tag_106\n      jumpi\n        /* \"premiere/Premiere.sol\":3292:3293  0 */\n      0x00\n        /* \"premiere/Premiere.sol\":3286:3288  _b */\n      dup7\n        /* \"premiere/Premiere.sol\":3286:3293  _b == 0 */\n      sub\n        /* \"premiere/Premiere.sol\":3282:3408  if (_b == 0) {... */\n      iszero\n        /* \"premiere/Premiere.sol\":3321:3326  break */\n      tag_97\n        /* \"premiere/Premiere.sol\":3282:3408  if (_b == 0) {... */\n      jumpi\n        /* \"premiere/Premiere.sol\":3381:3385  _b-- */\n      dup6\n      dup1\n      tag_109\n      swap1\n      tag_110\n      jump\t// in\n    tag_109:\n      swap7\n      pop\n      pop\n        /* \"premiere/Premiere.sol\":3246:3426  if (decimals) {... */\n    tag_106:\n        /* \"premiere/Premiere.sol\":3451:3453  10 */\n      0x0a\n        /* \"premiere/Premiere.sol\":3443:3453  mint *= 10 */\n      dup4\n      tag_111\n      swap2\n      swap1\n      tag_112\n      jump\t// in\n    tag_111:\n      swap3\n      pop\n        /* \"premiere/Premiere.sol\":3505:3507  48 */\n      0x30\n        /* \"premiere/Premiere.sol\":3490:3497  bresult */\n      dup5\n        /* \"premiere/Premiere.sol\":3498:3499  i */\n      dup3\n        /* \"premiere/Premiere.sol\":3490:3500  bresult[i] */\n      dup2\n      mload\n      dup2\n      lt\n      tag_113\n      jumpi\n      tag_114\n      tag_101\n      jump\t// in\n    tag_114:\n    tag_113:\n      0x20\n      add\n      add\n      mload\n      0xf8\n      shr\n      0xf8\n      shl\n        /* \"premiere/Premiere.sol\":3484:3501  uint8(bresult[i]) */\n      0xf8\n      shr\n        /* \"premiere/Premiere.sol\":3479:3502  uint(uint8(bresult[i])) */\n      0xff\n      and\n        /* \"premiere/Premiere.sol\":3479:3507  uint(uint8(bresult[i])) - 48 */\n      tag_115\n      swap2\n      swap1\n      tag_116\n      jump\t// in\n    tag_115:\n        /* \"premiere/Premiere.sol\":3471:3507  mint += uint(uint8(bresult[i])) - 48 */\n      dup4\n      tag_117\n      swap2\n      swap1\n      tag_118\n      jump\t// in\n    tag_117:\n      swap3\n      pop\n        /* \"premiere/Premiere.sol\":3110:3611  if (... */\n      jump(tag_119)\n    tag_105:\n        /* \"premiere/Premiere.sol\":3559:3561  46 */\n      0x2e\n        /* \"premiere/Premiere.sol\":3543:3550  bresult */\n      dup5\n        /* \"premiere/Premiere.sol\":3551:3552  i */\n      dup3\n        /* \"premiere/Premiere.sol\":3543:3553  bresult[i] */\n      dup2\n      mload\n      dup2\n      lt\n      tag_120\n      jumpi\n      tag_121\n      tag_101\n      jump\t// in\n    tag_121:\n    tag_120:\n      0x20\n      add\n      add\n      mload\n      0xf8\n      shr\n      0xf8\n      shl\n        /* \"premiere/Premiere.sol\":3537:3554  uint8(bresult[i]) */\n      0xf8\n      shr\n        /* \"premiere/Premiere.sol\":3532:3555  uint(uint8(bresult[i])) */\n      0xff\n      and\n        /* \"premiere/Premiere.sol\":3532:3561  uint(uint8(bresult[i])) == 46 */\n      sub\n        /* \"premiere/Premiere.sol\":3528:3611  if (uint(uint8(bresult[i])) == 46) {... */\n      tag_122\n      jumpi\n        /* \"premiere/Premiere.sol\":3592:3596  true */\n      0x01\n        /* \"premiere/Premiere.sol\":3581:3596  decimals = true */\n      swap2\n      pop\n        /* \"premiere/Premiere.sol\":3528:3611  if (uint(uint8(bresult[i])) == 46) {... */\n    tag_122:\n        /* \"premiere/Premiere.sol\":3110:3611  if (... */\n    tag_119:\n        /* \"premiere/Premiere.sol\":3091:3094  i++ */\n      dup1\n      dup1\n      tag_123\n      swap1\n      tag_124\n      jump\t// in\n    tag_123:\n      swap2\n      pop\n      pop\n        /* \"premiere/Premiere.sol\":3054:3621  for (uint i = 0; i < bresult.length; i++) {... */\n      jump(tag_96)\n    tag_97:\n      pop\n        /* \"premiere/Premiere.sol\":3639:3640  0 */\n      0x00\n        /* \"premiere/Premiere.sol\":3634:3636  _b */\n      dup6\n        /* \"premiere/Premiere.sol\":3634:3640  _b > 0 */\n      gt\n        /* \"premiere/Premiere.sol\":3630:3683  if (_b > 0) {... */\n      iszero\n      tag_125\n      jumpi\n        /* \"premiere/Premiere.sol\":3670:3672  _b */\n      dup5\n        /* \"premiere/Premiere.sol\":3664:3666  10 */\n      0x0a\n        /* \"premiere/Premiere.sol\":3664:3672  10 ** _b */\n      tag_126\n      swap2\n      swap1\n      tag_127\n      jump\t// in\n    tag_126:\n        /* \"premiere/Premiere.sol\":3656:3672  mint *= 10 ** _b */\n      dup3\n      tag_128\n      swap2\n      swap1\n      tag_112\n      jump\t// in\n    tag_128:\n      swap2\n      pop\n        /* \"premiere/Premiere.sol\":3630:3683  if (_b > 0) {... */\n    tag_125:\n        /* \"premiere/Premiere.sol\":3699:3703  mint */\n      dup2\n        /* \"premiere/Premiere.sol\":3692:3703  return mint */\n      swap4\n      pop\n      pop\n      pop\n      pop\n        /* \"premiere/Premiere.sol\":2838:3710  function parseInt(... */\n      swap3\n      swap2\n      pop\n      pop\n      jump\t// out\n        /* \"#utility.yul\":7:82   */\n    tag_129:\n        /* \"#utility.yul\":40:46   */\n      0x00\n        /* \"#utility.yul\":73:75   */\n      0x40\n        /* \"#utility.yul\":67:76   */\n      mload\n        /* \"#utility.yul\":57:76   */\n      swap1\n      pop\n        /* \"#utility.yul\":7:82   */\n      swap1\n      jump\t// out\n        /* \"#utility.yul\":88:205   */\n    tag_130:\n        /* \"#utility.yul\":197:198   */\n      0x00\n        /* \"#utility.yul\":194:195   */\n      dup1\n        /* \"#utility.yul\":187:199   */\n      revert\n        /* \"#utility.yul\":211:328   */\n    tag_131:\n        /* \"#utility.yul\":320:321   */\n      0x00\n        /* \"#utility.yul\":317:318   */\n      dup1\n        /* \"#utility.yul\":310:322   */\n      revert\n        /* \"#utility.yul\":334:460   */\n    tag_132:\n        /* \"#utility.yul\":371:378   */\n      0x00\n        /* \"#utility.yul\":411:453   */\n      0xffffffffffffffffffffffffffffffffffffffff\n        /* \"#utility.yul\":404:409   */\n      dup3\n        /* \"#utility.yul\":400:454   */\n      and\n        /* \"#utility.yul\":389:454   */\n      swap1\n      pop\n        /* \"#utility.yul\":334:460   */\n      swap2\n      swap1\n      pop\n      jump\t// out\n        /* \"#utility.yul\":466:562   */\n    tag_133:\n        /* \"#utility.yul\":503:510   */\n      0x00\n        /* \"#utility.yul\":532:556   */\n      tag_173\n        /* \"#utility.yul\":550:555   */\n      dup3\n        /* \"#utility.yul\":532:556   */\n      tag_132\n      jump\t// in\n    tag_173:\n        /* \"#utility.yul\":521:556   */\n      swap1\n      pop\n        /* \"#utility.yul\":466:562   */\n      swap2\n      swap1\n      pop\n      jump\t// out\n        /* \"#utility.yul\":568:690   */\n    tag_134:\n        /* \"#utility.yul\":641:665   */\n      tag_175\n        /* \"#utility.yul\":659:664   */\n      dup2\n        /* \"#utility.yul\":641:665   */\n      tag_133\n      jump\t// in\n    tag_175:\n        /* \"#utility.yul\":634:639   */\n      dup2\n        /* \"#utility.yul\":631:666   */\n      eq\n        /* \"#utility.yul\":621:684   */\n      tag_176\n      jumpi\n        /* \"#utility.yul\":680:681   */\n      0x00\n        /* \"#utility.yul\":677:678   */\n      dup1\n        /* \"#utility.yul\":670:682   */\n      revert\n        /* \"#utility.yul\":621:684   */\n    tag_176:\n        /* \"#utility.yul\":568:690   */\n      pop\n      jump\t// out\n        /* \"#utility.yul\":696:835   */\n    tag_135:\n        /* \"#utility.yul\":742:747   */\n      0x00\n        /* \"#utility.yul\":780:786   */\n      dup2\n        /* \"#utility.yul\":767:787   */\n      calldataload\n        /* \"#utility.yul\":758:787   */\n      swap1\n      pop\n        /* \"#utility.yul\":796:829   */\n      tag_178\n        /* \"#utility.yul\":823:828   */\n      dup2\n        /* \"#utility.yul\":796:829   */\n      tag_134\n      jump\t// in\n    tag_178:\n        /* \"#utility.yul\":696:835   */\n      swap3\n      swap2\n      pop\n      pop\n      jump\t// out\n        /* \"#utility.yul\":841:918   */\n    tag_136:\n        /* \"#utility.yul\":878:885   */\n      0x00\n        /* \"#utility.yul\":907:912   */\n      dup2\n        /* \"#utility.yul\":896:912   */\n      swap1\n      pop\n        /* \"#utility.yul\":841:918   */\n      swap2\n      swap1\n      pop\n      jump\t// out\n        /* \"#utility.yul\":924:1046   */\n    tag_137:\n        /* \"#utility.yul\":997:1021   */\n      tag_181\n        /* \"#utility.yul\":1015:1020   */\n      dup2\n        /* \"#utility.yul\":997:1021   */\n      tag_136\n      jump\t// in\n    tag_181:\n        /* \"#utility.yul\":990:995   */\n      dup2\n        /* \"#utility.yul\":987:1022   */\n      eq\n        /* \"#utility.yul\":977:1040   */\n      tag_182\n      jumpi\n        /* \"#utility.yul\":1036:1037   */\n      0x00\n        /* \"#utility.yul\":1033:1034   */\n      dup1\n        /* \"#utility.yul\":1026:1038   */\n      revert\n        /* \"#utility.yul\":977:1040   */\n    tag_182:\n        /* \"#utility.yul\":924:1046   */\n      pop\n      jump\t// out\n        /* \"#utility.yul\":1052:1191   */\n    tag_138:\n        /* \"#utility.yul\":1098:1103   */\n      0x00\n        /* \"#utility.yul\":1136:1142   */\n      dup2\n        /* \"#utility.yul\":1123:1143   */\n      calldataload\n        /* \"#utility.yul\":1114:1143   */\n      swap1\n      pop\n        /* \"#utility.yul\":1152:1185   */\n      tag_184\n        /* \"#utility.yul\":1179:1184   */\n      dup2\n        /* \"#utility.yul\":1152:1185   */\n      tag_137\n      jump\t// in\n    tag_184:\n        /* \"#utility.yul\":1052:1191   */\n      swap3\n      swap2\n      pop\n      pop\n      jump\t// out\n        /* \"#utility.yul\":1197:1671   */\n    tag_7:\n        /* \"#utility.yul\":1265:1271   */\n      0x00\n        /* \"#utility.yul\":1273:1279   */\n      dup1\n        /* \"#utility.yul\":1322:1324   */\n      0x40\n        /* \"#utility.yul\":1310:1319   */\n      dup4\n        /* \"#utility.yul\":1301:1308   */\n      dup6\n        /* \"#utility.yul\":1297:1320   */\n      sub\n        /* \"#utility.yul\":1293:1325   */\n      slt\n        /* \"#utility.yul\":1290:1409   */\n      iszero\n      tag_186\n      jumpi\n        /* \"#utility.yul\":1328:1407   */\n      tag_187\n      tag_130\n      jump\t// in\n    tag_187:\n        /* \"#utility.yul\":1290:1409   */\n    tag_186:\n        /* \"#utility.yul\":1448:1449   */\n      0x00\n        /* \"#utility.yul\":1473:1526   */\n      tag_188\n        /* \"#utility.yul\":1518:1525   */\n      dup6\n        /* \"#utility.yul\":1509:1515   */\n      dup3\n        /* \"#utility.yul\":1498:1507   */\n      dup7\n        /* \"#utility.yul\":1494:1516   */\n      add\n        /* \"#utility.yul\":1473:1526   */\n      tag_135\n      jump\t// in\n    tag_188:\n        /* \"#utility.yul\":1463:1526   */\n      swap3\n      pop\n        /* \"#utility.yul\":1419:1536   */\n      pop\n        /* \"#utility.yul\":1575:1577   */\n      0x20\n        /* \"#utility.yul\":1601:1654   */\n      tag_189\n        /* \"#utility.yul\":1646:1653   */\n      dup6\n        /* \"#utility.yul\":1637:1643   */\n      dup3\n        /* \"#utility.yul\":1626:1635   */\n      dup7\n        /* \"#utility.yul\":1622:1644   */\n      add\n        /* \"#utility.yul\":1601:1654   */\n      tag_138\n      jump\t// in\n    tag_189:\n        /* \"#utility.yul\":1591:1654   */\n      swap2\n      pop\n        /* \"#utility.yul\":1546:1664   */\n      pop\n        /* \"#utility.yul\":1197:1671   */\n      swap3\n      pop\n      swap3\n      swap1\n      pop\n      jump\t// out\n        /* \"#utility.yul\":1677:1795   */\n    tag_139:\n        /* \"#utility.yul\":1764:1788   */\n      tag_191\n        /* \"#utility.yul\":1782:1787   */\n      dup2\n        /* \"#utility.yul\":1764:1788   */\n      tag_136\n      jump\t// in\n    tag_191:\n        /* \"#utility.yul\":1759:1762   */\n      dup3\n        /* \"#utility.yul\":1752:1789   */\n      mstore\n        /* \"#utility.yul\":1677:1795   */\n      pop\n      pop\n      jump\t// out\n        /* \"#utility.yul\":1801:2023   */\n    tag_10:\n        /* \"#utility.yul\":1894:1898   */\n      0x00\n        /* \"#utility.yul\":1932:1934   */\n      0x20\n        /* \"#utility.yul\":1921:1930   */\n      dup3\n        /* \"#utility.yul\":1917:1935   */\n      add\n        /* \"#utility.yul\":1909:1935   */\n      swap1\n      pop\n        /* \"#utility.yul\":1945:2016   */\n      tag_193\n        /* \"#utility.yul\":2013:2014   */\n      0x00\n        /* \"#utility.yul\":2002:2011   */\n      dup4\n        /* \"#utility.yul\":1998:2015   */\n      add\n        /* \"#utility.yul\":1989:1995   */\n      dup5\n        /* \"#utility.yul\":1945:2016   */\n      tag_139\n      jump\t// in\n    tag_193:\n        /* \"#utility.yul\":1801:2023   */\n      swap3\n      swap2\n      pop\n      pop\n      jump\t// out\n        /* \"#utility.yul\":2029:2146   */\n    tag_140:\n        /* \"#utility.yul\":2138:2139   */\n      0x00\n        /* \"#utility.yul\":2135:2136   */\n      dup1\n        /* \"#utility.yul\":2128:2140   */\n      revert\n        /* \"#utility.yul\":2152:2269   */\n    tag_141:\n        /* \"#utility.yul\":2261:2262   */\n      0x00\n        /* \"#utility.yul\":2258:2259   */\n      dup1\n        /* \"#utility.yul\":2251:2263   */\n      revert\n        /* \"#utility.yul\":2275:2377   */\n    tag_142:\n        /* \"#utility.yul\":2316:2322   */\n      0x00\n        /* \"#utility.yul\":2367:2369   */\n      0x1f\n        /* \"#utility.yul\":2363:2370   */\n      not\n        /* \"#utility.yul\":2358:2360   */\n      0x1f\n        /* \"#utility.yul\":2351:2356   */\n      dup4\n        /* \"#utility.yul\":2347:2361   */\n      add\n        /* \"#utility.yul\":2343:2371   */\n      and\n        /* \"#utility.yul\":2333:2371   */\n      swap1\n      pop\n        /* \"#utility.yul\":2275:2377   */\n      swap2\n      swap1\n      pop\n      jump\t// out\n        /* \"#utility.yul\":2383:2563   */\n    tag_64:\n        /* \"#utility.yul\":2431:2508   */\n      0x4e487b7100000000000000000000000000000000000000000000000000000000\n        /* \"#utility.yul\":2428:2429   */\n      0x00\n        /* \"#utility.yul\":2421:2509   */\n      mstore\n        /* \"#utility.yul\":2528:2532   */\n      0x41\n        /* \"#utility.yul\":2525:2526   */\n      0x04\n        /* \"#utility.yul\":2518:2533   */\n      mstore\n        /* \"#utility.yul\":2552:2556   */\n      0x24\n        /* \"#utility.yul\":2549:2550   */\n      0x00\n        /* \"#utility.yul\":2542:2557   */\n      revert\n        /* \"#utility.yul\":2569:2850   */\n    tag_143:\n        /* \"#utility.yul\":2652:2679   */\n      tag_199\n        /* \"#utility.yul\":2674:2678   */\n      dup3\n        /* \"#utility.yul\":2652:2679   */\n      tag_142\n      jump\t// in\n    tag_199:\n        /* \"#utility.yul\":2644:2650   */\n      dup2\n        /* \"#utility.yul\":2640:2680   */\n      add\n        /* \"#utility.yul\":2782:2788   */\n      dup2\n        /* \"#utility.yul\":2770:2780   */\n      dup2\n        /* \"#utility.yul\":2767:2789   */\n      lt\n        /* \"#utility.yul\":2746:2764   */\n      0xffffffffffffffff\n        /* \"#utility.yul\":2734:2744   */\n      dup3\n        /* \"#utility.yul\":2731:2765   */\n      gt\n        /* \"#utility.yul\":2728:2790   */\n      or\n        /* \"#utility.yul\":2725:2813   */\n      iszero\n      tag_200\n      jumpi\n        /* \"#utility.yul\":2793:2811   */\n      tag_201\n      tag_64\n      jump\t// in\n    tag_201:\n        /* \"#utility.yul\":2725:2813   */\n    tag_200:\n        /* \"#utility.yul\":2833:2843   */\n      dup1\n        /* \"#utility.yul\":2829:2831   */\n      0x40\n        /* \"#utility.yul\":2822:2844   */\n      mstore\n        /* \"#utility.yul\":2612:2850   */\n      pop\n        /* \"#utility.yul\":2569:2850   */\n      pop\n      pop\n      jump\t// out\n        /* \"#utility.yul\":2856:2985   */\n    tag_144:\n        /* \"#utility.yul\":2890:2896   */\n      0x00\n        /* \"#utility.yul\":2917:2937   */\n      tag_203\n      tag_129\n      jump\t// in\n    tag_203:\n        /* \"#utility.yul\":2907:2937   */\n      swap1\n      pop\n        /* \"#utility.yul\":2946:2979   */\n      tag_204\n        /* \"#utility.yul\":2974:2978   */\n      dup3\n        /* \"#utility.yul\":2966:2972   */\n      dup3\n        /* \"#utility.yul\":2946:2979   */\n      tag_143\n      jump\t// in\n    tag_204:\n        /* \"#utility.yul\":2856:2985   */\n      swap2\n      swap1\n      pop\n      jump\t// out\n        /* \"#utility.yul\":2991:3299   */\n    tag_145:\n        /* \"#utility.yul\":3053:3057   */\n      0x00\n        /* \"#utility.yul\":3143:3161   */\n      0xffffffffffffffff\n        /* \"#utility.yul\":3135:3141   */\n      dup3\n        /* \"#utility.yul\":3132:3162   */\n      gt\n        /* \"#utility.yul\":3129:3185   */\n      iszero\n      tag_206\n      jumpi\n        /* \"#utility.yul\":3165:3183   */\n      tag_207\n      tag_64\n      jump\t// in\n    tag_207:\n        /* \"#utility.yul\":3129:3185   */\n    tag_206:\n        /* \"#utility.yul\":3203:3232   */\n      tag_208\n        /* \"#utility.yul\":3225:3231   */\n      dup3\n        /* \"#utility.yul\":3203:3232   */\n      tag_142\n      jump\t// in\n    tag_208:\n        /* \"#utility.yul\":3195:3232   */\n      swap1\n      pop\n        /* \"#utility.yul\":3287:3291   */\n      0x20\n        /* \"#utility.yul\":3281:3285   */\n      dup2\n        /* \"#utility.yul\":3277:3292   */\n      add\n        /* \"#utility.yul\":3269:3292   */\n      swap1\n      pop\n        /* \"#utility.yul\":2991:3299   */\n      swap2\n      swap1\n      pop\n      jump\t// out\n        /* \"#utility.yul\":3305:3451   */\n    tag_146:\n        /* \"#utility.yul\":3402:3408   */\n      dup3\n        /* \"#utility.yul\":3397:3400   */\n      dup2\n        /* \"#utility.yul\":3392:3395   */\n      dup4\n        /* \"#utility.yul\":3379:3409   */\n      calldatacopy\n        /* \"#utility.yul\":3443:3444   */\n      0x00\n        /* \"#utility.yul\":3434:3440   */\n      dup4\n        /* \"#utility.yul\":3429:3432   */\n      dup4\n        /* \"#utility.yul\":3425:3441   */\n      add\n        /* \"#utility.yul\":3418:3445   */\n      mstore\n        /* \"#utility.yul\":3305:3451   */\n      pop\n      pop\n      pop\n      jump\t// out\n        /* \"#utility.yul\":3457:3882   */\n    tag_147:\n        /* \"#utility.yul\":3535:3540   */\n      0x00\n        /* \"#utility.yul\":3560:3626   */\n      tag_211\n        /* \"#utility.yul\":3576:3625   */\n      tag_212\n        /* \"#utility.yul\":3618:3624   */\n      dup5\n        /* \"#utility.yul\":3576:3625   */\n      tag_145\n      jump\t// in\n    tag_212:\n        /* \"#utility.yul\":3560:3626   */\n      tag_144\n      jump\t// in\n    tag_211:\n        /* \"#utility.yul\":3551:3626   */\n      swap1\n      pop\n        /* \"#utility.yul\":3649:3655   */\n      dup3\n        /* \"#utility.yul\":3642:3647   */\n      dup2\n        /* \"#utility.yul\":3635:3656   */\n      mstore\n        /* \"#utility.yul\":3687:3691   */\n      0x20\n        /* \"#utility.yul\":3680:3685   */\n      dup2\n        /* \"#utility.yul\":3676:3692   */\n      add\n        /* \"#utility.yul\":3725:3728   */\n      dup5\n        /* \"#utility.yul\":3716:3722   */\n      dup5\n        /* \"#utility.yul\":3711:3714   */\n      dup5\n        /* \"#utility.yul\":3707:3723   */\n      add\n        /* \"#utility.yul\":3704:3729   */\n      gt\n        /* \"#utility.yul\":3701:3813   */\n      iszero\n      tag_213\n      jumpi\n        /* \"#utility.yul\":3732:3811   */\n      tag_214\n      tag_141\n      jump\t// in\n    tag_214:\n        /* \"#utility.yul\":3701:3813   */\n    tag_213:\n        /* \"#utility.yul\":3822:3876   */\n      tag_215\n        /* \"#utility.yul\":3869:3875   */\n      dup5\n        /* \"#utility.yul\":3864:3867   */\n      dup3\n        /* \"#utility.yul\":3859:3862   */\n      dup6\n        /* \"#utility.yul\":3822:3876   */\n      tag_146\n      jump\t// in\n    tag_215:\n        /* \"#utility.yul\":3541:3882   */\n      pop\n        /* \"#utility.yul\":3457:3882   */\n      swap4\n      swap3\n      pop\n      pop\n      pop\n      jump\t// out\n        /* \"#utility.yul\":3902:4242   */\n    tag_148:\n        /* \"#utility.yul\":3958:3963   */\n      0x00\n        /* \"#utility.yul\":4007:4010   */\n      dup3\n        /* \"#utility.yul\":4000:4004   */\n      0x1f\n        /* \"#utility.yul\":3992:3998   */\n      dup4\n        /* \"#utility.yul\":3988:4005   */\n      add\n        /* \"#utility.yul\":3984:4011   */\n      slt\n        /* \"#utility.yul\":3974:4096   */\n      tag_217\n      jumpi\n        /* \"#utility.yul\":4015:4094   */\n      tag_218\n      tag_140\n      jump\t// in\n    tag_218:\n        /* \"#utility.yul\":3974:4096   */\n    tag_217:\n        /* \"#utility.yul\":4132:4138   */\n      dup2\n        /* \"#utility.yul\":4119:4139   */\n      calldataload\n        /* \"#utility.yul\":4157:4236   */\n      tag_219\n        /* \"#utility.yul\":4232:4235   */\n      dup5\n        /* \"#utility.yul\":4224:4230   */\n      dup3\n        /* \"#utility.yul\":4217:4221   */\n      0x20\n        /* \"#utility.yul\":4209:4215   */\n      dup7\n        /* \"#utility.yul\":4205:4222   */\n      add\n        /* \"#utility.yul\":4157:4236   */\n      tag_147\n      jump\t// in\n    tag_219:\n        /* \"#utility.yul\":4148:4236   */\n      swap2\n      pop\n        /* \"#utility.yul\":3964:4242   */\n      pop\n        /* \"#utility.yul\":3902:4242   */\n      swap3\n      swap2\n      pop\n      pop\n      jump\t// out\n        /* \"#utility.yul\":4248:5699   */\n    tag_13:\n        /* \"#utility.yul\":4373:4379   */\n      0x00\n        /* \"#utility.yul\":4381:4387   */\n      dup1\n        /* \"#utility.yul\":4389:4395   */\n      0x00\n        /* \"#utility.yul\":4397:4403   */\n      dup1\n        /* \"#utility.yul\":4405:4411   */\n      0x00\n        /* \"#utility.yul\":4454:4457   */\n      0xa0\n        /* \"#utility.yul\":4442:4451   */\n      dup7\n        /* \"#utility.yul\":4433:4440   */\n      dup9\n        /* \"#utility.yul\":4429:4452   */\n      sub\n        /* \"#utility.yul\":4425:4458   */\n      slt\n        /* \"#utility.yul\":4422:4542   */\n      iszero\n      tag_221\n      jumpi\n        /* \"#utility.yul\":4461:4540   */\n      tag_222\n      tag_130\n      jump\t// in\n    tag_222:\n        /* \"#utility.yul\":4422:4542   */\n    tag_221:\n        /* \"#utility.yul\":4581:4582   */\n      0x00\n        /* \"#utility.yul\":4606:4659   */\n      tag_223\n        /* \"#utility.yul\":4651:4658   */\n      dup9\n        /* \"#utility.yul\":4642:4648   */\n      dup3\n        /* \"#utility.yul\":4631:4640   */\n      dup10\n        /* \"#utility.yul\":4627:4649   */\n      add\n        /* \"#utility.yul\":4606:4659   */\n      tag_135\n      jump\t// in\n    tag_223:\n        /* \"#utility.yul\":4596:4659   */\n      swap6\n      pop\n        /* \"#utility.yul\":4552:4669   */\n      pop\n        /* \"#utility.yul\":4708:4710   */\n      0x20\n        /* \"#utility.yul\":4734:4787   */\n      tag_224\n        /* \"#utility.yul\":4779:4786   */\n      dup9\n        /* \"#utility.yul\":4770:4776   */\n      dup3\n        /* \"#utility.yul\":4759:4768   */\n      dup10\n        /* \"#utility.yul\":4755:4777   */\n      add\n        /* \"#utility.yul\":4734:4787   */\n      tag_135\n      jump\t// in\n    tag_224:\n        /* \"#utility.yul\":4724:4787   */\n      swap5\n      pop\n        /* \"#utility.yul\":4679:4797   */\n      pop\n        /* \"#utility.yul\":4864:4866   */\n      0x40\n        /* \"#utility.yul\":4853:4862   */\n      dup7\n        /* \"#utility.yul\":4849:4867   */\n      add\n        /* \"#utility.yul\":4836:4868   */\n      calldataload\n        /* \"#utility.yul\":4895:4913   */\n      0xffffffffffffffff\n        /* \"#utility.yul\":4887:4893   */\n      dup2\n        /* \"#utility.yul\":4884:4914   */\n      gt\n        /* \"#utility.yul\":4881:4998   */\n      iszero\n      tag_225\n      jumpi\n        /* \"#utility.yul\":4917:4996   */\n      tag_226\n      tag_131\n      jump\t// in\n    tag_226:\n        /* \"#utility.yul\":4881:4998   */\n    tag_225:\n        /* \"#utility.yul\":5022:5085   */\n      tag_227\n        /* \"#utility.yul\":5077:5084   */\n      dup9\n        /* \"#utility.yul\":5068:5074   */\n      dup3\n        /* \"#utility.yul\":5057:5066   */\n      dup10\n        /* \"#utility.yul\":5053:5075   */\n      add\n        /* \"#utility.yul\":5022:5085   */\n      tag_148\n      jump\t// in\n    tag_227:\n        /* \"#utility.yul\":5012:5085   */\n      swap4\n      pop\n        /* \"#utility.yul\":4807:5095   */\n      pop\n        /* \"#utility.yul\":5162:5164   */\n      0x60\n        /* \"#utility.yul\":5151:5160   */\n      dup7\n        /* \"#utility.yul\":5147:5165   */\n      add\n        /* \"#utility.yul\":5134:5166   */\n      calldataload\n        /* \"#utility.yul\":5193:5211   */\n      0xffffffffffffffff\n        /* \"#utility.yul\":5185:5191   */\n      dup2\n        /* \"#utility.yul\":5182:5212   */\n      gt\n        /* \"#utility.yul\":5179:5296   */\n      iszero\n      tag_228\n      jumpi\n        /* \"#utility.yul\":5215:5294   */\n      tag_229\n      tag_131\n      jump\t// in\n    tag_229:\n        /* \"#utility.yul\":5179:5296   */\n    tag_228:\n        /* \"#utility.yul\":5320:5383   */\n      tag_230\n        /* \"#utility.yul\":5375:5382   */\n      dup9\n        /* \"#utility.yul\":5366:5372   */\n      dup3\n        /* \"#utility.yul\":5355:5364   */\n      dup10\n        /* \"#utility.yul\":5351:5373   */\n      add\n        /* \"#utility.yul\":5320:5383   */\n      tag_148\n      jump\t// in\n    tag_230:\n        /* \"#utility.yul\":5310:5383   */\n      swap3\n      pop\n        /* \"#utility.yul\":5105:5393   */\n      pop\n        /* \"#utility.yul\":5460:5463   */\n      0x80\n        /* \"#utility.yul\":5449:5458   */\n      dup7\n        /* \"#utility.yul\":5445:5464   */\n      add\n        /* \"#utility.yul\":5432:5465   */\n      calldataload\n        /* \"#utility.yul\":5492:5510   */\n      0xffffffffffffffff\n        /* \"#utility.yul\":5484:5490   */\n      dup2\n        /* \"#utility.yul\":5481:5511   */\n      gt\n        /* \"#utility.yul\":5478:5595   */\n      iszero\n      tag_231\n      jumpi\n        /* \"#utility.yul\":5514:5593   */\n      tag_232\n      tag_131\n      jump\t// in\n    tag_232:\n        /* \"#utility.yul\":5478:5595   */\n    tag_231:\n        /* \"#utility.yul\":5619:5682   */\n      tag_233\n        /* \"#utility.yul\":5674:5681   */\n      dup9\n        /* \"#utility.yul\":5665:5671   */\n      dup3\n        /* \"#utility.yul\":5654:5663   */\n      dup10\n        /* \"#utility.yul\":5650:5672   */\n      add\n        /* \"#utility.yul\":5619:5682   */\n      tag_148\n      jump\t// in\n    tag_233:\n        /* \"#utility.yul\":5609:5682   */\n      swap2\n      pop\n        /* \"#utility.yul\":5403:5692   */\n      pop\n        /* \"#utility.yul\":4248:5699   */\n      swap3\n      swap6\n      pop\n      swap3\n      swap6\n      swap1\n      swap4\n      pop\n      jump\t// out\n        /* \"#utility.yul\":5705:5795   */\n    tag_149:\n        /* \"#utility.yul\":5739:5746   */\n      0x00\n        /* \"#utility.yul\":5782:5787   */\n      dup2\n        /* \"#utility.yul\":5775:5788   */\n      iszero\n        /* \"#utility.yul\":5768:5789   */\n      iszero\n        /* \"#utility.yul\":5757:5789   */\n      swap1\n      pop\n        /* \"#utility.yul\":5705:5795   */\n      swap2\n      swap1\n      pop\n      jump\t// out\n        /* \"#utility.yul\":5801:5910   */\n    tag_150:\n        /* \"#utility.yul\":5882:5903   */\n      tag_236\n        /* \"#utility.yul\":5897:5902   */\n      dup2\n        /* \"#utility.yul\":5882:5903   */\n      tag_149\n      jump\t// in\n    tag_236:\n        /* \"#utility.yul\":5877:5880   */\n      dup3\n        /* \"#utility.yul\":5870:5904   */\n      mstore\n        /* \"#utility.yul\":5801:5910   */\n      pop\n      pop\n      jump\t// out\n        /* \"#utility.yul\":5916:6126   */\n    tag_16:\n        /* \"#utility.yul\":6003:6007   */\n      0x00\n        /* \"#utility.yul\":6041:6043   */\n      0x20\n        /* \"#utility.yul\":6030:6039   */\n      dup3\n        /* \"#utility.yul\":6026:6044   */\n      add\n        /* \"#utility.yul\":6018:6044   */\n      swap1\n      pop\n        /* \"#utility.yul\":6054:6119   */\n      tag_238\n        /* \"#utility.yul\":6116:6117   */\n      0x00\n        /* \"#utility.yul\":6105:6114   */\n      dup4\n        /* \"#utility.yul\":6101:6118   */\n      add\n        /* \"#utility.yul\":6092:6098   */\n      dup5\n        /* \"#utility.yul\":6054:6119   */\n      tag_150\n      jump\t// in\n    tag_238:\n        /* \"#utility.yul\":5916:6126   */\n      swap3\n      swap2\n      pop\n      pop\n      jump\t// out\n        /* \"#utility.yul\":6132:6250   */\n    tag_151:\n        /* \"#utility.yul\":6219:6243   */\n      tag_240\n        /* \"#utility.yul\":6237:6242   */\n      dup2\n        /* \"#utility.yul\":6219:6243   */\n      tag_133\n      jump\t// in\n    tag_240:\n        /* \"#utility.yul\":6214:6217   */\n      dup3\n        /* \"#utility.yul\":6207:6244   */\n      mstore\n        /* \"#utility.yul\":6132:6250   */\n      pop\n      pop\n      jump\t// out\n        /* \"#utility.yul\":6256:6588   */\n    tag_19:\n        /* \"#utility.yul\":6377:6381   */\n      0x00\n        /* \"#utility.yul\":6415:6417   */\n      0x40\n        /* \"#utility.yul\":6404:6413   */\n      dup3\n        /* \"#utility.yul\":6400:6418   */\n      add\n        /* \"#utility.yul\":6392:6418   */\n      swap1\n      pop\n        /* \"#utility.yul\":6428:6499   */\n      tag_242\n        /* \"#utility.yul\":6496:6497   */\n      0x00\n        /* \"#utility.yul\":6485:6494   */\n      dup4\n        /* \"#utility.yul\":6481:6498   */\n      add\n        /* \"#utility.yul\":6472:6478   */\n      dup6\n        /* \"#utility.yul\":6428:6499   */\n      tag_151\n      jump\t// in\n    tag_242:\n        /* \"#utility.yul\":6509:6581   */\n      tag_243\n        /* \"#utility.yul\":6577:6579   */\n      0x20\n        /* \"#utility.yul\":6566:6575   */\n      dup4\n        /* \"#utility.yul\":6562:6580   */\n      add\n        /* \"#utility.yul\":6553:6559   */\n      dup5\n        /* \"#utility.yul\":6509:6581   */\n      tag_139\n      jump\t// in\n    tag_243:\n        /* \"#utility.yul\":6256:6588   */\n      swap4\n      swap3\n      pop\n      pop\n      pop\n      jump\t// out\n        /* \"#utility.yul\":6594:6737   */\n    tag_152:\n        /* \"#utility.yul\":6651:6656   */\n      0x00\n        /* \"#utility.yul\":6682:6688   */\n      dup2\n        /* \"#utility.yul\":6676:6689   */\n      mload\n        /* \"#utility.yul\":6667:6689   */\n      swap1\n      pop\n        /* \"#utility.yul\":6698:6731   */\n      tag_245\n        /* \"#utility.yul\":6725:6730   */\n      dup2\n        /* \"#utility.yul\":6698:6731   */\n      tag_134\n      jump\t// in\n    tag_245:\n        /* \"#utility.yul\":6594:6737   */\n      swap3\n      swap2\n      pop\n      pop\n      jump\t// out\n        /* \"#utility.yul\":6743:7094   */\n    tag_23:\n        /* \"#utility.yul\":6813:6819   */\n      0x00\n        /* \"#utility.yul\":6862:6864   */\n      0x20\n        /* \"#utility.yul\":6850:6859   */\n      dup3\n        /* \"#utility.yul\":6841:6848   */\n      dup5\n        /* \"#utility.yul\":6837:6860   */\n      sub\n        /* \"#utility.yul\":6833:6865   */\n      slt\n        /* \"#utility.yul\":6830:6949   */\n      iszero\n      tag_247\n      jumpi\n        /* \"#utility.yul\":6868:6947   */\n      tag_248\n      tag_130\n      jump\t// in\n    tag_248:\n        /* \"#utility.yul\":6830:6949   */\n    tag_247:\n        /* \"#utility.yul\":6988:6989   */\n      0x00\n        /* \"#utility.yul\":7013:7077   */\n      tag_249\n        /* \"#utility.yul\":7069:7076   */\n      dup5\n        /* \"#utility.yul\":7060:7066   */\n      dup3\n        /* \"#utility.yul\":7049:7058   */\n      dup6\n        /* \"#utility.yul\":7045:7067   */\n      add\n        /* \"#utility.yul\":7013:7077   */\n      tag_152\n      jump\t// in\n    tag_249:\n        /* \"#utility.yul\":7003:7077   */\n      swap2\n      pop\n        /* \"#utility.yul\":6959:7087   */\n      pop\n        /* \"#utility.yul\":6743:7094   */\n      swap3\n      swap2\n      pop\n      pop\n      jump\t// out\n        /* \"#utility.yul\":7100:7280   */\n    tag_153:\n        /* \"#utility.yul\":7148:7225   */\n      0x4e487b7100000000000000000000000000000000000000000000000000000000\n        /* \"#utility.yul\":7145:7146   */\n      0x00\n        /* \"#utility.yul\":7138:7226   */\n      mstore\n        /* \"#utility.yul\":7245:7249   */\n      0x22\n        /* \"#utility.yul\":7242:7243   */\n      0x04\n        /* \"#utility.yul\":7235:7250   */\n      mstore\n        /* \"#utility.yul\":7269:7273   */\n      0x24\n        /* \"#utility.yul\":7266:7267   */\n      0x00\n        /* \"#utility.yul\":7259:7274   */\n      revert\n        /* \"#utility.yul\":7286:7606   */\n    tag_28:\n        /* \"#utility.yul\":7330:7336   */\n      0x00\n        /* \"#utility.yul\":7367:7368   */\n      0x02\n        /* \"#utility.yul\":7361:7365   */\n      dup3\n        /* \"#utility.yul\":7357:7369   */\n      div\n        /* \"#utility.yul\":7347:7369   */\n      swap1\n      pop\n        /* \"#utility.yul\":7414:7415   */\n      0x01\n        /* \"#utility.yul\":7408:7412   */\n      dup3\n        /* \"#utility.yul\":7404:7416   */\n      and\n        /* \"#utility.yul\":7435:7453   */\n      dup1\n        /* \"#utility.yul\":7425:7506   */\n      tag_252\n      jumpi\n        /* \"#utility.yul\":7491:7495   */\n      0x7f\n        /* \"#utility.yul\":7483:7489   */\n      dup3\n        /* \"#utility.yul\":7479:7496   */\n      and\n        /* \"#utility.yul\":7469:7496   */\n      swap2\n      pop\n        /* \"#utility.yul\":7425:7506   */\n    tag_252:\n        /* \"#utility.yul\":7553:7555   */\n      0x20\n        /* \"#utility.yul\":7545:7551   */\n      dup3\n        /* \"#utility.yul\":7542:7556   */\n      lt\n        /* \"#utility.yul\":7522:7540   */\n      dup2\n        /* \"#utility.yul\":7519:7557   */\n      sub\n        /* \"#utility.yul\":7516:7600   */\n      tag_253\n      jumpi\n        /* \"#utility.yul\":7572:7590   */\n      tag_254\n      tag_153\n      jump\t// in\n    tag_254:\n        /* \"#utility.yul\":7516:7600   */\n    tag_253:\n        /* \"#utility.yul\":7337:7606   */\n      pop\n        /* \"#utility.yul\":7286:7606   */\n      swap2\n      swap1\n      pop\n      jump\t// out\n        /* \"#utility.yul\":7612:7672   */\n    tag_154:\n        /* \"#utility.yul\":7640:7643   */\n      0x00\n        /* \"#utility.yul\":7661:7666   */\n      dup2\n        /* \"#utility.yul\":7654:7666   */\n      swap1\n      pop\n        /* \"#utility.yul\":7612:7672   */\n      swap2\n      swap1\n      pop\n      jump\t// out\n        /* \"#utility.yul\":7678:7820   */\n    tag_155:\n        /* \"#utility.yul\":7728:7737   */\n      0x00\n        /* \"#utility.yul\":7761:7814   */\n      tag_257\n        /* \"#utility.yul\":7779:7813   */\n      tag_258\n        /* \"#utility.yul\":7788:7812   */\n      tag_259\n        /* \"#utility.yul\":7806:7811   */\n      dup5\n        /* \"#utility.yul\":7788:7812   */\n      tag_132\n      jump\t// in\n    tag_259:\n        /* \"#utility.yul\":7779:7813   */\n      tag_154\n      jump\t// in\n    tag_258:\n        /* \"#utility.yul\":7761:7814   */\n      tag_132\n      jump\t// in\n    tag_257:\n        /* \"#utility.yul\":7748:7814   */\n      swap1\n      pop\n        /* \"#utility.yul\":7678:7820   */\n      swap2\n      swap1\n      pop\n      jump\t// out\n        /* \"#utility.yul\":7826:7952   */\n    tag_156:\n        /* \"#utility.yul\":7876:7885   */\n      0x00\n        /* \"#utility.yul\":7909:7946   */\n      tag_261\n        /* \"#utility.yul\":7940:7945   */\n      dup3\n        /* \"#utility.yul\":7909:7946   */\n      tag_155\n      jump\t// in\n    tag_261:\n        /* \"#utility.yul\":7896:7946   */\n      swap1\n      pop\n        /* \"#utility.yul\":7826:7952   */\n      swap2\n      swap1\n      pop\n      jump\t// out\n        /* \"#utility.yul\":7958:8109   */\n    tag_157:\n        /* \"#utility.yul\":8033:8042   */\n      0x00\n        /* \"#utility.yul\":8066:8103   */\n      tag_263\n        /* \"#utility.yul\":8097:8102   */\n      dup3\n        /* \"#utility.yul\":8066:8103   */\n      tag_156\n      jump\t// in\n    tag_263:\n        /* \"#utility.yul\":8053:8103   */\n      swap1\n      pop\n        /* \"#utility.yul\":7958:8109   */\n      swap2\n      swap1\n      pop\n      jump\t// out\n        /* \"#utility.yul\":8115:8296   */\n    tag_158:\n        /* \"#utility.yul\":8227:8289   */\n      tag_265\n        /* \"#utility.yul\":8283:8288   */\n      dup2\n        /* \"#utility.yul\":8227:8289   */\n      tag_157\n      jump\t// in\n    tag_265:\n        /* \"#utility.yul\":8222:8225   */\n      dup3\n        /* \"#utility.yul\":8215:8290   */\n      mstore\n        /* \"#utility.yul\":8115:8296   */\n      pop\n      pop\n      jump\t// out\n        /* \"#utility.yul\":8302:8794   */\n    tag_42:\n        /* \"#utility.yul\":8476:8480   */\n      0x00\n        /* \"#utility.yul\":8514:8516   */\n      0x60\n        /* \"#utility.yul\":8503:8512   */\n      dup3\n        /* \"#utility.yul\":8499:8517   */\n      add\n        /* \"#utility.yul\":8491:8517   */\n      swap1\n      pop\n        /* \"#utility.yul\":8527:8623   */\n      tag_267\n        /* \"#utility.yul\":8620:8621   */\n      0x00\n        /* \"#utility.yul\":8609:8618   */\n      dup4\n        /* \"#utility.yul\":8605:8622   */\n      add\n        /* \"#utility.yul\":8596:8602   */\n      dup7\n        /* \"#utility.yul\":8527:8623   */\n      tag_158\n      jump\t// in\n    tag_267:\n        /* \"#utility.yul\":8633:8705   */\n      tag_268\n        /* \"#utility.yul\":8701:8703   */\n      0x20\n        /* \"#utility.yul\":8690:8699   */\n      dup4\n        /* \"#utility.yul\":8686:8704   */\n      add\n        /* \"#utility.yul\":8677:8683   */\n      dup6\n        /* \"#utility.yul\":8633:8705   */\n      tag_151\n      jump\t// in\n    tag_268:\n        /* \"#utility.yul\":8715:8787   */\n      tag_269\n        /* \"#utility.yul\":8783:8785   */\n      0x40\n        /* \"#utility.yul\":8772:8781   */\n      dup4\n        /* \"#utility.yul\":8768:8786   */\n      add\n        /* \"#utility.yul\":8759:8765   */\n      dup5\n        /* \"#utility.yul\":8715:8787   */\n      tag_151\n      jump\t// in\n    tag_269:\n        /* \"#utility.yul\":8302:8794   */\n      swap5\n      swap4\n      pop\n      pop\n      pop\n      pop\n      jump\t// out\n        /* \"#utility.yul\":8800:8943   */\n    tag_159:\n        /* \"#utility.yul\":8857:8862   */\n      0x00\n        /* \"#utility.yul\":8888:8894   */\n      dup2\n        /* \"#utility.yul\":8882:8895   */\n      mload\n        /* \"#utility.yul\":8873:8895   */\n      swap1\n      pop\n        /* \"#utility.yul\":8904:8937   */\n      tag_271\n        /* \"#utility.yul\":8931:8936   */\n      dup2\n        /* \"#utility.yul\":8904:8937   */\n      tag_137\n      jump\t// in\n    tag_271:\n        /* \"#utility.yul\":8800:8943   */\n      swap3\n      swap2\n      pop\n      pop\n      jump\t// out\n        /* \"#utility.yul\":8949:9040   */\n    tag_160:\n        /* \"#utility.yul\":8984:8991   */\n      0x00\n        /* \"#utility.yul\":9028:9033   */\n      dup2\n        /* \"#utility.yul\":9024:9026   */\n      0x0b\n        /* \"#utility.yul\":9013:9034   */\n      signextend\n        /* \"#utility.yul\":9002:9034   */\n      swap1\n      pop\n        /* \"#utility.yul\":8949:9040   */\n      swap2\n      swap1\n      pop\n      jump\t// out\n        /* \"#utility.yul\":9046:9164   */\n    tag_161:\n        /* \"#utility.yul\":9117:9139   */\n      tag_274\n        /* \"#utility.yul\":9133:9138   */\n      dup2\n        /* \"#utility.yul\":9117:9139   */\n      tag_160\n      jump\t// in\n    tag_274:\n        /* \"#utility.yul\":9110:9115   */\n      dup2\n        /* \"#utility.yul\":9107:9140   */\n      eq\n        /* \"#utility.yul\":9097:9158   */\n      tag_275\n      jumpi\n        /* \"#utility.yul\":9154:9155   */\n      0x00\n        /* \"#utility.yul\":9151:9152   */\n      dup1\n        /* \"#utility.yul\":9144:9156   */\n      revert\n        /* \"#utility.yul\":9097:9158   */\n    tag_275:\n        /* \"#utility.yul\":9046:9164   */\n      pop\n      jump\t// out\n        /* \"#utility.yul\":9170:9309   */\n    tag_162:\n        /* \"#utility.yul\":9225:9230   */\n      0x00\n        /* \"#utility.yul\":9256:9262   */\n      dup2\n        /* \"#utility.yul\":9250:9263   */\n      mload\n        /* \"#utility.yul\":9241:9263   */\n      swap1\n      pop\n        /* \"#utility.yul\":9272:9303   */\n      tag_277\n        /* \"#utility.yul\":9297:9302   */\n      dup2\n        /* \"#utility.yul\":9272:9303   */\n      tag_161\n      jump\t// in\n    tag_277:\n        /* \"#utility.yul\":9170:9309   */\n      swap3\n      swap2\n      pop\n      pop\n      jump\t// out\n        /* \"#utility.yul\":9315:10131   */\n    tag_46:\n        /* \"#utility.yul\":9410:9416   */\n      0x00\n        /* \"#utility.yul\":9418:9424   */\n      dup1\n        /* \"#utility.yul\":9426:9432   */\n      0x00\n        /* \"#utility.yul\":9434:9440   */\n      dup1\n        /* \"#utility.yul\":9483:9486   */\n      0x80\n        /* \"#utility.yul\":9471:9480   */\n      dup6\n        /* \"#utility.yul\":9462:9469   */\n      dup8\n        /* \"#utility.yul\":9458:9481   */\n      sub\n        /* \"#utility.yul\":9454:9487   */\n      slt\n        /* \"#utility.yul\":9451:9571   */\n      iszero\n      tag_279\n      jumpi\n        /* \"#utility.yul\":9490:9569   */\n      tag_280\n      tag_130\n      jump\t// in\n    tag_280:\n        /* \"#utility.yul\":9451:9571   */\n    tag_279:\n        /* \"#utility.yul\":9610:9611   */\n      0x00\n        /* \"#utility.yul\":9635:9699   */\n      tag_281\n        /* \"#utility.yul\":9691:9698   */\n      dup8\n        /* \"#utility.yul\":9682:9688   */\n      dup3\n        /* \"#utility.yul\":9671:9680   */\n      dup9\n        /* \"#utility.yul\":9667:9689   */\n      add\n        /* \"#utility.yul\":9635:9699   */\n      tag_159\n      jump\t// in\n    tag_281:\n        /* \"#utility.yul\":9625:9699   */\n      swap5\n      pop\n        /* \"#utility.yul\":9581:9709   */\n      pop\n        /* \"#utility.yul\":9748:9750   */\n      0x20\n        /* \"#utility.yul\":9774:9836   */\n      tag_282\n        /* \"#utility.yul\":9828:9835   */\n      dup8\n        /* \"#utility.yul\":9819:9825   */\n      dup3\n        /* \"#utility.yul\":9808:9817   */\n      dup9\n        /* \"#utility.yul\":9804:9826   */\n      add\n        /* \"#utility.yul\":9774:9836   */\n      tag_162\n      jump\t// in\n    tag_282:\n        /* \"#utility.yul\":9764:9836   */\n      swap4\n      pop\n        /* \"#utility.yul\":9719:9846   */\n      pop\n        /* \"#utility.yul\":9885:9887   */\n      0x40\n        /* \"#utility.yul\":9911:9975   */\n      tag_283\n        /* \"#utility.yul\":9967:9974   */\n      dup8\n        /* \"#utility.yul\":9958:9964   */\n      dup3\n        /* \"#utility.yul\":9947:9956   */\n      dup9\n        /* \"#utility.yul\":9943:9965   */\n      add\n        /* \"#utility.yul\":9911:9975   */\n      tag_159\n      jump\t// in\n    tag_283:\n        /* \"#utility.yul\":9901:9975   */\n      swap3\n      pop\n        /* \"#utility.yul\":9856:9985   */\n      pop\n        /* \"#utility.yul\":10024:10026   */\n      0x60\n        /* \"#utility.yul\":10050:10114   */\n      tag_284\n        /* \"#utility.yul\":10106:10113   */\n      dup8\n        /* \"#utility.yul\":10097:10103   */\n      dup3\n        /* \"#utility.yul\":10086:10095   */\n      dup9\n        /* \"#utility.yul\":10082:10104   */\n      add\n        /* \"#utility.yul\":10050:10114   */\n      tag_159\n      jump\t// in\n    tag_284:\n        /* \"#utility.yul\":10040:10114   */\n      swap2\n      pop\n        /* \"#utility.yul\":9995:10124   */\n      pop\n        /* \"#utility.yul\":9315:10131   */\n      swap3\n      swap6\n      swap2\n      swap5\n      pop\n      swap3\n      pop\n      jump\t// out\n        /* \"#utility.yul\":10137:10317   */\n    tag_70:\n        /* \"#utility.yul\":10185:10262   */\n      0x4e487b7100000000000000000000000000000000000000000000000000000000\n        /* \"#utility.yul\":10182:10183   */\n      0x00\n        /* \"#utility.yul\":10175:10263   */\n      mstore\n        /* \"#utility.yul\":10282:10286   */\n      0x12\n        /* \"#utility.yul\":10279:10280   */\n      0x04\n        /* \"#utility.yul\":10272:10287   */\n      mstore\n        /* \"#utility.yul\":10306:10310   */\n      0x24\n        /* \"#utility.yul\":10303:10304   */\n      0x00\n        /* \"#utility.yul\":10296:10311   */\n      revert\n        /* \"#utility.yul\":10323:10503   */\n    tag_101:\n        /* \"#utility.yul\":10371:10448   */\n      0x4e487b7100000000000000000000000000000000000000000000000000000000\n        /* \"#utility.yul\":10368:10369   */\n      0x00\n        /* \"#utility.yul\":10361:10449   */\n      mstore\n        /* \"#utility.yul\":10468:10472   */\n      0x32\n        /* \"#utility.yul\":10465:10466   */\n      0x04\n        /* \"#utility.yul\":10458:10473   */\n      mstore\n        /* \"#utility.yul\":10492:10496   */\n      0x24\n        /* \"#utility.yul\":10489:10490   */\n      0x00\n        /* \"#utility.yul\":10482:10497   */\n      revert\n        /* \"#utility.yul\":10509:10689   */\n    tag_163:\n        /* \"#utility.yul\":10557:10634   */\n      0x4e487b7100000000000000000000000000000000000000000000000000000000\n        /* \"#utility.yul\":10554:10555   */\n      0x00\n        /* \"#utility.yul\":10547:10635   */\n      mstore\n        /* \"#utility.yul\":10654:10658   */\n      0x11\n        /* \"#utility.yul\":10651:10652   */\n      0x04\n        /* \"#utility.yul\":10644:10659   */\n      mstore\n        /* \"#utility.yul\":10678:10682   */\n      0x24\n        /* \"#utility.yul\":10675:10676   */\n      0x00\n        /* \"#utility.yul\":10668:10683   */\n      revert\n        /* \"#utility.yul\":10695:10866   */\n    tag_110:\n        /* \"#utility.yul\":10734:10737   */\n      0x00\n        /* \"#utility.yul\":10757:10781   */\n      tag_289\n        /* \"#utility.yul\":10775:10780   */\n      dup3\n        /* \"#utility.yul\":10757:10781   */\n      tag_136\n      jump\t// in\n    tag_289:\n        /* \"#utility.yul\":10748:10781   */\n      swap2\n      pop\n        /* \"#utility.yul\":10803:10807   */\n      0x00\n        /* \"#utility.yul\":10796:10801   */\n      dup3\n        /* \"#utility.yul\":10793:10808   */\n      sub\n        /* \"#utility.yul\":10790:10831   */\n      tag_290\n      jumpi\n        /* \"#utility.yul\":10811:10829   */\n      tag_291\n      tag_163\n      jump\t// in\n    tag_291:\n        /* \"#utility.yul\":10790:10831   */\n    tag_290:\n        /* \"#utility.yul\":10858:10859   */\n      0x01\n        /* \"#utility.yul\":10851:10856   */\n      dup3\n        /* \"#utility.yul\":10847:10860   */\n      sub\n        /* \"#utility.yul\":10840:10860   */\n      swap1\n      pop\n        /* \"#utility.yul\":10695:10866   */\n      swap2\n      swap1\n      pop\n      jump\t// out\n        /* \"#utility.yul\":10872:11282   */\n    tag_112:\n        /* \"#utility.yul\":10912:10919   */\n      0x00\n        /* \"#utility.yul\":10935:10955   */\n      tag_293\n        /* \"#utility.yul\":10953:10954   */\n      dup3\n        /* \"#utility.yul\":10935:10955   */\n      tag_136\n      jump\t// in\n    tag_293:\n        /* \"#utility.yul\":10930:10955   */\n      swap2\n      pop\n        /* \"#utility.yul\":10969:10989   */\n      tag_294\n        /* \"#utility.yul\":10987:10988   */\n      dup4\n        /* \"#utility.yul\":10969:10989   */\n      tag_136\n      jump\t// in\n    tag_294:\n        /* \"#utility.yul\":10964:10989   */\n      swap3\n      pop\n        /* \"#utility.yul\":11024:11025   */\n      dup3\n        /* \"#utility.yul\":11021:11022   */\n      dup3\n        /* \"#utility.yul\":11017:11026   */\n      mul\n        /* \"#utility.yul\":11046:11076   */\n      tag_295\n        /* \"#utility.yul\":11064:11075   */\n      dup2\n        /* \"#utility.yul\":11046:11076   */\n      tag_136\n      jump\t// in\n    tag_295:\n        /* \"#utility.yul\":11035:11076   */\n      swap2\n      pop\n        /* \"#utility.yul\":11225:11226   */\n      dup3\n        /* \"#utility.yul\":11216:11223   */\n      dup3\n        /* \"#utility.yul\":11212:11227   */\n      div\n        /* \"#utility.yul\":11209:11210   */\n      dup5\n        /* \"#utility.yul\":11206:11228   */\n      eq\n        /* \"#utility.yul\":11186:11187   */\n      dup4\n        /* \"#utility.yul\":11179:11188   */\n      iszero\n        /* \"#utility.yul\":11159:11242   */\n      or\n        /* \"#utility.yul\":11136:11275   */\n      tag_296\n      jumpi\n        /* \"#utility.yul\":11255:11273   */\n      tag_297\n      tag_163\n      jump\t// in\n    tag_297:\n        /* \"#utility.yul\":11136:11275   */\n    tag_296:\n        /* \"#utility.yul\":10920:11282   */\n      pop\n        /* \"#utility.yul\":10872:11282   */\n      swap3\n      swap2\n      pop\n      pop\n      jump\t// out\n        /* \"#utility.yul\":11288:11482   */\n    tag_116:\n        /* \"#utility.yul\":11328:11332   */\n      0x00\n        /* \"#utility.yul\":11348:11368   */\n      tag_299\n        /* \"#utility.yul\":11366:11367   */\n      dup3\n        /* \"#utility.yul\":11348:11368   */\n      tag_136\n      jump\t// in\n    tag_299:\n        /* \"#utility.yul\":11343:11368   */\n      swap2\n      pop\n        /* \"#utility.yul\":11382:11402   */\n      tag_300\n        /* \"#utility.yul\":11400:11401   */\n      dup4\n        /* \"#utility.yul\":11382:11402   */\n      tag_136\n      jump\t// in\n    tag_300:\n        /* \"#utility.yul\":11377:11402   */\n      swap3\n      pop\n        /* \"#utility.yul\":11426:11427   */\n      dup3\n        /* \"#utility.yul\":11423:11424   */\n      dup3\n        /* \"#utility.yul\":11419:11428   */\n      sub\n        /* \"#utility.yul\":11411:11428   */\n      swap1\n      pop\n        /* \"#utility.yul\":11450:11451   */\n      dup2\n        /* \"#utility.yul\":11444:11448   */\n      dup2\n        /* \"#utility.yul\":11441:11452   */\n      gt\n        /* \"#utility.yul\":11438:11475   */\n      iszero\n      tag_301\n      jumpi\n        /* \"#utility.yul\":11455:11473   */\n      tag_302\n      tag_163\n      jump\t// in\n    tag_302:\n        /* \"#utility.yul\":11438:11475   */\n    tag_301:\n        /* \"#utility.yul\":11288:11482   */\n      swap3\n      swap2\n      pop\n      pop\n      jump\t// out\n        /* \"#utility.yul\":11488:11679   */\n    tag_118:\n        /* \"#utility.yul\":11528:11531   */\n      0x00\n        /* \"#utility.yul\":11547:11567   */\n      tag_304\n        /* \"#utility.yul\":11565:11566   */\n      dup3\n        /* \"#utility.yul\":11547:11567   */\n      tag_136\n      jump\t// in\n    tag_304:\n        /* \"#utility.yul\":11542:11567   */\n      swap2\n      pop\n        /* \"#utility.yul\":11581:11601   */\n      tag_305\n        /* \"#utility.yul\":11599:11600   */\n      dup4\n        /* \"#utility.yul\":11581:11601   */\n      tag_136\n      jump\t// in\n    tag_305:\n        /* \"#utility.yul\":11576:11601   */\n      swap3\n      pop\n        /* \"#utility.yul\":11624:11625   */\n      dup3\n        /* \"#utility.yul\":11621:11622   */\n      dup3\n        /* \"#utility.yul\":11617:11626   */\n      add\n        /* \"#utility.yul\":11610:11626   */\n      swap1\n      pop\n        /* \"#utility.yul\":11645:11648   */\n      dup1\n        /* \"#utility.yul\":11642:11643   */\n      dup3\n        /* \"#utility.yul\":11639:11649   */\n      gt\n        /* \"#utility.yul\":11636:11672   */\n      iszero\n      tag_306\n      jumpi\n        /* \"#utility.yul\":11652:11670   */\n      tag_307\n      tag_163\n      jump\t// in\n    tag_307:\n        /* \"#utility.yul\":11636:11672   */\n    tag_306:\n        /* \"#utility.yul\":11488:11679   */\n      swap3\n      swap2\n      pop\n      pop\n      jump\t// out\n        /* \"#utility.yul\":11685:11918   */\n    tag_124:\n        /* \"#utility.yul\":11724:11727   */\n      0x00\n        /* \"#utility.yul\":11747:11771   */\n      tag_309\n        /* \"#utility.yul\":11765:11770   */\n      dup3\n        /* \"#utility.yul\":11747:11771   */\n      tag_136\n      jump\t// in\n    tag_309:\n        /* \"#utility.yul\":11738:11771   */\n      swap2\n      pop\n        /* \"#utility.yul\":11793:11859   */\n      0xffffffffffffffffffffffffffffffffffffffffffffffffffffffffffffffff\n        /* \"#utility.yul\":11786:11791   */\n      dup3\n        /* \"#utility.yul\":11783:11860   */\n      sub\n        /* \"#utility.yul\":11780:11883   */\n      tag_310\n      jumpi\n        /* \"#utility.yul\":11863:11881   */\n      tag_311\n      tag_163\n      jump\t// in\n    tag_311:\n        /* \"#utility.yul\":11780:11883   */\n    tag_310:\n        /* \"#utility.yul\":11910:11911   */\n      0x01\n        /* \"#utility.yul\":11903:11908   */\n      dup3\n        /* \"#utility.yul\":11899:11912   */\n      add\n        /* \"#utility.yul\":11892:11912   */\n      swap1\n      pop\n        /* \"#utility.yul\":11685:11918   */\n      swap2\n      swap1\n      pop\n      jump\t// out\n        /* \"#utility.yul\":11924:12026   */\n    tag_164:\n        /* \"#utility.yul\":11966:11974   */\n      0x00\n        /* \"#utility.yul\":12013:12018   */\n      dup2\n        /* \"#utility.yul\":12010:12011   */\n      0x01\n        /* \"#utility.yul\":12006:12019   */\n      shr\n        /* \"#utility.yul\":11985:12019   */\n      swap1\n      pop\n        /* \"#utility.yul\":11924:12026   */\n      swap2\n      swap1\n      pop\n      jump\t// out\n        /* \"#utility.yul\":12032:12880   */\n    tag_165:\n        /* \"#utility.yul\":12093:12098   */\n      0x00\n        /* \"#utility.yul\":12100:12104   */\n      dup1\n        /* \"#utility.yul\":12124:12130   */\n      dup3\n        /* \"#utility.yul\":12115:12130   */\n      swap2\n      pop\n        /* \"#utility.yul\":12148:12153   */\n      dup4\n        /* \"#utility.yul\":12139:12153   */\n      swap1\n      pop\n        /* \"#utility.yul\":12162:12874   */\n    tag_314:\n        /* \"#utility.yul\":12183:12184   */\n      0x01\n        /* \"#utility.yul\":12173:12181   */\n      dup6\n        /* \"#utility.yul\":12170:12185   */\n      gt\n        /* \"#utility.yul\":12162:12874   */\n      iszero\n      tag_316\n      jumpi\n        /* \"#utility.yul\":12278:12282   */\n      dup1\n        /* \"#utility.yul\":12273:12276   */\n      dup7\n        /* \"#utility.yul\":12269:12283   */\n      div\n        /* \"#utility.yul\":12263:12267   */\n      dup2\n        /* \"#utility.yul\":12260:12284   */\n      gt\n        /* \"#utility.yul\":12257:12307   */\n      iszero\n      tag_317\n      jumpi\n        /* \"#utility.yul\":12287:12305   */\n      tag_318\n      tag_163\n      jump\t// in\n    tag_318:\n        /* \"#utility.yul\":12257:12307   */\n    tag_317:\n        /* \"#utility.yul\":12337:12338   */\n      0x01\n        /* \"#utility.yul\":12327:12335   */\n      dup6\n        /* \"#utility.yul\":12323:12339   */\n      and\n        /* \"#utility.yul\":12320:12771   */\n      iszero\n      tag_319\n      jumpi\n        /* \"#utility.yul\":12752:12756   */\n      dup1\n        /* \"#utility.yul\":12745:12750   */\n      dup3\n        /* \"#utility.yul\":12741:12757   */\n      mul\n        /* \"#utility.yul\":12732:12757   */\n      swap2\n      pop\n        /* \"#utility.yul\":12320:12771   */\n    tag_319:\n        /* \"#utility.yul\":12802:12806   */\n      dup1\n        /* \"#utility.yul\":12796:12800   */\n      dup2\n        /* \"#utility.yul\":12792:12807   */\n      mul\n        /* \"#utility.yul\":12784:12807   */\n      swap1\n      pop\n        /* \"#utility.yul\":12832:12864   */\n      tag_320\n        /* \"#utility.yul\":12855:12863   */\n      dup6\n        /* \"#utility.yul\":12832:12864   */\n      tag_164\n      jump\t// in\n    tag_320:\n        /* \"#utility.yul\":12820:12864   */\n      swap5\n      pop\n        /* \"#utility.yul\":12162:12874   */\n      jump(tag_314)\n    tag_316:\n        /* \"#utility.yul\":12032:12880   */\n      swap5\n      pop\n      swap5\n      swap3\n      pop\n      pop\n      pop\n      jump\t// out\n        /* \"#utility.yul\":12886:13959   */\n    tag_166:\n        /* \"#utility.yul\":12940:12945   */\n      0x00\n        /* \"#utility.yul\":13131:13139   */\n      dup3\n        /* \"#utility.yul\":13121:13161   */\n      tag_322\n      jumpi\n        /* \"#utility.yul\":13152:13153   */\n      0x01\n        /* \"#utility.yul\":13143:13153   */\n      swap1\n      pop\n        /* \"#utility.yul\":13154:13159   */\n      jump(tag_321)\n        /* \"#utility.yul\":13121:13161   */\n    tag_322:\n        /* \"#utility.yul\":13180:13184   */\n      dup2\n        /* \"#utility.yul\":13170:13206   */\n      tag_323\n      jumpi\n        /* \"#utility.yul\":13197:13198   */\n      0x00\n        /* \"#utility.yul\":13188:13198   */\n      swap1\n      pop\n        /* \"#utility.yul\":13199:13204   */\n      jump(tag_321)\n        /* \"#utility.yul\":13170:13206   */\n    tag_323:\n        /* \"#utility.yul\":13266:13270   */\n      dup2\n        /* \"#utility.yul\":13314:13315   */\n      0x01\n        /* \"#utility.yul\":13309:13336   */\n      dup2\n      eq\n      tag_325\n      jumpi\n        /* \"#utility.yul\":13350:13351   */\n      0x02\n        /* \"#utility.yul\":13345:13536   */\n      dup2\n      eq\n      tag_326\n      jumpi\n        /* \"#utility.yul\":13259:13536   */\n      jump(tag_324)\n        /* \"#utility.yul\":13309:13336   */\n    tag_325:\n        /* \"#utility.yul\":13327:13328   */\n      0x01\n        /* \"#utility.yul\":13318:13328   */\n      swap2\n      pop\n        /* \"#utility.yul\":13329:13334   */\n      pop\n      jump(tag_321)\n        /* \"#utility.yul\":13345:13536   */\n    tag_326:\n        /* \"#utility.yul\":13390:13393   */\n      0xff\n        /* \"#utility.yul\":13380:13388   */\n      dup5\n        /* \"#utility.yul\":13377:13394   */\n      gt\n        /* \"#utility.yul\":13374:13417   */\n      iszero\n      tag_327\n      jumpi\n        /* \"#utility.yul\":13397:13415   */\n      tag_328\n      tag_163\n      jump\t// in\n    tag_328:\n        /* \"#utility.yul\":13374:13417   */\n    tag_327:\n        /* \"#utility.yul\":13446:13454   */\n      dup4\n        /* \"#utility.yul\":13443:13444   */\n      0x02\n        /* \"#utility.yul\":13439:13455   */\n      exp\n        /* \"#utility.yul\":13430:13455   */\n      swap2\n      pop\n        /* \"#utility.yul\":13481:13484   */\n      dup5\n        /* \"#utility.yul\":13474:13479   */\n      dup3\n        /* \"#utility.yul\":13471:13485   */\n      gt\n        /* \"#utility.yul\":13468:13508   */\n      iszero\n      tag_329\n      jumpi\n        /* \"#utility.yul\":13488:13506   */\n      tag_330\n      tag_163\n      jump\t// in\n    tag_330:\n        /* \"#utility.yul\":13468:13508   */\n    tag_329:\n        /* \"#utility.yul\":13521:13526   */\n      pop\n      jump(tag_321)\n        /* \"#utility.yul\":13259:13536   */\n    tag_324:\n      pop\n        /* \"#utility.yul\":13645:13647   */\n      0x20\n        /* \"#utility.yul\":13635:13643   */\n      dup4\n        /* \"#utility.yul\":13632:13648   */\n      lt\n        /* \"#utility.yul\":13626:13629   */\n      0x0133\n        /* \"#utility.yul\":13620:13624   */\n      dup4\n        /* \"#utility.yul\":13617:13630   */\n      lt\n        /* \"#utility.yul\":13613:13649   */\n      and\n        /* \"#utility.yul\":13595:13597   */\n      0x4e\n        /* \"#utility.yul\":13585:13593   */\n      dup5\n        /* \"#utility.yul\":13582:13598   */\n      lt\n        /* \"#utility.yul\":13577:13579   */\n      0x0b\n        /* \"#utility.yul\":13571:13575   */\n      dup5\n        /* \"#utility.yul\":13568:13580   */\n      lt\n        /* \"#utility.yul\":13564:13599   */\n      and\n        /* \"#utility.yul\":13548:13659   */\n      or\n        /* \"#utility.yul\":13545:13791   */\n      iszero\n      tag_331\n      jumpi\n        /* \"#utility.yul\":13701:13709   */\n      dup3\n        /* \"#utility.yul\":13695:13699   */\n      dup3\n        /* \"#utility.yul\":13691:13710   */\n      exp\n        /* \"#utility.yul\":13682:13710   */\n      swap1\n      pop\n        /* \"#utility.yul\":13736:13739   */\n      dup4\n        /* \"#utility.yul\":13729:13734   */\n      dup2\n        /* \"#utility.yul\":13726:13740   */\n      gt\n        /* \"#utility.yul\":13723:13763   */\n      iszero\n      tag_332\n      jumpi\n        /* \"#utility.yul\":13743:13761   */\n      tag_333\n      tag_163\n      jump\t// in\n    tag_333:\n        /* \"#utility.yul\":13723:13763   */\n    tag_332:\n        /* \"#utility.yul\":13776:13781   */\n      jump(tag_321)\n        /* \"#utility.yul\":13545:13791   */\n    tag_331:\n        /* \"#utility.yul\":13816:13858   */\n      tag_334\n        /* \"#utility.yul\":13854:13857   */\n      dup5\n        /* \"#utility.yul\":13844:13852   */\n      dup5\n        /* \"#utility.yul\":13838:13842   */\n      dup5\n        /* \"#utility.yul\":13835:13836   */\n      0x01\n        /* \"#utility.yul\":13816:13858   */\n      tag_165\n      jump\t// in\n    tag_334:\n        /* \"#utility.yul\":13801:13858   */\n      swap3\n      pop\n      swap1\n      pop\n        /* \"#utility.yul\":13890:13894   */\n      dup2\n        /* \"#utility.yul\":13885:13888   */\n      dup5\n        /* \"#utility.yul\":13881:13895   */\n      div\n        /* \"#utility.yul\":13874:13879   */\n      dup2\n        /* \"#utility.yul\":13871:13896   */\n      gt\n        /* \"#utility.yul\":13868:13919   */\n      iszero\n      tag_335\n      jumpi\n        /* \"#utility.yul\":13899:13917   */\n      tag_336\n      tag_163\n      jump\t// in\n    tag_336:\n        /* \"#utility.yul\":13868:13919   */\n    tag_335:\n        /* \"#utility.yul\":13948:13952   */\n      dup2\n        /* \"#utility.yul\":13941:13946   */\n      dup2\n        /* \"#utility.yul\":13937:13953   */\n      mul\n        /* \"#utility.yul\":13928:13953   */\n      swap1\n      pop\n        /* \"#utility.yul\":12886:13959   */\n    tag_321:\n      swap4\n      swap3\n      pop\n      pop\n      pop\n      jump\t// out\n        /* \"#utility.yul\":13965:14250   */\n    tag_127:\n        /* \"#utility.yul\":14025:14030   */\n      0x00\n        /* \"#utility.yul\":14049:14072   */\n      tag_338\n        /* \"#utility.yul\":14067:14071   */\n      dup3\n        /* \"#utility.yul\":14049:14072   */\n      tag_136\n      jump\t// in\n    tag_338:\n        /* \"#utility.yul\":14041:14072   */\n      swap2\n      pop\n        /* \"#utility.yul\":14093:14120   */\n      tag_339\n        /* \"#utility.yul\":14111:14119   */\n      dup4\n        /* \"#utility.yul\":14093:14120   */\n      tag_136\n      jump\t// in\n    tag_339:\n        /* \"#utility.yul\":14081:14120   */\n      swap3\n      pop\n        /* \"#utility.yul\":14139:14243   */\n      tag_340\n        /* \"#utility.yul\":14176:14242   */\n      0xffffffffffffffffffffffffffffffffffffffffffffffffffffffffffffffff\n        /* \"#utility.yul\":14166:14174   */\n      dup5\n        /* \"#utility.yul\":14160:14164   */\n      dup5\n        /* \"#utility.yul\":14139:14243   */\n      tag_166\n      jump\t// in\n    tag_340:\n        /* \"#utility.yul\":14130:14243   */\n      swap1\n      pop\n        /* \"#utility.yul\":13965:14250   */\n      swap3\n      swap2\n      pop\n      pop\n      jump\t// out\n\n    auxdata: 0xa2646970667358221220755bd76f71864a46cdeafd7baf667002cbc61fcb6020c7c5e8569af5ee8434d564736f6c63430008120033\n}\n",
				"bytecode": {
					"linkReferences": {},
					"object": "60806040527349e565ed1bdc17f3d220f72df0857c26fa83f8736000806101000a81548173ffffffffffffffffffffffffffffffffffffffff021916908373ffffffffffffffffffffffffffffffffffffffff160217905550735d8b4c2554aeb7e86f387b4d6c00ac33499ed01f600160006101000a81548173ffffffffffffffffffffffffffffffffffffffff021916908373ffffffffffffffffffffffffffffffffffffffff1602179055507360ae865ee4c725cd04353b5aab364553f56cef82600260006101000a81548173ffffffffffffffffffffffffffffffffffffffff021916908373ffffffffffffffffffffffffffffffffffffffff1602179055507302101dfb77fde026414827fdc604ddaf224f0921600360006101000a81548173ffffffffffffffffffffffffffffffffffffffff021916908373ffffffffffffffffffffffffffffffffffffffff1602179055506040518060400160405280600c81526020017f3736313033353030373631300000000000000000000000000000000000000000815250600490816200019d91906200044d565b506040518060200160405280600081525060059081620001be91906200044d565b50348015620001cc57600080fd5b5062000534565b600081519050919050565b7f4e487b7100000000000000000000000000000000000000000000000000000000600052604160045260246000fd5b7f4e487b7100000000000000000000000000000000000000000000000000000000600052602260045260246000fd5b600060028204905060018216806200025557607f821691505b6020821081036200026b576200026a6200020d565b5b50919050565b60008190508160005260206000209050919050565b60006020601f8301049050919050565b600082821b905092915050565b600060088302620002d57fffffffffffffffffffffffffffffffffffffffffffffffffffffffffffffffff8262000296565b620002e1868362000296565b95508019841693508086168417925050509392505050565b6000819050919050565b6000819050919050565b60006200032e620003286200032284620002f9565b62000303565b620002f9565b9050919050565b6000819050919050565b6200034a836200030d565b62000362620003598262000335565b848454620002a3565b825550505050565b600090565b620003796200036a565b620003868184846200033f565b505050565b5b81811015620003ae57620003a26000826200036f565b6001810190506200038c565b5050565b601f821115620003fd57620003c78162000271565b620003d28462000286565b81016020851015620003e2578190505b620003fa620003f18562000286565b8301826200038b565b50505b505050565b600082821c905092915050565b6000620004226000198460080262000402565b1980831691505092915050565b60006200043d83836200040f565b9150826002028217905092915050565b6200045882620001d3565b67ffffffffffffffff811115620004745762000473620001de565b5b6200048082546200023c565b6200048d828285620003b2565b600060209050601f831160018114620004c55760008415620004b0578287015190505b620004bc85826200042f565b8655506200052c565b601f198416620004d58662000271565b60005b82811015620004ff57848901518255600182019150602085019450602081019050620004d8565b868310156200051f57848901516200051b601f8916826200040f565b8355505b6001600288020188555050505b505050505050565b61111080620005446000396000f3fe608060405234801561001057600080fd5b50600436106100355760003560e01c8062fdd58e1461003a578063bb79f5871461006a575b600080fd5b610054600480360381019061004f91906108da565b61009a565b6040516100619190610929565b60405180910390f35b610084600480360381019061007f9190610a8a565b6102a3565b6040516100919190610b74565b60405180910390f35b600080600360009054906101000a900473ffffffffffffffffffffffffffffffffffffffff1673ffffffffffffffffffffffffffffffffffffffff1663192df655600260009054906101000a900473ffffffffffffffffffffffffffffffffffffffff16856040518363ffffffff1660e01b815260040161011c929190610b9e565b602060405180830381865afa158015610139573d6000803e3d6000fd5b505050506040513d601f19601f8201168201806040525081019061015d9190610bdc565b9050610288848261016d866104a7565b6004805461017a90610c38565b80601f01602080910402602001604051908101604052809291908181526020018280546101a690610c38565b80156101f35780601f106101c8576101008083540402835291602001916101f3565b820191906000526020600020905b8154815290600101906020018083116101d657829003601f168201915b50505050506005805461020590610c38565b80601f016020809104026020016040519081016040528092919081815260200182805461023190610c38565b801561027e5780601f106102535761010080835404028352916020019161027e565b820191906000526020600020905b81548152906001019060200180831161026157829003601f168201915b50505050506102a3565b1561029757600191505061029d565b60009150505b92915050565b600080600260009054906101000a900473ffffffffffffffffffffffffffffffffffffffff16905060008060009054906101000a900473ffffffffffffffffffffffffffffffffffffffff1690506000808273ffffffffffffffffffffffffffffffffffffffff1663e6a1e888600160009054906101000a900473ffffffffffffffffffffffffffffffffffffffff168c8c6040518463ffffffff1660e01b815260040161035393929190610cc8565b608060405180830381865afa158015610370573d6000803e3d6000fd5b505050506040513d601f19601f820116820180604052508101906103949190610d4d565b50509150915060008473ffffffffffffffffffffffffffffffffffffffff16636352211e6103c18b610575565b6040518263ffffffff1660e01b81526004016103dd9190610929565b602060405180830381865afa1580156103fa573d6000803e3d6000fd5b505050506040513d601f19601f8201168201806040525081019061041e9190610bdc565b9050600061042b89610575565b9050600061043889610575565b90508184600b0b121580156104575750600081148061045657508085105b5b8061048d57508273ffffffffffffffffffffffffffffffffffffffff168d73ffffffffffffffffffffffffffffffffffffffff16145b1561049757600197505b5050505050505095945050505050565b6060600060016104b684610589565b01905060008167ffffffffffffffff8111156104d5576104d461095f565b5b6040519080825280601f01601f1916602001820160405280156105075781602001600182028036833780820191505090505b509050600082602001820190505b60011561056a578080600190039150507f3031323334353637383961626364656600000000000000000000000000000000600a86061a8153600a858161055e5761055d610db4565b5b04945060008503610515575b819350505050919050565b60006105828260006106dc565b9050919050565b600080600090507a184f03e93ff9f4daa797ed6e38ed64bf6a1f01000000000000000083106105e7577a184f03e93ff9f4daa797ed6e38ed64bf6a1f01000000000000000083816105dd576105dc610db4565b5b0492506040810190505b6d04ee2d6d415b85acef81000000008310610624576d04ee2d6d415b85acef8100000000838161061a57610619610db4565b5b0492506020810190505b662386f26fc10000831061065357662386f26fc10000838161064957610648610db4565b5b0492506010810190505b6305f5e100831061067c576305f5e100838161067257610671610db4565b5b0492506008810190505b61271083106106a157612710838161069757610696610db4565b5b0492506004810190505b606483106106c457606483816106ba576106b9610db4565b5b0492506002810190505b600a83106106d3576001810190505b80915050919050565b60008083905060008060005b835181101561080157603084828151811061070657610705610de3565b5b602001015160f81c60f81b60f81c60ff16101580156107495750603984828151811061073557610734610de3565b5b602001015160f81c60f81b60f81c60ff1611155b156107bd57811561076c57600086031561080157858061076890610e41565b9650505b600a836107799190610e6a565b925060308482815181106107905761078f610de3565b5b602001015160f81c60f81b60f81c60ff166107ab9190610eac565b836107b69190610ee0565b92506107ee565b602e8482815181106107d2576107d1610de3565b5b602001015160f81c60f81b60f81c60ff16036107ed57600191505b5b80806107f990610f14565b9150506106e8565b5060008511156108265784600a610818919061108f565b826108239190610e6a565b91505b81935050505092915050565b6000604051905090565b600080fd5b600080fd5b600073ffffffffffffffffffffffffffffffffffffffff82169050919050565b600061087182610846565b9050919050565b61088181610866565b811461088c57600080fd5b50565b60008135905061089e81610878565b92915050565b6000819050919050565b6108b7816108a4565b81146108c257600080fd5b50565b6000813590506108d4816108ae565b92915050565b600080604083850312156108f1576108f061083c565b5b60006108ff8582860161088f565b9250506020610910858286016108c5565b9150509250929050565b610923816108a4565b82525050565b600060208201905061093e600083018461091a565b92915050565b600080fd5b600080fd5b6000601f19601f8301169050919050565b7f4e487b7100000000000000000000000000000000000000000000000000000000600052604160045260246000fd5b6109978261094e565b810181811067ffffffffffffffff821117156109b6576109b561095f565b5b80604052505050565b60006109c9610832565b90506109d5828261098e565b919050565b600067ffffffffffffffff8211156109f5576109f461095f565b5b6109fe8261094e565b9050602081019050919050565b82818337600083830152505050565b6000610a2d610a28846109da565b6109bf565b905082815260208101848484011115610a4957610a48610949565b5b610a54848285610a0b565b509392505050565b600082601f830112610a7157610a70610944565b5b8135610a81848260208601610a1a565b91505092915050565b600080600080600060a08688031215610aa657610aa561083c565b5b6000610ab48882890161088f565b9550506020610ac58882890161088f565b945050604086013567ffffffffffffffff811115610ae657610ae5610841565b5b610af288828901610a5c565b935050606086013567ffffffffffffffff811115610b1357610b12610841565b5b610b1f88828901610a5c565b925050608086013567ffffffffffffffff811115610b4057610b3f610841565b5b610b4c88828901610a5c565b9150509295509295909350565b60008115159050919050565b610b6e81610b59565b82525050565b6000602082019050610b896000830184610b65565b92915050565b610b9881610866565b82525050565b6000604082019050610bb36000830185610b8f565b610bc0602083018461091a565b9392505050565b600081519050610bd681610878565b92915050565b600060208284031215610bf257610bf161083c565b5b6000610c0084828501610bc7565b91505092915050565b7f4e487b7100000000000000000000000000000000000000000000000000000000600052602260045260246000fd5b60006002820490506001821680610c5057607f821691505b602082108103610c6357610c62610c09565b5b50919050565b6000819050919050565b6000610c8e610c89610c8484610846565b610c69565b610846565b9050919050565b6000610ca082610c73565b9050919050565b6000610cb282610c95565b9050919050565b610cc281610ca7565b82525050565b6000606082019050610cdd6000830186610cb9565b610cea6020830185610b8f565b610cf76040830184610b8f565b949350505050565b600081519050610d0e816108ae565b92915050565b600081600b0b9050919050565b610d2a81610d14565b8114610d3557600080fd5b50565b600081519050610d4781610d21565b92915050565b60008060008060808587031215610d6757610d6661083c565b5b6000610d7587828801610cff565b9450506020610d8687828801610d38565b9350506040610d9787828801610cff565b9250506060610da887828801610cff565b91505092959194509250565b7f4e487b7100000000000000000000000000000000000000000000000000000000600052601260045260246000fd5b7f4e487b7100000000000000000000000000000000000000000000000000000000600052603260045260246000fd5b7f4e487b7100000000000000000000000000000000000000000000000000000000600052601160045260246000fd5b6000610e4c826108a4565b915060008203610e5f57610e5e610e12565b5b600182039050919050565b6000610e75826108a4565b9150610e80836108a4565b9250828202610e8e816108a4565b91508282048414831517610ea557610ea4610e12565b5b5092915050565b6000610eb7826108a4565b9150610ec2836108a4565b9250828203905081811115610eda57610ed9610e12565b5b92915050565b6000610eeb826108a4565b9150610ef6836108a4565b9250828201905080821115610f0e57610f0d610e12565b5b92915050565b6000610f1f826108a4565b91507fffffffffffffffffffffffffffffffffffffffffffffffffffffffffffffffff8203610f5157610f50610e12565b5b600182019050919050565b60008160011c9050919050565b6000808291508390505b6001851115610fb357808604811115610f8f57610f8e610e12565b5b6001851615610f9e5780820291505b8081029050610fac85610f5c565b9450610f73565b94509492505050565b600082610fcc5760019050611088565b81610fda5760009050611088565b8160018114610ff05760028114610ffa57611029565b6001915050611088565b60ff84111561100c5761100b610e12565b5b8360020a91508482111561102357611022610e12565b5b50611088565b5060208310610133831016604e8410600b841016171561105e5782820a90508381111561105957611058610e12565b5b611088565b61106b8484846001610f69565b9250905081840481111561108257611081610e12565b5b81810290505b9392505050565b600061109a826108a4565b91506110a5836108a4565b92506110d27fffffffffffffffffffffffffffffffffffffffffffffffffffffffffffffffff8484610fbc565b90509291505056fea2646970667358221220755bd76f71864a46cdeafd7baf667002cbc61fcb6020c7c5e8569af5ee8434d564736f6c63430008120033",
					"opcodes": "PUSH1 0x80 PUSH1 0x40 MSTORE PUSH20 0x49E565ED1BDC17F3D220F72DF0857C26FA83F873 PUSH1 0x0 DUP1 PUSH2 0x100 EXP DUP2 SLOAD DUP2 PUSH20 0xFFFFFFFFFFFFFFFFFFFFFFFFFFFFFFFFFFFFFFFF MUL NOT AND SWAP1 DUP4 PUSH20 0xFFFFFFFFFFFFFFFFFFFFFFFFFFFFFFFFFFFFFFFF AND MUL OR SWAP1 SSTORE POP PUSH20 0x5D8B4C2554AEB7E86F387B4D6C00AC33499ED01F PUSH1 0x1 PUSH1 0x0 PUSH2 0x100 EXP DUP2 SLOAD DUP2 PUSH20 0xFFFFFFFFFFFFFFFFFFFFFFFFFFFFFFFFFFFFFFFF MUL NOT AND SWAP1 DUP4 PUSH20 0xFFFFFFFFFFFFFFFFFFFFFFFFFFFFFFFFFFFFFFFF AND MUL OR SWAP1 SSTORE POP PUSH20 0x60AE865EE4C725CD04353B5AAB364553F56CEF82 PUSH1 0x2 PUSH1 0x0 PUSH2 0x100 EXP DUP2 SLOAD DUP2 PUSH20 0xFFFFFFFFFFFFFFFFFFFFFFFFFFFFFFFFFFFFFFFF MUL NOT AND SWAP1 DUP4 PUSH20 0xFFFFFFFFFFFFFFFFFFFFFFFFFFFFFFFFFFFFFFFF AND MUL OR SWAP1 SSTORE POP PUSH20 0x2101DFB77FDE026414827FDC604DDAF224F0921 PUSH1 0x3 PUSH1 0x0 PUSH2 0x100 EXP DUP2 SLOAD DUP2 PUSH20 0xFFFFFFFFFFFFFFFFFFFFFFFFFFFFFFFFFFFFFFFF MUL NOT AND SWAP1 DUP4 PUSH20 0xFFFFFFFFFFFFFFFFFFFFFFFFFFFFFFFFFFFFFFFF AND MUL OR SWAP1 SSTORE POP PUSH1 0x40 MLOAD DUP1 PUSH1 0x40 ADD PUSH1 0x40 MSTORE DUP1 PUSH1 0xC DUP2 MSTORE PUSH1 0x20 ADD PUSH32 0x3736313033353030373631300000000000000000000000000000000000000000 DUP2 MSTORE POP PUSH1 0x4 SWAP1 DUP2 PUSH3 0x19D SWAP2 SWAP1 PUSH3 0x44D JUMP JUMPDEST POP PUSH1 0x40 MLOAD DUP1 PUSH1 0x20 ADD PUSH1 0x40 MSTORE DUP1 PUSH1 0x0 DUP2 MSTORE POP PUSH1 0x5 SWAP1 DUP2 PUSH3 0x1BE SWAP2 SWAP1 PUSH3 0x44D JUMP JUMPDEST POP CALLVALUE DUP1 ISZERO PUSH3 0x1CC JUMPI PUSH1 0x0 DUP1 REVERT JUMPDEST POP PUSH3 0x534 JUMP JUMPDEST PUSH1 0x0 DUP2 MLOAD SWAP1 POP SWAP2 SWAP1 POP JUMP JUMPDEST PUSH32 0x4E487B7100000000000000000000000000000000000000000000000000000000 PUSH1 0x0 MSTORE PUSH1 0x41 PUSH1 0x4 MSTORE PUSH1 0x24 PUSH1 0x0 REVERT JUMPDEST PUSH32 0x4E487B7100000000000000000000000000000000000000000000000000000000 PUSH1 0x0 MSTORE PUSH1 0x22 PUSH1 0x4 MSTORE PUSH1 0x24 PUSH1 0x0 REVERT JUMPDEST PUSH1 0x0 PUSH1 0x2 DUP3 DIV SWAP1 POP PUSH1 0x1 DUP3 AND DUP1 PUSH3 0x255 JUMPI PUSH1 0x7F DUP3 AND SWAP2 POP JUMPDEST PUSH1 0x20 DUP3 LT DUP2 SUB PUSH3 0x26B JUMPI PUSH3 0x26A PUSH3 0x20D JUMP JUMPDEST JUMPDEST POP SWAP2 SWAP1 POP JUMP JUMPDEST PUSH1 0x0 DUP2 SWAP1 POP DUP2 PUSH1 0x0 MSTORE PUSH1 0x20 PUSH1 0x0 KECCAK256 SWAP1 POP SWAP2 SWAP1 POP JUMP JUMPDEST PUSH1 0x0 PUSH1 0x20 PUSH1 0x1F DUP4 ADD DIV SWAP1 POP SWAP2 SWAP1 POP JUMP JUMPDEST PUSH1 0x0 DUP3 DUP3 SHL SWAP1 POP SWAP3 SWAP2 POP POP JUMP JUMPDEST PUSH1 0x0 PUSH1 0x8 DUP4 MUL PUSH3 0x2D5 PUSH32 0xFFFFFFFFFFFFFFFFFFFFFFFFFFFFFFFFFFFFFFFFFFFFFFFFFFFFFFFFFFFFFFFF DUP3 PUSH3 0x296 JUMP JUMPDEST PUSH3 0x2E1 DUP7 DUP4 PUSH3 0x296 JUMP JUMPDEST SWAP6 POP DUP1 NOT DUP5 AND SWAP4 POP DUP1 DUP7 AND DUP5 OR SWAP3 POP POP POP SWAP4 SWAP3 POP POP POP JUMP JUMPDEST PUSH1 0x0 DUP2 SWAP1 POP SWAP2 SWAP1 POP JUMP JUMPDEST PUSH1 0x0 DUP2 SWAP1 POP SWAP2 SWAP1 POP JUMP JUMPDEST PUSH1 0x0 PUSH3 0x32E PUSH3 0x328 PUSH3 0x322 DUP5 PUSH3 0x2F9 JUMP JUMPDEST PUSH3 0x303 JUMP JUMPDEST PUSH3 0x2F9 JUMP JUMPDEST SWAP1 POP SWAP2 SWAP1 POP JUMP JUMPDEST PUSH1 0x0 DUP2 SWAP1 POP SWAP2 SWAP1 POP JUMP JUMPDEST PUSH3 0x34A DUP4 PUSH3 0x30D JUMP JUMPDEST PUSH3 0x362 PUSH3 0x359 DUP3 PUSH3 0x335 JUMP JUMPDEST DUP5 DUP5 SLOAD PUSH3 0x2A3 JUMP JUMPDEST DUP3 SSTORE POP POP POP POP JUMP JUMPDEST PUSH1 0x0 SWAP1 JUMP JUMPDEST PUSH3 0x379 PUSH3 0x36A JUMP JUMPDEST PUSH3 0x386 DUP2 DUP5 DUP5 PUSH3 0x33F JUMP JUMPDEST POP POP POP JUMP JUMPDEST JUMPDEST DUP2 DUP2 LT ISZERO PUSH3 0x3AE JUMPI PUSH3 0x3A2 PUSH1 0x0 DUP3 PUSH3 0x36F JUMP JUMPDEST PUSH1 0x1 DUP2 ADD SWAP1 POP PUSH3 0x38C JUMP JUMPDEST POP POP JUMP JUMPDEST PUSH1 0x1F DUP3 GT ISZERO PUSH3 0x3FD JUMPI PUSH3 0x3C7 DUP2 PUSH3 0x271 JUMP JUMPDEST PUSH3 0x3D2 DUP5 PUSH3 0x286 JUMP JUMPDEST DUP2 ADD PUSH1 0x20 DUP6 LT ISZERO PUSH3 0x3E2 JUMPI DUP2 SWAP1 POP JUMPDEST PUSH3 0x3FA PUSH3 0x3F1 DUP6 PUSH3 0x286 JUMP JUMPDEST DUP4 ADD DUP3 PUSH3 0x38B JUMP JUMPDEST POP POP JUMPDEST POP POP POP JUMP JUMPDEST PUSH1 0x0 DUP3 DUP3 SHR SWAP1 POP SWAP3 SWAP2 POP POP JUMP JUMPDEST PUSH1 0x0 PUSH3 0x422 PUSH1 0x0 NOT DUP5 PUSH1 0x8 MUL PUSH3 0x402 JUMP JUMPDEST NOT DUP1 DUP4 AND SWAP2 POP POP SWAP3 SWAP2 POP POP JUMP JUMPDEST PUSH1 0x0 PUSH3 0x43D DUP4 DUP4 PUSH3 0x40F JUMP JUMPDEST SWAP2 POP DUP3 PUSH1 0x2 MUL DUP3 OR SWAP1 POP SWAP3 SWAP2 POP POP JUMP JUMPDEST PUSH3 0x458 DUP3 PUSH3 0x1D3 JUMP JUMPDEST PUSH8 0xFFFFFFFFFFFFFFFF DUP2 GT ISZERO PUSH3 0x474 JUMPI PUSH3 0x473 PUSH3 0x1DE JUMP JUMPDEST JUMPDEST PUSH3 0x480 DUP3 SLOAD PUSH3 0x23C JUMP JUMPDEST PUSH3 0x48D DUP3 DUP3 DUP6 PUSH3 0x3B2 JUMP JUMPDEST PUSH1 0x0 PUSH1 0x20 SWAP1 POP PUSH1 0x1F DUP4 GT PUSH1 0x1 DUP2 EQ PUSH3 0x4C5 JUMPI PUSH1 0x0 DUP5 ISZERO PUSH3 0x4B0 JUMPI DUP3 DUP8 ADD MLOAD SWAP1 POP JUMPDEST PUSH3 0x4BC DUP6 DUP3 PUSH3 0x42F JUMP JUMPDEST DUP7 SSTORE POP PUSH3 0x52C JUMP JUMPDEST PUSH1 0x1F NOT DUP5 AND PUSH3 0x4D5 DUP7 PUSH3 0x271 JUMP JUMPDEST PUSH1 0x0 JUMPDEST DUP3 DUP2 LT ISZERO PUSH3 0x4FF JUMPI DUP5 DUP10 ADD MLOAD DUP3 SSTORE PUSH1 0x1 DUP3 ADD SWAP2 POP PUSH1 0x20 DUP6 ADD SWAP5 POP PUSH1 0x20 DUP2 ADD SWAP1 POP PUSH3 0x4D8 JUMP JUMPDEST DUP7 DUP4 LT ISZERO PUSH3 0x51F JUMPI DUP5 DUP10 ADD MLOAD PUSH3 0x51B PUSH1 0x1F DUP10 AND DUP3 PUSH3 0x40F JUMP JUMPDEST DUP4 SSTORE POP JUMPDEST PUSH1 0x1 PUSH1 0x2 DUP9 MUL ADD DUP9 SSTORE POP POP POP JUMPDEST POP POP POP POP POP POP JUMP JUMPDEST PUSH2 0x1110 DUP1 PUSH3 0x544 PUSH1 0x0 CODECOPY PUSH1 0x0 RETURN INVALID PUSH1 0x80 PUSH1 0x40 MSTORE CALLVALUE DUP1 ISZERO PUSH2 0x10 JUMPI PUSH1 0x0 DUP1 REVERT JUMPDEST POP PUSH1 0x4 CALLDATASIZE LT PUSH2 0x35 JUMPI PUSH1 0x0 CALLDATALOAD PUSH1 0xE0 SHR DUP1 PUSH3 0xFDD58E EQ PUSH2 0x3A JUMPI DUP1 PUSH4 0xBB79F587 EQ PUSH2 0x6A JUMPI JUMPDEST PUSH1 0x0 DUP1 REVERT JUMPDEST PUSH2 0x54 PUSH1 0x4 DUP1 CALLDATASIZE SUB DUP2 ADD SWAP1 PUSH2 0x4F SWAP2 SWAP1 PUSH2 0x8DA JUMP JUMPDEST PUSH2 0x9A JUMP JUMPDEST PUSH1 0x40 MLOAD PUSH2 0x61 SWAP2 SWAP1 PUSH2 0x929 JUMP JUMPDEST PUSH1 0x40 MLOAD DUP1 SWAP2 SUB SWAP1 RETURN JUMPDEST PUSH2 0x84 PUSH1 0x4 DUP1 CALLDATASIZE SUB DUP2 ADD SWAP1 PUSH2 0x7F SWAP2 SWAP1 PUSH2 0xA8A JUMP JUMPDEST PUSH2 0x2A3 JUMP JUMPDEST PUSH1 0x40 MLOAD PUSH2 0x91 SWAP2 SWAP1 PUSH2 0xB74 JUMP JUMPDEST PUSH1 0x40 MLOAD DUP1 SWAP2 SUB SWAP1 RETURN JUMPDEST PUSH1 0x0 DUP1 PUSH1 0x3 PUSH1 0x0 SWAP1 SLOAD SWAP1 PUSH2 0x100 EXP SWAP1 DIV PUSH20 0xFFFFFFFFFFFFFFFFFFFFFFFFFFFFFFFFFFFFFFFF AND PUSH20 0xFFFFFFFFFFFFFFFFFFFFFFFFFFFFFFFFFFFFFFFF AND PUSH4 0x192DF655 PUSH1 0x2 PUSH1 0x0 SWAP1 SLOAD SWAP1 PUSH2 0x100 EXP SWAP1 DIV PUSH20 0xFFFFFFFFFFFFFFFFFFFFFFFFFFFFFFFFFFFFFFFF AND DUP6 PUSH1 0x40 MLOAD DUP4 PUSH4 0xFFFFFFFF AND PUSH1 0xE0 SHL DUP2 MSTORE PUSH1 0x4 ADD PUSH2 0x11C SWAP3 SWAP2 SWAP1 PUSH2 0xB9E JUMP JUMPDEST PUSH1 0x20 PUSH1 0x40 MLOAD DUP1 DUP4 SUB DUP2 DUP7 GAS STATICCALL ISZERO DUP1 ISZERO PUSH2 0x139 JUMPI RETURNDATASIZE PUSH1 0x0 DUP1 RETURNDATACOPY RETURNDATASIZE PUSH1 0x0 REVERT JUMPDEST POP POP POP POP PUSH1 0x40 MLOAD RETURNDATASIZE PUSH1 0x1F NOT PUSH1 0x1F DUP3 ADD AND DUP3 ADD DUP1 PUSH1 0x40 MSTORE POP DUP2 ADD SWAP1 PUSH2 0x15D SWAP2 SWAP1 PUSH2 0xBDC JUMP JUMPDEST SWAP1 POP PUSH2 0x288 DUP5 DUP3 PUSH2 0x16D DUP7 PUSH2 0x4A7 JUMP JUMPDEST PUSH1 0x4 DUP1 SLOAD PUSH2 0x17A SWAP1 PUSH2 0xC38 JUMP JUMPDEST DUP1 PUSH1 0x1F ADD PUSH1 0x20 DUP1 SWAP2 DIV MUL PUSH1 0x20 ADD PUSH1 0x40 MLOAD SWAP1 DUP2 ADD PUSH1 0x40 MSTORE DUP1 SWAP3 SWAP2 SWAP1 DUP2 DUP2 MSTORE PUSH1 0x20 ADD DUP3 DUP1 SLOAD PUSH2 0x1A6 SWAP1 PUSH2 0xC38 JUMP JUMPDEST DUP1 ISZERO PUSH2 0x1F3 JUMPI DUP1 PUSH1 0x1F LT PUSH2 0x1C8 JUMPI PUSH2 0x100 DUP1 DUP4 SLOAD DIV MUL DUP4 MSTORE SWAP2 PUSH1 0x20 ADD SWAP2 PUSH2 0x1F3 JUMP JUMPDEST DUP3 ADD SWAP2 SWAP1 PUSH1 0x0 MSTORE PUSH1 0x20 PUSH1 0x0 KECCAK256 SWAP1 JUMPDEST DUP2 SLOAD DUP2 MSTORE SWAP1 PUSH1 0x1 ADD SWAP1 PUSH1 0x20 ADD DUP1 DUP4 GT PUSH2 0x1D6 JUMPI DUP3 SWAP1 SUB PUSH1 0x1F AND DUP3 ADD SWAP2 JUMPDEST POP POP POP POP POP PUSH1 0x5 DUP1 SLOAD PUSH2 0x205 SWAP1 PUSH2 0xC38 JUMP JUMPDEST DUP1 PUSH1 0x1F ADD PUSH1 0x20 DUP1 SWAP2 DIV MUL PUSH1 0x20 ADD PUSH1 0x40 MLOAD SWAP1 DUP2 ADD PUSH1 0x40 MSTORE DUP1 SWAP3 SWAP2 SWAP1 DUP2 DUP2 MSTORE PUSH1 0x20 ADD DUP3 DUP1 SLOAD PUSH2 0x231 SWAP1 PUSH2 0xC38 JUMP JUMPDEST DUP1 ISZERO PUSH2 0x27E JUMPI DUP1 PUSH1 0x1F LT PUSH2 0x253 JUMPI PUSH2 0x100 DUP1 DUP4 SLOAD DIV MUL DUP4 MSTORE SWAP2 PUSH1 0x20 ADD SWAP2 PUSH2 0x27E JUMP JUMPDEST DUP3 ADD SWAP2 SWAP1 PUSH1 0x0 MSTORE PUSH1 0x20 PUSH1 0x0 KECCAK256 SWAP1 JUMPDEST DUP2 SLOAD DUP2 MSTORE SWAP1 PUSH1 0x1 ADD SWAP1 PUSH1 0x20 ADD DUP1 DUP4 GT PUSH2 0x261 JUMPI DUP3 SWAP1 SUB PUSH1 0x1F AND DUP3 ADD SWAP2 JUMPDEST POP POP POP POP POP PUSH2 0x2A3 JUMP JUMPDEST ISZERO PUSH2 0x297 JUMPI PUSH1 0x1 SWAP2 POP POP PUSH2 0x29D JUMP JUMPDEST PUSH1 0x0 SWAP2 POP POP JUMPDEST SWAP3 SWAP2 POP POP JUMP JUMPDEST PUSH1 0x0 DUP1 PUSH1 0x2 PUSH1 0x0 SWAP1 SLOAD SWAP1 PUSH2 0x100 EXP SWAP1 DIV PUSH20 0xFFFFFFFFFFFFFFFFFFFFFFFFFFFFFFFFFFFFFFFF AND SWAP1 POP PUSH1 0x0 DUP1 PUSH1 0x0 SWAP1 SLOAD SWAP1 PUSH2 0x100 EXP SWAP1 DIV PUSH20 0xFFFFFFFFFFFFFFFFFFFFFFFFFFFFFFFFFFFFFFFF AND SWAP1 POP PUSH1 0x0 DUP1 DUP3 PUSH20 0xFFFFFFFFFFFFFFFFFFFFFFFFFFFFFFFFFFFFFFFF AND PUSH4 0xE6A1E888 PUSH1 0x1 PUSH1 0x0 SWAP1 SLOAD SWAP1 PUSH2 0x100 EXP SWAP1 DIV PUSH20 0xFFFFFFFFFFFFFFFFFFFFFFFFFFFFFFFFFFFFFFFF AND DUP13 DUP13 PUSH1 0x40 MLOAD DUP5 PUSH4 0xFFFFFFFF AND PUSH1 0xE0 SHL DUP2 MSTORE PUSH1 0x4 ADD PUSH2 0x353 SWAP4 SWAP3 SWAP2 SWAP1 PUSH2 0xCC8 JUMP JUMPDEST PUSH1 0x80 PUSH1 0x40 MLOAD DUP1 DUP4 SUB DUP2 DUP7 GAS STATICCALL ISZERO DUP1 ISZERO PUSH2 0x370 JUMPI RETURNDATASIZE PUSH1 0x0 DUP1 RETURNDATACOPY RETURNDATASIZE PUSH1 0x0 REVERT JUMPDEST POP POP POP POP PUSH1 0x40 MLOAD RETURNDATASIZE PUSH1 0x1F NOT PUSH1 0x1F DUP3 ADD AND DUP3 ADD DUP1 PUSH1 0x40 MSTORE POP DUP2 ADD SWAP1 PUSH2 0x394 SWAP2 SWAP1 PUSH2 0xD4D JUMP JUMPDEST POP POP SWAP2 POP SWAP2 POP PUSH1 0x0 DUP5 PUSH20 0xFFFFFFFFFFFFFFFFFFFFFFFFFFFFFFFFFFFFFFFF AND PUSH4 0x6352211E PUSH2 0x3C1 DUP12 PUSH2 0x575 JUMP JUMPDEST PUSH1 0x40 MLOAD DUP3 PUSH4 0xFFFFFFFF AND PUSH1 0xE0 SHL DUP2 MSTORE PUSH1 0x4 ADD PUSH2 0x3DD SWAP2 SWAP1 PUSH2 0x929 JUMP JUMPDEST PUSH1 0x20 PUSH1 0x40 MLOAD DUP1 DUP4 SUB DUP2 DUP7 GAS STATICCALL ISZERO DUP1 ISZERO PUSH2 0x3FA JUMPI RETURNDATASIZE PUSH1 0x0 DUP1 RETURNDATACOPY RETURNDATASIZE PUSH1 0x0 REVERT JUMPDEST POP POP POP POP PUSH1 0x40 MLOAD RETURNDATASIZE PUSH1 0x1F NOT PUSH1 0x1F DUP3 ADD AND DUP3 ADD DUP1 PUSH1 0x40 MSTORE POP DUP2 ADD SWAP1 PUSH2 0x41E SWAP2 SWAP1 PUSH2 0xBDC JUMP JUMPDEST SWAP1 POP PUSH1 0x0 PUSH2 0x42B DUP10 PUSH2 0x575 JUMP JUMPDEST SWAP1 POP PUSH1 0x0 PUSH2 0x438 DUP10 PUSH2 0x575 JUMP JUMPDEST SWAP1 POP DUP2 DUP5 PUSH1 0xB SIGNEXTEND SLT ISZERO DUP1 ISZERO PUSH2 0x457 JUMPI POP PUSH1 0x0 DUP2 EQ DUP1 PUSH2 0x456 JUMPI POP DUP1 DUP6 LT JUMPDEST JUMPDEST DUP1 PUSH2 0x48D JUMPI POP DUP3 PUSH20 0xFFFFFFFFFFFFFFFFFFFFFFFFFFFFFFFFFFFFFFFF AND DUP14 PUSH20 0xFFFFFFFFFFFFFFFFFFFFFFFFFFFFFFFFFFFFFFFF AND EQ JUMPDEST ISZERO PUSH2 0x497 JUMPI PUSH1 0x1 SWAP8 POP JUMPDEST POP POP POP POP POP POP POP SWAP6 SWAP5 POP POP POP POP POP JUMP JUMPDEST PUSH1 0x60 PUSH1 0x0 PUSH1 0x1 PUSH2 0x4B6 DUP5 PUSH2 0x589 JUMP JUMPDEST ADD SWAP1 POP PUSH1 0x0 DUP2 PUSH8 0xFFFFFFFFFFFFFFFF DUP2 GT ISZERO PUSH2 0x4D5 JUMPI PUSH2 0x4D4 PUSH2 0x95F JUMP JUMPDEST JUMPDEST PUSH1 0x40 MLOAD SWAP1 DUP1 DUP3 MSTORE DUP1 PUSH1 0x1F ADD PUSH1 0x1F NOT AND PUSH1 0x20 ADD DUP3 ADD PUSH1 0x40 MSTORE DUP1 ISZERO PUSH2 0x507 JUMPI DUP2 PUSH1 0x20 ADD PUSH1 0x1 DUP3 MUL DUP1 CALLDATASIZE DUP4 CALLDATACOPY DUP1 DUP3 ADD SWAP2 POP POP SWAP1 POP JUMPDEST POP SWAP1 POP PUSH1 0x0 DUP3 PUSH1 0x20 ADD DUP3 ADD SWAP1 POP JUMPDEST PUSH1 0x1 ISZERO PUSH2 0x56A JUMPI DUP1 DUP1 PUSH1 0x1 SWAP1 SUB SWAP2 POP POP PUSH32 0x3031323334353637383961626364656600000000000000000000000000000000 PUSH1 0xA DUP7 MOD BYTE DUP2 MSTORE8 PUSH1 0xA DUP6 DUP2 PUSH2 0x55E JUMPI PUSH2 0x55D PUSH2 0xDB4 JUMP JUMPDEST JUMPDEST DIV SWAP5 POP PUSH1 0x0 DUP6 SUB PUSH2 0x515 JUMPI JUMPDEST DUP2 SWAP4 POP POP POP POP SWAP2 SWAP1 POP JUMP JUMPDEST PUSH1 0x0 PUSH2 0x582 DUP3 PUSH1 0x0 PUSH2 0x6DC JUMP JUMPDEST SWAP1 POP SWAP2 SWAP1 POP JUMP JUMPDEST PUSH1 0x0 DUP1 PUSH1 0x0 SWAP1 POP PUSH27 0x184F03E93FF9F4DAA797ED6E38ED64BF6A1F010000000000000000 DUP4 LT PUSH2 0x5E7 JUMPI PUSH27 0x184F03E93FF9F4DAA797ED6E38ED64BF6A1F010000000000000000 DUP4 DUP2 PUSH2 0x5DD JUMPI PUSH2 0x5DC PUSH2 0xDB4 JUMP JUMPDEST JUMPDEST DIV SWAP3 POP PUSH1 0x40 DUP2 ADD SWAP1 POP JUMPDEST PUSH14 0x4EE2D6D415B85ACEF8100000000 DUP4 LT PUSH2 0x624 JUMPI PUSH14 0x4EE2D6D415B85ACEF8100000000 DUP4 DUP2 PUSH2 0x61A JUMPI PUSH2 0x619 PUSH2 0xDB4 JUMP JUMPDEST JUMPDEST DIV SWAP3 POP PUSH1 0x20 DUP2 ADD SWAP1 POP JUMPDEST PUSH7 0x2386F26FC10000 DUP4 LT PUSH2 0x653 JUMPI PUSH7 0x2386F26FC10000 DUP4 DUP2 PUSH2 0x649 JUMPI PUSH2 0x648 PUSH2 0xDB4 JUMP JUMPDEST JUMPDEST DIV SWAP3 POP PUSH1 0x10 DUP2 ADD SWAP1 POP JUMPDEST PUSH4 0x5F5E100 DUP4 LT PUSH2 0x67C JUMPI PUSH4 0x5F5E100 DUP4 DUP2 PUSH2 0x672 JUMPI PUSH2 0x671 PUSH2 0xDB4 JUMP JUMPDEST JUMPDEST DIV SWAP3 POP PUSH1 0x8 DUP2 ADD SWAP1 POP JUMPDEST PUSH2 0x2710 DUP4 LT PUSH2 0x6A1 JUMPI PUSH2 0x2710 DUP4 DUP2 PUSH2 0x697 JUMPI PUSH2 0x696 PUSH2 0xDB4 JUMP JUMPDEST JUMPDEST DIV SWAP3 POP PUSH1 0x4 DUP2 ADD SWAP1 POP JUMPDEST PUSH1 0x64 DUP4 LT PUSH2 0x6C4 JUMPI PUSH1 0x64 DUP4 DUP2 PUSH2 0x6BA JUMPI PUSH2 0x6B9 PUSH2 0xDB4 JUMP JUMPDEST JUMPDEST DIV SWAP3 POP PUSH1 0x2 DUP2 ADD SWAP1 POP JUMPDEST PUSH1 0xA DUP4 LT PUSH2 0x6D3 JUMPI PUSH1 0x1 DUP2 ADD SWAP1 POP JUMPDEST DUP1 SWAP2 POP POP SWAP2 SWAP1 POP JUMP JUMPDEST PUSH1 0x0 DUP1 DUP4 SWAP1 POP PUSH1 0x0 DUP1 PUSH1 0x0 JUMPDEST DUP4 MLOAD DUP2 LT ISZERO PUSH2 0x801 JUMPI PUSH1 0x30 DUP5 DUP3 DUP2 MLOAD DUP2 LT PUSH2 0x706 JUMPI PUSH2 0x705 PUSH2 0xDE3 JUMP JUMPDEST JUMPDEST PUSH1 0x20 ADD ADD MLOAD PUSH1 0xF8 SHR PUSH1 0xF8 SHL PUSH1 0xF8 SHR PUSH1 0xFF AND LT ISZERO DUP1 ISZERO PUSH2 0x749 JUMPI POP PUSH1 0x39 DUP5 DUP3 DUP2 MLOAD DUP2 LT PUSH2 0x735 JUMPI PUSH2 0x734 PUSH2 0xDE3 JUMP JUMPDEST JUMPDEST PUSH1 0x20 ADD ADD MLOAD PUSH1 0xF8 SHR PUSH1 0xF8 SHL PUSH1 0xF8 SHR PUSH1 0xFF AND GT ISZERO JUMPDEST ISZERO PUSH2 0x7BD JUMPI DUP2 ISZERO PUSH2 0x76C JUMPI PUSH1 0x0 DUP7 SUB ISZERO PUSH2 0x801 JUMPI DUP6 DUP1 PUSH2 0x768 SWAP1 PUSH2 0xE41 JUMP JUMPDEST SWAP7 POP POP JUMPDEST PUSH1 0xA DUP4 PUSH2 0x779 SWAP2 SWAP1 PUSH2 0xE6A JUMP JUMPDEST SWAP3 POP PUSH1 0x30 DUP5 DUP3 DUP2 MLOAD DUP2 LT PUSH2 0x790 JUMPI PUSH2 0x78F PUSH2 0xDE3 JUMP JUMPDEST JUMPDEST PUSH1 0x20 ADD ADD MLOAD PUSH1 0xF8 SHR PUSH1 0xF8 SHL PUSH1 0xF8 SHR PUSH1 0xFF AND PUSH2 0x7AB SWAP2 SWAP1 PUSH2 0xEAC JUMP JUMPDEST DUP4 PUSH2 0x7B6 SWAP2 SWAP1 PUSH2 0xEE0 JUMP JUMPDEST SWAP3 POP PUSH2 0x7EE JUMP JUMPDEST PUSH1 0x2E DUP5 DUP3 DUP2 MLOAD DUP2 LT PUSH2 0x7D2 JUMPI PUSH2 0x7D1 PUSH2 0xDE3 JUMP JUMPDEST JUMPDEST PUSH1 0x20 ADD ADD MLOAD PUSH1 0xF8 SHR PUSH1 0xF8 SHL PUSH1 0xF8 SHR PUSH1 0xFF AND SUB PUSH2 0x7ED JUMPI PUSH1 0x1 SWAP2 POP JUMPDEST JUMPDEST DUP1 DUP1 PUSH2 0x7F9 SWAP1 PUSH2 0xF14 JUMP JUMPDEST SWAP2 POP POP PUSH2 0x6E8 JUMP JUMPDEST POP PUSH1 0x0 DUP6 GT ISZERO PUSH2 0x826 JUMPI DUP5 PUSH1 0xA PUSH2 0x818 SWAP2 SWAP1 PUSH2 0x108F JUMP JUMPDEST DUP3 PUSH2 0x823 SWAP2 SWAP1 PUSH2 0xE6A JUMP JUMPDEST SWAP2 POP JUMPDEST DUP2 SWAP4 POP POP POP POP SWAP3 SWAP2 POP POP JUMP JUMPDEST PUSH1 0x0 PUSH1 0x40 MLOAD SWAP1 POP SWAP1 JUMP JUMPDEST PUSH1 0x0 DUP1 REVERT JUMPDEST PUSH1 0x0 DUP1 REVERT JUMPDEST PUSH1 0x0 PUSH20 0xFFFFFFFFFFFFFFFFFFFFFFFFFFFFFFFFFFFFFFFF DUP3 AND SWAP1 POP SWAP2 SWAP1 POP JUMP JUMPDEST PUSH1 0x0 PUSH2 0x871 DUP3 PUSH2 0x846 JUMP JUMPDEST SWAP1 POP SWAP2 SWAP1 POP JUMP JUMPDEST PUSH2 0x881 DUP2 PUSH2 0x866 JUMP JUMPDEST DUP2 EQ PUSH2 0x88C JUMPI PUSH1 0x0 DUP1 REVERT JUMPDEST POP JUMP JUMPDEST PUSH1 0x0 DUP2 CALLDATALOAD SWAP1 POP PUSH2 0x89E DUP2 PUSH2 0x878 JUMP JUMPDEST SWAP3 SWAP2 POP POP JUMP JUMPDEST PUSH1 0x0 DUP2 SWAP1 POP SWAP2 SWAP1 POP JUMP JUMPDEST PUSH2 0x8B7 DUP2 PUSH2 0x8A4 JUMP JUMPDEST DUP2 EQ PUSH2 0x8C2 JUMPI PUSH1 0x0 DUP1 REVERT JUMPDEST POP JUMP JUMPDEST PUSH1 0x0 DUP2 CALLDATALOAD SWAP1 POP PUSH2 0x8D4 DUP2 PUSH2 0x8AE JUMP JUMPDEST SWAP3 SWAP2 POP POP JUMP JUMPDEST PUSH1 0x0 DUP1 PUSH1 0x40 DUP4 DUP6 SUB SLT ISZERO PUSH2 0x8F1 JUMPI PUSH2 0x8F0 PUSH2 0x83C JUMP JUMPDEST JUMPDEST PUSH1 0x0 PUSH2 0x8FF DUP6 DUP3 DUP7 ADD PUSH2 0x88F JUMP JUMPDEST SWAP3 POP POP PUSH1 0x20 PUSH2 0x910 DUP6 DUP3 DUP7 ADD PUSH2 0x8C5 JUMP JUMPDEST SWAP2 POP POP SWAP3 POP SWAP3 SWAP1 POP JUMP JUMPDEST PUSH2 0x923 DUP2 PUSH2 0x8A4 JUMP JUMPDEST DUP3 MSTORE POP POP JUMP JUMPDEST PUSH1 0x0 PUSH1 0x20 DUP3 ADD SWAP1 POP PUSH2 0x93E PUSH1 0x0 DUP4 ADD DUP5 PUSH2 0x91A JUMP JUMPDEST SWAP3 SWAP2 POP POP JUMP JUMPDEST PUSH1 0x0 DUP1 REVERT JUMPDEST PUSH1 0x0 DUP1 REVERT JUMPDEST PUSH1 0x0 PUSH1 0x1F NOT PUSH1 0x1F DUP4 ADD AND SWAP1 POP SWAP2 SWAP1 POP JUMP JUMPDEST PUSH32 0x4E487B7100000000000000000000000000000000000000000000000000000000 PUSH1 0x0 MSTORE PUSH1 0x41 PUSH1 0x4 MSTORE PUSH1 0x24 PUSH1 0x0 REVERT JUMPDEST PUSH2 0x997 DUP3 PUSH2 0x94E JUMP JUMPDEST DUP2 ADD DUP2 DUP2 LT PUSH8 0xFFFFFFFFFFFFFFFF DUP3 GT OR ISZERO PUSH2 0x9B6 JUMPI PUSH2 0x9B5 PUSH2 0x95F JUMP JUMPDEST JUMPDEST DUP1 PUSH1 0x40 MSTORE POP POP POP JUMP JUMPDEST PUSH1 0x0 PUSH2 0x9C9 PUSH2 0x832 JUMP JUMPDEST SWAP1 POP PUSH2 0x9D5 DUP3 DUP3 PUSH2 0x98E JUMP JUMPDEST SWAP2 SWAP1 POP JUMP JUMPDEST PUSH1 0x0 PUSH8 0xFFFFFFFFFFFFFFFF DUP3 GT ISZERO PUSH2 0x9F5 JUMPI PUSH2 0x9F4 PUSH2 0x95F JUMP JUMPDEST JUMPDEST PUSH2 0x9FE DUP3 PUSH2 0x94E JUMP JUMPDEST SWAP1 POP PUSH1 0x20 DUP2 ADD SWAP1 POP SWAP2 SWAP1 POP JUMP JUMPDEST DUP3 DUP2 DUP4 CALLDATACOPY PUSH1 0x0 DUP4 DUP4 ADD MSTORE POP POP POP JUMP JUMPDEST PUSH1 0x0 PUSH2 0xA2D PUSH2 0xA28 DUP5 PUSH2 0x9DA JUMP JUMPDEST PUSH2 0x9BF JUMP JUMPDEST SWAP1 POP DUP3 DUP2 MSTORE PUSH1 0x20 DUP2 ADD DUP5 DUP5 DUP5 ADD GT ISZERO PUSH2 0xA49 JUMPI PUSH2 0xA48 PUSH2 0x949 JUMP JUMPDEST JUMPDEST PUSH2 0xA54 DUP5 DUP3 DUP6 PUSH2 0xA0B JUMP JUMPDEST POP SWAP4 SWAP3 POP POP POP JUMP JUMPDEST PUSH1 0x0 DUP3 PUSH1 0x1F DUP4 ADD SLT PUSH2 0xA71 JUMPI PUSH2 0xA70 PUSH2 0x944 JUMP JUMPDEST JUMPDEST DUP2 CALLDATALOAD PUSH2 0xA81 DUP5 DUP3 PUSH1 0x20 DUP7 ADD PUSH2 0xA1A JUMP JUMPDEST SWAP2 POP POP SWAP3 SWAP2 POP POP JUMP JUMPDEST PUSH1 0x0 DUP1 PUSH1 0x0 DUP1 PUSH1 0x0 PUSH1 0xA0 DUP7 DUP9 SUB SLT ISZERO PUSH2 0xAA6 JUMPI PUSH2 0xAA5 PUSH2 0x83C JUMP JUMPDEST JUMPDEST PUSH1 0x0 PUSH2 0xAB4 DUP9 DUP3 DUP10 ADD PUSH2 0x88F JUMP JUMPDEST SWAP6 POP POP PUSH1 0x20 PUSH2 0xAC5 DUP9 DUP3 DUP10 ADD PUSH2 0x88F JUMP JUMPDEST SWAP5 POP POP PUSH1 0x40 DUP7 ADD CALLDATALOAD PUSH8 0xFFFFFFFFFFFFFFFF DUP2 GT ISZERO PUSH2 0xAE6 JUMPI PUSH2 0xAE5 PUSH2 0x841 JUMP JUMPDEST JUMPDEST PUSH2 0xAF2 DUP9 DUP3 DUP10 ADD PUSH2 0xA5C JUMP JUMPDEST SWAP4 POP POP PUSH1 0x60 DUP7 ADD CALLDATALOAD PUSH8 0xFFFFFFFFFFFFFFFF DUP2 GT ISZERO PUSH2 0xB13 JUMPI PUSH2 0xB12 PUSH2 0x841 JUMP JUMPDEST JUMPDEST PUSH2 0xB1F DUP9 DUP3 DUP10 ADD PUSH2 0xA5C JUMP JUMPDEST SWAP3 POP POP PUSH1 0x80 DUP7 ADD CALLDATALOAD PUSH8 0xFFFFFFFFFFFFFFFF DUP2 GT ISZERO PUSH2 0xB40 JUMPI PUSH2 0xB3F PUSH2 0x841 JUMP JUMPDEST JUMPDEST PUSH2 0xB4C DUP9 DUP3 DUP10 ADD PUSH2 0xA5C JUMP JUMPDEST SWAP2 POP POP SWAP3 SWAP6 POP SWAP3 SWAP6 SWAP1 SWAP4 POP JUMP JUMPDEST PUSH1 0x0 DUP2 ISZERO ISZERO SWAP1 POP SWAP2 SWAP1 POP JUMP JUMPDEST PUSH2 0xB6E DUP2 PUSH2 0xB59 JUMP JUMPDEST DUP3 MSTORE POP POP JUMP JUMPDEST PUSH1 0x0 PUSH1 0x20 DUP3 ADD SWAP1 POP PUSH2 0xB89 PUSH1 0x0 DUP4 ADD DUP5 PUSH2 0xB65 JUMP JUMPDEST SWAP3 SWAP2 POP POP JUMP JUMPDEST PUSH2 0xB98 DUP2 PUSH2 0x866 JUMP JUMPDEST DUP3 MSTORE POP POP JUMP JUMPDEST PUSH1 0x0 PUSH1 0x40 DUP3 ADD SWAP1 POP PUSH2 0xBB3 PUSH1 0x0 DUP4 ADD DUP6 PUSH2 0xB8F JUMP JUMPDEST PUSH2 0xBC0 PUSH1 0x20 DUP4 ADD DUP5 PUSH2 0x91A JUMP JUMPDEST SWAP4 SWAP3 POP POP POP JUMP JUMPDEST PUSH1 0x0 DUP2 MLOAD SWAP1 POP PUSH2 0xBD6 DUP2 PUSH2 0x878 JUMP JUMPDEST SWAP3 SWAP2 POP POP JUMP JUMPDEST PUSH1 0x0 PUSH1 0x20 DUP3 DUP5 SUB SLT ISZERO PUSH2 0xBF2 JUMPI PUSH2 0xBF1 PUSH2 0x83C JUMP JUMPDEST JUMPDEST PUSH1 0x0 PUSH2 0xC00 DUP5 DUP3 DUP6 ADD PUSH2 0xBC7 JUMP JUMPDEST SWAP2 POP POP SWAP3 SWAP2 POP POP JUMP JUMPDEST PUSH32 0x4E487B7100000000000000000000000000000000000000000000000000000000 PUSH1 0x0 MSTORE PUSH1 0x22 PUSH1 0x4 MSTORE PUSH1 0x24 PUSH1 0x0 REVERT JUMPDEST PUSH1 0x0 PUSH1 0x2 DUP3 DIV SWAP1 POP PUSH1 0x1 DUP3 AND DUP1 PUSH2 0xC50 JUMPI PUSH1 0x7F DUP3 AND SWAP2 POP JUMPDEST PUSH1 0x20 DUP3 LT DUP2 SUB PUSH2 0xC63 JUMPI PUSH2 0xC62 PUSH2 0xC09 JUMP JUMPDEST JUMPDEST POP SWAP2 SWAP1 POP JUMP JUMPDEST PUSH1 0x0 DUP2 SWAP1 POP SWAP2 SWAP1 POP JUMP JUMPDEST PUSH1 0x0 PUSH2 0xC8E PUSH2 0xC89 PUSH2 0xC84 DUP5 PUSH2 0x846 JUMP JUMPDEST PUSH2 0xC69 JUMP JUMPDEST PUSH2 0x846 JUMP JUMPDEST SWAP1 POP SWAP2 SWAP1 POP JUMP JUMPDEST PUSH1 0x0 PUSH2 0xCA0 DUP3 PUSH2 0xC73 JUMP JUMPDEST SWAP1 POP SWAP2 SWAP1 POP JUMP JUMPDEST PUSH1 0x0 PUSH2 0xCB2 DUP3 PUSH2 0xC95 JUMP JUMPDEST SWAP1 POP SWAP2 SWAP1 POP JUMP JUMPDEST PUSH2 0xCC2 DUP2 PUSH2 0xCA7 JUMP JUMPDEST DUP3 MSTORE POP POP JUMP JUMPDEST PUSH1 0x0 PUSH1 0x60 DUP3 ADD SWAP1 POP PUSH2 0xCDD PUSH1 0x0 DUP4 ADD DUP7 PUSH2 0xCB9 JUMP JUMPDEST PUSH2 0xCEA PUSH1 0x20 DUP4 ADD DUP6 PUSH2 0xB8F JUMP JUMPDEST PUSH2 0xCF7 PUSH1 0x40 DUP4 ADD DUP5 PUSH2 0xB8F JUMP JUMPDEST SWAP5 SWAP4 POP POP POP POP JUMP JUMPDEST PUSH1 0x0 DUP2 MLOAD SWAP1 POP PUSH2 0xD0E DUP2 PUSH2 0x8AE JUMP JUMPDEST SWAP3 SWAP2 POP POP JUMP JUMPDEST PUSH1 0x0 DUP2 PUSH1 0xB SIGNEXTEND SWAP1 POP SWAP2 SWAP1 POP JUMP JUMPDEST PUSH2 0xD2A DUP2 PUSH2 0xD14 JUMP JUMPDEST DUP2 EQ PUSH2 0xD35 JUMPI PUSH1 0x0 DUP1 REVERT JUMPDEST POP JUMP JUMPDEST PUSH1 0x0 DUP2 MLOAD SWAP1 POP PUSH2 0xD47 DUP2 PUSH2 0xD21 JUMP JUMPDEST SWAP3 SWAP2 POP POP JUMP JUMPDEST PUSH1 0x0 DUP1 PUSH1 0x0 DUP1 PUSH1 0x80 DUP6 DUP8 SUB SLT ISZERO PUSH2 0xD67 JUMPI PUSH2 0xD66 PUSH2 0x83C JUMP JUMPDEST JUMPDEST PUSH1 0x0 PUSH2 0xD75 DUP8 DUP3 DUP9 ADD PUSH2 0xCFF JUMP JUMPDEST SWAP5 POP POP PUSH1 0x20 PUSH2 0xD86 DUP8 DUP3 DUP9 ADD PUSH2 0xD38 JUMP JUMPDEST SWAP4 POP POP PUSH1 0x40 PUSH2 0xD97 DUP8 DUP3 DUP9 ADD PUSH2 0xCFF JUMP JUMPDEST SWAP3 POP POP PUSH1 0x60 PUSH2 0xDA8 DUP8 DUP3 DUP9 ADD PUSH2 0xCFF JUMP JUMPDEST SWAP2 POP POP SWAP3 SWAP6 SWAP2 SWAP5 POP SWAP3 POP JUMP JUMPDEST PUSH32 0x4E487B7100000000000000000000000000000000000000000000000000000000 PUSH1 0x0 MSTORE PUSH1 0x12 PUSH1 0x4 MSTORE PUSH1 0x24 PUSH1 0x0 REVERT JUMPDEST PUSH32 0x4E487B7100000000000000000000000000000000000000000000000000000000 PUSH1 0x0 MSTORE PUSH1 0x32 PUSH1 0x4 MSTORE PUSH1 0x24 PUSH1 0x0 REVERT JUMPDEST PUSH32 0x4E487B7100000000000000000000000000000000000000000000000000000000 PUSH1 0x0 MSTORE PUSH1 0x11 PUSH1 0x4 MSTORE PUSH1 0x24 PUSH1 0x0 REVERT JUMPDEST PUSH1 0x0 PUSH2 0xE4C DUP3 PUSH2 0x8A4 JUMP JUMPDEST SWAP2 POP PUSH1 0x0 DUP3 SUB PUSH2 0xE5F JUMPI PUSH2 0xE5E PUSH2 0xE12 JUMP JUMPDEST JUMPDEST PUSH1 0x1 DUP3 SUB SWAP1 POP SWAP2 SWAP1 POP JUMP JUMPDEST PUSH1 0x0 PUSH2 0xE75 DUP3 PUSH2 0x8A4 JUMP JUMPDEST SWAP2 POP PUSH2 0xE80 DUP4 PUSH2 0x8A4 JUMP JUMPDEST SWAP3 POP DUP3 DUP3 MUL PUSH2 0xE8E DUP2 PUSH2 0x8A4 JUMP JUMPDEST SWAP2 POP DUP3 DUP3 DIV DUP5 EQ DUP4 ISZERO OR PUSH2 0xEA5 JUMPI PUSH2 0xEA4 PUSH2 0xE12 JUMP JUMPDEST JUMPDEST POP SWAP3 SWAP2 POP POP JUMP JUMPDEST PUSH1 0x0 PUSH2 0xEB7 DUP3 PUSH2 0x8A4 JUMP JUMPDEST SWAP2 POP PUSH2 0xEC2 DUP4 PUSH2 0x8A4 JUMP JUMPDEST SWAP3 POP DUP3 DUP3 SUB SWAP1 POP DUP2 DUP2 GT ISZERO PUSH2 0xEDA JUMPI PUSH2 0xED9 PUSH2 0xE12 JUMP JUMPDEST JUMPDEST SWAP3 SWAP2 POP POP JUMP JUMPDEST PUSH1 0x0 PUSH2 0xEEB DUP3 PUSH2 0x8A4 JUMP JUMPDEST SWAP2 POP PUSH2 0xEF6 DUP4 PUSH2 0x8A4 JUMP JUMPDEST SWAP3 POP DUP3 DUP3 ADD SWAP1 POP DUP1 DUP3 GT ISZERO PUSH2 0xF0E JUMPI PUSH2 0xF0D PUSH2 0xE12 JUMP JUMPDEST JUMPDEST SWAP3 SWAP2 POP POP JUMP JUMPDEST PUSH1 0x0 PUSH2 0xF1F DUP3 PUSH2 0x8A4 JUMP JUMPDEST SWAP2 POP PUSH32 0xFFFFFFFFFFFFFFFFFFFFFFFFFFFFFFFFFFFFFFFFFFFFFFFFFFFFFFFFFFFFFFFF DUP3 SUB PUSH2 0xF51 JUMPI PUSH2 0xF50 PUSH2 0xE12 JUMP JUMPDEST JUMPDEST PUSH1 0x1 DUP3 ADD SWAP1 POP SWAP2 SWAP1 POP JUMP JUMPDEST PUSH1 0x0 DUP2 PUSH1 0x1 SHR SWAP1 POP SWAP2 SWAP1 POP JUMP JUMPDEST PUSH1 0x0 DUP1 DUP3 SWAP2 POP DUP4 SWAP1 POP JUMPDEST PUSH1 0x1 DUP6 GT ISZERO PUSH2 0xFB3 JUMPI DUP1 DUP7 DIV DUP2 GT ISZERO PUSH2 0xF8F JUMPI PUSH2 0xF8E PUSH2 0xE12 JUMP JUMPDEST JUMPDEST PUSH1 0x1 DUP6 AND ISZERO PUSH2 0xF9E JUMPI DUP1 DUP3 MUL SWAP2 POP JUMPDEST DUP1 DUP2 MUL SWAP1 POP PUSH2 0xFAC DUP6 PUSH2 0xF5C JUMP JUMPDEST SWAP5 POP PUSH2 0xF73 JUMP JUMPDEST SWAP5 POP SWAP5 SWAP3 POP POP POP JUMP JUMPDEST PUSH1 0x0 DUP3 PUSH2 0xFCC JUMPI PUSH1 0x1 SWAP1 POP PUSH2 0x1088 JUMP JUMPDEST DUP2 PUSH2 0xFDA JUMPI PUSH1 0x0 SWAP1 POP PUSH2 0x1088 JUMP JUMPDEST DUP2 PUSH1 0x1 DUP2 EQ PUSH2 0xFF0 JUMPI PUSH1 0x2 DUP2 EQ PUSH2 0xFFA JUMPI PUSH2 0x1029 JUMP JUMPDEST PUSH1 0x1 SWAP2 POP POP PUSH2 0x1088 JUMP JUMPDEST PUSH1 0xFF DUP5 GT ISZERO PUSH2 0x100C JUMPI PUSH2 0x100B PUSH2 0xE12 JUMP JUMPDEST JUMPDEST DUP4 PUSH1 0x2 EXP SWAP2 POP DUP5 DUP3 GT ISZERO PUSH2 0x1023 JUMPI PUSH2 0x1022 PUSH2 0xE12 JUMP JUMPDEST JUMPDEST POP PUSH2 0x1088 JUMP JUMPDEST POP PUSH1 0x20 DUP4 LT PUSH2 0x133 DUP4 LT AND PUSH1 0x4E DUP5 LT PUSH1 0xB DUP5 LT AND OR ISZERO PUSH2 0x105E JUMPI DUP3 DUP3 EXP SWAP1 POP DUP4 DUP2 GT ISZERO PUSH2 0x1059 JUMPI PUSH2 0x1058 PUSH2 0xE12 JUMP JUMPDEST JUMPDEST PUSH2 0x1088 JUMP JUMPDEST PUSH2 0x106B DUP5 DUP5 DUP5 PUSH1 0x1 PUSH2 0xF69 JUMP JUMPDEST SWAP3 POP SWAP1 POP DUP2 DUP5 DIV DUP2 GT ISZERO PUSH2 0x1082 JUMPI PUSH2 0x1081 PUSH2 0xE12 JUMP JUMPDEST JUMPDEST DUP2 DUP2 MUL SWAP1 POP JUMPDEST SWAP4 SWAP3 POP POP POP JUMP JUMPDEST PUSH1 0x0 PUSH2 0x109A DUP3 PUSH2 0x8A4 JUMP JUMPDEST SWAP2 POP PUSH2 0x10A5 DUP4 PUSH2 0x8A4 JUMP JUMPDEST SWAP3 POP PUSH2 0x10D2 PUSH32 0xFFFFFFFFFFFFFFFFFFFFFFFFFFFFFFFFFFFFFFFFFFFFFFFFFFFFFFFFFFFFFFFF DUP5 DUP5 PUSH2 0xFBC JUMP JUMPDEST SWAP1 POP SWAP3 SWAP2 POP POP JUMP INVALID LOG2 PUSH5 0x6970667358 0x22 SLT KECCAK256 PUSH22 0x5BD76F71864A46CDEAFD7BAF667002CBC61FCB6020C7 0xC5 0xE8 JUMP SWAP11 CREATE2 0xEE DUP5 CALLVALUE 0xD5 PUSH5 0x736F6C6343 STOP ADDMOD SLT STOP CALLER "
				},
				"gasEstimates": {
					"creation": {
						"codeDepositCost": "873600",
						"executionCost": "infinite",
						"totalCost": "infinite"
					},
					"external": {
						"balanceOf(address,uint256)": "infinite",
						"isSubscribed(address,address,string,string,string)": "infinite"
					},
					"internal": {
						"parseInt(string memory)": "infinite",
						"parseInt(string memory,uint256)": "infinite"
					}
				},
				"methodIdentifiers": {
					"balanceOf(address,uint256)": "00fdd58e",
					"isSubscribed(address,address,string,string,string)": "bb79f587"
				}
			},
			"storageLayout": {
				"storage": [
					{
						"astId": 4400,
						"contract": "premiere/Premiere.sol:Premiere",
						"label": "_cfaAddress",
						"offset": 0,
						"slot": "0",
						"type": "t_address"
					},
					{
						"astId": 4403,
						"contract": "premiere/Premiere.sol:Premiere",
						"label": "_superTokenAddress",
						"offset": 0,
						"slot": "1",
						"type": "t_address"
					},
					{
						"astId": 4406,
						"contract": "premiere/Premiere.sol:Premiere",
						"label": "_lensHubAddress",
						"offset": 0,
						"slot": "2",
						"type": "t_address"
					},
					{
						"astId": 4409,
						"contract": "premiere/Premiere.sol:Premiere",
						"label": "_tbaRegistry",
						"offset": 0,
						"slot": "3",
						"type": "t_address"
					},
					{
						"astId": 4412,
						"contract": "premiere/Premiere.sol:Premiere",
						"label": "_minFlowRate",
						"offset": 0,
						"slot": "4",
						"type": "t_string_storage"
					},
					{
						"astId": 4415,
						"contract": "premiere/Premiere.sol:Premiere",
						"label": "_maxTimestamp",
						"offset": 0,
						"slot": "5",
						"type": "t_string_storage"
					}
				],
				"types": {
					"t_address": {
						"encoding": "inplace",
						"label": "address",
						"numberOfBytes": "20"
					},
					"t_string_storage": {
						"encoding": "bytes",
						"label": "string",
						"numberOfBytes": "32"
					}
				}
			},
			"userdoc": {
				"kind": "user",
				"methods": {},
				"version": 1
			}
		}
	}
}