{
	"premiere/Premiere_v2.sol": {
		"Premiere": {
			"abi": [
				{
					"inputs": [
						{
							"internalType": "address",
							"name": "_owner",
							"type": "address"
						},
						{
							"internalType": "uint256",
							"name": "_id",
							"type": "uint256"
						}
					],
					"name": "balanceOf",
					"outputs": [
						{
							"internalType": "uint256",
							"name": "",
							"type": "uint256"
						}
					],
					"stateMutability": "view",
					"type": "function"
				}
			],
			"devdoc": {
				"kind": "dev",
				"methods": {},
				"version": 1
			},
			"evm": {
				"assembly": "    /* \"premiere/Premiere_v2.sol\":914:2896  contract Premiere {... */\n  mstore(0x40, 0x80)\n    /* \"premiere/Premiere_v2.sol\":971:1013  0x60Ae865ee4C725cd04353b5AAb364553f56ceF82 */\n  0x60ae865ee4c725cd04353b5aab364553f56cef82\n    /* \"premiere/Premiere_v2.sol\":938:1013  address private lensHubAddress = 0x60Ae865ee4C725cd04353b5AAb364553f56ceF82 */\n  0x00\n  dup1\n  0x0100\n  exp\n  dup2\n  sload\n  dup2\n  0xffffffffffffffffffffffffffffffffffffffff\n  mul\n  not\n  and\n  swap1\n  dup4\n  0xffffffffffffffffffffffffffffffffffffffff\n  and\n  mul\n  or\n  swap1\n  sstore\n  pop\n    /* \"premiere/Premiere_v2.sol\":1092:1134  0x49e565Ed1bdc17F3d220f72DF0857C26FA83F873 */\n  0x49e565ed1bdc17f3d220f72df0857c26fa83f873\n    /* \"premiere/Premiere_v2.sol\":1020:1135  IConstantFlowAgreementV1 private cfa =... */\n  0x01\n  exp(0x0100, 0x00)\n  dup2\n  sload\n  dup2\n  0xffffffffffffffffffffffffffffffffffffffff\n  mul\n  not\n  and\n  swap1\n  dup4\n  0xffffffffffffffffffffffffffffffffffffffff\n  and\n  mul\n  or\n  swap1\n  sstore\n  pop\n    /* \"premiere/Premiere_v2.sol\":1204:1246  0x5D8B4C2554aeB7e86F387B4d6c00Ac33499Ed01f */\n  0x5d8b4c2554aeb7e86f387b4d6c00ac33499ed01f\n    /* \"premiere/Premiere_v2.sol\":1141:1247  ISuperfluidToken private superToken =... */\n  0x02\n  exp(0x0100, 0x00)\n  dup2\n  sload\n  dup2\n  0xffffffffffffffffffffffffffffffffffffffff\n  mul\n  not\n  and\n  swap1\n  dup4\n  0xffffffffffffffffffffffffffffffffffffffff\n  and\n  mul\n  or\n  swap1\n  sstore\n  pop\n    /* \"premiere/Premiere_v2.sol\":1287:1301  lensHubAddress */\n  0x00\n  dup1\n  sload\n  swap1\n  0x0100\n  exp\n  swap1\n  div\n  0xffffffffffffffffffffffffffffffffffffffff\n  and\n    /* \"premiere/Premiere_v2.sol\":1253:1302  IERC721 private lensHub = IERC721(lensHubAddress) */\n  0x03\n  exp(0x0100, 0x00)\n  dup2\n  sload\n  dup2\n  0xffffffffffffffffffffffffffffffffffffffff\n  mul\n  not\n  and\n  swap1\n  dup4\n  0xffffffffffffffffffffffffffffffffffffffff\n  and\n  mul\n  or\n  swap1\n  sstore\n  pop\n    /* \"premiere/Premiere_v2.sol\":1358:1400  0x02101dfB77FDE026414827Fdc604ddAF224F0921 */\n  0x02101dfb77fde026414827fdc604ddaf224f0921\n    /* \"premiere/Premiere_v2.sol\":1308:1401  IRegistry private tbaRegistry =... */\n  0x04\n  exp(0x0100, 0x00)\n  dup2\n  sload\n  dup2\n  0xffffffffffffffffffffffffffffffffffffffff\n  mul\n  not\n  and\n  swap1\n  dup4\n  0xffffffffffffffffffffffffffffffffffffffff\n  and\n  mul\n  or\n  swap1\n  sstore\n  pop\n    /* \"premiere/Premiere_v2.sol\":1427:1439  761035007610 */\n  0xb13138a67a\n    /* \"premiere/Premiere_v2.sol\":1407:1439  int96 minFlowRate = 761035007610 */\n  0x04\n  exp(0x0100, 0x14)\n  dup2\n  sload\n  dup2\n  0xffffffffffffffffffffffff\n  mul\n  not\n  and\n  swap1\n  dup4\n  0x0b\n  signextend\n  0xffffffffffffffffffffffff\n  and\n  mul\n  or\n  swap1\n  sstore\n  pop\n    /* \"premiere/Premiere_v2.sol\":914:2896  contract Premiere {... */\n  callvalue\n  dup1\n  iszero\n  tag_1\n  jumpi\n  0x00\n  dup1\n  revert\ntag_1:\n  pop\n  dataSize(sub_0)\n  dup1\n  dataOffset(sub_0)\n  0x00\n  codecopy\n  0x00\n  return\nstop\n\nsub_0: assembly {\n        /* \"premiere/Premiere_v2.sol\":914:2896  contract Premiere {... */\n      mstore(0x40, 0x80)\n      callvalue\n      dup1\n      iszero\n      tag_1\n      jumpi\n      0x00\n      dup1\n      revert\n    tag_1:\n      pop\n      jumpi(tag_2, lt(calldatasize, 0x04))\n      shr(0xe0, calldataload(0x00))\n      dup1\n      0xfdd58e\n      eq\n      tag_3\n      jumpi\n    tag_2:\n      0x00\n      dup1\n      revert\n        /* \"premiere/Premiere_v2.sol\":1446:1878  function balanceOf(... */\n    tag_3:\n      tag_4\n      0x04\n      dup1\n      calldatasize\n      sub\n      dup2\n      add\n      swap1\n      tag_5\n      swap2\n      swap1\n      tag_6\n      jump\t// in\n    tag_5:\n      tag_7\n      jump\t// in\n    tag_4:\n      mload(0x40)\n      tag_8\n      swap2\n      swap1\n      tag_9\n      jump\t// in\n    tag_8:\n      mload(0x40)\n      dup1\n      swap2\n      sub\n      swap1\n      return\n    tag_7:\n        /* \"premiere/Premiere_v2.sol\":1539:1546  uint256 */\n      0x00\n        /* \"premiere/Premiere_v2.sol\":1558:1569  address tba */\n      dup1\n        /* \"premiere/Premiere_v2.sol\":1582:1593  tbaRegistry */\n      0x04\n      0x00\n      swap1\n      sload\n      swap1\n      0x0100\n      exp\n      swap1\n      div\n      0xffffffffffffffffffffffffffffffffffffffff\n      and\n        /* \"premiere/Premiere_v2.sol\":1572:1602  IRegistry(tbaRegistry).account */\n      0xffffffffffffffffffffffffffffffffffffffff\n      and\n      0x192df655\n        /* \"premiere/Premiere_v2.sol\":1603:1617  lensHubAddress */\n      0x00\n      dup1\n      sload\n      swap1\n      0x0100\n      exp\n      swap1\n      div\n      0xffffffffffffffffffffffffffffffffffffffff\n      and\n        /* \"premiere/Premiere_v2.sol\":1619:1622  _id */\n      dup6\n        /* \"premiere/Premiere_v2.sol\":1572:1623  IRegistry(tbaRegistry).account(lensHubAddress, _id) */\n      mload(0x40)\n      dup4\n      0xffffffff\n      and\n      0xe0\n      shl\n      dup2\n      mstore\n      0x04\n      add\n      tag_11\n      swap3\n      swap2\n      swap1\n      tag_12\n      jump\t// in\n    tag_11:\n      0x20\n      mload(0x40)\n      dup1\n      dup4\n      sub\n      dup2\n      dup7\n      gas\n      staticcall\n      iszero\n      dup1\n      iszero\n      tag_14\n      jumpi\n      returndatasize\n      0x00\n      dup1\n      returndatacopy\n      revert(0x00, returndatasize)\n    tag_14:\n      pop\n      pop\n      pop\n      pop\n      mload(0x40)\n      returndatasize\n      not(0x1f)\n      0x1f\n      dup3\n      add\n      and\n      dup3\n      add\n      dup1\n      0x40\n      mstore\n      pop\n      dup2\n      add\n      swap1\n      tag_15\n      swap2\n      swap1\n      tag_16\n      jump\t// in\n    tag_15:\n        /* \"premiere/Premiere_v2.sol\":1558:1623  address tba = IRegistry(tbaRegistry).account(lensHubAddress, _id) */\n      swap1\n      pop\n        /* \"premiere/Premiere_v2.sol\":1637:1651  int96 flowRate */\n      0x00\n        /* \"premiere/Premiere_v2.sol\":1659:1662  cfa */\n      0x01\n      0x00\n      swap1\n      sload\n      swap1\n      0x0100\n      exp\n      swap1\n      div\n      0xffffffffffffffffffffffffffffffffffffffff\n      and\n        /* \"premiere/Premiere_v2.sol\":1659:1670  cfa.getFlow */\n      0xffffffffffffffffffffffffffffffffffffffff\n      and\n      0xe6a1e888\n        /* \"premiere/Premiere_v2.sol\":1671:1681  superToken */\n      0x02\n      0x00\n      swap1\n      sload\n      swap1\n      0x0100\n      exp\n      swap1\n      div\n      0xffffffffffffffffffffffffffffffffffffffff\n      and\n        /* \"premiere/Premiere_v2.sol\":1683:1689  _owner */\n      dup8\n        /* \"premiere/Premiere_v2.sol\":1691:1694  tba */\n      dup6\n        /* \"premiere/Premiere_v2.sol\":1659:1695  cfa.getFlow(superToken, _owner, tba) */\n      mload(0x40)\n      dup5\n      0xffffffff\n      and\n      0xe0\n      shl\n      dup2\n      mstore\n      0x04\n      add\n      tag_17\n      swap4\n      swap3\n      swap2\n      swap1\n      tag_18\n      jump\t// in\n    tag_17:\n      0x80\n      mload(0x40)\n      dup1\n      dup4\n      sub\n      dup2\n      dup7\n      gas\n      staticcall\n      iszero\n      dup1\n      iszero\n      tag_20\n      jumpi\n      returndatasize\n      0x00\n      dup1\n      returndatacopy\n      revert(0x00, returndatasize)\n    tag_20:\n      pop\n      pop\n      pop\n      pop\n      mload(0x40)\n      returndatasize\n      not(0x1f)\n      0x1f\n      dup3\n      add\n      and\n      dup3\n      add\n      dup1\n      0x40\n      mstore\n      pop\n      dup2\n      add\n      swap1\n      tag_21\n      swap2\n      swap1\n      tag_22\n      jump\t// in\n    tag_21:\n        /* \"premiere/Premiere_v2.sol\":1634:1695  (, int96 flowRate, , ) = cfa.getFlow(superToken, _owner, tba) */\n      pop\n      pop\n      swap2\n      pop\n      pop\n        /* \"premiere/Premiere_v2.sol\":1705:1718  address owner */\n      0x00\n        /* \"premiere/Premiere_v2.sol\":1721:1728  lensHub */\n      0x03\n      0x00\n      swap1\n      sload\n      swap1\n      0x0100\n      exp\n      swap1\n      div\n      0xffffffffffffffffffffffffffffffffffffffff\n      and\n        /* \"premiere/Premiere_v2.sol\":1721:1736  lensHub.ownerOf */\n      0xffffffffffffffffffffffffffffffffffffffff\n      and\n      0x6352211e\n        /* \"premiere/Premiere_v2.sol\":1737:1740  _id */\n      dup7\n        /* \"premiere/Premiere_v2.sol\":1721:1741  lensHub.ownerOf(_id) */\n      mload(0x40)\n      dup3\n      0xffffffff\n      and\n      0xe0\n      shl\n      dup2\n      mstore\n      0x04\n      add\n      tag_23\n      swap2\n      swap1\n      tag_9\n      jump\t// in\n    tag_23:\n      0x20\n      mload(0x40)\n      dup1\n      dup4\n      sub\n      dup2\n      dup7\n      gas\n      staticcall\n      iszero\n      dup1\n      iszero\n      tag_25\n      jumpi\n      returndatasize\n      0x00\n      dup1\n      returndatacopy\n      revert(0x00, returndatasize)\n    tag_25:\n      pop\n      pop\n      pop\n      pop\n      mload(0x40)\n      returndatasize\n      not(0x1f)\n      0x1f\n      dup3\n      add\n      and\n      dup3\n      add\n      dup1\n      0x40\n      mstore\n      pop\n      dup2\n      add\n      swap1\n      tag_26\n      swap2\n      swap1\n      tag_16\n      jump\t// in\n    tag_26:\n        /* \"premiere/Premiere_v2.sol\":1705:1741  address owner = lensHub.ownerOf(_id) */\n      swap1\n      pop\n        /* \"premiere/Premiere_v2.sol\":1768:1779  minFlowRate */\n      0x04\n      0x14\n      swap1\n      sload\n      swap1\n      0x0100\n      exp\n      swap1\n      div\n      0x0b\n      signextend\n        /* \"premiere/Premiere_v2.sol\":1756:1779  flowRate >= minFlowRate */\n      0x0b\n      signextend\n        /* \"premiere/Premiere_v2.sol\":1756:1764  flowRate */\n      dup3\n        /* \"premiere/Premiere_v2.sol\":1756:1779  flowRate >= minFlowRate */\n      0x0b\n      signextend\n      slt\n      iszero\n        /* \"premiere/Premiere_v2.sol\":1756:1798  flowRate >= minFlowRate || _owner == owner */\n      dup1\n      tag_27\n      jumpi\n      pop\n        /* \"premiere/Premiere_v2.sol\":1793:1798  owner */\n      dup1\n        /* \"premiere/Premiere_v2.sol\":1783:1798  _owner == owner */\n      0xffffffffffffffffffffffffffffffffffffffff\n      and\n        /* \"premiere/Premiere_v2.sol\":1783:1789  _owner */\n      dup7\n        /* \"premiere/Premiere_v2.sol\":1783:1798  _owner == owner */\n      0xffffffffffffffffffffffffffffffffffffffff\n      and\n      eq\n        /* \"premiere/Premiere_v2.sol\":1756:1798  flowRate >= minFlowRate || _owner == owner */\n    tag_27:\n        /* \"premiere/Premiere_v2.sol\":1752:1872  if (flowRate >= minFlowRate || _owner == owner) {... */\n      iszero\n      tag_28\n      jumpi\n        /* \"premiere/Premiere_v2.sol\":1821:1822  1 */\n      0x01\n        /* \"premiere/Premiere_v2.sol\":1814:1822  return 1 */\n      swap4\n      pop\n      pop\n      pop\n      pop\n      jump(tag_10)\n        /* \"premiere/Premiere_v2.sol\":1752:1872  if (flowRate >= minFlowRate || _owner == owner) {... */\n    tag_28:\n        /* \"premiere/Premiere_v2.sol\":1860:1861  0 */\n      0x00\n        /* \"premiere/Premiere_v2.sol\":1853:1861  return 0 */\n      swap4\n      pop\n      pop\n      pop\n      pop\n        /* \"premiere/Premiere_v2.sol\":1446:1878  function balanceOf(... */\n    tag_10:\n      swap3\n      swap2\n      pop\n      pop\n      jump\t// out\n        /* \"#utility.yul\":88:205   */\n    tag_31:\n        /* \"#utility.yul\":197:198   */\n      0x00\n        /* \"#utility.yul\":194:195   */\n      dup1\n        /* \"#utility.yul\":187:199   */\n      revert\n        /* \"#utility.yul\":334:460   */\n    tag_33:\n        /* \"#utility.yul\":371:378   */\n      0x00\n        /* \"#utility.yul\":411:453   */\n      0xffffffffffffffffffffffffffffffffffffffff\n        /* \"#utility.yul\":404:409   */\n      dup3\n        /* \"#utility.yul\":400:454   */\n      and\n        /* \"#utility.yul\":389:454   */\n      swap1\n      pop\n        /* \"#utility.yul\":334:460   */\n      swap2\n      swap1\n      pop\n      jump\t// out\n        /* \"#utility.yul\":466:562   */\n    tag_34:\n        /* \"#utility.yul\":503:510   */\n      0x00\n        /* \"#utility.yul\":532:556   */\n      tag_58\n        /* \"#utility.yul\":550:555   */\n      dup3\n        /* \"#utility.yul\":532:556   */\n      tag_33\n      jump\t// in\n    tag_58:\n        /* \"#utility.yul\":521:556   */\n      swap1\n      pop\n        /* \"#utility.yul\":466:562   */\n      swap2\n      swap1\n      pop\n      jump\t// out\n        /* \"#utility.yul\":568:690   */\n    tag_35:\n        /* \"#utility.yul\":641:665   */\n      tag_60\n        /* \"#utility.yul\":659:664   */\n      dup2\n        /* \"#utility.yul\":641:665   */\n      tag_34\n      jump\t// in\n    tag_60:\n        /* \"#utility.yul\":634:639   */\n      dup2\n        /* \"#utility.yul\":631:666   */\n      eq\n        /* \"#utility.yul\":621:684   */\n      tag_61\n      jumpi\n        /* \"#utility.yul\":680:681   */\n      0x00\n        /* \"#utility.yul\":677:678   */\n      dup1\n        /* \"#utility.yul\":670:682   */\n      revert\n        /* \"#utility.yul\":621:684   */\n    tag_61:\n        /* \"#utility.yul\":568:690   */\n      pop\n      jump\t// out\n        /* \"#utility.yul\":696:835   */\n    tag_36:\n        /* \"#utility.yul\":742:747   */\n      0x00\n        /* \"#utility.yul\":780:786   */\n      dup2\n        /* \"#utility.yul\":767:787   */\n      calldataload\n        /* \"#utility.yul\":758:787   */\n      swap1\n      pop\n        /* \"#utility.yul\":796:829   */\n      tag_63\n        /* \"#utility.yul\":823:828   */\n      dup2\n        /* \"#utility.yul\":796:829   */\n      tag_35\n      jump\t// in\n    tag_63:\n        /* \"#utility.yul\":696:835   */\n      swap3\n      swap2\n      pop\n      pop\n      jump\t// out\n        /* \"#utility.yul\":841:918   */\n    tag_37:\n        /* \"#utility.yul\":878:885   */\n      0x00\n        /* \"#utility.yul\":907:912   */\n      dup2\n        /* \"#utility.yul\":896:912   */\n      swap1\n      pop\n        /* \"#utility.yul\":841:918   */\n      swap2\n      swap1\n      pop\n      jump\t// out\n        /* \"#utility.yul\":924:1046   */\n    tag_38:\n        /* \"#utility.yul\":997:1021   */\n      tag_66\n        /* \"#utility.yul\":1015:1020   */\n      dup2\n        /* \"#utility.yul\":997:1021   */\n      tag_37\n      jump\t// in\n    tag_66:\n        /* \"#utility.yul\":990:995   */\n      dup2\n        /* \"#utility.yul\":987:1022   */\n      eq\n        /* \"#utility.yul\":977:1040   */\n      tag_67\n      jumpi\n        /* \"#utility.yul\":1036:1037   */\n      0x00\n        /* \"#utility.yul\":1033:1034   */\n      dup1\n        /* \"#utility.yul\":1026:1038   */\n      revert\n        /* \"#utility.yul\":977:1040   */\n    tag_67:\n        /* \"#utility.yul\":924:1046   */\n      pop\n      jump\t// out\n        /* \"#utility.yul\":1052:1191   */\n    tag_39:\n        /* \"#utility.yul\":1098:1103   */\n      0x00\n        /* \"#utility.yul\":1136:1142   */\n      dup2\n        /* \"#utility.yul\":1123:1143   */\n      calldataload\n        /* \"#utility.yul\":1114:1143   */\n      swap1\n      pop\n        /* \"#utility.yul\":1152:1185   */\n      tag_69\n        /* \"#utility.yul\":1179:1184   */\n      dup2\n        /* \"#utility.yul\":1152:1185   */\n      tag_38\n      jump\t// in\n    tag_69:\n        /* \"#utility.yul\":1052:1191   */\n      swap3\n      swap2\n      pop\n      pop\n      jump\t// out\n        /* \"#utility.yul\":1197:1671   */\n    tag_6:\n        /* \"#utility.yul\":1265:1271   */\n      0x00\n        /* \"#utility.yul\":1273:1279   */\n      dup1\n        /* \"#utility.yul\":1322:1324   */\n      0x40\n        /* \"#utility.yul\":1310:1319   */\n      dup4\n        /* \"#utility.yul\":1301:1308   */\n      dup6\n        /* \"#utility.yul\":1297:1320   */\n      sub\n        /* \"#utility.yul\":1293:1325   */\n      slt\n        /* \"#utility.yul\":1290:1409   */\n      iszero\n      tag_71\n      jumpi\n        /* \"#utility.yul\":1328:1407   */\n      tag_72\n      tag_31\n      jump\t// in\n    tag_72:\n        /* \"#utility.yul\":1290:1409   */\n    tag_71:\n        /* \"#utility.yul\":1448:1449   */\n      0x00\n        /* \"#utility.yul\":1473:1526   */\n      tag_73\n        /* \"#utility.yul\":1518:1525   */\n      dup6\n        /* \"#utility.yul\":1509:1515   */\n      dup3\n        /* \"#utility.yul\":1498:1507   */\n      dup7\n        /* \"#utility.yul\":1494:1516   */\n      add\n        /* \"#utility.yul\":1473:1526   */\n      tag_36\n      jump\t// in\n    tag_73:\n        /* \"#utility.yul\":1463:1526   */\n      swap3\n      pop\n        /* \"#utility.yul\":1419:1536   */\n      pop\n        /* \"#utility.yul\":1575:1577   */\n      0x20\n        /* \"#utility.yul\":1601:1654   */\n      tag_74\n        /* \"#utility.yul\":1646:1653   */\n      dup6\n        /* \"#utility.yul\":1637:1643   */\n      dup3\n        /* \"#utility.yul\":1626:1635   */\n      dup7\n        /* \"#utility.yul\":1622:1644   */\n      add\n        /* \"#utility.yul\":1601:1654   */\n      tag_39\n      jump\t// in\n    tag_74:\n        /* \"#utility.yul\":1591:1654   */\n      swap2\n      pop\n        /* \"#utility.yul\":1546:1664   */\n      pop\n        /* \"#utility.yul\":1197:1671   */\n      swap3\n      pop\n      swap3\n      swap1\n      pop\n      jump\t// out\n        /* \"#utility.yul\":1677:1795   */\n    tag_40:\n        /* \"#utility.yul\":1764:1788   */\n      tag_76\n        /* \"#utility.yul\":1782:1787   */\n      dup2\n        /* \"#utility.yul\":1764:1788   */\n      tag_37\n      jump\t// in\n    tag_76:\n        /* \"#utility.yul\":1759:1762   */\n      dup3\n        /* \"#utility.yul\":1752:1789   */\n      mstore\n        /* \"#utility.yul\":1677:1795   */\n      pop\n      pop\n      jump\t// out\n        /* \"#utility.yul\":1801:2023   */\n    tag_9:\n        /* \"#utility.yul\":1894:1898   */\n      0x00\n        /* \"#utility.yul\":1932:1934   */\n      0x20\n        /* \"#utility.yul\":1921:1930   */\n      dup3\n        /* \"#utility.yul\":1917:1935   */\n      add\n        /* \"#utility.yul\":1909:1935   */\n      swap1\n      pop\n        /* \"#utility.yul\":1945:2016   */\n      tag_78\n        /* \"#utility.yul\":2013:2014   */\n      0x00\n        /* \"#utility.yul\":2002:2011   */\n      dup4\n        /* \"#utility.yul\":1998:2015   */\n      add\n        /* \"#utility.yul\":1989:1995   */\n      dup5\n        /* \"#utility.yul\":1945:2016   */\n      tag_40\n      jump\t// in\n    tag_78:\n        /* \"#utility.yul\":1801:2023   */\n      swap3\n      swap2\n      pop\n      pop\n      jump\t// out\n        /* \"#utility.yul\":2029:2147   */\n    tag_41:\n        /* \"#utility.yul\":2116:2140   */\n      tag_80\n        /* \"#utility.yul\":2134:2139   */\n      dup2\n        /* \"#utility.yul\":2116:2140   */\n      tag_34\n      jump\t// in\n    tag_80:\n        /* \"#utility.yul\":2111:2114   */\n      dup3\n        /* \"#utility.yul\":2104:2141   */\n      mstore\n        /* \"#utility.yul\":2029:2147   */\n      pop\n      pop\n      jump\t// out\n        /* \"#utility.yul\":2153:2485   */\n    tag_12:\n        /* \"#utility.yul\":2274:2278   */\n      0x00\n        /* \"#utility.yul\":2312:2314   */\n      0x40\n        /* \"#utility.yul\":2301:2310   */\n      dup3\n        /* \"#utility.yul\":2297:2315   */\n      add\n        /* \"#utility.yul\":2289:2315   */\n      swap1\n      pop\n        /* \"#utility.yul\":2325:2396   */\n      tag_82\n        /* \"#utility.yul\":2393:2394   */\n      0x00\n        /* \"#utility.yul\":2382:2391   */\n      dup4\n        /* \"#utility.yul\":2378:2395   */\n      add\n        /* \"#utility.yul\":2369:2375   */\n      dup6\n        /* \"#utility.yul\":2325:2396   */\n      tag_41\n      jump\t// in\n    tag_82:\n        /* \"#utility.yul\":2406:2478   */\n      tag_83\n        /* \"#utility.yul\":2474:2476   */\n      0x20\n        /* \"#utility.yul\":2463:2472   */\n      dup4\n        /* \"#utility.yul\":2459:2477   */\n      add\n        /* \"#utility.yul\":2450:2456   */\n      dup5\n        /* \"#utility.yul\":2406:2478   */\n      tag_40\n      jump\t// in\n    tag_83:\n        /* \"#utility.yul\":2153:2485   */\n      swap4\n      swap3\n      pop\n      pop\n      pop\n      jump\t// out\n        /* \"#utility.yul\":2491:2634   */\n    tag_42:\n        /* \"#utility.yul\":2548:2553   */\n      0x00\n        /* \"#utility.yul\":2579:2585   */\n      dup2\n        /* \"#utility.yul\":2573:2586   */\n      mload\n        /* \"#utility.yul\":2564:2586   */\n      swap1\n      pop\n        /* \"#utility.yul\":2595:2628   */\n      tag_85\n        /* \"#utility.yul\":2622:2627   */\n      dup2\n        /* \"#utility.yul\":2595:2628   */\n      tag_35\n      jump\t// in\n    tag_85:\n        /* \"#utility.yul\":2491:2634   */\n      swap3\n      swap2\n      pop\n      pop\n      jump\t// out\n        /* \"#utility.yul\":2640:2991   */\n    tag_16:\n        /* \"#utility.yul\":2710:2716   */\n      0x00\n        /* \"#utility.yul\":2759:2761   */\n      0x20\n        /* \"#utility.yul\":2747:2756   */\n      dup3\n        /* \"#utility.yul\":2738:2745   */\n      dup5\n        /* \"#utility.yul\":2734:2757   */\n      sub\n        /* \"#utility.yul\":2730:2762   */\n      slt\n        /* \"#utility.yul\":2727:2846   */\n      iszero\n      tag_87\n      jumpi\n        /* \"#utility.yul\":2765:2844   */\n      tag_88\n      tag_31\n      jump\t// in\n    tag_88:\n        /* \"#utility.yul\":2727:2846   */\n    tag_87:\n        /* \"#utility.yul\":2885:2886   */\n      0x00\n        /* \"#utility.yul\":2910:2974   */\n      tag_89\n        /* \"#utility.yul\":2966:2973   */\n      dup5\n        /* \"#utility.yul\":2957:2963   */\n      dup3\n        /* \"#utility.yul\":2946:2955   */\n      dup6\n        /* \"#utility.yul\":2942:2964   */\n      add\n        /* \"#utility.yul\":2910:2974   */\n      tag_42\n      jump\t// in\n    tag_89:\n        /* \"#utility.yul\":2900:2974   */\n      swap2\n      pop\n        /* \"#utility.yul\":2856:2984   */\n      pop\n        /* \"#utility.yul\":2640:2991   */\n      swap3\n      swap2\n      pop\n      pop\n      jump\t// out\n        /* \"#utility.yul\":2997:3057   */\n    tag_43:\n        /* \"#utility.yul\":3025:3028   */\n      0x00\n        /* \"#utility.yul\":3046:3051   */\n      dup2\n        /* \"#utility.yul\":3039:3051   */\n      swap1\n      pop\n        /* \"#utility.yul\":2997:3057   */\n      swap2\n      swap1\n      pop\n      jump\t// out\n        /* \"#utility.yul\":3063:3205   */\n    tag_44:\n        /* \"#utility.yul\":3113:3122   */\n      0x00\n        /* \"#utility.yul\":3146:3199   */\n      tag_92\n        /* \"#utility.yul\":3164:3198   */\n      tag_93\n        /* \"#utility.yul\":3173:3197   */\n      tag_94\n        /* \"#utility.yul\":3191:3196   */\n      dup5\n        /* \"#utility.yul\":3173:3197   */\n      tag_33\n      jump\t// in\n    tag_94:\n        /* \"#utility.yul\":3164:3198   */\n      tag_43\n      jump\t// in\n    tag_93:\n        /* \"#utility.yul\":3146:3199   */\n      tag_33\n      jump\t// in\n    tag_92:\n        /* \"#utility.yul\":3133:3199   */\n      swap1\n      pop\n        /* \"#utility.yul\":3063:3205   */\n      swap2\n      swap1\n      pop\n      jump\t// out\n        /* \"#utility.yul\":3211:3337   */\n    tag_45:\n        /* \"#utility.yul\":3261:3270   */\n      0x00\n        /* \"#utility.yul\":3294:3331   */\n      tag_96\n        /* \"#utility.yul\":3325:3330   */\n      dup3\n        /* \"#utility.yul\":3294:3331   */\n      tag_44\n      jump\t// in\n    tag_96:\n        /* \"#utility.yul\":3281:3331   */\n      swap1\n      pop\n        /* \"#utility.yul\":3211:3337   */\n      swap2\n      swap1\n      pop\n      jump\t// out\n        /* \"#utility.yul\":3343:3494   */\n    tag_46:\n        /* \"#utility.yul\":3418:3427   */\n      0x00\n        /* \"#utility.yul\":3451:3488   */\n      tag_98\n        /* \"#utility.yul\":3482:3487   */\n      dup3\n        /* \"#utility.yul\":3451:3488   */\n      tag_45\n      jump\t// in\n    tag_98:\n        /* \"#utility.yul\":3438:3488   */\n      swap1\n      pop\n        /* \"#utility.yul\":3343:3494   */\n      swap2\n      swap1\n      pop\n      jump\t// out\n        /* \"#utility.yul\":3500:3681   */\n    tag_47:\n        /* \"#utility.yul\":3612:3674   */\n      tag_100\n        /* \"#utility.yul\":3668:3673   */\n      dup2\n        /* \"#utility.yul\":3612:3674   */\n      tag_46\n      jump\t// in\n    tag_100:\n        /* \"#utility.yul\":3607:3610   */\n      dup3\n        /* \"#utility.yul\":3600:3675   */\n      mstore\n        /* \"#utility.yul\":3500:3681   */\n      pop\n      pop\n      jump\t// out\n        /* \"#utility.yul\":3687:4179   */\n    tag_18:\n        /* \"#utility.yul\":3861:3865   */\n      0x00\n        /* \"#utility.yul\":3899:3901   */\n      0x60\n        /* \"#utility.yul\":3888:3897   */\n      dup3\n        /* \"#utility.yul\":3884:3902   */\n      add\n        /* \"#utility.yul\":3876:3902   */\n      swap1\n      pop\n        /* \"#utility.yul\":3912:4008   */\n      tag_102\n        /* \"#utility.yul\":4005:4006   */\n      0x00\n        /* \"#utility.yul\":3994:4003   */\n      dup4\n        /* \"#utility.yul\":3990:4007   */\n      add\n        /* \"#utility.yul\":3981:3987   */\n      dup7\n        /* \"#utility.yul\":3912:4008   */\n      tag_47\n      jump\t// in\n    tag_102:\n        /* \"#utility.yul\":4018:4090   */\n      tag_103\n        /* \"#utility.yul\":4086:4088   */\n      0x20\n        /* \"#utility.yul\":4075:4084   */\n      dup4\n        /* \"#utility.yul\":4071:4089   */\n      add\n        /* \"#utility.yul\":4062:4068   */\n      dup6\n        /* \"#utility.yul\":4018:4090   */\n      tag_41\n      jump\t// in\n    tag_103:\n        /* \"#utility.yul\":4100:4172   */\n      tag_104\n        /* \"#utility.yul\":4168:4170   */\n      0x40\n        /* \"#utility.yul\":4157:4166   */\n      dup4\n        /* \"#utility.yul\":4153:4171   */\n      add\n        /* \"#utility.yul\":4144:4150   */\n      dup5\n        /* \"#utility.yul\":4100:4172   */\n      tag_41\n      jump\t// in\n    tag_104:\n        /* \"#utility.yul\":3687:4179   */\n      swap5\n      swap4\n      pop\n      pop\n      pop\n      pop\n      jump\t// out\n        /* \"#utility.yul\":4185:4328   */\n    tag_48:\n        /* \"#utility.yul\":4242:4247   */\n      0x00\n        /* \"#utility.yul\":4273:4279   */\n      dup2\n        /* \"#utility.yul\":4267:4280   */\n      mload\n        /* \"#utility.yul\":4258:4280   */\n      swap1\n      pop\n        /* \"#utility.yul\":4289:4322   */\n      tag_106\n        /* \"#utility.yul\":4316:4321   */\n      dup2\n        /* \"#utility.yul\":4289:4322   */\n      tag_38\n      jump\t// in\n    tag_106:\n        /* \"#utility.yul\":4185:4328   */\n      swap3\n      swap2\n      pop\n      pop\n      jump\t// out\n        /* \"#utility.yul\":4334:4425   */\n    tag_49:\n        /* \"#utility.yul\":4369:4376   */\n      0x00\n        /* \"#utility.yul\":4413:4418   */\n      dup2\n        /* \"#utility.yul\":4409:4411   */\n      0x0b\n        /* \"#utility.yul\":4398:4419   */\n      signextend\n        /* \"#utility.yul\":4387:4419   */\n      swap1\n      pop\n        /* \"#utility.yul\":4334:4425   */\n      swap2\n      swap1\n      pop\n      jump\t// out\n        /* \"#utility.yul\":4431:4549   */\n    tag_50:\n        /* \"#utility.yul\":4502:4524   */\n      tag_109\n        /* \"#utility.yul\":4518:4523   */\n      dup2\n        /* \"#utility.yul\":4502:4524   */\n      tag_49\n      jump\t// in\n    tag_109:\n        /* \"#utility.yul\":4495:4500   */\n      dup2\n        /* \"#utility.yul\":4492:4525   */\n      eq\n        /* \"#utility.yul\":4482:4543   */\n      tag_110\n      jumpi\n        /* \"#utility.yul\":4539:4540   */\n      0x00\n        /* \"#utility.yul\":4536:4537   */\n      dup1\n        /* \"#utility.yul\":4529:4541   */\n      revert\n        /* \"#utility.yul\":4482:4543   */\n    tag_110:\n        /* \"#utility.yul\":4431:4549   */\n      pop\n      jump\t// out\n        /* \"#utility.yul\":4555:4694   */\n    tag_51:\n        /* \"#utility.yul\":4610:4615   */\n      0x00\n        /* \"#utility.yul\":4641:4647   */\n      dup2\n        /* \"#utility.yul\":4635:4648   */\n      mload\n        /* \"#utility.yul\":4626:4648   */\n      swap1\n      pop\n        /* \"#utility.yul\":4657:4688   */\n      tag_112\n        /* \"#utility.yul\":4682:4687   */\n      dup2\n        /* \"#utility.yul\":4657:4688   */\n      tag_50\n      jump\t// in\n    tag_112:\n        /* \"#utility.yul\":4555:4694   */\n      swap3\n      swap2\n      pop\n      pop\n      jump\t// out\n        /* \"#utility.yul\":4700:5516   */\n    tag_22:\n        /* \"#utility.yul\":4795:4801   */\n      0x00\n        /* \"#utility.yul\":4803:4809   */\n      dup1\n        /* \"#utility.yul\":4811:4817   */\n      0x00\n        /* \"#utility.yul\":4819:4825   */\n      dup1\n        /* \"#utility.yul\":4868:4871   */\n      0x80\n        /* \"#utility.yul\":4856:4865   */\n      dup6\n        /* \"#utility.yul\":4847:4854   */\n      dup8\n        /* \"#utility.yul\":4843:4866   */\n      sub\n        /* \"#utility.yul\":4839:4872   */\n      slt\n        /* \"#utility.yul\":4836:4956   */\n      iszero\n      tag_114\n      jumpi\n        /* \"#utility.yul\":4875:4954   */\n      tag_115\n      tag_31\n      jump\t// in\n    tag_115:\n        /* \"#utility.yul\":4836:4956   */\n    tag_114:\n        /* \"#utility.yul\":4995:4996   */\n      0x00\n        /* \"#utility.yul\":5020:5084   */\n      tag_116\n        /* \"#utility.yul\":5076:5083   */\n      dup8\n        /* \"#utility.yul\":5067:5073   */\n      dup3\n        /* \"#utility.yul\":5056:5065   */\n      dup9\n        /* \"#utility.yul\":5052:5074   */\n      add\n        /* \"#utility.yul\":5020:5084   */\n      tag_48\n      jump\t// in\n    tag_116:\n        /* \"#utility.yul\":5010:5084   */\n      swap5\n      pop\n        /* \"#utility.yul\":4966:5094   */\n      pop\n        /* \"#utility.yul\":5133:5135   */\n      0x20\n        /* \"#utility.yul\":5159:5221   */\n      tag_117\n        /* \"#utility.yul\":5213:5220   */\n      dup8\n        /* \"#utility.yul\":5204:5210   */\n      dup3\n        /* \"#utility.yul\":5193:5202   */\n      dup9\n        /* \"#utility.yul\":5189:5211   */\n      add\n        /* \"#utility.yul\":5159:5221   */\n      tag_51\n      jump\t// in\n    tag_117:\n        /* \"#utility.yul\":5149:5221   */\n      swap4\n      pop\n        /* \"#utility.yul\":5104:5231   */\n      pop\n        /* \"#utility.yul\":5270:5272   */\n      0x40\n        /* \"#utility.yul\":5296:5360   */\n      tag_118\n        /* \"#utility.yul\":5352:5359   */\n      dup8\n        /* \"#utility.yul\":5343:5349   */\n      dup3\n        /* \"#utility.yul\":5332:5341   */\n      dup9\n        /* \"#utility.yul\":5328:5350   */\n      add\n        /* \"#utility.yul\":5296:5360   */\n      tag_48\n      jump\t// in\n    tag_118:\n        /* \"#utility.yul\":5286:5360   */\n      swap3\n      pop\n        /* \"#utility.yul\":5241:5370   */\n      pop\n        /* \"#utility.yul\":5409:5411   */\n      0x60\n        /* \"#utility.yul\":5435:5499   */\n      tag_119\n        /* \"#utility.yul\":5491:5498   */\n      dup8\n        /* \"#utility.yul\":5482:5488   */\n      dup3\n        /* \"#utility.yul\":5471:5480   */\n      dup9\n        /* \"#utility.yul\":5467:5489   */\n      add\n        /* \"#utility.yul\":5435:5499   */\n      tag_48\n      jump\t// in\n    tag_119:\n        /* \"#utility.yul\":5425:5499   */\n      swap2\n      pop\n        /* \"#utility.yul\":5380:5509   */\n      pop\n        /* \"#utility.yul\":4700:5516   */\n      swap3\n      swap6\n      swap2\n      swap5\n      pop\n      swap3\n      pop\n      jump\t// out\n\n    auxdata: 0xa2646970667358221220515c716c7a89891cd046b4d48119e8a8efd946123d3c9a4ecfd135c394ccec0964736f6c63430008120033\n}\n",
				"bytecode": {
					"linkReferences": {},
					"object": "60806040527360ae865ee4c725cd04353b5aab364553f56cef826000806101000a81548173ffffffffffffffffffffffffffffffffffffffff021916908373ffffffffffffffffffffffffffffffffffffffff1602179055507349e565ed1bdc17f3d220f72df0857c26fa83f873600160006101000a81548173ffffffffffffffffffffffffffffffffffffffff021916908373ffffffffffffffffffffffffffffffffffffffff160217905550735d8b4c2554aeb7e86f387b4d6c00ac33499ed01f600260006101000a81548173ffffffffffffffffffffffffffffffffffffffff021916908373ffffffffffffffffffffffffffffffffffffffff16021790555060008054906101000a900473ffffffffffffffffffffffffffffffffffffffff16600360006101000a81548173ffffffffffffffffffffffffffffffffffffffff021916908373ffffffffffffffffffffffffffffffffffffffff1602179055507302101dfb77fde026414827fdc604ddaf224f0921600460006101000a81548173ffffffffffffffffffffffffffffffffffffffff021916908373ffffffffffffffffffffffffffffffffffffffff16021790555064b13138a67a600460146101000a8154816bffffffffffffffffffffffff0219169083600b0b6bffffffffffffffffffffffff1602179055503480156101fd57600080fd5b506105f78061020d6000396000f3fe608060405234801561001057600080fd5b506004361061002a5760003560e01c8062fdd58e1461002f575b600080fd5b61004960048036038101906100449190610392565b61005f565b60405161005691906103e1565b60405180910390f35b600080600460009054906101000a900473ffffffffffffffffffffffffffffffffffffffff1673ffffffffffffffffffffffffffffffffffffffff1663192df65560008054906101000a900473ffffffffffffffffffffffffffffffffffffffff16856040518363ffffffff1660e01b81526004016100df92919061040b565b602060405180830381865afa1580156100fc573d6000803e3d6000fd5b505050506040513d601f19601f820116820180604052508101906101209190610449565b90506000600160009054906101000a900473ffffffffffffffffffffffffffffffffffffffff1673ffffffffffffffffffffffffffffffffffffffff1663e6a1e888600260009054906101000a900473ffffffffffffffffffffffffffffffffffffffff1687856040518463ffffffff1660e01b81526004016101a5939291906104d5565b608060405180830381865afa1580156101c2573d6000803e3d6000fd5b505050506040513d601f19601f820116820180604052508101906101e6919061055a565b50509150506000600360009054906101000a900473ffffffffffffffffffffffffffffffffffffffff1673ffffffffffffffffffffffffffffffffffffffff16636352211e866040518263ffffffff1660e01b815260040161024891906103e1565b602060405180830381865afa158015610265573d6000803e3d6000fd5b505050506040513d601f19601f820116820180604052508101906102899190610449565b9050600460149054906101000a9004600b0b600b0b82600b0b1215806102da57508073ffffffffffffffffffffffffffffffffffffffff168673ffffffffffffffffffffffffffffffffffffffff16145b156102eb57600193505050506102f3565b600093505050505b92915050565b600080fd5b600073ffffffffffffffffffffffffffffffffffffffff82169050919050565b6000610329826102fe565b9050919050565b6103398161031e565b811461034457600080fd5b50565b60008135905061035681610330565b92915050565b6000819050919050565b61036f8161035c565b811461037a57600080fd5b50565b60008135905061038c81610366565b92915050565b600080604083850312156103a9576103a86102f9565b5b60006103b785828601610347565b92505060206103c88582860161037d565b9150509250929050565b6103db8161035c565b82525050565b60006020820190506103f660008301846103d2565b92915050565b6104058161031e565b82525050565b600060408201905061042060008301856103fc565b61042d60208301846103d2565b9392505050565b60008151905061044381610330565b92915050565b60006020828403121561045f5761045e6102f9565b5b600061046d84828501610434565b91505092915050565b6000819050919050565b600061049b610496610491846102fe565b610476565b6102fe565b9050919050565b60006104ad82610480565b9050919050565b60006104bf826104a2565b9050919050565b6104cf816104b4565b82525050565b60006060820190506104ea60008301866104c6565b6104f760208301856103fc565b61050460408301846103fc565b949350505050565b60008151905061051b81610366565b92915050565b600081600b0b9050919050565b61053781610521565b811461054257600080fd5b50565b6000815190506105548161052e565b92915050565b60008060008060808587031215610574576105736102f9565b5b60006105828782880161050c565b945050602061059387828801610545565b93505060406105a48782880161050c565b92505060606105b58782880161050c565b9150509295919450925056fea2646970667358221220515c716c7a89891cd046b4d48119e8a8efd946123d3c9a4ecfd135c394ccec0964736f6c63430008120033",
					"opcodes": "PUSH1 0x80 PUSH1 0x40 MSTORE PUSH20 0x60AE865EE4C725CD04353B5AAB364553F56CEF82 PUSH1 0x0 DUP1 PUSH2 0x100 EXP DUP2 SLOAD DUP2 PUSH20 0xFFFFFFFFFFFFFFFFFFFFFFFFFFFFFFFFFFFFFFFF MUL NOT AND SWAP1 DUP4 PUSH20 0xFFFFFFFFFFFFFFFFFFFFFFFFFFFFFFFFFFFFFFFF AND MUL OR SWAP1 SSTORE POP PUSH20 0x49E565ED1BDC17F3D220F72DF0857C26FA83F873 PUSH1 0x1 PUSH1 0x0 PUSH2 0x100 EXP DUP2 SLOAD DUP2 PUSH20 0xFFFFFFFFFFFFFFFFFFFFFFFFFFFFFFFFFFFFFFFF MUL NOT AND SWAP1 DUP4 PUSH20 0xFFFFFFFFFFFFFFFFFFFFFFFFFFFFFFFFFFFFFFFF AND MUL OR SWAP1 SSTORE POP PUSH20 0x5D8B4C2554AEB7E86F387B4D6C00AC33499ED01F PUSH1 0x2 PUSH1 0x0 PUSH2 0x100 EXP DUP2 SLOAD DUP2 PUSH20 0xFFFFFFFFFFFFFFFFFFFFFFFFFFFFFFFFFFFFFFFF MUL NOT AND SWAP1 DUP4 PUSH20 0xFFFFFFFFFFFFFFFFFFFFFFFFFFFFFFFFFFFFFFFF AND MUL OR SWAP1 SSTORE POP PUSH1 0x0 DUP1 SLOAD SWAP1 PUSH2 0x100 EXP SWAP1 DIV PUSH20 0xFFFFFFFFFFFFFFFFFFFFFFFFFFFFFFFFFFFFFFFF AND PUSH1 0x3 PUSH1 0x0 PUSH2 0x100 EXP DUP2 SLOAD DUP2 PUSH20 0xFFFFFFFFFFFFFFFFFFFFFFFFFFFFFFFFFFFFFFFF MUL NOT AND SWAP1 DUP4 PUSH20 0xFFFFFFFFFFFFFFFFFFFFFFFFFFFFFFFFFFFFFFFF AND MUL OR SWAP1 SSTORE POP PUSH20 0x2101DFB77FDE026414827FDC604DDAF224F0921 PUSH1 0x4 PUSH1 0x0 PUSH2 0x100 EXP DUP2 SLOAD DUP2 PUSH20 0xFFFFFFFFFFFFFFFFFFFFFFFFFFFFFFFFFFFFFFFF MUL NOT AND SWAP1 DUP4 PUSH20 0xFFFFFFFFFFFFFFFFFFFFFFFFFFFFFFFFFFFFFFFF AND MUL OR SWAP1 SSTORE POP PUSH5 0xB13138A67A PUSH1 0x4 PUSH1 0x14 PUSH2 0x100 EXP DUP2 SLOAD DUP2 PUSH12 0xFFFFFFFFFFFFFFFFFFFFFFFF MUL NOT AND SWAP1 DUP4 PUSH1 0xB SIGNEXTEND PUSH12 0xFFFFFFFFFFFFFFFFFFFFFFFF AND MUL OR SWAP1 SSTORE POP CALLVALUE DUP1 ISZERO PUSH2 0x1FD JUMPI PUSH1 0x0 DUP1 REVERT JUMPDEST POP PUSH2 0x5F7 DUP1 PUSH2 0x20D PUSH1 0x0 CODECOPY PUSH1 0x0 RETURN INVALID PUSH1 0x80 PUSH1 0x40 MSTORE CALLVALUE DUP1 ISZERO PUSH2 0x10 JUMPI PUSH1 0x0 DUP1 REVERT JUMPDEST POP PUSH1 0x4 CALLDATASIZE LT PUSH2 0x2A JUMPI PUSH1 0x0 CALLDATALOAD PUSH1 0xE0 SHR DUP1 PUSH3 0xFDD58E EQ PUSH2 0x2F JUMPI JUMPDEST PUSH1 0x0 DUP1 REVERT JUMPDEST PUSH2 0x49 PUSH1 0x4 DUP1 CALLDATASIZE SUB DUP2 ADD SWAP1 PUSH2 0x44 SWAP2 SWAP1 PUSH2 0x392 JUMP JUMPDEST PUSH2 0x5F JUMP JUMPDEST PUSH1 0x40 MLOAD PUSH2 0x56 SWAP2 SWAP1 PUSH2 0x3E1 JUMP JUMPDEST PUSH1 0x40 MLOAD DUP1 SWAP2 SUB SWAP1 RETURN JUMPDEST PUSH1 0x0 DUP1 PUSH1 0x4 PUSH1 0x0 SWAP1 SLOAD SWAP1 PUSH2 0x100 EXP SWAP1 DIV PUSH20 0xFFFFFFFFFFFFFFFFFFFFFFFFFFFFFFFFFFFFFFFF AND PUSH20 0xFFFFFFFFFFFFFFFFFFFFFFFFFFFFFFFFFFFFFFFF AND PUSH4 0x192DF655 PUSH1 0x0 DUP1 SLOAD SWAP1 PUSH2 0x100 EXP SWAP1 DIV PUSH20 0xFFFFFFFFFFFFFFFFFFFFFFFFFFFFFFFFFFFFFFFF AND DUP6 PUSH1 0x40 MLOAD DUP4 PUSH4 0xFFFFFFFF AND PUSH1 0xE0 SHL DUP2 MSTORE PUSH1 0x4 ADD PUSH2 0xDF SWAP3 SWAP2 SWAP1 PUSH2 0x40B JUMP JUMPDEST PUSH1 0x20 PUSH1 0x40 MLOAD DUP1 DUP4 SUB DUP2 DUP7 GAS STATICCALL ISZERO DUP1 ISZERO PUSH2 0xFC JUMPI RETURNDATASIZE PUSH1 0x0 DUP1 RETURNDATACOPY RETURNDATASIZE PUSH1 0x0 REVERT JUMPDEST POP POP POP POP PUSH1 0x40 MLOAD RETURNDATASIZE PUSH1 0x1F NOT PUSH1 0x1F DUP3 ADD AND DUP3 ADD DUP1 PUSH1 0x40 MSTORE POP DUP2 ADD SWAP1 PUSH2 0x120 SWAP2 SWAP1 PUSH2 0x449 JUMP JUMPDEST SWAP1 POP PUSH1 0x0 PUSH1 0x1 PUSH1 0x0 SWAP1 SLOAD SWAP1 PUSH2 0x100 EXP SWAP1 DIV PUSH20 0xFFFFFFFFFFFFFFFFFFFFFFFFFFFFFFFFFFFFFFFF AND PUSH20 0xFFFFFFFFFFFFFFFFFFFFFFFFFFFFFFFFFFFFFFFF AND PUSH4 0xE6A1E888 PUSH1 0x2 PUSH1 0x0 SWAP1 SLOAD SWAP1 PUSH2 0x100 EXP SWAP1 DIV PUSH20 0xFFFFFFFFFFFFFFFFFFFFFFFFFFFFFFFFFFFFFFFF AND DUP8 DUP6 PUSH1 0x40 MLOAD DUP5 PUSH4 0xFFFFFFFF AND PUSH1 0xE0 SHL DUP2 MSTORE PUSH1 0x4 ADD PUSH2 0x1A5 SWAP4 SWAP3 SWAP2 SWAP1 PUSH2 0x4D5 JUMP JUMPDEST PUSH1 0x80 PUSH1 0x40 MLOAD DUP1 DUP4 SUB DUP2 DUP7 GAS STATICCALL ISZERO DUP1 ISZERO PUSH2 0x1C2 JUMPI RETURNDATASIZE PUSH1 0x0 DUP1 RETURNDATACOPY RETURNDATASIZE PUSH1 0x0 REVERT JUMPDEST POP POP POP POP PUSH1 0x40 MLOAD RETURNDATASIZE PUSH1 0x1F NOT PUSH1 0x1F DUP3 ADD AND DUP3 ADD DUP1 PUSH1 0x40 MSTORE POP DUP2 ADD SWAP1 PUSH2 0x1E6 SWAP2 SWAP1 PUSH2 0x55A JUMP JUMPDEST POP POP SWAP2 POP POP PUSH1 0x0 PUSH1 0x3 PUSH1 0x0 SWAP1 SLOAD SWAP1 PUSH2 0x100 EXP SWAP1 DIV PUSH20 0xFFFFFFFFFFFFFFFFFFFFFFFFFFFFFFFFFFFFFFFF AND PUSH20 0xFFFFFFFFFFFFFFFFFFFFFFFFFFFFFFFFFFFFFFFF AND PUSH4 0x6352211E DUP7 PUSH1 0x40 MLOAD DUP3 PUSH4 0xFFFFFFFF AND PUSH1 0xE0 SHL DUP2 MSTORE PUSH1 0x4 ADD PUSH2 0x248 SWAP2 SWAP1 PUSH2 0x3E1 JUMP JUMPDEST PUSH1 0x20 PUSH1 0x40 MLOAD DUP1 DUP4 SUB DUP2 DUP7 GAS STATICCALL ISZERO DUP1 ISZERO PUSH2 0x265 JUMPI RETURNDATASIZE PUSH1 0x0 DUP1 RETURNDATACOPY RETURNDATASIZE PUSH1 0x0 REVERT JUMPDEST POP POP POP POP PUSH1 0x40 MLOAD RETURNDATASIZE PUSH1 0x1F NOT PUSH1 0x1F DUP3 ADD AND DUP3 ADD DUP1 PUSH1 0x40 MSTORE POP DUP2 ADD SWAP1 PUSH2 0x289 SWAP2 SWAP1 PUSH2 0x449 JUMP JUMPDEST SWAP1 POP PUSH1 0x4 PUSH1 0x14 SWAP1 SLOAD SWAP1 PUSH2 0x100 EXP SWAP1 DIV PUSH1 0xB SIGNEXTEND PUSH1 0xB SIGNEXTEND DUP3 PUSH1 0xB SIGNEXTEND SLT ISZERO DUP1 PUSH2 0x2DA JUMPI POP DUP1 PUSH20 0xFFFFFFFFFFFFFFFFFFFFFFFFFFFFFFFFFFFFFFFF AND DUP7 PUSH20 0xFFFFFFFFFFFFFFFFFFFFFFFFFFFFFFFFFFFFFFFF AND EQ JUMPDEST ISZERO PUSH2 0x2EB JUMPI PUSH1 0x1 SWAP4 POP POP POP POP PUSH2 0x2F3 JUMP JUMPDEST PUSH1 0x0 SWAP4 POP POP POP POP JUMPDEST SWAP3 SWAP2 POP POP JUMP JUMPDEST PUSH1 0x0 DUP1 REVERT JUMPDEST PUSH1 0x0 PUSH20 0xFFFFFFFFFFFFFFFFFFFFFFFFFFFFFFFFFFFFFFFF DUP3 AND SWAP1 POP SWAP2 SWAP1 POP JUMP JUMPDEST PUSH1 0x0 PUSH2 0x329 DUP3 PUSH2 0x2FE JUMP JUMPDEST SWAP1 POP SWAP2 SWAP1 POP JUMP JUMPDEST PUSH2 0x339 DUP2 PUSH2 0x31E JUMP JUMPDEST DUP2 EQ PUSH2 0x344 JUMPI PUSH1 0x0 DUP1 REVERT JUMPDEST POP JUMP JUMPDEST PUSH1 0x0 DUP2 CALLDATALOAD SWAP1 POP PUSH2 0x356 DUP2 PUSH2 0x330 JUMP JUMPDEST SWAP3 SWAP2 POP POP JUMP JUMPDEST PUSH1 0x0 DUP2 SWAP1 POP SWAP2 SWAP1 POP JUMP JUMPDEST PUSH2 0x36F DUP2 PUSH2 0x35C JUMP JUMPDEST DUP2 EQ PUSH2 0x37A JUMPI PUSH1 0x0 DUP1 REVERT JUMPDEST POP JUMP JUMPDEST PUSH1 0x0 DUP2 CALLDATALOAD SWAP1 POP PUSH2 0x38C DUP2 PUSH2 0x366 JUMP JUMPDEST SWAP3 SWAP2 POP POP JUMP JUMPDEST PUSH1 0x0 DUP1 PUSH1 0x40 DUP4 DUP6 SUB SLT ISZERO PUSH2 0x3A9 JUMPI PUSH2 0x3A8 PUSH2 0x2F9 JUMP JUMPDEST JUMPDEST PUSH1 0x0 PUSH2 0x3B7 DUP6 DUP3 DUP7 ADD PUSH2 0x347 JUMP JUMPDEST SWAP3 POP POP PUSH1 0x20 PUSH2 0x3C8 DUP6 DUP3 DUP7 ADD PUSH2 0x37D JUMP JUMPDEST SWAP2 POP POP SWAP3 POP SWAP3 SWAP1 POP JUMP JUMPDEST PUSH2 0x3DB DUP2 PUSH2 0x35C JUMP JUMPDEST DUP3 MSTORE POP POP JUMP JUMPDEST PUSH1 0x0 PUSH1 0x20 DUP3 ADD SWAP1 POP PUSH2 0x3F6 PUSH1 0x0 DUP4 ADD DUP5 PUSH2 0x3D2 JUMP JUMPDEST SWAP3 SWAP2 POP POP JUMP JUMPDEST PUSH2 0x405 DUP2 PUSH2 0x31E JUMP JUMPDEST DUP3 MSTORE POP POP JUMP JUMPDEST PUSH1 0x0 PUSH1 0x40 DUP3 ADD SWAP1 POP PUSH2 0x420 PUSH1 0x0 DUP4 ADD DUP6 PUSH2 0x3FC JUMP JUMPDEST PUSH2 0x42D PUSH1 0x20 DUP4 ADD DUP5 PUSH2 0x3D2 JUMP JUMPDEST SWAP4 SWAP3 POP POP POP JUMP JUMPDEST PUSH1 0x0 DUP2 MLOAD SWAP1 POP PUSH2 0x443 DUP2 PUSH2 0x330 JUMP JUMPDEST SWAP3 SWAP2 POP POP JUMP JUMPDEST PUSH1 0x0 PUSH1 0x20 DUP3 DUP5 SUB SLT ISZERO PUSH2 0x45F JUMPI PUSH2 0x45E PUSH2 0x2F9 JUMP JUMPDEST JUMPDEST PUSH1 0x0 PUSH2 0x46D DUP5 DUP3 DUP6 ADD PUSH2 0x434 JUMP JUMPDEST SWAP2 POP POP SWAP3 SWAP2 POP POP JUMP JUMPDEST PUSH1 0x0 DUP2 SWAP1 POP SWAP2 SWAP1 POP JUMP JUMPDEST PUSH1 0x0 PUSH2 0x49B PUSH2 0x496 PUSH2 0x491 DUP5 PUSH2 0x2FE JUMP JUMPDEST PUSH2 0x476 JUMP JUMPDEST PUSH2 0x2FE JUMP JUMPDEST SWAP1 POP SWAP2 SWAP1 POP JUMP JUMPDEST PUSH1 0x0 PUSH2 0x4AD DUP3 PUSH2 0x480 JUMP JUMPDEST SWAP1 POP SWAP2 SWAP1 POP JUMP JUMPDEST PUSH1 0x0 PUSH2 0x4BF DUP3 PUSH2 0x4A2 JUMP JUMPDEST SWAP1 POP SWAP2 SWAP1 POP JUMP JUMPDEST PUSH2 0x4CF DUP2 PUSH2 0x4B4 JUMP JUMPDEST DUP3 MSTORE POP POP JUMP JUMPDEST PUSH1 0x0 PUSH1 0x60 DUP3 ADD SWAP1 POP PUSH2 0x4EA PUSH1 0x0 DUP4 ADD DUP7 PUSH2 0x4C6 JUMP JUMPDEST PUSH2 0x4F7 PUSH1 0x20 DUP4 ADD DUP6 PUSH2 0x3FC JUMP JUMPDEST PUSH2 0x504 PUSH1 0x40 DUP4 ADD DUP5 PUSH2 0x3FC JUMP JUMPDEST SWAP5 SWAP4 POP POP POP POP JUMP JUMPDEST PUSH1 0x0 DUP2 MLOAD SWAP1 POP PUSH2 0x51B DUP2 PUSH2 0x366 JUMP JUMPDEST SWAP3 SWAP2 POP POP JUMP JUMPDEST PUSH1 0x0 DUP2 PUSH1 0xB SIGNEXTEND SWAP1 POP SWAP2 SWAP1 POP JUMP JUMPDEST PUSH2 0x537 DUP2 PUSH2 0x521 JUMP JUMPDEST DUP2 EQ PUSH2 0x542 JUMPI PUSH1 0x0 DUP1 REVERT JUMPDEST POP JUMP JUMPDEST PUSH1 0x0 DUP2 MLOAD SWAP1 POP PUSH2 0x554 DUP2 PUSH2 0x52E JUMP JUMPDEST SWAP3 SWAP2 POP POP JUMP JUMPDEST PUSH1 0x0 DUP1 PUSH1 0x0 DUP1 PUSH1 0x80 DUP6 DUP8 SUB SLT ISZERO PUSH2 0x574 JUMPI PUSH2 0x573 PUSH2 0x2F9 JUMP JUMPDEST JUMPDEST PUSH1 0x0 PUSH2 0x582 DUP8 DUP3 DUP9 ADD PUSH2 0x50C JUMP JUMPDEST SWAP5 POP POP PUSH1 0x20 PUSH2 0x593 DUP8 DUP3 DUP9 ADD PUSH2 0x545 JUMP JUMPDEST SWAP4 POP POP PUSH1 0x40 PUSH2 0x5A4 DUP8 DUP3 DUP9 ADD PUSH2 0x50C JUMP JUMPDEST SWAP3 POP POP PUSH1 0x60 PUSH2 0x5B5 DUP8 DUP3 DUP9 ADD PUSH2 0x50C JUMP JUMPDEST SWAP2 POP POP SWAP3 SWAP6 SWAP2 SWAP5 POP SWAP3 POP JUMP INVALID LOG2 PUSH5 0x6970667358 0x22 SLT KECCAK256 MLOAD 0x5C PUSH18 0x6C7A89891CD046B4D48119E8A8EFD946123D EXTCODECOPY SWAP11 0x4E 0xCF 0xD1 CALLDATALOAD 0xC3 SWAP5 0xCC 0xEC MULMOD PUSH5 0x736F6C6343 STOP ADDMOD SLT STOP CALLER "
				},
				"gasEstimates": {
					"creation": {
						"codeDepositCost": "305400",
						"executionCost": "148136",
						"totalCost": "453536"
					},
					"external": {
						"balanceOf(address,uint256)": "infinite"
					},
					"internal": {
						"parseInt(string memory)": "infinite",
						"parseInt(string memory,uint256)": "infinite"
					}
				},
				"methodIdentifiers": {
					"balanceOf(address,uint256)": "00fdd58e"
				}
			},
			"storageLayout": {
				"storage": [
					{
						"astId": 3199,
						"contract": "premiere/Premiere_v2.sol:Premiere",
						"label": "lensHubAddress",
						"offset": 0,
						"slot": "0",
						"type": "t_address"
					},
					{
						"astId": 3205,
						"contract": "premiere/Premiere_v2.sol:Premiere",
						"label": "cfa",
						"offset": 0,
						"slot": "1",
						"type": "t_contract(IConstantFlowAgreementV1)805"
					},
					{
						"astId": 3211,
						"contract": "premiere/Premiere_v2.sol:Premiere",
						"label": "superToken",
						"offset": 0,
						"slot": "2",
						"type": "t_contract(ISuperfluidToken)3123"
					},
					{
						"astId": 3217,
						"contract": "premiere/Premiere_v2.sol:Premiere",
						"label": "lensHub",
						"offset": 0,
						"slot": "3",
						"type": "t_contract(IERC721)193"
					},
					{
						"astId": 3223,
						"contract": "premiere/Premiere_v2.sol:Premiere",
						"label": "tbaRegistry",
						"offset": 0,
						"slot": "4",
						"type": "t_contract(IRegistry)3186"
					},
					{
						"astId": 3226,
						"contract": "premiere/Premiere_v2.sol:Premiere",
						"label": "minFlowRate",
						"offset": 20,
						"slot": "4",
						"type": "t_int96"
					}
				],
				"types": {
					"t_address": {
						"encoding": "inplace",
						"label": "address",
						"numberOfBytes": "20"
					},
					"t_contract(IConstantFlowAgreementV1)805": {
						"encoding": "inplace",
						"label": "contract IConstantFlowAgreementV1",
						"numberOfBytes": "20"
					},
					"t_contract(IERC721)193": {
						"encoding": "inplace",
						"label": "contract IERC721",
						"numberOfBytes": "20"
					},
					"t_contract(IRegistry)3186": {
						"encoding": "inplace",
						"label": "contract IRegistry",
						"numberOfBytes": "20"
					},
					"t_contract(ISuperfluidToken)3123": {
						"encoding": "inplace",
						"label": "contract ISuperfluidToken",
						"numberOfBytes": "20"
					},
					"t_int96": {
						"encoding": "inplace",
						"label": "int96",
						"numberOfBytes": "12"
					}
				}
			},
			"userdoc": {
				"kind": "user",
				"methods": {},
				"version": 1
			}
		}
	}
}